:020000040800F2
:1000000044020020C920000819210008C920000866
:100010001F2100081F2100081F2100080000000008
:100020000000000000000000000000001F21000888
:100030001F2100081F2100081F210008252100089A
:100040001F2100081F2100081F2100081F21000890
:100050001F2100081F2100081F2100081F21000880
:100060001F2100081F2100081F2100081F21000870
:100070001F2100081F2100081F2100081F21000860
:100080001F2100081F2100081F2100081F21000850
:100090001F2100081F2100081F2100081F21000840
:1000A0001F2100081F2100081F2100081F21000830
:1000B0001F2100081F2100081F2100081F21000820
:1000C0001F2100081F2100081F2100081F21000810
:1000D0001F2100081F2100081F2100081F21000800
:1000E0001F2100081F2100081F2100081F210008F0
:1000F0001F2100081F2100081F2100081F210008E0
:100100001F2100081F2100081F2100081F210008CF
:100110001F2100081F2100081F2100081F210008BF
:100120001F2100081F2100081F2100081F210008AF
:100130001F2100081F2100081F2100081F2100089F
:100140001F2100081F2100081F2100081F2100088F
:100150001F2100081F2100081F2100081F2100087F
:100160001F2100081F2100081F2100081F2100086F
:100170001F2100081F2100081F2100081F2100085F
:100180001F2100081F21000880B400AF00BF00BF7E
:10019000BD465DF8047B704780B400AF30BF00BF40
:1001A000BD465DF8047B704780B400AF20BF00BF40
:1001B000BD465DF8047B704780B400AF40BF00BF10
:1001C000BD465DF8047B704780B400AFBFF36F8F0E
:1001D00000BFBD465DF8047B704780B400AFBFF33D
:1001E0004F8F00BFBD465DF8047B704780B400AF01
:1001F000BFF35F8F00BFBD465DF8047B704780B4DE
:1002000085B000AF78607B681BBAFB60FB6818465E
:100210001437BD465DF8047B704780B485B000AFED
:1002200078607B685BBAFB60FB6818461437BD4694
:100230005DF8047B704780B485B000AF78607B6860
:10024000DBBAFB60FB6818461437BD465DF8047BDB
:10025000704780B485B000AF78607B6893FAA3F3F1
:10026000FB60FB6818461437BD465DF8047B704799
:1002700080B485B000AF78607B68D3E84F3FFB73F4
:10028000FB7B18461437BD465DF8047B704780B48D
:1002900085B000AF78607B68D3E85F3FFB81FB8966
:1002A00018461437BD465DF8047B704780B485B0AE
:1002B00000AF78607B6853E8003FFB60FB6818463E
:1002C0001437BD465DF8047B704780B485B000AF3D
:1002D000786039603B687A6843E80023FB60FB681C
:1002E00018461437BD465DF8047B704780B400AFF4
:1002F000BFF32F8F00BFBD465DF8047B704780B40D
:1003000085B000AF78607B68B3FA83F3FB73FB7B47
:1003100018461437BD465DF8047B704780B400AFC3
:1003200062B600BFBD465DF8047B704780B400AF85
:1003300072B600BFBD465DF8047B704780B483B0E1
:1003400000AFEFF314837B607B6818460C37BD4623
:100350005DF8047B704780B483B000AF78607B6841
:1003600083F3148800BF0C37BD465DF8047B7047EB
:1003700080B483B000AFEFF305837B607B681846E1
:100380000C37BD465DF8047B704780B483B000AF86
:10039000EFF300837B607B6818460C37BD465DF841
:1003A000047B704780B483B000AFEFF303837B60BE
:1003B0007B6818460C37BD465DF8047B704790B4E7
:1003C00000AFEFF309831C4623461846BD4690BC98
:1003D000704780B483B000AF78607B6883F309888E
:1003E00000BF0C37BD465DF8047B704790B400AF8A
:1003F000EFF308831C4623461846BD4690BC704761
:1004000080B483B000AF78607B6883F3088800BF56
:100410000C37BD465DF8047B704780B483B000AFF5
:10042000EFF310837B607B6818460C37BD465DF8A0
:10043000047B704780B483B000AF78607B6883F33F
:10044000108800BF0C37BD465DF8047B704780B450
:1004500000AF61B600BFBD465DF8047B704780B455
:1004600000AF71B600BFBD465DF8047B704780B435
:1004700083B000AFEFF312837B607B6818460C37C4
:10048000BD465DF8047B704780B483B000AF7860F0
:100490007B6883F3118800BF0C37BD465DF8047B91
:1004A000704780B483B000AFEFF313837B607B6849
:1004B00018460C37BD465DF8047B704780B483B0A6
:1004C00000AF78607B6883F3138800BF0C37BD46AC
:1004D0005DF8047B704780B483B000AFF1EE103A52
:1004E0007B607B6818460C37BD465DF8047B70471F
:1004F00080B483B000AF78607B68E1EE103A00BF53
:100500000C37BD465DF8047B704780B485B000AF02
:10051000786039607B683A6883FA02F3FB60FB68B5
:1005200018461437BD465DF8047B704780B485B02B
:1005300000AF786039607B683A6883FA12F3FB6039
:10054000FB6818461437BD465DF8047B704780B4DD
:1005500085B000AF786039607B683A6883FA22F32F
:10056000FB60FB6818461437BD465DF8047B704796
:1005700080B485B000AF786039607B683A6883FAF0
:1005800042F3FB60FB6818461437BD465DF8047BF8
:10059000704780B485B000AF786039607B683A6896
:1005A00083FA52F3FB60FB6818461437BD465DF8CA
:1005B000047B704780B485B000AF786039607B6899
:1005C0003A6883FA62F3FB60FB6818461437BD464D
:1005D0005DF8047B704780B485B000AF7860396007
:1005E0007B683A68C3FA02F3FB60FB68184614376D
:1005F000BD465DF8047B704780B485B000AF78607D
:1006000039607B683A68C3FA12F3FB60FB681846EE
:100610001437BD465DF8047B704780B485B000AFE9
:10062000786039607B683A68C3FA22F3FB60FB6844
:1006300018461437BD465DF8047B704780B485B01A
:1006400000AF786039607B683A68C3FA42F3FB60B8
:10065000FB6818461437BD465DF8047B704780B4CC
:1006600085B000AF786039607B683A68C3FA52F3AE
:10067000FB60FB6818461437BD465DF8047B704785
:1006800080B485B000AF786039607B683A68C3FA9F
:1006900062F3FB60FB6818461437BD465DF8047BC7
:1006A000704780B485B000AF786039607B683A6885
:1006B00093FA02F3FB60FB6818461437BD465DF8F9
:1006C000047B704780B485B000AF786039607B6888
:1006D0003A6893FA12F3FB60FB6818461437BD467C
:1006E0005DF8047B704780B485B000AF78603960F6
:1006F0007B683A6893FA22F3FB60FB68184614376C
:10070000BD465DF8047B704780B485B000AF78606B
:1007100039607B683A6893FA42F3FB60FB681846DD
:100720001437BD465DF8047B704780B485B000AFD8
:10073000786039607B683A6893FA52F3FB60FB6833
:1007400018461437BD465DF8047B704780B485B009
:1007500000AF786039607B683A6893FA62F3FB60B7
:10076000FB6818461437BD465DF8047B704780B4BB
:1007700085B000AF786039607B683A68D3FA02F3DD
:10078000FB60FB6818461437BD465DF8047B704774
:1007900080B485B000AF786039607B683A68D3FA7E
:1007A00012F3FB60FB6818461437BD465DF8047B06
:1007B000704780B485B000AF786039607B683A6874
:1007C000D3FA22F3FB60FB6818461437BD465DF888
:1007D000047B704780B485B000AF786039607B6877
:1007E0003A68D3FA42F3FB60FB6818461437BD46FB
:1007F0005DF8047B704780B485B000AF78603960E5
:100800007B683A68D3FA52F3FB60FB6818461437EA
:10081000BD465DF8047B704780B485B000AF78605A
:1008200039607B683A68D3FA62F3FB60FB6818466C
:100830001437BD465DF8047B704780B485B000AFC7
:10084000786039607B683A68A3FA02F3FB60FB6862
:1008500018461437BD465DF8047B704780B485B0F8
:1008600000AF786039607B683A68A3FA12F3FB60E6
:10087000FB6818461437BD465DF8047B704780B4AA
:1008800085B000AF786039607B683A68A3FA22F3DC
:10089000FB60FB6818461437BD465DF8047B704763
:1008A00080B485B000AF786039607B683A68A3FA9D
:1008B00042F3FB60FB6818461437BD465DF8047BC5
:1008C000704780B485B000AF786039607B683A6863
:1008D000A3FA52F3FB60FB6818461437BD465DF877
:1008E000047B704780B485B000AF786039607B6866
:1008F0003A68A3FA62F3FB60FB6818461437BD46FA
:100900005DF8047B704780B485B000AF78603960D3
:100910007B683A68E3FA02F3FB60FB681846143719
:10092000BD465DF8047B704780B485B000AF786049
:1009300039607B683A68E3FA12F3FB60FB6818469B
:100940001437BD465DF8047B704780B485B000AFB6
:10095000786039607B683A68E3FA22F3FB60FB68F1
:1009600018461437BD465DF8047B704780B485B0E7
:1009700000AF786039607B683A68E3FA42F3FB6065
:10098000FB6818461437BD465DF8047B704780B499
:1009900085B000AF786039607B683A68E3FA52F35B
:1009A000FB60FB6818461437BD465DF8047B704752
:1009B00080B485B000AF786039607B683A68E3FA4C
:1009C00062F3FB60FB6818461437BD465DF8047B94
:1009D000704780B485B000AF786039607B683A6852
:1009E00073FB02F3FB60FB6818461437BD465DF8E5
:1009F000047B704780B487B000AFF860B9607A605C
:100A0000FB68BA68796873FB02137B617B691846DF
:100A10001C37BD465DF8047B704780B485B000AFDD
:100A200078607B683FFA83F3FB60FB6818461437F5
:100A3000BD465DF8047B704780B485B000AF786038
:100A400039607B683A6833FA82F3FB60FB681846CA
:100A50001437BD465DF8047B704780B485B000AFA5
:100A600078607B682FFA83F3FB60FB6818461437C5
:100A7000BD465DF8047B704780B485B000AF7860F8
:100A800039607B683A6823FA82F3FB60FB6818469A
:100A90001437BD465DF8047B704780B485B000AF65
:100AA000786039607B683A6823FB02F3FB60FB687F
:100AB00018461437BD465DF8047B704780B485B096
:100AC00000AF786039607B683A6823FB12F3FB6003
:100AD000FB6818461437BD465DF8047B704780B448
:100AE00087B000AFF860B9607A60FB68BA6879686F
:100AF00023FB02137B617B6918461C37BD465DF8FA
:100B0000047B704780B487B000AFF860B9607A604A
:100B1000FB68BA68796823FB12137B617B6918460E
:100B20001C37BD465DF8047B704780B485B000AFCC
:100B3000786039607B683A6843FB02F3FB60FB68CE
:100B400018461437BD465DF8047B704780B485B005
:100B500000AF786039607B683A6843FB12F3FB6052
:100B6000FB6818461437BD465DF8047B704780B4B7
:100B700087B000AFF860B9607A60FB68BA687968DE
:100B800043FB02137B617B6918461C37BD465DF849
:100B9000047B704780B487B000AFF860B9607A60BA
:100BA000FB68BA68796843FB12137B617B6918465E
:100BB0001C37BD465DF8047B704780B485B000AF3C
:100BC000786039607B683A68A3FA82F3FB60FB685F
:100BD00018461437BD465DF8047B704780B485B075
:100BE00000AF786039607B683A6882FA83F3FB6013
:100BF000FB6818461437BD465DF8047B704780B427
:100C000085B000AF786039607B683A6882FAA3F3F8
:100C1000FB60FB6818461437BD465DF8047B7047DF
:100C200080B485B000AF78607B6803F00703FB6099
:100C30000C4BDB68BB60BA684FF6FF031340BB6028
:100C4000FB681A02BB68134343F0BF6343F40033ED
:100C5000BB60044ABB68D36000BF1437BD465DF873
:100C6000047B704700ED00E080B400AF044BDB680C
:100C70001B0A03F007031846BD465DF8047B704766
:100C800000ED00E080B483B000AF0346FB71FB7958
:100C900003F01F03012202FA03F1064A97F9073015
:100CA0005B0942F8231000BF0C37BD465DF8047B9A
:100CB000704700BF00E100E080B483B000AF03469E
:100CC000FB71FB7903F01F03012202FA03F1064ACC
:100CD00097F907305B09203342F8231000BF0C3727
:100CE000BD465DF8047B704700E100E080B483B04E
:100CF00000AF0346FB710C4A97F907305B0940339C
:100D000052F82330FA7902F01F02012101FA02F2AF
:100D10001340002B01D0012300E0002318460C37BC
:100D2000BD465DF8047B704700E100E080B483B00D
:100D300000AF0346FB71FB7903F01F03012202FAA7
:100D400003F1064A97F907305B09403342F8231054
:100D500000BF0C37BD465DF8047B704700E100E042
:100D600080B483B000AF0346FB71FB7903F01F032F
:100D7000012202FA03F1064A97F907305B09603352
:100D800042F8231000BF0C37BD465DF8047B704766
:100D900000E100E080B483B000AF0346FB710C4A71
:100DA00097F907305B09803352F82330FA7902F063
:100DB0001F02012101FA02F21340002B01D001238E
:100DC00000E0002318460C37BD465DF8047B7047F1
:100DD00000E100E080B483B000AF03463960FB71EE
:100DE00097F90730002B0BDA3B68DAB20C49FB7934
:100DF00003F00F03043B1201D2B20B441A7609E050
:100E00003B68DAB2074997F907301201D2B20B44B6
:100E100083F8002300BF0C37BD465DF8047B7047A4
:100E200000ED00E000E100E080B483B000AF0346D5
:100E3000FB7197F90730002B0ADA0D4AFB7903F0B2
:100E40000F03043B13441B7EDBB21B09DBB208E03B
:100E5000084A97F90730134493F80033DBB21B09B3
:100E6000DBB218460C37BD465DF8047B704700BF07
:100E700000ED00E000E100E080B489B000AFF86070
:100E8000B9607A60FB6803F00703FB61FB69C3F19B
:100E90000703042B28BF0423BB61FB690433062B23
:100EA00002D9FB69033B00E000237B610122BB699F
:100EB00002FA03F3013B1A46BB681A407B699A4069
:100EC00001217B6901FA03F3013B19467B680B4062
:100ED000134318462437BD465DF8047B704780B441
:100EE00089B000AFF860B9607A603B60BB6803F01E
:100EF0000703FB61FB69C3F10703042B28BF04232D
:100F0000BB61FB690433062B02D9FB69033B00E09C
:100F100000237B61FA687B6922FA03F30121BA6935
:100F200001FA02F2013A1A407B681A6001227B69D9
:100F300002FA03F3013B1A46FB681A403B681A6049
:100F400000BF2437BD465DF8047B704780B500AF15
:100F5000FFF743F9054BDB6803F4E0620349044BF8
:100F60001343CB60FFF739F9FEE700BF00ED00E067
:100F70000400FA0580B582B000AF78607B68B3F1F9
:100F8000807F01D3012311E07B6823F07F43094A6E
:100F9000013B53600F214FF0FF30FFF71BFF054B64
:100FA00000229A60034B07221A6000231846083774
:100FB000BD4680BD10E000E080B483B000AF786033
:100FC000134BDB6803F08073002B1AD04FF06043A3
:100FD000D3F8803E03F00103002B12D04FF06043A2
:100FE000D3F8003E03F00103002B0AD000BF4FF0FE
:100FF00060431B68002BFAD04FF060437A68D2B28E
:101000001A707B6818460C37BD465DF8047B704744
:10101000F0ED00E080B483B000AF4FF0FF337B60B1
:10102000084B1B68084A934205D0064B1B687B603F
:10103000044B054A1A607B6818460C37BD465DF8BC
:10104000047B704748000020A55AA55A80B400AF21
:10105000064B1B68064A934201D1002300E001239E
:101060001846BD465DF8047B704700BF480000206D
:10107000A55AA55A80B584B000AF0023FB732C4B52
:10108000DB789BB21B029AB2294B9B789BB213442C
:101090009AB2284B9A80264B5B799BB21B029AB27C
:1010A000234B1B799BB213449AB2224BDA8022481D
:1010B00003F0E4FA204B5B68204AA2FB03239B0960
:1010C0001846FFF757FF07F0D6FD1A49184800F0F9
:1010D0003DF80121082003F0DDFB01233B720023D2
:1010E000BB724FF450437B600123FB7200237B7281
:1010F0003B1D1946124804F04FFE4FF47A7001F080
:1011000039F8FB7B5A1CFA731A460E4B33F812302F
:1011100019460B4804F09EFFFA7B0B4BA3FB02130E
:1011200059080B465B000B44D31AFB73E5E700BF7D
:101130001CA600085C0000204C000020D34D62106B
:10114000000C024014A60008ABAAAAAA80B586B07B
:1011500000AF786039607B680833FB6000237B61F7
:1011600030E03B681B8819464E2007F053FE3B6871
:1011700002331A887B699BB213449BB219464F20F5
:1011800007F048FEFB681B889BB21946222007F037
:1011900041FE00233B610BE0FB681B889BB21846B5
:1011A00007F071FEFB680233FB603B6901333B6172
:1011B0003B6804331B881A463B699342ECD37B6936
:1011C00001337B613B6806331B881A467B69934277
:1011D000C7D300BF00BF1837BD4680BD80B400AF85
:1011E00000BF00BFBD465DF8047B704780B400AF10
:1011F00030BF00BFBD465DF8047B704780B400AFD0
:1012000020BF00BFBD465DF8047B704780B400AFCF
:1012100040BF00BFBD465DF8047B704780B400AF9F
:10122000BFF36F8F00BFBD465DF8047B704780B48D
:1012300000AFBFF34F8F00BFBD465DF8047B704722
:1012400080B400AFBFF35F8F00BFBD465DF8047B85
:10125000704780B485B000AF78607B681BBAFB60D4
:10126000FB6818461437BD465DF8047B704780B4B0
:1012700085B000AF78607B685BBAFB60FB6818469E
:101280001437BD465DF8047B704780B485B000AF6D
:1012900078607B68DBBAFB60FB6818461437BD4694
:1012A0005DF8047B704780B485B000AF78607B68E0
:1012B00093FAA3F3FB60FB6818461437BD465DF84C
:1012C000047B704780B485B000AF78607B68D3E85A
:1012D0004F3FFB73FB7B18461437BD465DF8047B1C
:1012E000704780B485B000AF78607B68D3E85F3F1B
:1012F000FB81FB8918461437BD465DF8047B7047B7
:1013000080B485B000AF78607B6853E8003FFB6035
:10131000FB6818461437BD465DF8047B704780B4FF
:1013200085B000AF786039603B687A6843E8002395
:10133000FB60FB6818461437BD465DF8047B7047B8
:1013400080B400AFBFF32F8F00BFBD465DF8047BB4
:10135000704780B485B000AF78607B68B3FA83F3E0
:10136000FB73FB7B18461437BD465DF8047B704762
:1013700080B400AF62B600BFBD465DF8047B704725
:1013800080B400AF72B600BFBD465DF8047B704705
:1013900080B483B000AFEFF314837B607B681846A2
:1013A0000C37BD465DF8047B704780B483B000AF56
:1013B00078607B6883F3148800BF0C37BD465DF806
:1013C000047B704780B483B000AFEFF305837B608C
:1013D0007B6818460C37BD465DF8047B704780B4C7
:1013E00083B000AFEFF300837B607B6818460C3757
:1013F000BD465DF8047B704780B483B000AFEFF367
:1014000003837B607B6818460C37BD465DF8047B20
:10141000704790B400AFEFF309831C46234618468B
:10142000BD4690BC704780B483B000AF78607B68E5
:1014300083F3098800BF0C37BD465DF8047B704715
:1014400090B400AFEFF308831C4623461846BD4610
:1014500090BC704780B483B000AF78607B6883F342
:10146000088800BF0C37BD465DF8047B704780B428
:1014700083B000AFEFF310837B607B6818460C37B6
:10148000BD465DF8047B704780B483B000AF7860E0
:101490007B6883F3108800BF0C37BD465DF8047B82
:1014A000704780B400AF61B600BFBD465DF8047BF5
:1014B000704780B400AF71B600BFBD465DF8047BD5
:1014C000704780B483B000AFEFF312837B607B681A
:1014D00018460C37BD465DF8047B704780B483B076
:1014E00000AF78607B6883F3118800BF0C37BD467E
:1014F0005DF8047B704780B483B000AFEFF31383D3
:101500007B607B6818460C37BD465DF8047B7047EE
:1015100080B483B000AF78607B6883F3138800BF2A
:101520000C37BD465DF8047B704780B483B000AFD4
:10153000F1EE103A7B607B6818460C37BD465DF8CB
:10154000047B704780B483B000AF78607B68E1EEC5
:10155000103A00BF0C37BD465DF8047B704780B47D
:1015600085B000AF786039607B683A6883FA02F32F
:10157000FB60FB6818461437BD465DF8047B704776
:1015800080B485B000AF786039607B683A6883FAD0
:1015900012F3FB60FB6818461437BD465DF8047B08
:1015A000704780B485B000AF786039607B683A6876
:1015B00083FA22F3FB60FB6818461437BD465DF8DA
:1015C000047B704780B485B000AF786039607B6879
:1015D0003A6883FA42F3FB60FB6818461437BD464D
:1015E0005DF8047B704780B485B000AF78603960E7
:1015F0007B683A6883FA52F3FB60FB68184614373D
:10160000BD465DF8047B704780B485B000AF78605C
:1016100039607B683A6883FA62F3FB60FB681846BE
:101620001437BD465DF8047B704780B485B000AFC9
:10163000786039607B683A68C3FA02F3FB60FB6844
:1016400018461437BD465DF8047B704780B485B0FA
:1016500000AF786039607B683A68C3FA12F3FB60C8
:10166000FB6818461437BD465DF8047B704780B4AC
:1016700085B000AF786039607B683A68C3FA22F3BE
:10168000FB60FB6818461437BD465DF8047B704765
:1016900080B485B000AF786039607B683A68C3FA7F
:1016A00042F3FB60FB6818461437BD465DF8047BC7
:1016B000704780B485B000AF786039607B683A6865
:1016C000C3FA52F3FB60FB6818461437BD465DF859
:1016D000047B704780B485B000AF786039607B6868
:1016E0003A68C3FA62F3FB60FB6818461437BD46DC
:1016F0005DF8047B704780B485B000AF78603960D6
:101700007B683A6893FA02F3FB60FB68184614376B
:10171000BD465DF8047B704780B485B000AF78604B
:1017200039607B683A6893FA12F3FB60FB681846ED
:101730001437BD465DF8047B704780B485B000AFB8
:10174000786039607B683A6893FA22F3FB60FB6843
:1017500018461437BD465DF8047B704780B485B0E9
:1017600000AF786039607B683A6893FA42F3FB60B7
:10177000FB6818461437BD465DF8047B704780B49B
:1017800085B000AF786039607B683A6893FA52F3AD
:10179000FB60FB6818461437BD465DF8047B704754
:1017A00080B485B000AF786039607B683A6893FA9E
:1017B00062F3FB60FB6818461437BD465DF8047B96
:1017C000704780B485B000AF786039607B683A6854
:1017D000D3FA02F3FB60FB6818461437BD465DF888
:1017E000047B704780B485B000AF786039607B6857
:1017F0003A68D3FA12F3FB60FB6818461437BD460B
:101800005DF8047B704780B485B000AF78603960C4
:101810007B683A68D3FA22F3FB60FB6818461437FA
:10182000BD465DF8047B704780B485B000AF78603A
:1018300039607B683A68D3FA42F3FB60FB6818466C
:101840001437BD465DF8047B704780B485B000AFA7
:10185000786039607B683A68D3FA52F3FB60FB68C2
:1018600018461437BD465DF8047B704780B485B0D8
:1018700000AF786039607B683A68D3FA62F3FB6046
:10188000FB6818461437BD465DF8047B704780B48A
:1018900085B000AF786039607B683A68A3FA02F3DC
:1018A000FB60FB6818461437BD465DF8047B704743
:1018B00080B485B000AF786039607B683A68A3FA7D
:1018C00012F3FB60FB6818461437BD465DF8047BD5
:1018D000704780B485B000AF786039607B683A6843
:1018E000A3FA22F3FB60FB6818461437BD465DF887
:1018F000047B704780B485B000AF786039607B6846
:101900003A68A3FA42F3FB60FB6818461437BD46F9
:101910005DF8047B704780B485B000AF78603960B3
:101920007B683A68A3FA52F3FB60FB6818461437E9
:10193000BD465DF8047B704780B485B000AF786029
:1019400039607B683A68A3FA62F3FB60FB6818466B
:101950001437BD465DF8047B704780B485B000AF96
:10196000786039607B683A68E3FA02F3FB60FB68F1
:1019700018461437BD465DF8047B704780B485B0C7
:1019800000AF786039607B683A68E3FA12F3FB6075
:10199000FB6818461437BD465DF8047B704780B479
:1019A00085B000AF786039607B683A68E3FA22F36B
:1019B000FB60FB6818461437BD465DF8047B704732
:1019C00080B485B000AF786039607B683A68E3FA2C
:1019D00042F3FB60FB6818461437BD465DF8047B94
:1019E000704780B485B000AF786039607B683A6832
:1019F000E3FA52F3FB60FB6818461437BD465DF806
:101A0000047B704780B485B000AF786039607B6834
:101A10003A68E3FA62F3FB60FB6818461437BD4688
:101A20005DF8047B704780B485B000AF78603960A2
:101A30007B683A6873FB02F3FB60FB681846143757
:101A4000BD465DF8047B704780B487B000AFF86096
:101A5000B9607A60FB68BA68796873FB02137B61CE
:101A60007B6918461C37BD465DF8047B704780B41F
:101A700085B000AF78607B683FFA83F3FB60FB685A
:101A800018461437BD465DF8047B704780B485B0B6
:101A900000AF786039607B683A6833FA82F3FB60A4
:101AA000FB6818461437BD465DF8047B704780B468
:101AB00085B000AF78607B682FFA83F3FB60FB682A
:101AC00018461437BD465DF8047B704780B485B076
:101AD00000AF786039607B683A6823FA82F3FB6074
:101AE000FB6818461437BD465DF8047B704780B428
:101AF00085B000AF786039607B683A6823FB02F3F9
:101B0000FB60FB6818461437BD465DF8047B7047E0
:101B100080B485B000AF786039607B683A6823FB99
:101B200012F3FB60FB6818461437BD465DF8047B72
:101B3000704780B487B000AFF860B9607A60FB6826
:101B4000BA68796823FB02137B617B6918461C37EE
:101B5000BD465DF8047B704780B487B000AFF86085
:101B6000B9607A60FB68BA68796823FB12137B61FD
:101B70007B6918461C37BD465DF8047B704780B40E
:101B800085B000AF786039607B683A6843FB02F348
:101B9000FB60FB6818461437BD465DF8047B704750
:101BA00080B485B000AF786039607B683A6843FBE9
:101BB00012F3FB60FB6818461437BD465DF8047BE2
:101BC000704780B487B000AFF860B9607A60FB6896
:101BD000BA68796843FB02137B617B6918461C373E
:101BE000BD465DF8047B704780B487B000AFF860F5
:101BF000B9607A60FB68BA68796843FB12137B614D
:101C00007B6918461C37BD465DF8047B704780B47D
:101C100085B000AF786039607B683A68A3FA82F3D8
:101C2000FB60FB6818461437BD465DF8047B7047BF
:101C300080B485B000AF786039607B683A6882FA1A
:101C400083F3FB60FB6818461437BD465DF8047BE0
:101C5000704780B485B000AF786039607B683A68BF
:101C600082FAA3F3FB60FB6818461437BD465DF8A3
:101C7000047B704780B485B000AF78607B6803F068
:101C80000703FB600C4BDB68BB60BA684FF6FF03D1
:101C90001340BB60FB681A02BB68134343F0BF6389
:101CA00043F40033BB60044ABB68D36000BF143701
:101CB000BD465DF8047B704700ED00E080B400AFE6
:101CC000044BDB681B0A03F007031846BD465DF8AA
:101CD000047B704700ED00E080B483B000AF0346A2
:101CE000FB71FB7903F01F03012202FA03F1064A9C
:101CF00097F907305B0942F8231000BF0C37BD4647
:101D00005DF8047B704700BF00E100E080B483B061
:101D100000AF0346FB71FB7903F01F03012202FAB7
:101D200003F1064A97F907305B09203342F8231084
:101D300000BF0C37BD465DF8047B704700E100E052
:101D400080B483B000AF0346FB710C4A97F90730AB
:101D50005B09403352F82330FA7902F01F02012167
:101D600001FA02F21340002B01D0012300E000230E
:101D700018460C37BD465DF8047B704700E100E073
:101D800080B483B000AF0346FB71FB7903F01F03FF
:101D9000012202FA03F1064A97F907305B09403342
:101DA00042F8231000BF0C37BD465DF8047B704736
:101DB00000E100E080B483B000AF0346FB71FB7923
:101DC00003F01F03012202FA03F1064A97F90730D4
:101DD0005B09603342F8231000BF0C37BD465DF845
:101DE000047B704700E100E080B483B000AF03469D
:101DF000FB710C4A97F907305B09803352F82330A6
:101E0000FA7902F01F02012101FA02F21340002BBD
:101E100001D0012300E0002318460C37BD465DF8D1
:101E2000047B704700E100E080B483B000AF03465C
:101E30003960FB7197F90730002B0BDA3B68DAB297
:101E40000C49FB7903F00F03043B1201D2B20B449F
:101E50001A7609E03B68DAB2074997F907301201B0
:101E6000D2B20B4483F8002300BF0C37BD465DF8A7
:101E7000047B704700ED00E000E100E080B483B037
:101E800000AF0346FB7197F90730002B0ADA0D4AC1
:101E9000FB7903F00F03043B13441B7EDBB21B09E9
:101EA000DBB208E0084A97F90730134493F800338F
:101EB000DBB21B09DBB218460C37BD465DF8047B6C
:101EC000704700BF00ED00E000E100E080B489B0A1
:101ED00000AFF860B9607A60FB6803F00703FB614C
:101EE000FB69C3F10703042B28BF0423BB61FB6913
:101EF0000433062B02D9FB69033B00E000237B611E
:101F00000122BB6902FA03F3013B1A46BB681A407F
:101F10007B699A4001217B6901FA03F3013B194671
:101F20007B680B40134318462437BD465DF8047B9D
:101F3000704780B489B000AFF860B9607A603B60E8
:101F4000BB6803F00703FB61FB69C3F10703042BC4
:101F500028BF0423BB61FB690433062B02D9FB694C
:101F6000033B00E000237B61FA687B6922FA03F3FC
:101F70000121BA6901FA02F2013A1A407B681A603B
:101F800001227B6902FA03F3013B1A46FB681A40FF
:101F90003B681A6000BF2437BD465DF8047B70477C
:101FA00080B500AFFFF743F9054BDB6803F4E0624F
:101FB0000349044B1343CB60FFF739F9FEE700BF39
:101FC00000ED00E00400FA0580B582B000AF786053
:101FD0007B68B3F1807F01D3012311E07B6823F09C
:101FE0007F43094A013B53600F214FF0FF30FFF759
:101FF0001BFF054B00229A60034B07221A60002347
:1020000018460837BD4680BD10E000E080B483B0BC
:1020100000AF7860134BDB6803F08073002B1AD09D
:102020004FF06043D3F8803E03F00103002B12D041
:102030004FF06043D3F8003E03F00103002B0AD0B9
:1020400000BF4FF060431B68002BFAD04FF0604395
:102050007A68D2B21A707B6818460C37BD465DF8B4
:10206000047B7047F0ED00E080B483B000AF4FF028
:10207000FF337B60084B1B68084A934205D0064B30
:102080001B687B60044B054A1A607B6818460C3756
:10209000BD465DF8047B704748000020A55AA55A4C
:1020A00080B400AF064B1B68064A934201D100235F
:1020B00000E001231846BD465DF8047B704700BF71
:1020C00048000020A55AA55AB0B500AF0D4D0E4CE2
:1020D00005E02A46151D23461C1D12681A600B4B8D
:1020E0009C42F6D30A4C03E023461C1D00221A60D2
:1020F000084B9C42F8D301F011F8FEF7BBFF00BF7C
:10210000B0BD00BF64380308000000204800002074
:10211000480000205A02002080B400AFFEE780B4DF
:1021200000AFFEE780B400AF0E4B1B68002B04D05D
:102130000C4B1B68013B0B4A13600B4B1B680133B4
:10214000094A1360094B1B680133084A1360084BA6
:102150001B680133064A136000BFBD465DF8047B6F
:10216000704700BF44020020480200204C020020BB
:102170005002002080B483B000AF7860074A7B68CB
:10218000136000BF054B1B68002BFBD100BF00BFD5
:102190000C37BD465DF8047B704700BF4402002049
:1021A00080B400AF034B00221A6000BFBD465DF84B
:1021B000047B70474802002080B400AF034B00222C
:1021C0001A6000BFBD465DF8047B70474C020020DA
:1021D00080B400AF034B00221A6000BFBD465DF81B
:1021E000047B70475002002080B400AF034B1B6893
:1021F0001846BD465DF8047B704700BF48020020CA
:1022000080B400AF034B1B681846BD465DF8047BE5
:10221000704700BF4C02002080B400AF034B1B6826
:102220001846BD465DF8047B704700BF5002002091
:1022300080B400AF00BF00BFBD465DF8047B7047AF
:1022400080B400AF30BF00BFBD465DF8047B70476F
:1022500080B400AF20BF00BFBD465DF8047B70476F
:1022600080B400AF40BF00BFBD465DF8047B70473F
:1022700080B400AFBFF36F8F00BFBD465DF8047B35
:10228000704780B400AFBFF34F8F00BFBD465DF80D
:10229000047B704780B400AFBFF35F8F00BFBD46C3
:1022A0005DF8047B704780B485B000AF78607B68D0
:1022B0001BBAFB60FB6818461437BD465DF8047B0B
:1022C000704780B485B000AF78607B685BBAFB6014
:1022D000FB6818461437BD465DF8047B704780B430
:1022E00085B000AF78607B68DBBAFB60FB6818469E
:1022F0001437BD465DF8047B704780B485B000AFED
:1023000078607B6893FAA3F3FB60FB681846143788
:10231000BD465DF8047B704780B485B000AF78603F
:102320007B68D3E84F3FFB73FB7B18461437BD46F1
:102330005DF8047B704780B485B000AF78607B683F
:10234000D3E85F3FFB81FB8918461437BD465DF833
:10235000047B704780B485B000AF78607B6853E839
:10236000003FFB60FB6818461437BD465DF8047BF0
:10237000704780B485B000AF786039603B687A6898
:1023800043E80023FB60FB6818461437BD465DF840
:10239000047B704780B400AFBFF32F8F00BFBD46F2
:1023A0005DF8047B704780B485B000AF78607B68CF
:1023B000B3FA83F3FB73FB7B18461437BD465DF815
:1023C000047B704780B400AF62B600BFBD465DF8C5
:1023D000047B704780B400AF72B600BFBD465DF8A5
:1023E000047B704780B483B000AFEFF314837B604D
:1023F0007B6818460C37BD465DF8047B704780B497
:1024000083B000AF78607B6883F3148800BF0C371B
:10241000BD465DF8047B704780B483B000AFEFF336
:1024200005837B607B6818460C37BD465DF8047BEE
:10243000704780B483B000AFEFF300837B607B68AC
:1024400018460C37BD465DF8047B704780B483B0F6
:1024500000AFEFF303837B607B6818460C37BD4603
:102460005DF8047B704790B400AFEFF309831C461E
:1024700023461846BD4690BC704780B483B000AF79
:1024800078607B6883F3098800BF0C37BD465DF830
:10249000047B704790B400AFEFF308831C462346DB
:1024A0001846BD4690BC704780B483B000AF7860DA
:1024B0007B6883F3088800BF0C37BD465DF8047B5A
:1024C000704780B483B000AFEFF310837B607B680C
:1024D00018460C37BD465DF8047B704780B483B066
:1024E00000AF78607B6883F3108800BF0C37BD466F
:1024F0005DF8047B704780B400AF61B600BFBD4695
:102500005DF8047B704780B400AF71B600BFBD4674
:102510005DF8047B704780B483B000AFEFF31283A3
:102520007B607B6818460C37BD465DF8047B7047BE
:1025300080B483B000AF78607B6883F3118800BFFC
:102540000C37BD465DF8047B704780B483B000AFA4
:10255000EFF313837B607B6818460C37BD465DF84C
:10256000047B704780B483B000AF78607B6883F3EE
:10257000138800BF0C37BD465DF8047B704780B4FC
:1025800083B000AFF1EE103A7B607B6818460C37E1
:10259000BD465DF8047B704780B483B000AF7860BF
:1025A0007B68E1EE103A00BF0C37BD465DF8047B56
:1025B000704780B485B000AF786039607B683A6856
:1025C00083FA02F3FB60FB6818461437BD465DF8DA
:1025D000047B704780B485B000AF786039607B6859
:1025E0003A6883FA12F3FB60FB6818461437BD465D
:1025F0005DF8047B704780B485B000AF78603960C7
:102600007B683A6883FA22F3FB60FB68184614374C
:10261000BD465DF8047B704780B485B000AF78603C
:1026200039607B683A6883FA42F3FB60FB681846BE
:102630001437BD465DF8047B704780B485B000AFA9
:10264000786039607B683A6883FA52F3FB60FB6814
:1026500018461437BD465DF8047B704780B485B0DA
:1026600000AF786039607B683A6883FA62F3FB6098
:10267000FB6818461437BD465DF8047B704780B48C
:1026800085B000AF786039607B683A68C3FA02F3BE
:10269000FB60FB6818461437BD465DF8047B704745
:1026A00080B485B000AF786039607B683A68C3FA5F
:1026B00012F3FB60FB6818461437BD465DF8047BD7
:1026C000704780B485B000AF786039607B683A6845
:1026D000C3FA22F3FB60FB6818461437BD465DF869
:1026E000047B704780B485B000AF786039607B6848
:1026F0003A68C3FA42F3FB60FB6818461437BD46DC
:102700005DF8047B704780B485B000AF78603960B5
:102710007B683A68C3FA52F3FB60FB6818461437CB
:10272000BD465DF8047B704780B485B000AF78602B
:1027300039607B683A68C3FA62F3FB60FB6818464D
:102740001437BD465DF8047B704780B485B000AF98
:10275000786039607B683A6893FA02F3FB60FB6843
:1027600018461437BD465DF8047B704780B485B0C9
:1027700000AF786039607B683A6893FA12F3FB60C7
:10278000FB6818461437BD465DF8047B704780B47B
:1027900085B000AF786039607B683A6893FA22F3BD
:1027A000FB60FB6818461437BD465DF8047B704734
:1027B00080B485B000AF786039607B683A6893FA7E
:1027C00042F3FB60FB6818461437BD465DF8047B96
:1027D000704780B485B000AF786039607B683A6834
:1027E00093FA52F3FB60FB6818461437BD465DF858
:1027F000047B704780B485B000AF786039607B6837
:102800003A6893FA62F3FB60FB6818461437BD46DA
:102810005DF8047B704780B485B000AF78603960A4
:102820007B683A68D3FA02F3FB60FB6818461437FA
:10283000BD465DF8047B704780B485B000AF78601A
:1028400039607B683A68D3FA12F3FB60FB6818467C
:102850001437BD465DF8047B704780B485B000AF87
:10286000786039607B683A68D3FA22F3FB60FB68D2
:1028700018461437BD465DF8047B704780B485B0B8
:1028800000AF786039607B683A68D3FA42F3FB6046
:10289000FB6818461437BD465DF8047B704780B46A
:1028A00085B000AF786039607B683A68D3FA52F33C
:1028B000FB60FB6818461437BD465DF8047B704723
:1028C00080B485B000AF786039607B683A68D3FA2D
:1028D00062F3FB60FB6818461437BD465DF8047B65
:1028E000704780B485B000AF786039607B683A6823
:1028F000A3FA02F3FB60FB6818461437BD465DF887
:10290000047B704780B485B000AF786039607B6825
:102910003A68A3FA12F3FB60FB6818461437BD4609
:102920005DF8047B704780B485B000AF7860396093
:102930007B683A68A3FA22F3FB60FB6818461437F9
:10294000BD465DF8047B704780B485B000AF786009
:1029500039607B683A68A3FA42F3FB60FB6818466B
:102960001437BD465DF8047B704780B485B000AF76
:10297000786039607B683A68A3FA52F3FB60FB68C1
:1029800018461437BD465DF8047B704780B485B0A7
:1029900000AF786039607B683A68A3FA62F3FB6045
:1029A000FB6818461437BD465DF8047B704780B459
:1029B00085B000AF786039607B683A68E3FA02F36B
:1029C000FB60FB6818461437BD465DF8047B704712
:1029D00080B485B000AF786039607B683A68E3FA0C
:1029E00012F3FB60FB6818461437BD465DF8047BA4
:1029F000704780B485B000AF786039607B683A6812
:102A0000E3FA22F3FB60FB6818461437BD465DF815
:102A1000047B704780B485B000AF786039607B6814
:102A20003A68E3FA42F3FB60FB6818461437BD4688
:102A30005DF8047B704780B485B000AF7860396082
:102A40007B683A68E3FA52F3FB60FB681846143778
:102A5000BD465DF8047B704780B485B000AF7860F8
:102A600039607B683A68E3FA62F3FB60FB681846FA
:102A70001437BD465DF8047B704780B485B000AF65
:102A8000786039607B683A6873FB02F3FB60FB682F
:102A900018461437BD465DF8047B704780B487B094
:102AA00000AFF860B9607A60FB68BA68796873FB58
:102AB00002137B617B6918461C37BD465DF8047BB9
:102AC000704780B485B000AF78607B683FFA83F3CD
:102AD000FB60FB6818461437BD465DF8047B704701
:102AE00080B485B000AF786039607B683A6833FAAB
:102AF00082F3FB60FB6818461437BD465DF8047B23
:102B0000704780B485B000AF78607B682FFA83F39C
:102B1000FB60FB6818461437BD465DF8047B7047C0
:102B200080B485B000AF786039607B683A6823FA7A
:102B300082F3FB60FB6818461437BD465DF8047BE2
:102B4000704780B485B000AF786039607B683A68C0
:102B500023FB02F3FB60FB6818461437BD465DF8A3
:102B6000047B704780B485B000AF786039607B68C3
:102B70003A6823FB12F3FB60FB6818461437BD4626
:102B80005DF8047B704780B487B000AFF860B9602F
:102B90007A60FB68BA68796823FB02137B617B6902
:102BA00018461C37BD465DF8047B704780B487B07B
:102BB00000AFF860B9607A60FB68BA68796823FB97
:102BC00012137B617B6918461C37BD465DF8047B98
:102BD000704780B485B000AF786039607B683A6830
:102BE00043FB02F3FB60FB6818461437BD465DF8F3
:102BF000047B704780B485B000AF786039607B6833
:102C00003A6843FB12F3FB60FB6818461437BD4675
:102C10005DF8047B704780B487B000AFF860B9609E
:102C20007A60FB68BA68796843FB02137B617B6951
:102C300018461C37BD465DF8047B704780B487B0EA
:102C400000AFF860B9607A60FB68BA68796843FBE6
:102C500012137B617B6918461C37BD465DF8047B07
:102C6000704780B485B000AF786039607B683A689F
:102C7000A3FA82F3FB60FB6818461437BD465DF883
:102C8000047B704780B485B000AF786039607B68A2
:102C90003A6882FA83F3FB60FB6818461437BD4636
:102CA0005DF8047B704780B485B000AF7860396010
:102CB0007B683A6882FAA3F3FB60FB681846143716
:102CC000BD465DF8047B704780B485B000AF786086
:102CD0007B6803F00703FB600C4BDB68BB60BA68E2
:102CE0004FF6FF031340BB60FB681A02BB68134337
:102CF00043F0BF6343F40033BB60044ABB68D36056
:102D000000BF1437BD465DF8047B704700ED00E05E
:102D100080B400AF044BDB681B0A03F007031846BE
:102D2000BD465DF8047B704700ED00E080B483B0E1
:102D300000AF0346FB71FB7903F01F03012202FA87
:102D400003F1064A97F907305B0942F8231000BFE8
:102D50000C37BD465DF8047B704700BF00E100E022
:102D600080B483B000AF0346FB71FB7903F01F030F
:102D7000012202FA03F1064A97F907305B09203372
:102D800042F8231000BF0C37BD465DF8047B704746
:102D900000E100E080B483B000AF0346FB710C4A51
:102DA00097F907305B09403352F82330FA7902F083
:102DB0001F02012101FA02F21340002B01D001236E
:102DC00000E0002318460C37BD465DF8047B7047D1
:102DD00000E100E080B483B000AF0346FB71FB79F3
:102DE00003F01F03012202FA03F1064A97F90730A4
:102DF0005B09403342F8231000BF0C37BD465DF835
:102E0000047B704700E100E080B483B000AF03466C
:102E1000FB71FB7903F01F03012202FA03F1064A5A
:102E200097F907305B09603342F8231000BF0C3775
:102E3000BD465DF8047B704700E100E080B483B0DC
:102E400000AF0346FB710C4A97F907305B098033EA
:102E500052F82330FA7902F01F02012101FA02F23E
:102E60001340002B01D0012300E0002318460C374B
:102E7000BD465DF8047B704700E100E080B483B09C
:102E800000AF03463960FB7197F90730002B0BDA6E
:102E90003B68DAB20C49FB7903F00F03043B1201E3
:102EA000D2B20B441A7609E03B68DAB2074997F9C7
:102EB00007301201D2B20B4483F8002300BF0C3755
:102EC000BD465DF8047B704700ED00E000E100E0E6
:102ED00080B483B000AF0346FB7197F90730002B35
:102EE0000ADA0D4AFB7903F00F03043B13441B7EFF
:102EF000DBB21B09DBB208E0084A97F9073013443C
:102F000093F80033DBB21B09DBB218460C37BD4621
:102F10005DF8047B704700BF00ED00E000E100E0D9
:102F200080B489B000AFF860B9607A60FB6803F0E4
:102F30000703FB61FB69C3F10703042B28BF0423CC
:102F4000BB61FB690433062B02D9FB69033B00E03C
:102F500000237B610122BB6902FA03F3013B1A469D
:102F6000BB681A407B699A4001217B6901FA03F32F
:102F7000013B19467B680B40134318462437BD4676
:102F80005DF8047B704780B489B000AFF860B96029
:102F90007A603B60BB6803F00703FB61FB69C3F128
:102FA0000703042B28BF0423BB61FB690433062BF2
:102FB00002D9FB69033B00E000237B61FA687B696F
:102FC00022FA03F30121BA6901FA02F2013A1A4026
:102FD0007B681A6001227B6902FA03F3013B1A46FF
:102FE000FB681A403B681A6000BF2437BD465DF895
:102FF000047B704780B500AFFFF743F9054BDB68F2
:1030000003F4E0620349044B1343CB60FFF739F943
:10301000FEE700BF00ED00E00400FA0580B582B0D5
:1030200000AF78607B68B3F1807F01D3012311E0AA
:103030007B6823F07F43094A013B53600F214FF027
:10304000FF30FFF71BFF054B00229A60034B07225E
:103050001A60002318460837BD4680BD10E000E026
:1030600080B483B000AF7860134BDB6803F08073EB
:10307000002B1AD04FF06043D3F8803E03F00103D9
:10308000002B12D04FF06043D3F8003E03F0010351
:10309000002B0AD000BF4FF060431B68002BFAD012
:1030A0004FF060437A68D2B21A707B6818460C37CA
:1030B000BD465DF8047B7047F0ED00E080B483B05E
:1030C00000AF4FF0FF337B60084B1B68084A934208
:1030D00005D0064B1B687B60044B054A1A607B6871
:1030E00018460C37BD465DF8047B70474800002049
:1030F000A55AA55A80B400AF064B1B68064A9342F6
:1031000001D1002300E001231846BD465DF8047B91
:10311000704700BF48000020A55AA55A80B500AFEF
:10312000164BD3F88830154A43F47003C2F8883040
:10313000134B1B68124A43F001031360104B00222B
:103140009A600F4B1B680E4A23F0847323F480337C
:1031500013600B4B0B4A5A60094B1B68084A23F457
:1031600080231360064B0022DA6000F08FF8034BD7
:103170004FF000629A6000BF80BD00BF00ED00E02C
:10318000003802401030002480B487B000AF002324
:103190003B6100237B610223FB600023BB600223B1
:1031A0007B60354B9B6803F00C033B613B69082B4C
:1031B00011D03B69082B44D83B69002B03D03B69F5
:1031C000042B04D03DE02D4B2D4A1A603DE02B4BE3
:1031D0002C4A1A6039E0284B5B689B0D03F0010311
:1031E000BB60254B5B6803F03F037B60BB68002B33
:1031F0000CD0244A7B68B2FBF3F31F4A5268920951
:10320000C2F3080202FB03F37B610BE01C4A7B68FC
:10321000B2FBF3F3184A52689209C2F3080202FBA8
:1032200003F37B61144B5B681B0C03F00303013356
:103230005B00FB607A69FB68B2FBF3F30F4A136033
:1032400003E00E4B0E4A1A6000BF0B4B9B681B0934
:1032500003F00F030C4AD35CDBB23B61074B1A68E7
:103260003B6922FA03F3054A136000BF1C37BD46D1
:103270005DF8047B704700BF00380240000000206A
:103280000024F40000127A000400002080B483B00F
:1032900000AF00237B6000233B60424B1B68414A28
:1032A00043F4803313603F4B1B6803F400333B60EF
:1032B0007B6801337B603B68002B03D17B68B3F5EF
:1032C000A06FF0D1374B1B6803F40033002B02D002
:1032D00001233B6001E000233B603B68012B42D1AE
:1032E000304B1B6C2F4A43F0805313642E4B1B68EA
:1032F0002D4A43F4804313602A4B2A4A9B6893600B
:10330000284B9B68274A43F400439360254B9B68F6
:10331000244A43F4A0539360224B244A5A60214B21
:103320001B68204A43F08073136000BF1D4B1B686D
:1033300003F00073002BF9D01D4B40F205621A60B8
:10334000184B9B68174A23F003039360154B9B6847
:10335000144A43F00203936000BF124B9B6803F0D2
:103360000C03082BF9D10F4B9B680E4A23F4000382
:1033700093600C4B0F4AC3F884200A4B1B68094A20
:1033800043F08063136000BF064B1B6803F00063CB
:10339000002BF9D000BF00BF0C37BD465DF8047BA1
:1033A000704700BF003802400070004008544007DA
:1033B000003C02400030005080B400AF00BF00BFAE
:1033C000BD465DF8047B704780B400AF30BF00BFDE
:1033D000BD465DF8047B704780B400AF20BF00BFDE
:1033E000BD465DF8047B704780B400AF40BF00BFAE
:1033F000BD465DF8047B704780B400AFBFF36F8FAC
:1034000000BFBD465DF8047B704780B400AFBFF3DA
:103410004F8F00BFBD465DF8047B704780B400AF9E
:10342000BFF35F8F00BFBD465DF8047B704780B47B
:1034300085B000AF78607B681BBAFB60FB681846FC
:103440001437BD465DF8047B704780B485B000AF8B
:1034500078607B685BBAFB60FB6818461437BD4632
:103460005DF8047B704780B485B000AF78607B68FE
:10347000DBBAFB60FB6818461437BD465DF8047B79
:10348000704780B485B000AF78607B6893FAA3F38F
:10349000FB60FB6818461437BD465DF8047B704737
:1034A00080B485B000AF78607B68D3E84F3FFB7392
:1034B000FB7B18461437BD465DF8047B704780B42B
:1034C00085B000AF78607B68D3E85F3FFB81FB8904
:1034D00018461437BD465DF8047B704780B485B04C
:1034E00000AF78607B6853E8003FFB60FB681846DC
:1034F0001437BD465DF8047B704780B485B000AFDB
:10350000786039603B687A6843E80023FB60FB68B9
:1035100018461437BD465DF8047B704780B400AF91
:10352000BFF32F8F00BFBD465DF8047B704780B4AA
:1035300085B000AF78607B68B3FA83F3FB73FB7BE5
:1035400018461437BD465DF8047B704780B400AF61
:1035500062B600BFBD465DF8047B704780B400AF23
:1035600072B600BFBD465DF8047B704780B483B07F
:1035700000AFEFF314837B607B6818460C37BD46C1
:103580005DF8047B704780B483B000AF78607B68DF
:1035900083F3148800BF0C37BD465DF8047B704789
:1035A00080B483B000AFEFF305837B607B6818467F
:1035B0000C37BD465DF8047B704780B483B000AF24
:1035C000EFF300837B607B6818460C37BD465DF8DF
:1035D000047B704780B483B000AFEFF303837B605C
:1035E0007B6818460C37BD465DF8047B704790B485
:1035F00000AFEFF309831C4623461846BD4690BC36
:10360000704780B483B000AF78607B6883F309882B
:1036100000BF0C37BD465DF8047B704790B400AF27
:10362000EFF308831C4623461846BD4690BC7047FE
:1036300080B483B000AF78607B6883F3088800BFF4
:103640000C37BD465DF8047B704780B483B000AF93
:10365000EFF310837B607B6818460C37BD465DF83E
:10366000047B704780B483B000AF78607B6883F3DD
:10367000108800BF0C37BD465DF8047B704780B4EE
:1036800000AF61B600BFBD465DF8047B704780B4F3
:1036900000AF71B600BFBD465DF8047B704780B4D3
:1036A00083B000AFEFF312837B607B6818460C3762
:1036B000BD465DF8047B704780B483B000AF78608E
:1036C0007B6883F3118800BF0C37BD465DF8047B2F
:1036D000704780B483B000AFEFF313837B607B68E7
:1036E00018460C37BD465DF8047B704780B483B044
:1036F00000AF78607B6883F3138800BF0C37BD464A
:103700005DF8047B704780B483B000AFF1EE103AEF
:103710007B607B6818460C37BD465DF8047B7047BC
:1037200080B483B000AF78607B68E1EE103A00BFF0
:103730000C37BD465DF8047B704780B485B000AFA0
:10374000786039607B683A6883FA02F3FB60FB6853
:1037500018461437BD465DF8047B704780B485B0C9
:1037600000AF786039607B683A6883FA12F3FB60D7
:10377000FB6818461437BD465DF8047B704780B47B
:1037800085B000AF786039607B683A6883FA22F3CD
:10379000FB60FB6818461437BD465DF8047B704734
:1037A00080B485B000AF786039607B683A6883FA8E
:1037B00042F3FB60FB6818461437BD465DF8047B96
:1037C000704780B485B000AF786039607B683A6834
:1037D00083FA52F3FB60FB6818461437BD465DF868
:1037E000047B704780B485B000AF786039607B6837
:1037F0003A6883FA62F3FB60FB6818461437BD46EB
:103800005DF8047B704780B485B000AF78603960A4
:103810007B683A68C3FA02F3FB60FB68184614370A
:10382000BD465DF8047B704780B485B000AF78601A
:1038300039607B683A68C3FA12F3FB60FB6818468C
:103840001437BD465DF8047B704780B485B000AF87
:10385000786039607B683A68C3FA22F3FB60FB68E2
:1038600018461437BD465DF8047B704780B485B0B8
:1038700000AF786039607B683A68C3FA42F3FB6056
:10388000FB6818461437BD465DF8047B704780B46A
:1038900085B000AF786039607B683A68C3FA52F34C
:1038A000FB60FB6818461437BD465DF8047B704723
:1038B00080B485B000AF786039607B683A68C3FA3D
:1038C00062F3FB60FB6818461437BD465DF8047B65
:1038D000704780B485B000AF786039607B683A6823
:1038E00093FA02F3FB60FB6818461437BD465DF897
:1038F000047B704780B485B000AF786039607B6826
:103900003A6893FA12F3FB60FB6818461437BD4619
:103910005DF8047B704780B485B000AF7860396093
:103920007B683A6893FA22F3FB60FB681846143709
:10393000BD465DF8047B704780B485B000AF786009
:1039400039607B683A6893FA42F3FB60FB6818467B
:103950001437BD465DF8047B704780B485B000AF76
:10396000786039607B683A6893FA52F3FB60FB68D1
:1039700018461437BD465DF8047B704780B485B0A7
:1039800000AF786039607B683A6893FA62F3FB6055
:10399000FB6818461437BD465DF8047B704780B459
:1039A00085B000AF786039607B683A68D3FA02F37B
:1039B000FB60FB6818461437BD465DF8047B704712
:1039C00080B485B000AF786039607B683A68D3FA1C
:1039D00012F3FB60FB6818461437BD465DF8047BA4
:1039E000704780B485B000AF786039607B683A6812
:1039F000D3FA22F3FB60FB6818461437BD465DF826
:103A0000047B704780B485B000AF786039607B6814
:103A10003A68D3FA42F3FB60FB6818461437BD4698
:103A20005DF8047B704780B485B000AF7860396082
:103A30007B683A68D3FA52F3FB60FB681846143788
:103A4000BD465DF8047B704780B485B000AF7860F8
:103A500039607B683A68D3FA62F3FB60FB6818460A
:103A60001437BD465DF8047B704780B485B000AF65
:103A7000786039607B683A68A3FA02F3FB60FB6800
:103A800018461437BD465DF8047B704780B485B096
:103A900000AF786039607B683A68A3FA12F3FB6084
:103AA000FB6818461437BD465DF8047B704780B448
:103AB00085B000AF786039607B683A68A3FA22F37A
:103AC000FB60FB6818461437BD465DF8047B704701
:103AD00080B485B000AF786039607B683A68A3FA3B
:103AE00042F3FB60FB6818461437BD465DF8047B63
:103AF000704780B485B000AF786039607B683A6801
:103B0000A3FA52F3FB60FB6818461437BD465DF814
:103B1000047B704780B485B000AF786039607B6803
:103B20003A68A3FA62F3FB60FB6818461437BD4697
:103B30005DF8047B704780B485B000AF7860396071
:103B40007B683A68E3FA02F3FB60FB6818461437B7
:103B5000BD465DF8047B704780B485B000AF7860E7
:103B600039607B683A68E3FA12F3FB60FB68184639
:103B70001437BD465DF8047B704780B485B000AF54
:103B8000786039607B683A68E3FA22F3FB60FB688F
:103B900018461437BD465DF8047B704780B485B085
:103BA00000AF786039607B683A68E3FA42F3FB6003
:103BB000FB6818461437BD465DF8047B704780B437
:103BC00085B000AF786039607B683A68E3FA52F3F9
:103BD000FB60FB6818461437BD465DF8047B7047F0
:103BE00080B485B000AF786039607B683A68E3FAEA
:103BF00062F3FB60FB6818461437BD465DF8047B32
:103C0000704780B485B000AF786039607B683A68EF
:103C100073FB02F3FB60FB6818461437BD465DF882
:103C2000047B704780B487B000AFF860B9607A60F9
:103C3000FB68BA68796873FB02137B617B6918467D
:103C40001C37BD465DF8047B704780B485B000AF7B
:103C500078607B683FFA83F3FB60FB681846143793
:103C6000BD465DF8047B704780B485B000AF7860D6
:103C700039607B683A6833FA82F3FB60FB68184668
:103C80001437BD465DF8047B704780B485B000AF43
:103C900078607B682FFA83F3FB60FB681846143763
:103CA000BD465DF8047B704780B485B000AF786096
:103CB00039607B683A6823FA82F3FB60FB68184638
:103CC0001437BD465DF8047B704780B485B000AF03
:103CD000786039607B683A6823FB02F3FB60FB681D
:103CE00018461437BD465DF8047B704780B485B034
:103CF00000AF786039607B683A6823FB12F3FB60A1
:103D0000FB6818461437BD465DF8047B704780B4E5
:103D100087B000AFF860B9607A60FB68BA6879680C
:103D200023FB02137B617B6918461C37BD465DF897
:103D3000047B704780B487B000AFF860B9607A60E8
:103D4000FB68BA68796823FB12137B617B691846AC
:103D50001C37BD465DF8047B704780B485B000AF6A
:103D6000786039607B683A6843FB02F3FB60FB686C
:103D700018461437BD465DF8047B704780B485B0A3
:103D800000AF786039607B683A6843FB12F3FB60F0
:103D9000FB6818461437BD465DF8047B704780B455
:103DA00087B000AFF860B9607A60FB68BA6879687C
:103DB00043FB02137B617B6918461C37BD465DF8E7
:103DC000047B704780B487B000AFF860B9607A6058
:103DD000FB68BA68796843FB12137B617B691846FC
:103DE0001C37BD465DF8047B704780B485B000AFDA
:103DF000786039607B683A68A3FA82F3FB60FB68FD
:103E000018461437BD465DF8047B704780B485B012
:103E100000AF786039607B683A6882FA83F3FB60B0
:103E2000FB6818461437BD465DF8047B704780B4C4
:103E300085B000AF786039607B683A6882FAA3F396
:103E4000FB60FB6818461437BD465DF8047B70477D
:103E500080B485B000AF78607B6803F00703FB6037
:103E60000C4BDB68BB60BA684FF6FF031340BB60C6
:103E7000FB681A02BB68134343F0BF6343F400338B
:103E8000BB60044ABB68D36000BF1437BD465DF811
:103E9000047B704700ED00E080B400AF044BDB68AA
:103EA0001B0A03F007031846BD465DF8047B704704
:103EB00000ED00E080B483B000AF0346FB71FB79F6
:103EC00003F01F03012202FA03F1064A97F90730B3
:103ED0005B0942F8231000BF0C37BD465DF8047B38
:103EE000704700BF00E100E080B483B000AF03463C
:103EF000FB71FB7903F01F03012202FA03F1064A6A
:103F000097F907305B09203342F8231000BF0C37C4
:103F1000BD465DF8047B704700E100E080B483B0EB
:103F200000AF0346FB710C4A97F907305B09403339
:103F300052F82330FA7902F01F02012101FA02F24D
:103F40001340002B01D0012300E0002318460C375A
:103F5000BD465DF8047B704700E100E080B483B0AB
:103F600000AF0346FB71FB7903F01F03012202FA45
:103F700003F1064A97F907305B09403342F82310F2
:103F800000BF0C37BD465DF8047B704700E100E0E0
:103F900080B483B000AF0346FB71FB7903F01F03CD
:103FA000012202FA03F1064A97F907305B096033F0
:103FB00042F8231000BF0C37BD465DF8047B704704
:103FC00000E100E080B483B000AF0346FB710C4A0F
:103FD00097F907305B09803352F82330FA7902F001
:103FE0001F02012101FA02F21340002B01D001232C
:103FF00000E0002318460C37BD465DF8047B70478F
:1040000000E100E080B483B000AF03463960FB718B
:1040100097F90730002B0BDA3B68DAB20C49FB79D1
:1040200003F00F03043B1201D2B20B441A7609E0ED
:104030003B68DAB2074997F907301201D2B20B4454
:1040400083F8002300BF0C37BD465DF8047B704742
:1040500000ED00E000E100E080B483B000AF034673
:10406000FB7197F90730002B0ADA0D4AFB7903F050
:104070000F03043B13441B7EDBB21B09DBB208E0D9
:10408000084A97F90730134493F80033DBB21B0951
:10409000DBB218460C37BD465DF8047B704700BFA5
:1040A00000ED00E000E100E080B489B000AFF8600E
:1040B000B9607A60FB6803F00703FB61FB69C3F139
:1040C0000703042B28BF0423BB61FB690433062BC1
:1040D00002D9FB69033B00E000237B610122BB693D
:1040E00002FA03F3013B1A46BB681A407B699A4007
:1040F00001217B6901FA03F3013B19467B680B4000
:10410000134318462437BD465DF8047B704780B4DE
:1041100089B000AFF860B9607A603B60BB6803F0BB
:104120000703FB61FB69C3F10703042B28BF0423CA
:10413000BB61FB690433062B02D9FB69033B00E03A
:1041400000237B61FA687B6922FA03F30121BA69D3
:1041500001FA02F2013A1A407B681A6001227B6977
:1041600002FA03F3013B1A46FB681A403B681A60E7
:1041700000BF2437BD465DF8047B704780B500AFB3
:10418000FFF743F9054BDB6803F4E0620349044B96
:104190001343CB60FFF739F9FEE700BF00ED00E005
:1041A0000400FA0580B582B000AF78607B68B3F197
:1041B000807F01D3012311E07B6823F07F43094A0C
:1041C000013B53600F214FF0FF30FFF71BFF054B02
:1041D00000229A60034B07221A6000231846083712
:1041E000BD4680BD10E000E080B483B000AF7860D1
:1041F000134BDB6803F08073002B1AD04FF0604341
:10420000D3F8803E03F00103002B12D04FF060433F
:10421000D3F8003E03F00103002B0AD000BF4FF09B
:1042200060431B68002BFAD04FF060437A68D2B22B
:104230001A707B6818460C37BD465DF8047B7047E2
:10424000F0ED00E080B483B000AF4FF0FF337B604F
:10425000084B1B68084A934205D0064B1B687B60DD
:10426000044B054A1A607B6818460C37BD465DF85A
:10427000047B704748000020A55AA55A80B400AFBF
:10428000064B1B68064A934201D1002300E001233C
:104290001846BD465DF8047B704700BF480000200B
:1042A000A55AA55A80B400AF104B1B680F4A43F0C3
:1042B000010313600D4B00229A600C4B1B680B4AE4
:1042C00023F0847323F480331360084B084A5A6048
:1042D000064B1B68054A23F480231360034B00221E
:1042E000DA6000BFBD465DF8047B704700380240CD
:1042F0001030002480B483B000AF0346FB71064B3E
:1043000000221A70044AFB79137000BF0C37BD46B7
:104310005DF8047B704700BF0238024080B582B070
:1043200000AF00233B600023FB710023BB713120F1
:1043300000F0B6FC0346BB713B6801333B603B6851
:10434000B3F5A06F02D0BB79002BF0D0312000F084
:10435000A7FC0346002B02D00123FB7101E00023E0
:10436000FB71FB7918460837BD4680BD80B485B027
:1043700000AF0346FB710023FB600A4B1B68FB6028
:10438000FB6823F0F803FB60FB79DB00FA6813435A
:10439000FB60044AFB68136000BF1437BD465DF83C
:1043A000047B70470038024080B483B000AF0346FE
:1043B000FB71044AFB79136000BF0C37BD465DF802
:1043C000047B70470000474280B483B000AF0346CF
:1043D000FB710D4B00221A700B4B00221A70FB79F7
:1043E000012B02D0042B04D007E0074B01221A70E6
:1043F00003E0054B05221A7000BF00BF0C37BD4615
:104400005DF8047B704700BF7038024080B483B011
:1044100000AF0346FB71044AFB79136000BF0C3701
:10442000BD465DF8047B7047800E474280B485B07E
:1044300000AFF860B9607A603B607B689A01BB6846
:104440001A433B685B08013B1B041A43FB681A4391
:10445000BB691B06044913434B6000BF1437BD46BC
:104460005DF8047B704700BF0038024080B483B021
:1044700000AF0346FB71044AFB79136000BF0C37A1
:10448000BD465DF8047B70476000474280B483B04E
:1044900000AF786039607B689A013B681B0705496B
:1044A0001343C1F8843000BF0C37BD465DF8047B70
:1044B000704700BF0038024080B483B000AF0346AD
:1044C000FB71044AFB79136000BF0C37BD465DF8F1
:1044D000047B70476800474280B483B000AF034656
:1044E000FB71044AFB79136000BF0C37BD465DF8D1
:1044F000047B70474C00474280B485B000AF7860C1
:1045000039600023FB600B4B9B68FB60FB6823F06A
:10451000EC63FB607A683B681343FA681343FB6003
:10452000044AFB68936000BF1437BD465DF8047B06
:10453000704700BF0038024080B485B000AF78609B
:1045400039600023FB600B4B9B68FB60FB6823F02A
:104550007843FB607A683B681343FA681343FB6057
:10456000044AFB68936000BF1437BD465DF8047BC6
:10457000704700BF0038024080B485B000AF78605B
:104580000023FB60094B9B68FB60FB6823F003037F
:10459000FB60FA687B681343FB60044AFB68936026
:1045A00000BF1437BD465DF8047B704700380240F9
:1045B00080B400AF054B9B68DBB203F00C03DBB2A9
:1045C0001846BD465DF8047B704700BF00380240C6
:1045D00080B485B000AF78600023FB60094B9B6816
:1045E000FB60FB6823F0F003FB60FA687B68134311
:1045F000FB60044AFB68936000BF1437BD465DF85A
:10460000047B70470038024080B485B000AF78600A
:104610000023FB60094B9B68FB60FB6823F4E053BD
:10462000FB60FA687B681343FB60044AFB68936095
:1046300000BF1437BD465DF8047B70470038024068
:1046400080B485B000AF78600023FB600A4B9B68A4
:10465000FB60FB6823F46043FB607B68DB00FA6867
:104660001343FB60044AFB68936000BF1437BD46E8
:104670005DF8047B704700BF0038024080B489B009
:1046800000AF78600023BB6100237B610023FB61E6
:1046900002233B610023FB600223BB604A4B9B6803
:1046A00003F00C03BB61BB69082B11D0BB69082B5D
:1046B00044D8BB69002B03D0BB69042B04D03DE078
:1046C0007B68424A1A603DE07B68414A1A6039E0E3
:1046D0003D4B5B689B0D03F00103FB603A4B5B684D
:1046E00003F03F03BB60FB68002B0CD0384ABB686B
:1046F000B2FBF3F3344A52689209C2F3080202FB98
:1047000003F3FB610BE0314ABB68B2FBF3F32E4AC3
:1047100052689209C2F3080202FB03F3FB612A4BC1
:104720005B681B0C03F0030301335B003B61FA6918
:104730003B69B2FBF3F27B681A6003E07B68234AB3
:104740001A6000BF204B9B6803F0F003BB61BB699C
:104750001B09BB611F4ABB6913441B78DBB27B6139
:104760007B681A687B69DA407B685A60164B9B68E5
:1047700003F4E053BB61BB699B0ABB61154ABB698B
:1047800013441B78DBB27B617B685A687B69DA4033
:104790007B689A600C4B9B6803F46043BB61BB6908
:1047A0005B0BBB610B4ABB6913441B78DBB27B61BB
:1047B0007B685A687B69DA407B68DA6000BF24371F
:1047C000BD465DF8047B7047003802400024F400C9
:1047D00000127A001400002080B485B000AF786029
:1047E0000023FB607B6803F44073B3F5407F11D175
:1047F0000F4B9B68FB60FB6823F4F813FB607B683E
:1048000023F0704323F44073FA681343FB60084AB3
:10481000FB689360064B1A6F7B68C3F30B03044974
:1048200013430B6700BF1437BD465DF8047B704728
:104830000038024080B483B000AF0346FB71044AE5
:10484000FB79136000BF0C37BD465DF8047B7047F1
:104850003C0E474280B483B000AF0346FB71044A6C
:10486000FB79136000BF0C37BD465DF8047B7047D1
:10487000400E474280B483B000AF7860044A7B6842
:10488000136000BF0C37BD465DF8047B704700BF66
:104890005C01474280B483B000AF78600B46FB7088
:1048A000FB78002B06D00A4B1A6B09497B6813432F
:1048B0000B6306E0064B1A6B7B68DB43044913402D
:1048C0000B6300BF0C37BD465DF8047B704700BF2B
:1048D0000038024080B483B000AF78600B46FB70B4
:1048E000FB78002B06D00A4B5A6B09497B681343AF
:1048F0004B6306E0064B5A6B7B68DB43044913406D
:104900004B6300BF0C37BD465DF8047B704700BFAA
:104910000038024080B483B000AF78600B46FB7073
:10492000FB78002B06D00A4B9A6B09497B6813432E
:104930008B6306E0064B9A6B7B68DB4304491340AC
:104940008B6300BF0C37BD465DF8047B704700BF2A
:104950000038024080B483B000AF78600B46FB7033
:10496000FB78002B06D00A4B1A6C09497B6813436D
:104970000B6406E0064B1A6C7B68DB43044913406A
:104980000B6400BF0C37BD465DF8047B704700BF69
:104990000038024080B483B000AF78600B46FB70F3
:1049A000FB78002B06D00A4B5A6C09497B681343ED
:1049B0004B6406E0064B5A6C7B68DB4304491340AA
:1049C0004B6400BF0C37BD465DF8047B704700BFE9
:1049D0000038024080B483B000AF78600B46FB70B3
:1049E000FB78002B06D00A4B1A6909497B681343F0
:1049F0000B6106E0064B1A697B68DB4304491340F0
:104A00000B6100BF0C37BD465DF8047B704700BFEB
:104A10000038024080B483B000AF78600B46FB7072
:104A2000FB78002B06D00A4B5A6909497B6813436F
:104A30004B6106E0064B5A697B68DB43044913402F
:104A40004B6100BF0C37BD465DF8047B704700BF6B
:104A50000038024080B483B000AF78600B46FB7032
:104A6000FB78002B06D00A4B9A6909497B681343EF
:104A70008B6106E0064B9A697B68DB43044913406F
:104A80008B6100BF0C37BD465DF8047B704700BFEB
:104A90000038024080B483B000AF78600B46FB70F2
:104AA000FB78002B06D00A4B1A6A09497B6813432E
:104AB0000B6206E0064B1A6A7B68DB43044913402D
:104AC0000B6200BF0C37BD465DF8047B704700BF2A
:104AD0000038024080B483B000AF78600B46FB70B2
:104AE000FB78002B06D00A4B5A6A09497B681343AE
:104AF0004B6206E0064B5A6A7B68DB43044913406D
:104B00004B6200BF0C37BD465DF8047B704700BFA9
:104B10000038024080B483B000AF78600B46FB7071
:104B2000FB78002B06D00A4B1A6D09497B681343AA
:104B30000B6506E0064B1A6D7B68DB4304491340A6
:104B40000B6500BF0C37BD465DF8047B704700BFA6
:104B50000038024080B483B000AF78600B46FB7031
:104B6000FB78002B06D00A4B5A6D09497B6813432A
:104B70004B6506E0064B5A6D7B68DB4304491340E6
:104B80004B6500BF0C37BD465DF8047B704700BF26
:104B90000038024080B483B000AF78600B46FB70F1
:104BA000FB78002B06D00A4B9A6D09497B681343AA
:104BB0008B6506E0064B9A6D7B68DB430449134026
:104BC0008B6500BF0C37BD465DF8047B704700BFA6
:104BD0000038024080B483B000AF78600B46FB70B1
:104BE000FB78002B06D00A4B1A6E09497B681343E9
:104BF0000B6606E0064B1A6E7B68DB4304491340E4
:104C00000B6600BF0C37BD465DF8047B704700BFE4
:104C10000038024080B483B000AF78600B46FB7070
:104C2000FB78002B06D00A4B5A6E09497B68134368
:104C30004B6606E0064B5A6E7B68DB430449134023
:104C40004B6600BF0C37BD465DF8047B704700BF64
:104C50000038024080B483B000AF03460A46FB71BF
:104C60001346BB71BB79002B08D00C4B1B78DAB212
:104C70000A49FB791343DBB20B7009E0074B1B7841
:104C8000DAB2FB79DB43DBB204491340DBB20B70D1
:104C900000BF0C37BD465DF8047B70470D380240FD
:104CA00080B487B000AF0346FB710023FB60002394
:104CB0007B610023FB74FB795B09DBB2FB60FB6863
:104CC000012B03D1124B1B687B6109E0FB68022BAF
:104CD00003D10F4B1B6F7B6102E00D4B5B6F7B6160
:104CE000FB7903F01F03FB607A69FB6822FA03F388
:104CF00003F00103002B02D00123FB7401E0002329
:104D0000FB74FB7C18461C37BD465DF8047B70477E
:104D10000038024080B400AF054B5B6F044A43F09B
:104D20008073536700BFBD465DF8047B704700BFCA
:104D30000038024080B485B000AF0346FB71002309
:104D4000FB73094BDA68FB791340002B02D0012377
:104D5000FB7301E00023FB73FB7B18461437BD4651
:104D60005DF8047B704700BF0038024080B483B018
:104D700000AF0346FB71044AFB79137000BF0C3788
:104D8000BD465DF8047B70470E38024080B400AF2A
:104D900000BF00BFBD465DF8047B704780B400AF24
:104DA00030BF00BFBD465DF8047B704780B400AFE4
:104DB00020BF00BFBD465DF8047B704780B400AFE4
:104DC00040BF00BFBD465DF8047B704780B400AFB4
:104DD000BFF36F8F00BFBD465DF8047B704780B4A2
:104DE00000AFBFF34F8F00BFBD465DF8047B704737
:104DF00080B400AFBFF35F8F00BFBD465DF8047B9A
:104E0000704780B485B000AF78607B681BBAFB60E8
:104E1000FB6818461437BD465DF8047B704780B4C4
:104E200085B000AF78607B685BBAFB60FB681846B2
:104E30001437BD465DF8047B704780B485B000AF81
:104E400078607B68DBBAFB60FB6818461437BD46A8
:104E50005DF8047B704780B485B000AF78607B68F4
:104E600093FAA3F3FB60FB6818461437BD465DF860
:104E7000047B704780B485B000AF78607B68D3E86E
:104E80004F3FFB73FB7B18461437BD465DF8047B30
:104E9000704780B485B000AF78607B68D3E85F3F2F
:104EA000FB81FB8918461437BD465DF8047B7047CB
:104EB00080B485B000AF78607B6853E8003FFB604A
:104EC000FB6818461437BD465DF8047B704780B414
:104ED00085B000AF786039603B687A6843E80023AA
:104EE000FB60FB6818461437BD465DF8047B7047CD
:104EF00080B400AFBFF32F8F00BFBD465DF8047BC9
:104F0000704780B485B000AF78607B68B3FA83F3F4
:104F1000FB73FB7B18461437BD465DF8047B704776
:104F200080B400AF62B600BFBD465DF8047B704739
:104F300080B400AF72B600BFBD465DF8047B704719
:104F400080B483B000AFEFF314837B607B681846B6
:104F50000C37BD465DF8047B704780B483B000AF6A
:104F600078607B6883F3148800BF0C37BD465DF81A
:104F7000047B704780B483B000AFEFF305837B60A0
:104F80007B6818460C37BD465DF8047B704780B4DB
:104F900083B000AFEFF300837B607B6818460C376B
:104FA000BD465DF8047B704780B483B000AFEFF37B
:104FB00003837B607B6818460C37BD465DF8047B35
:104FC000704790B400AFEFF309831C4623461846A0
:104FD000BD4690BC704780B483B000AF78607B68FA
:104FE00083F3098800BF0C37BD465DF8047B70472A
:104FF00090B400AFEFF308831C4623461846BD4625
:1050000090BC704780B483B000AF78607B6883F356
:10501000088800BF0C37BD465DF8047B704780B43C
:1050200083B000AFEFF310837B607B6818460C37CA
:10503000BD465DF8047B704780B483B000AF7860F4
:105040007B6883F3108800BF0C37BD465DF8047B96
:10505000704780B400AF61B600BFBD465DF8047B09
:10506000704780B400AF71B600BFBD465DF8047BE9
:10507000704780B483B000AFEFF312837B607B682E
:1050800018460C37BD465DF8047B704780B483B08A
:1050900000AF78607B6883F3118800BF0C37BD4692
:1050A0005DF8047B704780B483B000AFEFF31383E7
:1050B0007B607B6818460C37BD465DF8047B704703
:1050C00080B483B000AF78607B6883F3138800BF3F
:1050D0000C37BD465DF8047B704780B483B000AFE9
:1050E000F1EE103A7B607B6818460C37BD465DF8E0
:1050F000047B704780B483B000AF78607B68E1EEDA
:10510000103A00BF0C37BD465DF8047B704780B491
:1051100085B000AF786039607B683A6883FA02F343
:10512000FB60FB6818461437BD465DF8047B70478A
:1051300080B485B000AF786039607B683A6883FAE4
:1051400012F3FB60FB6818461437BD465DF8047B1C
:10515000704780B485B000AF786039607B683A688A
:1051600083FA22F3FB60FB6818461437BD465DF8EE
:10517000047B704780B485B000AF786039607B688D
:105180003A6883FA42F3FB60FB6818461437BD4661
:105190005DF8047B704780B485B000AF78603960FB
:1051A0007B683A6883FA52F3FB60FB681846143751
:1051B000BD465DF8047B704780B485B000AF786071
:1051C00039607B683A6883FA62F3FB60FB681846D3
:1051D0001437BD465DF8047B704780B485B000AFDE
:1051E000786039607B683A68C3FA02F3FB60FB6859
:1051F00018461437BD465DF8047B704780B485B00F
:1052000000AF786039607B683A68C3FA12F3FB60DC
:10521000FB6818461437BD465DF8047B704780B4C0
:1052200085B000AF786039607B683A68C3FA22F3D2
:10523000FB60FB6818461437BD465DF8047B704779
:1052400080B485B000AF786039607B683A68C3FA93
:1052500042F3FB60FB6818461437BD465DF8047BDB
:10526000704780B485B000AF786039607B683A6879
:10527000C3FA52F3FB60FB6818461437BD465DF86D
:10528000047B704780B485B000AF786039607B687C
:105290003A68C3FA62F3FB60FB6818461437BD46F0
:1052A0005DF8047B704780B485B000AF78603960EA
:1052B0007B683A6893FA02F3FB60FB681846143780
:1052C000BD465DF8047B704780B485B000AF786060
:1052D00039607B683A6893FA12F3FB60FB68184602
:1052E0001437BD465DF8047B704780B485B000AFCD
:1052F000786039607B683A6893FA22F3FB60FB6858
:1053000018461437BD465DF8047B704780B485B0FD
:1053100000AF786039607B683A6893FA42F3FB60CB
:10532000FB6818461437BD465DF8047B704780B4AF
:1053300085B000AF786039607B683A6893FA52F3C1
:10534000FB60FB6818461437BD465DF8047B704768
:1053500080B485B000AF786039607B683A6893FAB2
:1053600062F3FB60FB6818461437BD465DF8047BAA
:10537000704780B485B000AF786039607B683A6868
:10538000D3FA02F3FB60FB6818461437BD465DF89C
:10539000047B704780B485B000AF786039607B686B
:1053A0003A68D3FA12F3FB60FB6818461437BD461F
:1053B0005DF8047B704780B485B000AF78603960D9
:1053C0007B683A68D3FA22F3FB60FB68184614370F
:1053D000BD465DF8047B704780B485B000AF78604F
:1053E00039607B683A68D3FA42F3FB60FB68184681
:1053F0001437BD465DF8047B704780B485B000AFBC
:10540000786039607B683A68D3FA52F3FB60FB68D6
:1054100018461437BD465DF8047B704780B485B0EC
:1054200000AF786039607B683A68D3FA62F3FB605A
:10543000FB6818461437BD465DF8047B704780B49E
:1054400085B000AF786039607B683A68A3FA02F3F0
:10545000FB60FB6818461437BD465DF8047B704757
:1054600080B485B000AF786039607B683A68A3FA91
:1054700012F3FB60FB6818461437BD465DF8047BE9
:10548000704780B485B000AF786039607B683A6857
:10549000A3FA22F3FB60FB6818461437BD465DF89B
:1054A000047B704780B485B000AF786039607B685A
:1054B0003A68A3FA42F3FB60FB6818461437BD460E
:1054C0005DF8047B704780B485B000AF78603960C8
:1054D0007B683A68A3FA52F3FB60FB6818461437FE
:1054E000BD465DF8047B704780B485B000AF78603E
:1054F00039607B683A68A3FA62F3FB60FB68184680
:105500001437BD465DF8047B704780B485B000AFAA
:10551000786039607B683A68E3FA02F3FB60FB6805
:1055200018461437BD465DF8047B704780B485B0DB
:1055300000AF786039607B683A68E3FA12F3FB6089
:10554000FB6818461437BD465DF8047B704780B48D
:1055500085B000AF786039607B683A68E3FA22F37F
:10556000FB60FB6818461437BD465DF8047B704746
:1055700080B485B000AF786039607B683A68E3FA40
:1055800042F3FB60FB6818461437BD465DF8047BA8
:10559000704780B485B000AF786039607B683A6846
:1055A000E3FA52F3FB60FB6818461437BD465DF81A
:1055B000047B704780B485B000AF786039607B6849
:1055C0003A68E3FA62F3FB60FB6818461437BD469D
:1055D0005DF8047B704780B485B000AF78603960B7
:1055E0007B683A6873FB02F3FB60FB68184614376C
:1055F000BD465DF8047B704780B487B000AFF860AB
:10560000B9607A60FB68BA68796873FB02137B61E2
:105610007B6918461C37BD465DF8047B704780B433
:1056200085B000AF78607B683FFA83F3FB60FB686E
:1056300018461437BD465DF8047B704780B485B0CA
:1056400000AF786039607B683A6833FA82F3FB60B8
:10565000FB6818461437BD465DF8047B704780B47C
:1056600085B000AF78607B682FFA83F3FB60FB683E
:1056700018461437BD465DF8047B704780B485B08A
:1056800000AF786039607B683A6823FA82F3FB6088
:10569000FB6818461437BD465DF8047B704780B43C
:1056A00085B000AF786039607B683A6823FB02F30D
:1056B000FB60FB6818461437BD465DF8047B7047F5
:1056C00080B485B000AF786039607B683A6823FBAE
:1056D00012F3FB60FB6818461437BD465DF8047B87
:1056E000704780B487B000AFF860B9607A60FB683B
:1056F000BA68796823FB02137B617B6918461C3703
:10570000BD465DF8047B704780B487B000AFF86099
:10571000B9607A60FB68BA68796823FB12137B6111
:105720007B6918461C37BD465DF8047B704780B422
:1057300085B000AF786039607B683A6843FB02F35C
:10574000FB60FB6818461437BD465DF8047B704764
:1057500080B485B000AF786039607B683A6843FBFD
:1057600012F3FB60FB6818461437BD465DF8047BF6
:10577000704780B487B000AFF860B9607A60FB68AA
:10578000BA68796843FB02137B617B6918461C3752
:10579000BD465DF8047B704780B487B000AFF86009
:1057A000B9607A60FB68BA68796843FB12137B6161
:1057B0007B6918461C37BD465DF8047B704780B492
:1057C00085B000AF786039607B683A68A3FA82F3ED
:1057D000FB60FB6818461437BD465DF8047B7047D4
:1057E00080B485B000AF786039607B683A6882FA2F
:1057F00083F3FB60FB6818461437BD465DF8047BF5
:10580000704780B485B000AF786039607B683A68D3
:1058100082FAA3F3FB60FB6818461437BD465DF8B7
:10582000047B704780B485B000AF78607B6803F07C
:105830000703FB600C4BDB68BB60BA684FF6FF03E5
:105840001340BB60FB681A02BB68134343F0BF639D
:1058500043F40033BB60044ABB68D36000BF143715
:10586000BD465DF8047B704700ED00E080B400AFFA
:10587000044BDB681B0A03F007031846BD465DF8BE
:10588000047B704700ED00E080B483B000AF0346B6
:10589000FB71FB7903F01F03012202FA03F1064AB0
:1058A00097F907305B0942F8231000BF0C37BD465B
:1058B0005DF8047B704700BF00E100E080B483B076
:1058C00000AF0346FB71FB7903F01F03012202FACC
:1058D00003F1064A97F907305B09203342F8231099
:1058E00000BF0C37BD465DF8047B704700E100E067
:1058F00080B483B000AF0346FB710C4A97F90730C0
:105900005B09403352F82330FA7902F01F0201217B
:1059100001FA02F21340002B01D0012300E0002322
:1059200018460C37BD465DF8047B704700E100E087
:1059300080B483B000AF0346FB71FB7903F01F0313
:10594000012202FA03F1064A97F907305B09403356
:1059500042F8231000BF0C37BD465DF8047B70474A
:1059600000E100E080B483B000AF0346FB71FB7937
:1059700003F01F03012202FA03F1064A97F90730E8
:105980005B09603342F8231000BF0C37BD465DF859
:10599000047B704700E100E080B483B000AF0346B1
:1059A000FB710C4A97F907305B09803352F82330BA
:1059B000FA7902F01F02012101FA02F21340002BD2
:1059C00001D0012300E0002318460C37BD465DF8E6
:1059D000047B704700E100E080B483B000AF034671
:1059E0003960FB7197F90730002B0BDA3B68DAB2AC
:1059F0000C49FB7903F00F03043B1201D2B20B44B4
:105A00001A7609E03B68DAB2074997F907301201C4
:105A1000D2B20B4483F8002300BF0C37BD465DF8BB
:105A2000047B704700ED00E000E100E080B483B04B
:105A300000AF0346FB7197F90730002B0ADA0D4AD5
:105A4000FB7903F00F03043B13441B7EDBB21B09FD
:105A5000DBB208E0084A97F90730134493F80033A3
:105A6000DBB21B09DBB218460C37BD465DF8047B80
:105A7000704700BF00ED00E000E100E080B489B0B5
:105A800000AFF860B9607A60FB6803F00703FB6160
:105A9000FB69C3F10703042B28BF0423BB61FB6927
:105AA0000433062B02D9FB69033B00E000237B6132
:105AB0000122BB6902FA03F3013B1A46BB681A4094
:105AC0007B699A4001217B6901FA03F3013B194686
:105AD0007B680B40134318462437BD465DF8047BB2
