:020000040040BA
:10000000C8120020690940000D0A40000D0A400096
:100010000D0A40000D0A40000D0A400000000000DB
:100020000000000000000000000000000D0A400079
:100030000D0A4000000000000D0A4000150A4000B3
:100040000D0A40000D0A40000D0A40000D0A400054
:100050000D0A40000D0A40000D0A40000D0A400044
:100060000D0A40000D0A40000D0A40000D0A400034
:100070000D0A40000D0A40000D0A40000D0A400024
:100080000D0A40000D0A40000D0A40000D0A400014
:100090000D0A40000D0A40000D0A40000D0A400004
:1000A0000D0A40000D0A40000D0A40000D0A4000F4
:1000B0000D0A40000D0A40000D0A40000D0A4000E4
:1000C0000D0A400080B400AF00BFBD4680BC704741
:1000D00080B400AF30BFBD4680BC704780B400AF75
:1000E00020BFBD4680BC704780B400AF40BFBD4656
:1000F00080BC704780B400AFBFF36F8FBD4680BC3B
:10010000704700BF80B400AFBFF34F8FBD4680BCC7
:10011000704700BF80B400AFBFF35F8FBD4680BCA7
:10012000704700BF90B484B000AF78607B681CBAA1
:10013000FC60FB68184607F11007BD4690BC70478D
:1001400090B484B000AF78607B685CBAFC60FB68F8
:10015000184607F11007BD4690BC704790B484B0B4
:1001600000AF78607B68DCBAFC60FB68184607F17A
:100170001007BD4690BC704780B483B000AF786074
:1001800039603A687B6863FA02F37B607B681846E3
:1001900007F10C07BD4680BC704700BF90B484B027
:1001A00000AF78607B6893FAA3F4FC60FB681846A4
:1001B00007F11007BD4690BC704700BF90B484B0F3
:1001C00000AF78607B68D3E84F4FFC73FB7B184629
:1001D00007F11007BD4690BC704700BF90B484B0D3
:1001E00000AF78607B68D3E85F4FFC81FB891846DD
:1001F00007F11007BD4690BC704700BF90B484B0B3
:1002000000AF78607B6853E8004FFC60FB681846DD
:1002100007F11007BD4690BC704700BF90B484B092
:1002200000AF03463960FB713B68FA79C3E8442F9D
:10023000FC60FB68184607F11007BD4690BC70478C
:1002400090B484B000AF03463960FB803B68FA8805
:10025000C3E8542FFC60FB68184607F11007BD4641
:1002600090BC704790B484B000AF786039603B6850
:100270007A6843E80024FC60FB68184607F1100721
:10028000BD4690BC704700BF80B400AFBFF32F8F56
:10029000BD4680BC704700BF90B484B000AF7860AA
:1002A0007B68B3FA83F4FC73FB7B184607F11007F5
:1002B000BD4690BC704700BF80B400AF62B6BD467B
:1002C00080BC704780B400AF72B6BD4680BC70473A
:1002D00090B482B000AFEFF314847C607B68184662
:1002E00007F10807BD4690BC704700BF80B483B0DB
:1002F00000AF78607B6883F3148807F10C07BD4674
:1003000080BC704790B482B000AFEFF305847C608E
:100310007B68184607F10807BD4690BC704700BFD0
:1003200090B482B000AFEFF300847C607B68184625
:1003300007F10807BD4690BC704700BF90B482B07B
:1003400000AFEFF303847C607B68184607F1080771
:10035000BD4690BC704700BF90B400AFEFF3098476
:1003600023461846BD4690BC704700BF80B483B09A
:1003700000AF78607B6883F3098807F10C07BD46FE
:1003800080BC704790B400AFEFF308842346184652
:10039000BD4690BC704700BF80B483B000AF7860AA
:1003A0007B6883F3088807F10C07BD4680BC704763
:1003B00090B482B000AFEFF310847C607B68184685
:1003C00007F10807BD4690BC704700BF80B483B0FA
:1003D00000AF78607B6883F3108807F10C07BD4697
:1003E00080BC704780B400AF61B6BD4680BC70472A
:1003F00080B400AF71B6BD4680BC704790B482B087
:1004000000AFEFF312847C607B68184607F10807A1
:10041000BD4690BC704700BF80B483B000AF786029
:100420007B6883F3118807F10C07BD4680BC7047D9
:1004300090B482B000AFEFF313847C607B68184601
:1004400007F10807BD4690BC704700BF80B483B079
:1004500000AF78607B6883F3138807F10C07BD4613
:1004600080BC704780B485B000AF78607B6803F0D3
:100470000703FB604FF46D43CEF20003DB68BB6003
:10048000BA684FF6FF031340BB60FB684FEA0322D4
:10049000BB68134343F0BE6343F42023BB604FF4B7
:1004A0006D43CEF20003BA68DA6007F11407BD4667
:1004B00080BC704780B400AF4FF46D43CEF20003B0
:1004C000DB6803F4E0634FEA13231846BD4680BCA3
:1004D000704700BF80B483B000AF0346FB714FF498
:1004E0006143CEF2000397F907204FEA5212F979DF
:1004F00001F01F014FF0010000FA01F143F8221052
:1005000007F10C07BD4680BC704700BF80B483B0C4
:1005100000AF0346FB714FF46143CEF2000397F93D
:1005200007204FEA5212F97901F01F014FF0010044
:1005300000FA01F102F1200243F8221007F10C0742
:10054000BD4680BC704700BF80B483B000AF034697
:10055000FB714FF46143CEF2000397F907204FEA95
:10056000521202F1400253F822301A46FB7903F08E
:100570001F034FF0010101FA03F31340002B02D0D7
:100580004FF0010301E04FF00003184607F10C079C
:10059000BD4680BC704700BF80B483B000AF034647
:1005A000FB714FF46143CEF2000397F907204FEA45
:1005B0005212F97901F01F014FF0010000FA01F128
:1005C00002F1400243F8221007F10C07BD4680BC3F
:1005D000704700BF80B483B000AF0346FB714FF497
:1005E0006143CEF2000397F907204FEA5212F979DE
:1005F00001F01F014FF0010000FA01F102F1600269
:1006000043F8221007F10C07BD4680BC704700BFBD
:1006100080B483B000AF0346FB714FF46143CEF268
:10062000000397F907204FEA521202F1800253F8B3
:1006300022301A46FB7903F01F034FF0010101FA43
:1006400003F31340002B02D04FF0010301E04FF001
:100650000003184607F10C07BD4680BC704700BF79
:1006600080B483B000AF03463960FB7197F907305F
:10067000002B10DA4FF46D43CEF20003FA7902F04A
:100680000F02A2F104013A68D2B24FEA0212D2B2CA
:100690005B181A760DE04FF46143CEF2000397F930
:1006A00007103A68D2B24FEA0212D2B25B1883F84E
:1006B000002307F10C07BD4680BC704780B483B0AF
:1006C00000AF0346FB7197F90730002B0FDA4FF4A8
:1006D0006D43CEF20003FA7902F00F02A2F1040298
:1006E0009B181B7EDBB24FEA1313DBB20CE04FF416
:1006F0006143CEF2000397F907209B1893F800336B
:10070000DBB24FEA1313DBB2184607F10C07BD4604
:1007100080BC704780B489B000AFF860B9607A607F
:10072000FB6803F00703FB61FB69C3F10703042BBC
:1007300028BF0423BB61FB6903F10403062B03D923
:10074000FB69A3F1030301E04FF000037B61BB6988
:100750004FF0010202FA03F303F1FF331A46BB68BC
:100760001A407B6902FA03F27B694FF0010101FA3A
:1007700003F303F1FF3319467B680B40134318461C
:1007800007F12407BD4680BC704700BF80B489B024
:1007900000AFF860B9607A603B60BB6803F00703A4
:1007A000FB61FB69C3F10703042B28BF0423BB6172
:1007B000FB6903F10403062B03D9FB69A3F10303CF
:1007C00001E04FF000037B617B69FA6822FA03F2D3
:1007D000BB694FF0010101FA03F303F1FF331A4043
:1007E0007B681A607B694FF0010202FA03F303F1A0
:1007F000FF331A46FB681A403B681A6007F124076A
:10080000BD4680BC704700BF80B400AFBFF34F8FC0
:100810004FF46D42CEF200024FF46D43CEF200036E
:10082000DB6803F4E0614FF00403C0F2FA530B43BA
:10083000D360BFF34F8FFEE780B582B000AF786022
:100840007A686FF07F439A4202D94FF001031FE0AC
:100850004EF21003CEF200037A6822F07F4202F1DA
:10086000FF325A604FF0FF304FF00F01FFF7F8FEF4
:100870004EF21003CEF200034FF000029A604EF2E7
:100880001003CEF200034FF007021A604FF000038E
:10089000184607F10807BD4680BD00BF80B483B08D
:1008A00000AF78604FF06043D3F8803E03F001035F
:1008B000DBB2002B13D04FF06043D3F8003E03F0BF
:1008C0000103DBB2002B0AD000BF4FF060431B686E
:1008D000002BFAD04FF060437A68D2B21A707B686E
:1008E000184607F10C07BD4680BC704780B483B042
:1008F00000AF4FF0FF337B6040F6BC23C2F2000331
:100900001A6845F6A523C5F6A5239A420ED040F6EF
:10091000BC23C2F200031B687B6040F6BC23C2F21A
:10092000000345F6A522C5F6A5221A607B68184685
:1009300007F10C07BD4680BC704700BF80B400AF14
:1009400040F6BC23C2F200031A6845F6A523C5F69B
:10095000A5239A4202D14FF0000301E04FF00103BA
:100960001846BD4680BC7047B0B500AF4FF23C356D
:10097000C0F2420540F20004C2F20004A5420CD0CD
:1009800005E02B68236004F1040405F1040540F63A
:100990006413C2F200039C42F3D340F66414C2F223
:1009A000000404E04FF00003236004F1040440F667
:1009B000C423C2F200039C42F4D340F20005C0F20B
:1009C00040054FF46D43CEF200032A4622F0604208
:1009D00022F07F029A602A466FF060439A4212D951
:1009E0002A4645F6FF73C2F200039A420BD84FF431
:1009F0006D43CEF200034FF46D42CEF200029268D6
:100A000042F000529A6000F0ABFCFEE780B400AF09
:100A1000FEE700BF80B400AF40F6B813C2F2000397
:100A20001B68002B0BD040F6B813C2F200031B6802
:100A300003F1FF3240F6B813C2F200031A60BD465C
:100A400080BC704780B483B000AF786040F6B813C4
:100A5000C2F200037A681A6000BF40F6B813C2F20F
:100A600000031B68002BF8D107F10C07BD4680BCC2
:100A7000704700BF80B400AF00BFBD4680BC704768
:100A800080B400AF30BFBD4680BC704780B400AFBB
:100A900020BFBD4680BC704780B400AF40BFBD469C
:100AA00080BC704780B400AFBFF36F8FBD4680BC81
:100AB000704700BF80B400AFBFF34F8FBD4680BC0E
:100AC000704700BF80B400AFBFF35F8FBD4680BCEE
:100AD000704700BF90B484B000AF78607B681CBAE8
:100AE000FC60FB68184607F11007BD4690BC7047D4
:100AF00090B484B000AF78607B685CBAFC60FB683F
:100B0000184607F11007BD4690BC704790B484B0FA
:100B100000AF78607B68DCBAFC60FB68184607F1C0
:100B20001007BD4690BC704780B483B000AF7860BA
:100B300039603A687B6863FA02F37B607B68184629
:100B400007F10C07BD4680BC704700BF90B484B06D
:100B500000AF78607B6893FAA3F4FC60FB681846EA
:100B600007F11007BD4690BC704700BF90B484B039
:100B700000AF78607B68D3E84F4FFC73FB7B18466F
:100B800007F11007BD4690BC704700BF90B484B019
:100B900000AF78607B68D3E85F4FFC81FB89184623
:100BA00007F11007BD4690BC704700BF90B484B0F9
:100BB00000AF78607B6853E8004FFC60FB68184624
:100BC00007F11007BD4690BC704700BF90B484B0D9
:100BD00000AF03463960FB713B68FA79C3E8442FE4
:100BE000FC60FB68184607F11007BD4690BC7047D3
:100BF00090B484B000AF03463960FB803B68FA884C
:100C0000C3E8542FFC60FB68184607F11007BD4687
:100C100090BC704790B484B000AF786039603B6896
:100C20007A6843E80024FC60FB68184607F1100767
:100C3000BD4690BC704700BF80B400AFBFF32F8F9C
:100C4000BD4680BC704700BF90B484B000AF7860F0
:100C50007B68B3FA83F4FC73FB7B184607F110073B
:100C6000BD4690BC704700BF80B400AF62B6BD46C1
:100C700080BC704780B400AF72B6BD4680BC704780
:100C800090B482B000AFEFF314847C607B681846A8
:100C900007F10807BD4690BC704700BF80B483B021
:100CA00000AF78607B6883F3148807F10C07BD46BA
:100CB00080BC704790B482B000AFEFF305847C60D5
:100CC0007B68184607F10807BD4690BC704700BF17
:100CD00090B482B000AFEFF300847C607B6818466C
:100CE00007F10807BD4690BC704700BF90B482B0C2
:100CF00000AFEFF303847C607B68184607F10807B8
:100D0000BD4690BC704700BF90B400AFEFF30984BC
:100D100023461846BD4690BC704700BF80B483B0E0
:100D200000AF78607B6883F3098807F10C07BD4644
:100D300080BC704790B400AFEFF308842346184698
:100D4000BD4690BC704700BF80B483B000AF7860F0
:100D50007B6883F3088807F10C07BD4680BC7047A9
:100D600090B482B000AFEFF310847C607B681846CB
:100D700007F10807BD4690BC704700BF80B483B040
:100D800000AF78607B6883F3108807F10C07BD46DD
:100D900080BC704780B400AF61B6BD4680BC704770
:100DA00080B400AF71B6BD4680BC704790B482B0CD
:100DB00000AFEFF312847C607B68184607F10807E8
:100DC000BD4690BC704700BF80B483B000AF786070
:100DD0007B6883F3118807F10C07BD4680BC704720
:100DE00090B482B000AFEFF313847C607B68184648
:100DF00007F10807BD4690BC704700BF80B483B0C0
:100E000000AF78607B6883F3138807F10C07BD4659
:100E100080BC704780B485B000AF78607B6803F019
:100E20000703FB604FF46D43CEF20003DB68BB6049
:100E3000BA684FF6FF031340BB60FB684FEA03221A
:100E4000BB68134343F0BE6343F42023BB604FF4FD
:100E50006D43CEF20003BA68DA6007F11407BD46AD
:100E600080BC704780B400AF4FF46D43CEF20003F6
:100E7000DB6803F4E0634FEA13231846BD4680BCE9
:100E8000704700BF80B483B000AF0346FB714FF4DE
:100E90006143CEF2000397F907204FEA5212F97925
:100EA00001F01F014FF0010000FA01F143F8221098
:100EB00007F10C07BD4680BC704700BF80B483B00B
:100EC00000AF0346FB714FF46143CEF2000397F984
:100ED00007204FEA5212F97901F01F014FF001008B
:100EE00000FA01F102F1200243F8221007F10C0789
:100EF000BD4680BC704700BF80B483B000AF0346DE
:100F0000FB714FF46143CEF2000397F907204FEADB
:100F1000521202F1400253F822301A46FB7903F0D4
:100F20001F034FF0010101FA03F31340002B02D01D
:100F30004FF0010301E04FF00003184607F10C07E2
:100F4000BD4680BC704700BF80B483B000AF03468D
:100F5000FB714FF46143CEF2000397F907204FEA8B
:100F60005212F97901F01F014FF0010000FA01F16E
:100F700002F1400243F8221007F10C07BD4680BC85
:100F8000704700BF80B483B000AF0346FB714FF4DD
:100F90006143CEF2000397F907204FEA5212F97924
:100FA00001F01F014FF0010000FA01F102F16002AF
:100FB00043F8221007F10C07BD4680BC704700BF04
:100FC00080B483B000AF0346FB714FF46143CEF2AF
:100FD000000397F907204FEA521202F1800253F8FA
:100FE00022301A46FB7903F01F034FF0010101FA8A
:100FF00003F31340002B02D04FF0010301E04FF048
:101000000003184607F10C07BD4680BC704700BFBF
:1010100080B483B000AF03463960FB7197F90730A5
:10102000002B10DA4FF46D43CEF20003FA7902F090
:101030000F02A2F104013A68D2B24FEA0212D2B210
:101040005B181A760DE04FF46143CEF2000397F976
:1010500007103A68D2B24FEA0212D2B25B1883F894
:10106000002307F10C07BD4680BC704780B483B0F5
:1010700000AF0346FB7197F90730002B0FDA4FF4EE
:101080006D43CEF20003FA7902F00F02A2F10402DE
:101090009B181B7EDBB24FEA1313DBB20CE04FF45C
:1010A0006143CEF2000397F907209B1893F80033B1
:1010B000DBB24FEA1313DBB2184607F10C07BD464B
:1010C00080BC704780B489B000AFF860B9607A60C6
:1010D000FB6803F00703FB61FB69C3F10703042B03
:1010E00028BF0423BB61FB6903F10403062B03D96A
:1010F000FB69A3F1030301E04FF000037B61BB69CF
:101100004FF0010202FA03F303F1FF331A46BB6802
:101110001A407B6902FA03F27B694FF0010101FA80
:1011200003F303F1FF3319467B680B401343184662
:1011300007F12407BD4680BC704700BF80B489B06A
:1011400000AFF860B9607A603B60BB6803F00703EA
:10115000FB61FB69C3F10703042B28BF0423BB61B8
:10116000FB6903F10403062B03D9FB69A3F1030315
:1011700001E04FF000037B617B69FA6822FA03F219
:10118000BB694FF0010101FA03F303F1FF331A4089
:101190007B681A607B694FF0010202FA03F303F1E6
:1011A000FF331A46FB681A403B681A6007F12407B0
:1011B000BD4680BC704700BF80B400AFBFF34F8F07
:1011C0004FF46D42CEF200024FF46D43CEF20003B5
:1011D000DB6803F4E0614FF00403C0F2FA530B4301
:1011E000D360BFF34F8FFEE780B582B000AF786069
:1011F0007A686FF07F439A4202D94FF001031FE0F3
:101200004EF21003CEF200037A6822F07F4202F120
:10121000FF325A604FF0FF304FF00F01FFF7F8FE3A
:101220004EF21003CEF200034FF000029A604EF22D
:101230001003CEF200034FF007021A604FF00003D4
:10124000184607F10807BD4680BD00BF80B483B0D3
:1012500000AF78604FF06043D3F8803E03F00103A5
:10126000DBB2002B13D04FF06043D3F8003E03F005
:101270000103DBB2002B0AD000BF4FF060431B68B4
:10128000002BFAD04FF060437A68D2B21A707B68B4
:10129000184607F10C07BD4680BC704780B483B088
:1012A00000AF4FF0FF337B6040F6BC23C2F2000377
:1012B0001A6845F6A523C5F6A5239A420ED040F636
:1012C000BC23C2F200031B687B6040F6BC23C2F261
:1012D000000345F6A522C5F6A5221A607B681846CC
:1012E00007F10C07BD4680BC704700BF80B400AF5B
:1012F00040F6BC23C2F200031A6845F6A523C5F6E2
:10130000A5239A4202D14FF0000301E04FF0010300
:101310001846BD4680BC704780B500AF40F2000063
:10132000C2F2000001F0B0FB80BD00BF80B500AF8D
:1013300040F20000C2F2000001F098FB80BD00BF47
:1013400080B500AF014801F091FB80BD2000002076
:1013500080B500AF014801F097FB80BD2000002060
:1013600090B585B002AF49F62403C0F240039B78E4
:101370004FEA03239AB249F62403C0F24003DB7814
:10138000D3189AB240F66413C2F200039A8049F669
:101390002403C0F240031B794FEA03239AB249F6B3
:1013A0002403C0F240035B79D3189AB240F6641369
:1013B000C2F20003DA804FF4A070FFF715FF00F0CF
:1013C000A5F800F0BBF94FF00103FB7198E04FF076
:1013D0000003BB801EE0BA88FB794FEA4303B9885B
:1013E00001FB03F14FF0FF03C8F200030B40002B99
:1013F00005DA03F1FF3363F0FF0303F1010399B250
:1014000040F6BC13C2F2000323F81210BB8803F1AC
:101410000103BB80BB887F2BDDD94FF00003BB806D
:101420002CE0BB8803F1380398B2BA8840F6BC13AD
:10143000C2F2000333F812304FEA93039BB2C3F1B8
:10144000840399B2BB8803F139039AB2BB8803F1D4
:10145000010440F6BC13C2F2000333F814304FEA23
:1014600093039BB2C3F184039BB24FF4784400947E
:1014700000F0B8FCBB8803F10103BB80BB887E2B66
:10148000CFD944F62060FFF7DDFA4FF00003BB80B0
:101490002FE0BB8803F1380398B2BA8840F6BC133A
:1014A000C2F2000333F812304FEA93039BB2C3F148
:1014B000840399B2BB8803F139039AB2BB8803F164
:1014C000010440F6BC13C2F2000333F814304FEAB3
:1014D00093039BB2C3F184039CB249F62403C0F288
:1014E00040030093234600F0E9FCBB8803F10103AD
:1014F000BB80BB887E2BCCD9FB7903F10103FB7148
:10150000FB79042B7FF663AF5DE700BF80B582B047
:1015100000AF4FF000037B6010E07B684FEA43129E
:1015200040F20003C2F20003D31818464FF0010145
:1015300001F0FEF97B6803F101037B607B68042BFB
:10154000EBD94FF0150001F031F84FF001033B608B
:101550004FF40040C4F200004FF015013A6801F06A
:10156000FBFA4FF400633B604FF40040C4F200000C
:101570004FF000013A6801F013FB4FF40040C4F251
:10158000000001F0CDFA07F10807BD4680BD00BF9D
:1015900080B582B000AF0346FB71FB794FF4004089
:1015A000C4F200004FF000011A4601F00BFB07F1F6
:1015B0000807BD4680BD00BF80B582B000AF0346BE
:1015C000FB71FFF7C5FEFFF7A7FEFB791846FFF793
:1015D000DFFFFFF7ABFE07F10807BD4680BD00BF88
:1015E00080B584B000AF0346FB80FB884FEA13232D
:1015F0009BB2FB73FB88BB73FFF7A2FEFFF78CFE69
:10160000FB7B1846FFF7C4FFBB7B1846FFF7C0FF04
:10161000FFF78CFE07F11007BD4680BD80B582B094
:1016200000AF0346FB71FFF78BFEFFF775FEFB79FA
:101630001846FFF7ADFFFFF779FE07F10807BD4633
:1016400080BD00BF80B584B000AF02460B46FA7182
:10165000BB714FF00003FB734FF0D900FFF7ACFFF5
:10166000BB7903F11003DBB21846FFF7D7FFFFF792
:101670006FFEFFF751FEFB791846FFF789FFFFF772
:101680005FFE4FF00000FFF783FF4FF40040C4F20D
:10169000000001F009FB0346FB73FFF747FEFB7BED
:1016A000184607F11007BD4680BD00BF90B583B056
:1016B00000AF4FF00003FB7149F62003C0F2400376
:1016C00039461A464FF00303084611461A4601F000
:1016D00033FB4FF00003FB7125E0FC79FB7903F14C
:1016E0000103DBB24FF0D3001946FFF7ABFF03460F
:1016F0001A4607F108010B1903F8042CFB7907F1CE
:101700000802D31813F8042CFB7907F10801CB1851
:1017100013F8083C9A4202D04FF0000308E0FB792E
:1017200003F10103FB71FB79022BD6D94FF00103C2
:10173000184607F10C07BD4690BD00BF80B582B0CA
:1017400000AF4FF00003FB71FFF7F0FDFFF7F8FD6E
:101750004FF00003FB7105E0FFF7A8FFFB7903F1F1
:101760000103FB71FB79022BF6D94FF00500FFF75F
:1017700069F94FF00100FFF71FFF4FF00200FFF77C
:1017800061F94FF0CF00FFF717FF4FF00000FFF7B0
:1017900045FF4FF08B00FFF741FF4FF03000FFF7A0
:1017A0003DFF4FF0ED00FFF707FF4FF06700FFF739
:1017B00035FF4FF00300FFF731FF4FF01200FFF746
:1017C0002DFF4FF08100FFF729FF4FF0E800FFF7F2
:1017D000F3FE4FF08500FFF721FF4FF01000FFF7F9
:1017E0001DFF4FF07A00FFF719FF4FF0CB00FFF716
:1017F000E3FE4FF03900FFF711FF4FF02C00FFF729
:101800000DFF4FF00000FFF709FF4FF03400FFF726
:1018100005FF4FF00200FFF701FF4FF0F700FFF761
:10182000CBFE4FF02000FFF7F9FE4FF0EA00FFF784
:10183000C3FE4FF00000FFF7F1FE4FF00000FFF78E
:10184000EDFE4FF0C000FFF7B7FE4FF01B00FFF7B3
:10185000E5FE4FF0C100FFF7AFFE4FF01000FFF7BD
:10186000DDFE4FF0C500FFF7A7FE4FF03F00FFF78A
:10187000D5FE4FF03C00FFF7D1FE4FF0C700FFF759
:101880009BFE4FF0B700FFF7C9FE4FF03600FFF7A1
:1018900093FE4FF00800FFF7C1FE4FF03A00FFF74C
:1018A0008BFE4FF05500FFF7B9FE4FF0B100FFF788
:1018B00083FE4FF00000FFF7B1FE4FF01B00FFF773
:1018C000ADFE4FF0B600FFF777FE4FF00A00FFF7CE
:1018D000A5FE4FF0A200FFF7A1FE4FF0F200FFF7C8
:1018E0006BFE4FF00000FFF799FE4FF02600FFF768
:1018F00063FE4FF00100FFF791FE4FF0E000FFF7AD
:101900005BFE4FF00F00FFF789FE4FF02A00FFF754
:1019100085FE4FF02800FFF781FE4FF00800FFF72B
:101920007DFE4FF00E00FFF779FE4FF00800FFF745
:1019300075FE4FF05400FFF771FE4FF0A900FFF75E
:101940006DFE4FF04300FFF769FE4FF00A00FFF70E
:1019500065FE4FF00F00FFF761FE4FF00000FFF74C
:101960005DFE4FF00000FFF759FE4FF00000FFF75B
:1019700055FE4FF00000FFF751FE4FF0E100FFF77A
:101980001BFE4FF00000FFF749FE4FF01500FFF778
:1019900045FE4FF01700FFF741FE4FF00700FFF73D
:1019A0003DFE4FF01100FFF739FE4FF00600FFF744
:1019B00035FE4FF02B00FFF731FE4FF05600FFF7DA
:1019C0002DFE4FF03C00FFF729FE4FF00500FFF71A
:1019D00025FE4FF01000FFF721FE4FF00F00FFF73C
:1019E0001DFE4FF03F00FFF719FE4FF03F00FFF7DD
:1019F00015FE4FF00F00FFF711FE4FF01100FFF73B
:101A0000DBFD4FF00100FFF71DF84FF02900FFF755
:101A1000D3FD00F0F9F807F10807BD4680BD00BF0F
:101A200080B582B000AF02460B46FA80BB804FF013
:101A30002A00FFF7C1FDFB881846FFF7D1FDBB88E0
:101A40001846FFF7CDFD07F10807BD4680BD00BF72
:101A500080B582B000AF02460B46FA80BB804FF0E3
:101A60002B00FFF7A9FDFB881846FFF7B9FDBB88DF
:101A70001846FFF7B5FD07F10807BD4680BD00BF5A
:101A800080B483B000AF13460246FA800A46BA809B
:101A90007B80B7F90620B7F902309A4205DB7B88D4
:101AA00003F1FF339BB29BB208E0B7F90620B7F908
:101AB00004309A4201DABB8800E0FB881BB218466A
:101AC00007F10C07BD4680BC704700BF80B586B0EB
:101AD00000AFF880B9807A803B804FF000033B6113
:101AE0004FF000037B61FA88BB889A420BD9FA88D1
:101AF000BB885340FB80FA88BB885340BB80FA8880
:101B0000BB885340FB807A883B889A420BD97A88FD
:101B10003B8853407B807A883B8853403B807A885F
:101B20003B8853407B80FB881BB218464FF0000176
:101B30004FF0EF02FFF7A4FF0346FB80BB881BB208
:101B400018464FF000014FF0EF02FFF799FF0346F0
:101B5000BB807B881BB218464FF0000140F23F1259
:101B6000FFF78EFF03467B803B881BB218464FF081
:101B7000000140F23F12FFF783FF03463B80BA8823
:101B8000FB88D31A03F101033B613A887B88D31A9F
:101B900003F101031A463B6902FB03F33B61FA8838
:101BA000BB8810461946FFF73BFF7A883B881046F2
:101BB0001946FFF74DFF4FF02C00FFF7FDFCFFF734
:101BC000BFFBFFF7A9FB3B8C4FEA13239BB2FB73D0
:101BD0003B8CBB734FF000037B610BE0FB7B184633
:101BE000FFF7D6FCBB7B1846FFF7D2FC7B6903F1FD
:101BF00001037B617A693B699A42EFD3FFF796FB59
:101C000007F11807BD4680BD80B582B000AF40F631
:101C10006413C2F200039B884FEA430240F6641348
:101C2000C2F20003DB8803FB02F33B604FF00000CD
:101C30004FF0EF01FFF7F4FE4FF0000040F23F11CC
:101C4000FFF706FF4FF02C00FFF7B6FCFFF778FB1D
:101C5000FFF762FB4FF000037B600EE07B6803F14F
:101C6000080249F62403C0F240039B5C1846FFF7C4
:101C70008FFC7B6803F101037B607A683B689A42C2
:101C8000ECD3FFF753FB07F10807BD4680BD00BF4B
:101C900080B582B000AF02460B46FA80BB80FA885E
:101CA000FB8810461946FFF7BBFEBA88BB88104672
:101CB0001946FFF7CDFE4FF02C00FFF77DFC07F132
:101CC0000807BD4680BD00BF80B582B000AF134697
:101CD0000246FA800A46BA807B80FA88BB881046A2
:101CE0001946FFF7D5FF7B881846FFF779FC07F107
:101CF0000807BD4680BD00BF90B585B002AFF88033
:101D0000B9807A803B80FA887B88D31899B2BA88E8
:101D10003B88D3189BB2F888BA883C8B0094FFF7B5
:101D2000D5FE07F10C07BD4690BD00BF80B584B05D
:101D300000AFF880B9807A803B80FA887B88D3181E
:101D40009BB2FA8810461946FFF76AFEBA88BB882C
:101D500010461946FFF77CFE4FF02C00FFF72CFCD5
:101D60004FF00003FB8107E03B881846FFF738FC83
:101D7000FB8903F10103FB81FA897B889A42F3D343
:101D800007F11007BD4680BD80B584B000AFF88074
:101D9000B9807A803B80FA88FB8810461946FFF7A5
:101DA0003FFEBA887B88D3189BB2BA881046194682
:101DB000FFF74EFE4FF02C00FFF7FEFB4FF0000345
:101DC000FB8107E03B881846FFF70AFCFB8903F11B
:101DD0000103FB81FA897B889A42F3D307F110074C
:101DE000BD4680BD80B58AB000AFF880B9807A80EA
:101DF0003B807A88FB88D31A3B623A88BB88D31A27
:101E0000FB613B6A002BB8BF5B42BB61FA887B88F1
:101E10009A4202D24FF0010301E04FF0FF337B61A1
:101E2000FB69002BB8BF5B42C3F100033B61BA887A
:101E30003B889A4202D24FF0010301E04FF0FF339A
:101E4000FB60BA693B69D3187B6200E000BFF98888
:101E5000BA883B8E084611461A46FFF735FF7B6A63
:101E60004FEA4303BB60BA683B699A420CDBFA88CD
:101E70007B889A421AD07A6A3B69D3187B627B6965
:101E80009AB2FB88D318FB80BA68BB699A42DDDC42
:101E9000BA883B889A420BD07A6ABB69D3187B62B6
:101EA000FB689AB2BB88D318BB80CFE700BF00E0C5
:101EB00000BF07F12807BD4680BD00BF80B58EB0CA
:101EC00000AFF880B9807A803B803B6C03F102035D
:101ED0001B784FEA03239AB23B6C03F103031B7890
:101EE000D3187B867A88FB88D31AFB623A88BB8832
:101EF000D31ABB62FB6A002BB8BF5B427B62FA88D5
:101F00007B889A4202D24FF0010301E04FF0FF3389
:101F10003B62BB6A002BB8BF5B42C3F10003FB61AD
:101F2000BA883B889A4202D24FF0010301E04FF099
:101F3000FF33BB617A6AFB69D3187B6300E000BFA3
:101F4000BB887A8E02FB03F2FB88D31803F10403EB
:101F50004FEA43037B617B693A6CD3181B784FEAE5
:101F600003239AB27B6903F10103396CCB181B7808
:101F7000D3187B82F988BA887B8A084611461A46AC
:101F8000FFF7A2FE7B6B4FEA4303FB60FA68FB6935
:101F90009A420CDBFA887B889A421AD07A6BFB69EA
:101FA000D3187B633B6A9AB2FB88D318FB80FA682C
:101FB0007B6A9A42C3DCBA883B889A420BD07A6B20
:101FC0007B6AD3187B63BB699AB2BB88D318BB808A
:101FD000B5E700BF00E000BF07F13807BD4680BD90
:101FE00080B582B000AFF880B9807A803B80F888F5
:101FF000B9887A883B8AFFF799FEBA883B88D3185C
:1020000099B2F8887A883B8AFFF790FEF888B988F9
:102010003A883B8AFFF7B8FEFA887B88D31898B2D3
:10202000B9883A883B8AFFF7AFFE07F10807BD463B
:1020300080BD00BF80B588B000AFF860B9607A603D
:102040007B807B68C3F10003FB614FF00003BB6141
:102050007A6813464FEAC3739B1A4FEA430303F1AE
:1020600002037B61FB689AB2FB699BB2D31A99B2F7
:10207000BB689AB2BB699BB2D3189AB27B880846F8
:1020800011461A46FFF720FEFB689AB2FB699BB225
:10209000D31899B2BB689AB2BB699BB2D3189AB2F3
:1020A0007B88084611461A46FFF70EFEFB689AB277
:1020B000FB699BB2D31899B2BB689AB2BB699BB259
:1020C000D31A9AB27B88084611461A46FFF7FCFDE0
:1020D000FB689AB2FB699BB2D31A99B2BB689AB2F9
:1020E000BB699BB2D31A9AB27B88084611461A463E
:1020F000FFF7EAFD7B693B613A69BB699A4218DCEC
:10210000BB6903F10103BB61BB694FEA430303F100
:1021100001037A69D3187B61FB69C3F10002BB69D3
:102120009A4206D13A69FB699A4202DC4FF00003F9
:102130003B613A69FB699A420BDDFB6903F10103DC
:10214000FB61FB694FEA430303F101037A69D3188A
:102150007B61FB69002B85DD07F12007BD4680BD53
:1021600080B588B000AFF860B9607A607B807B682A
:10217000C3F10003FB614FF00003BB617A681346B3
:102180004FEAC3739B1A4FEA430303F102037B61D7
:10219000FB689AB2FB699BB2D31A98B2BB689AB239
:1021A000BB699BB2D31A99B2BB699BB24FEA430396
:1021B0009AB27B88FFF7E8FDFB689AB2FB699BB295
:1021C000D31898B2BB689AB2BB699BB2D31A99B2C2
:1021D000BB699BB24FEA43039AB27B88FFF7D4FDF9
:1021E0007B693B613A69BB699A4218DCBB6903F1C0
:1021F0000103BB61BB694FEA430303F101037A6941
:10220000D3187B61FB69C3F10002BB699A4206D116
:102210003A69FB699A4202DC4FF000033B613A697C
:10222000FB699A420BDDFB6903F10103FB61FB696A
:102230004FEA430303F101037A69D3187B61FB6919
:10224000002BA5DD07F12007BD4680BD90B587B006
:1022500002AFF860B9607A603B60FB6898B2BB6817
:1022600099B27B689AB23B689BB23C8D0094FFF7B1
:10227000B9FDFB6898B2BB6899B23B6A9AB27B6AB7
:102280009BB23C8D0094FFF7ADFD7B6898B23B6834
:1022900099B23B6A9AB27B6A9BB23C8D0094FFF77D
:1022A000A1FD07F11407BD4690BD00BF80B400AF8B
:1022B00040F67013C2F200031846BD4680BC70475A
:1022C00080B582B000AF78604FF001004FF22C0172
:1022D000C0F242014FF0040200F044F9FEE700BFF3
:1022E00080B483B000AF78604FF0FF33184607F139
:1022F0000C07BD4680BC704780B485B000AFF86065
:10230000B9607A6040F6C023C2F200034FF00C02BD
:102310001A604FF0FF33184607F11407BD4680BC22
:10232000704700BF80B400AF40F6C023C2F2000384
:102330004FF00B021A604FF0FF331846BD4680BCC9
:10234000704700BF80B483B000AF786039603B68ED
:102350004FF400525A604FF00003184607F10C0783
:10236000BD4680BC704700BF80B400AF4FF0010392
:102370001846BD4680BC704780B483B000AF78601B
:102380007B6803F10003022B02D84FF0010308E041
:1023900040F6C023C2F200034FF009021A604FF06A
:1023A0000003184607F10C07BD4680BC704700BF0C
:1023B00080B483B000AF7860396040F6C023C2F2C9
:1023C00000034FF016021A604FF0FF33184607F172
:1023D0000C07BD4680BC704780B483B000AF786006
:1023E000396040F6C023C2F200034FF01F021A60AA
:1023F0004FF0FF33184607F10C07BD4680BC70470D
:1024000080B485B000AFF860B9607A604FF0000327
:10241000184607F11407BD4680BC704780B584B0EC
:1024200000AF786040F67413C2F200031B68002B03
:1024300008D140F67413C2F2000340F6C422C2F27F
:1024400000021A6040F67413C2F200031B68FB60BE
:1024500040F6C823C2F20003BB6040F67413C2F218
:1024600000031A687B68D218BB689A4213D94FF0F0
:1024700002004FF23401C0F242014FF0190200F0A5
:1024800071F840F6C023C2F200034FF00C021A604C
:102490004FF0FF330CE040F67413C2F200031A68E9
:1024A0007B68D21840F67413C2F200031A60FB680E
:1024B000184607F11007BD4680BD00BF80B485B047
:1024C00000AFF860B9607A604FF00103184607F179
:1024D0001407BD4680BC704780B483B000AF7860FD
:1024E00039603B684FF400525A604FF000031846C1
:1024F00007F10C07BD4680BC704700BF80B483B0B5
:1025000000AF78604FF0FF33184607F10C07BD4667
:1025100080BC704780B483B000AF786040F6C023C1
:10252000C2F200034FF002021A604FF0FF33184668
:1025300007F10C07BD4680BC704700BF80B483B074
:1025400000AF786040F6C023C2F200034FF00A02E9
:102550001A604FF0FF33184607F10C07BD4680BCE8
:10256000704700BF80B485B000AFF860B9607A6092
:102570004FF00103184607F11407BD4680BC7047B1
:1025800080B400AF4FF48063C4F20E034FF0010239
:102590005A6000BF4FF48063C4F20E039B6803F0DF
:1025A0000103002BF6D0BD4680BC704780B582B0D9
:1025B00000AF78607B681F2B12D94FF25000C0F239
:1025C000420000F00BFC4FF26000C0F242004FF2FC
:1025D0008001C0F242014FF0660200F0FFFBFEE70F
:1025E0004FF48063C4F20E039B691A467B684FF078
:1025F000010101FA03F31A407B684FF0010101FA6F
:1026000003F39A4207D14FF29800C0F24200796872
:1026100000F0E4FB09E04FF48063C4F20E037A6833
:102620004FF0010101FA02F21A6107F10807BD46F5
:1026300080BD00BF80B582B000AF78607B681F2B83
:1026400012D94FF25000C0F2420000F0C7FB4FF227
:102650006000C0F242004FF28001C0F242014FF030
:102660007C0200F0BBFBFEE74FF48063C4F20E0374
:102670009B691A467B684FF0010101FA03F31A4087
:102680007B684FF0010101FA03F39A4207D04FF241
:10269000E000C0F24200796800F0A0FB09E04FF4CE
:1026A0008063C4F20E037A684FF0010101FA02F26E
:1026B0005A6107F10807BD4680BD00BF80B500AF75
:1026C0004FF48063C4F20E034FF6FC72C3F6FF7240
:1026D0001A6100BF4FF48063C4F20E039B6923F0BC
:1026E000404222F003024FF6FC73C3F6FF739A4296
:1026F000F0D14FF22410C0F2420000F06FFB80BD19
:1027000080B500AF4FF48063C4F20E034FF6FC7245
:10271000C3F6FF725A6100BF4FF48063C4F20E0328
:102720009B6923F0404323F00303002BF4D14FF2C5
:102730004410C0F2420000F051FB80BD80B400AFF5
:102740004FF48063C4F20E039B691A464FF6FC7384
:10275000C3F6FF739A4214BF002301231846BD46F7
:1027600080BC704780B483B000AF78604FF4806362
:10277000C4F20E039B691A467B684FF0010101FA0F
:1027800003F31340184607F10C07BD4680BC7047A1
:1027900080B500AFFFF7F4FE80BD00BF80B487B006
:1027A00000AFF860B9601346FB71FB68BA685A6401
:1027B000FB79002B03D0FB68BA685A6602E0FB681D
:1027C000BA681A66FB681B6F7B61FB681B6F1A4651
:1027D000BB686FEA03017B690B401A40FB681A670C
:1027E000FB68BA685A6007F11C07BD4680BC704799
:1027F00080B487B000AFF860B9601346FB71FB6826
:10280000BA685A64FB79002B03D0FB68BA685A6631
:1028100002E0FB68BA681A66FB681B6F7B61BA68E6
:102820007B691A43FB681A67FB68BA685A6007F14C
:102830001C07BD4680BC704780B485B000AFF8600F
:10284000B9607A60FB68BA68C3F88420BB686FEA35
:102850000302FB68C3F880207B684FEA83434FEA9A
:102860009343FA68C2F88C3007F11407BD4680BC68
:10287000704700BF80B485B000AFF860B960FA71EE
:10288000BB71FB68BA685A64FB79002B03D0FB6804
:10289000BA685A6602E0FB68BA681A66BB79002B10
:1028A00003D0FB68BA681A6202E0FB68BA685A6231
:1028B000FB68BA685A61FB68BA681A6007F11407C6
:1028C000BD4680BC704700BF80B485B000AFF860E3
:1028D000B960FA71BB71FB68BA685A643B7E002B21
:1028E00003D0FB68BA685A6602E0FB68BA681A66E9
:1028F000BB79002B03D0FB68BA681A6502E0FB685D
:10290000BA685A65FB79002B03D0FB68BA681A6372
:1029100002E0FB68BA685A63FB68BA681A61FB6830
:10292000BA681A6007F11407BD4680BC704700BF43
:1029300090B585B002AF786039608CE07B685B7AD7
:10294000042B7CD801A252F823F000BF612940007B
:102950007F2940009D294000052A4000052A4000AB
:102960007B6859687B681A687B689B7A03F001036F
:10297000DBB2084611461A46FFF710FF63E07B689A
:1029800059687B681A687B689B7A03F00103DBB2A5
:10299000084611461A46FFF72BFF54E04FF48063B8
:1029A000C4F20E037A68127A4FF0010101FA02F2C2
:1029B0001A617B6858687B6819687B689B7A03F0AA
:1029C0000103DAB27B689B7A03F00203002B0CBF91
:1029D00000230123DBB2FFF74DFF7B689B7A03F0F6
:1029E0000203002B2ED07B6859687B689A697B684C
:1029F0009B8BC3F30D039BB2084611461A46FFF7A3
:102A00001BFF1FE07B6858687B6819687B685B7AEE
:102A1000042B14BF00230123DAB27B689B7A03F0F6
:102A20000403002B0CBF00230123DBB27C68A47AD3
:102A300004F00104E4B20094FFF746FF03E04FF016
:102A400000030EE000BF7B6803F120037B603B685E
:102A500003F1FF333B603B68002B7FF46FAF4FF017
:102A60000103184607F10C07BD4690BD80B483B042
:102A700000AF78607B685B687A6812681A6307F158
:102A80000C07BD4680BC704780B483B000AF78604F
:102A90007B685B687A6812685A6307F10C07BD4669
:102AA00080BC704780B485B000AF78607B685B7A8B
:102AB000032B03D07B685B7A042B04D17B685B68B3
:102AC0009B6BFB6003E07B685B68DB6BFB607B6898
:102AD0001A68FB681340002B02D14FF0000301E09D
:102AE0004FF00103184607F11407BD4680BC70473C
:102AF00080B483B000AF78607B685B689B6B1A46DC
:102B00007B681B681340002B02D14FF0000301E0EB
:102B10004FF00103184607F10C07BD4680BC704713
:102B200080B483B000AF78607B684FF001021A6018
:102B300007F10C07BD4680BC704700BF80B483B06E
:102B400000AF78607B684FF002021A6007F10C0753
:102B5000BD4680BC704700BF80B485B000AFF86050
:102B6000B9607A604FF48063C4F20E03BA684FF024
:102B7000010101FA02F21A61FB684FF002021A60C9
:102B8000FB684FF080021A60FB684FF080021A6009
:102B9000FB687A685A6007F11407BD4680BC70472D
:102BA00080B485B000AFF860B9607A60FB68BA683D
:102BB00002F10C02796843F8221007F11407BD46B0
:102BC00080BC704780B485B000AFF860B960134630
:102BD000FB8000BFFB681B6903F00203002BF9D0E8
:102BE000FA88BB684FF0010101FA03F36FEA0303AF
:102BF00003F00F034FEA034313431A46FB68DA60FE
:102C000000BFFB681B6903F00203002BF9D007F13A
:102C10001407BD4680BC704780B485B000AFF86033
:102C2000B9607A60FB68D3F80C31002B0FD1BA6819
:102C3000FB68C3F80821FB687A68C3F80C21FB68BD
:102C40004FF48072C3F820214FF0010311E0FB68BC
:102C5000D3F81C31002B0AD1BA68FB68C3F81821DD
:102C6000FB687A68C3F81C214FF0010301E04FF0C4
:102C70000003184607F11407BD4680BC704700BF2B
:102C800080B483B000AF78607B681B6903F4007385
:102C9000002B0CBF00230123DBB2184607F10C0701
:102CA000BD4680BC704700BF80B483B000AF786081
:102CB00000BF7B681B6903F00103002BF9D07B6820
:102CC0009B689BB2184607F10C07BD4680BC704755
:102CD00080B485B000AFF860B9607A60FB68D3F863
:102CE0000431002B0FD1BA68FB68C3F80021FB68E0
:102CF0007A68C3F80421FB684FF00102C3F8202171
:102D00004FF0010311E0FB68D3F81431002B0AD116
:102D1000BA68FB68C3F81021FB687A68C3F814210D
:102D20004FF0010301E04FF00003184607F11407CC
:102D3000BD4680BC704700BF0F2AF0B43AD941EAC3
:102D400000039B0738D10C46034615462668103D04
:102D50001E6066685E60A6689E60E6681034DE608D
:102D600010330F2DF2D8A2F1100424F00F0402F05A
:102D70000F021034032A00EB0403214411D90E463C
:102D80001D46144656F8047B043C032C45F8047B8E
:102D9000F8D8141F24F00304043402F003020919C4
:102DA0001B192AB111F8014B013A03F8014BF9D173
:102DB000F0BC70470346F4E70346F3E70EB410B5E2
:102DC00083B005AC54F8042B81682346019400F0CD
:102DD00091F803B0BDE8104003B070470FB410B5D0
:102DE00040F2D04382B004ACC2F2000354F8042B8A
:102DF000186823468168019400F07CF802B0BDE8B1
:102E0000104004B0704700BF38B50C46096805464D
:102E100009B1FFF7F9FF28462146BDE8384002F026
:102E200035BE00BF224B70B51B680546984232D0B4
:102E3000C36CABB10022164653F8221009B907E063
:102E400021460C68284602F021FE002CF8D1EB6CDC
:102E50000136202E3246EFD12846194602F016FEE2
:102E6000296C11B1284602F011FED5F8481159B16C
:102E700005F5A676B14201D106E021460C68284648
:102E800002F004FEA642F8D1696D11B1284602F0A5
:102E9000FDFDAB6B03B970BDEB6B28469847D5F8C9
:102EA000E0120029F7D02846BDE87040FFF7ACBF1C
:102EB000D0040020F8B50746B0B1D7F8486176B124
:102EC00075686C1E08D4023506EB850555F8043D7F
:102ED000013C9847631CF9D13668002EF0D1FB6B9A
:102EE0000BB138469847F8BD014B1F68E5E700BFB6
:102EF000D00400202DE9F04FADF5AC6D83B08B46CA
:102F000014460F93099002F015FF006800211490F9
:102F10000020CDE91601149804F09AF80999189048
:102F200019B18B6B002B00F05681BBF80C60B3B26B
:102F300099040AD4DBF8643046F4005623F40053B5
:102F4000CBF86430ABF80C60B3B21A0740F1C6801E
:102F5000DBF81020002A00F0C18003F01A030A2BCE
:102F600000F0CB8046F267600DF59A6100230C31CA
:102F7000C6F266600E93CDF84415CDF84C35CDF809
:102F8000483508941A931B930B930E461990089C8E
:102F90002378002B00F02381252B00F0208122468E
:102FA000274601E0252B04D012F8013F0137002B02
:102FB000F8D1089C3B1B9BB1DDF84845DDF84C552A
:102FC00001340898ED18072C86E80900CDF84C5517
:102FD000CDF8484500F3D88008360B9CE4180B94D4
:102FE0003B78002B00F0DE8000240C947C1C0894BD
:102FF00000200024089A8DF867057B7807944FF02D
:10300000FF3720252B200132A3F12001582900F29F
:10301000C382DFE811F0D302C102C102DC02C102A7
:10302000C102C102C102C102C1024003E600C102E5
:103030005D00EA00C1020401F201F201F201F201B5
:10304000F201F201F201F201F201C102C102C10278
:10305000C102C102C102C102C102C102C102040215
:103060000A01C1020A01C102C102C102C1029701E3
:10307000C102C1029D01C102C102C102C102C1025D
:10308000DD01C102C1021F02C102C102C102C102AF
:10309000C102C102C102C102C102C102440226032F
:1030A0000A010A010A013A032603C102C102E2022F
:1030B000C102EC02FA020E035C02C1026202C1020A
:1030C0009502C102C102A8020C9C0F9164420C94AB
:1030D000079C44F004040794137894E70998594630
:1030E00001F0A4FA002841F01482BBF80C60B3B2DE
:1030F00003F01A030A2B7FF435AFBBF80E502F04F0
:103100003FF530AFDBF864E0DBF81CC0DBF824806F
:1031100022460DF58E611DAC4FF480670431CDF869
:103120007444CDF8844426F00206002409980F9BCD
:10313000ADF88064CDF8D8E4ADF88254CDF890C4F1
:10314000CDF89884CDF87C74CDF88874CDF88C4493
:10315000FFF7D0FEA0420B900BDB0DF58E610998B6
:10316000043102F099FA0B9C002818BF4FF0FF348D
:103170000B94BDF88034580627D5BBF80C3043F0CB
:103180004003ABF80C3020E00DF5A86209985946D1
:103190000432069303F08CFF069B68B90DF59A661E
:1031A0000C361AE7DDF84C3533B10DF5A8620998F5
:1031B0005946043203F07CFFBBF80C300B9C13F033
:1031C000400F18BF4FF0FF340B940B985BB00DF518
:1031D000806DBDE8F08F084602F076FBA5E6089FFB
:1031E000FEE68DF8670513780DE7144614F8013BE9
:1031F0002A2B01F0E581A3F13001092901F2A28116
:10320000002714F8013B07EB870701EB4707A3F101
:10321000300109292246F4D947EAE777F4E6079C0A
:1032200044F0800407941378EDE60F9C1393E31D9C
:10323000089223F00703D3F800805D6808330F93EA
:1032400042462B4629464046CDE9162303F082FD2F
:1032500001282946404640F093860022002305F0CD
:1032600099FF002840F0F6879DF8673503240A94FB
:1032700000241094AE4A139CAE49472CCCBF8A461A
:103280009246079C24F08004079403240D940024A4
:10329000159413B10A9C01340A94079B13F002039E
:1032A000119302D00A9C02340A94079B13F0840302
:1032B000129340F0FC810C9C0A98271A002F40F3CF
:1032C000F681102FDDF84C55DDF84845DFF86C82AB
:1032D0002ADD23464FF010094446DDF8248003E040
:1032E000103F0836102F1DDD01331035072B86E8FF
:1032F0001002CDF84C55CDF84835F1DD0DF5A8623A
:1033000040465946043203F0D3FE00287FF454AF00
:103310000DF59A66103F0C36102FDDF84C55DDF890
:103320004835E1DCA0461C460134ED19072CC6F8EF
:1033300000807760CDF84C55CDF8484500F3E28425
:103340000836B6E1079C44F00804079413785AE65F
:10335000079C139344F010040794079C089214F000
:10336000200300F059810F9CE31D23F0070303F1B4
:103370000804D3E900890F94002300208DF8670525
:10338000002F03DB079C24F08004079458EA09000F
:1033900040F09982002F40F09682002B40F052843A
:1033A000079CE20740F14E8430238DF843350DF53C
:1033B000A86A01230D930AF1030A0D9C9DF8673555
:1033C000BC42B8BF3C460A9400241097159460E7AD
:1033D000079C089244F010040794079C1393A206DC
:1033E00040F1B4800F9CE31D23F0070303F10804B0
:1033F000D3E900890F940123BFE714460021A3F10C
:10340000300214F8013B01EB8101A3F1300CBCF157
:10341000090F02EB41012246F1D90C91F4E5079C1A
:10342000089244F010040794079C1393A10640F1FE
:103430001E810F9CE31D23F00703D3E9000108332D
:103440000F9380468946002871F10002C0F28E85F4
:10345000012395E7384C08921A94079C1393A5060C
:1034600040F189800F9CE31D23F0070303F108045A
:103470000F94D3E90089079CE00740F18B8058EA5C
:10348000090000F08780139C30238DF86545079C68
:103490008DF8643544F00204079402236DE701249B
:1034A00013930A940F9B0F9C1B6804340F94002005
:1034B00001240DF5A26A08928DF81C358DF8670578
:1034C0000D940AF10C0A002310931593E5E6079C6E
:1034D00044F020040794137895E50F9C00208DF8A4
:1034E0006705D4F800A0089213930434BAF1000FD2
:1034F00000F03887002F5046C0F2FC8600213A4683
:1035000002F032FF002800F0F987CAEB0000002328
:10351000B8420D90109300F392860D9820EAE07067
:103520000F9400240A909DF867351594B1E600BF0A
:1035300074F1420078F1420084F14200B8F1420097
:10354000079C0892A20613933FF54CAF079CE30635
:1035500040F1B8850F9C2368043498460F944FF0CF
:103560000009012309E79F4C08921A94079C1393C2
:10357000A5063FF577AF079CE40640F1C5850F9C93
:10358000236804340F94079C9846E0074FF0000925
:103590003FF575AF0223F0E608921393002B3FF43A
:1035A00001AE012400200DF5A26A0A948DF81C35A5
:1035B0008DF867050D940AF10C0A84E79DF86735CC
:1035C000002B40F09E858DF8675513781BE5079C0E
:1035D00044F001040794137815E5137811466C2B19
:1035E00000F04F86079C44F0100407940BE5079CFD
:1035F0000892A40640F150850F9C0B9A2368D117BE
:1036000004341A6059600F94C1E4079C139314F0BA
:10361000200308927FF4A7AE079C14F0100200F07C
:103620002C850F9C226804340F9490464FF00009BB
:10363000A3E60F9C0F9B04340F94079C1B6844F077
:1036400002040794674C08929846782230238DF83C
:1036500064354FF000098DF865251A940223139202
:103660008BE6079C0892A10613933FF5E2AE079CF8
:10367000E20640F136850F9C236804344FEAE37973
:103680000F94984618464946DDE6079C44F04004EE
:1036900007941378B7E40F9C24680C940F9C211DA9
:1036A0000C9C002CFFF610AD13780F91ABE4DDF805
:1036B0004C559DF867358BB1DDF848450DF5AC6389
:1036C00007330134336001350123072C7360CDF8D3
:1036D0004C55CDF8484500F365820836119B8BB1F7
:1036E000DDF848450DF5AC63043301343360023531
:1036F0000223072C7360CDF84C55CDF8484500F3F4
:1037000061820836129C802C00F07481109B0D9C05
:103710001F1B002F3DDD102FDDF84845DFF8C88066
:103720002ADD23464FF010094446DDF8248003E0EB
:10373000103F0836102F1DDD01331035072B86E8AA
:103740001002CDF84C55CDF84835F1DD0DF5A862E5
:1037500040465946043203F0ABFC00287FF42CAD00
:103760000DF59A66103F0C36102FDDF84C55DDF83C
:103770004835E1DCA0461C460134ED19072CC6F89B
:1037800000807760CDF84C55CDF8484500F3FA81BC
:103790000836079CE30500F1C380DDF848450D9B22
:1037A0000134ED18072CC6F800A07360CDF84C5515
:1037B000CDF8484577DC0836079C630753D50C9C49
:1037C0000A98271A002F4EDD102FDDF84845DFF844
:1037D0001C8031DD23464FF010094446DDF824807B
:1037E0000AE000BF98F1420064F14200B8F14200E3
:1037F000103F0836102F1DDD01331035072B86E8EA
:103800001002CDF84C55CDF84835F1DD0DF5A86224
:1038100040465946043203F04BFC00287FF4CCAC00
:103820000DF59A66103F0C36102FDDF84C55DDF87B
:103830004835E1DCA0461C4601347D19072CC6F84A
:1038400000807760CDF84C55CDF848450BDD0DF57F
:10385000A86209985946043203F02AFC00287FF434
:10386000ABACDDF84C550B9C0A980C998842ACBF68
:10387000241864180B94002D40F0788100220DF577
:103880009A66CDF848250C36FFF781BBA0461C464A
:103890000134ED19072CC6F800807760CDF84C553F
:1038A000CDF8484587DD0DF5A862099859460432E0
:1038B00003F0FEFB00287FF47FAC0DF59A660C3612
:1038C000DDF84C5578E7012B00F0AA81022B00F0BF
:1038D00089810DF5A8640434234600E053464FEA7D
:1038E000D80242EA49724FEAD90108F00700894636
:1038F000904658EA090100F1300203F8012C03F167
:10390000FF3AEBD10798C10706D5302A04D0302200
:10391000A3F1020A03F8022CCAEB04040D944CE54F
:10392000139C652C40F3AB80DDE9160100220023D7
:1039300005F026FC002800F09181DDF84845C54BD4
:103940000134336001350123072C7360CDF84C55E9
:10395000CDF8484500F3F6830836DDF858350E9C5F
:10396000A34203DB079CE4077FF526AFDDF848455B
:103970001898013414992D18072C31607060CDF817
:103980004C55CDF8484500F3848408360E9C671EDC
:10399000002F7FF711AF102FDDF84845DFF8B88210
:1039A0007FF776AF23464FF010094446DDF82480B8
:1039B00004E00836103F102F7FF768AF0133103551
:1039C000072B86E81002CDF84C55CDF84835F0DDD0
:1039D0000DF5A86240465946043203F069FB002801
:1039E0007FF4EAAB0DF59A66DDF84C55DDF8483505
:1039F0000C36DFE70C9C0A98271A002F7FF786AE5B
:103A0000102FDDF84845DFF850822ADD23464FF0BD
:103A100010094446DDF8248003E0103F0836102FDB
:103A20001DDD01331035072B86E81002CDF84C550B
:103A3000CDF84835F1DD0DF5A8624046594604320F
:103A400003F036FB00287FF4B7AB0DF59A66103F04
:103A50000C36102FDDF84C55DDF84835E1DCA0467A
:103A60001C460134ED19072CC6F800807760CDF8AC
:103A70004C55CDF8484500F36882083646E60E9C62
:103A8000012C40F31982DDF848450135013401234A
:103A9000072CC6F800A07360CDF84C55CDF848450A
:103AA00000F32F8208361898013414992D18072C2A
:103AB00031607060CDF84C55CDF8484500F3338245
:103AC0000836DDE916010022002305F059FB002825
:103AD00040F028810E9B01345A1EAD180AF10103F3
:103AE000072C33607260CDF84C55CDF848452BDC7F
:103AF00008361B9901346D180DF5AA63072C336045
:103B00007160CDF84C55CDF848457FF754AE0DF5B2
:103B1000A86209985946043203F0CAFA00287FF4D3
:103B20004BAB0DF59A66DDF84C550C3644E6A046D5
:103B30001C460134ED19072CC6F800807760CDF8DB
:103B40004C55CDF84845D3DD0DF5A8620998594686
:103B5000043203F0ADFA00287FF42EAB0DF59A661F
:103B60000C36DDF84C55DDF84845C2E70DF5A86286
:103B700009985946043203F09BFA00283FF47EAEC0
:103B8000FFF71ABB0DF5A86209985946043203F0F5
:103B90008FFA00287FF410AB0DF59A66DDF84C55CE
:103BA0000C36F6E50DF5A86209985946043203F083
:103BB0007FFA00287FF400AB0DF59A66DDF84C55CE
:103BC0000C368BE50DF5A86209985946043203F0CE
:103BD0006FFA00287FF4F0AA0DF59A66DDF84C55CF
:103BE0000C368FE50DF5A8621A9C03324FEA1813C4
:103BF00008F00F0143EA0973615C4FEA1910984617
:103C00008146117058EA0901924602F1FF32EDD166
:103C10000DF5A8630433CAEB03030D93FFF7CDBB87
:103C2000B8F10A0F79F1000180F0AE8008F1300898
:103C300001230DF5A86A8DF843850D930AF1030A57
:103C4000FFF7BBBB0DF5A86A0D970AF1040AFFF751
:103C5000B4BB00BFB4F1420064F14200DDF8587516
:103C6000002F40F380820E9F159C0E9BA742A8BF99
:103C700027465344002F0D930EDDDDF84845ED191E
:103C80000134072CC6F800A07760CDF84C55CDF86C
:103C9000484500F336830836159C27EAE777E71B8B
:103CA000002F40F3A180102FDDF84845DFF8B887DA
:103CB00040F33A8223464FF010094446DDF8248051
:103CC00004E00836103F102F40F32C8201331035EA
:103CD000072B86E81002CDF84C55CDF84835F0DDBD
:103CE0000DF5A86240465946043203F0E1F9002878
:103CF0007FF462AA0DF59A66DDF84C55DDF848357B
:103D00000C36DFE70DF5A86209985946043203F036
:103D1000CFF900287FF450AA0DF59A66DDF84C55CE
:103D20000C36C6E40E98471E002F7FF7E2AE102F28
:103D3000DFF834877FF7FDAE23464FF01009444685
:103D4000DDF8248004E00836103F102F7FF7EFAE37
:103D500001331035072B86E81002CDF84C55CDF80D
:103D60004835F0DD0DF5A86240465946043203F0AF
:103D70009FF900287FF420AA0DF59A66DDF84C55CE
:103D8000DDF848350C36DFE70DF5A864033440460E
:103D900049460A22002305F04DFA3032227040468F
:103DA00049460A22002305F045FA8046894658EA2A
:103DB0000900A24604F1FF34E9D10DF5A8630433EC
:103DC000CAEB03030D93FFF7F8BA0DF5A862099843
:103DD0005946043203F06CF900287FF4EDA90DF583
:103DE0009A66DDF84C550C36DDF858350E9CA3422A
:103DF00051DB079CE1074ED4159C0AEB04020D9C95
:103E0000A71A0E9CE31ABB42B8BF1F46002F0DDD58
:103E1000DDF84845ED190134072C86E88400CDF81B
:103E20004C55CDF8484500F3A982083627EAE777D4
:103E3000DF1B002F7FF7C0AC102FDDF84845DFF8FF
:103E400028867FF725AD23464FF010094446DDF85C
:103E5000248004E00836103F102F7FF717AD0133A0
:103E60001035072B86E81002CDF84C55CDF84835B3
:103E7000F0DD0DF5A86240465946043203F018F90A
:103E800000287FF499A90DF59A66DDF84C55DDF808
:103E900048350C36DFE7DDF84845189801341499A9
:103EA0002D18072C31607060CDF84C55CDF8484581
:103EB00000F3468208369FE7079CE2073FF5E3AD33
:103EC000DDF84845013501340123072CC6F800A070
:103ED0007360CDF84C55CDF848457FF709AE0DF528
:103EE000A86209985946043203F0E2F800287FF4EA
:103EF00063A90DF59A66DDF84C55DDF848450C369A
:103F0000F7E50DF5A86209985946043203F0D0F898
:103F100000287FF451A90DF59A66DDF84C55DDF8BF
:103F200048450C36BFE50DF5A8620998594604329C
:103F300003F0BEF800287FF43FA90DF59A66DDF87E
:103F40004C55DDF848450C36BBE50DF5A8620998DF
:103F50005946043203F0ACF800287FF42DA90DF582
:103F60009A66DDF84C550C36FFF7D0BB2D238DF843
:103F70006735D8F1000869EB49090123FFF700BA5A
:103F800002F0E8FE002800F045817B1C00F0E28290
:103F9000139C672C00F0DA82472C00F0D782079C34
:103FA000002D44F480740794C0F2D682002410944B
:103FB000139C662C00F06982462C00F06682652C0A
:103FC00000F0D982452C00F0D682B94602218DE856
:103FD00002020DF5AB6102910DF5AA610C3103915E
:103FE00042460DF5AC612B460998049100F024FC83
:103FF000139C8246672C01D0472C03D1079CE40711
:1040000040F1BC8213980AEB0904462800F0528262
:10401000404629460022002305F0B2F8002800F0AF
:104020002782CDF86045CAEB04040E94139C672CDC
:1040300000F0BC81472C00F0B981139CDDF85815C5
:10404000662C40F0BD81002940F3CE82002F40F065
:10405000C482079CE20700F1C08221EAE1740A945D
:104060000D911591109C002C00F09C812D238DF852
:10407000673500231093FFF70DB9079C14F0400338
:104080000F9C3FF4CFAAB4F80080043413464FF0DD
:1040900000090F94FFF771B9079CE0060AD4079C4A
:1040A000610607D50F9C236804340F940B9C1C8079
:1040B000FEF76DBF0F9C236804340F940B9C1C60AB
:1040C000FEF765BF079C14F0400F0F9C3FF443AA16
:1040D000B4F80080043401234FF000090F94FFF777
:1040E0004CB9079C14F0400F0F9C3FF4C5AAB4F9DB
:1040F000008004344FEAE8790F9440464946FFF7C0
:10410000A2B91378FEF77FBF079C14F0400F0F9CF5
:104110003FF436AAB4F8008004340F944FF000093D
:10412000FFF7A9B9A0461C460134ED19072CC6F8C3
:1041300000807760CDF84C55CDF848453FF745AE47
:10414000083651E60DF5A86209985946043202F086
:10415000AFFF00287FF430A80DF59A66DDF84C55C6
:104160000C36FFF7FABBDDF84845BC4B0134336031
:1041700001350123072C7360CDF84C55CDF8484527
:104180006DDC08362FB90E9C1CB9079CE0077FF543
:1041900013ABDDF848451898013414992D18072CF5
:1041A00031607060CDF84C55CDF8484500F3B681CC
:1041B00008367F42002F40F38E80102FDFF8A88250
:1041C00040F3B18023464FF010094446DDF82480C7
:1041D00004E00836103F102F40F3A3800133103560
:1041E000072B86E81002CDF84C55CDF84835F0DDA8
:1041F0000DF5A86240465946043202F059FF0028E6
:104200007EF4DAAF0DF59A66DDF84C55DDF84835E9
:104210000C36DFE70324924B0A94924A139C1090C9
:10422000472CCCBF92469A46079C9DF8673524F0F0
:104230008004079403240D941590FFF72AB827EA09
:10424000E7700F9400240A909DF867350D97159438
:10425000FFF71FB82D238DF86735FFF707B80DF569
:10426000A86209985946043202F022FF00287EF421
:10427000A3AF0DF59A66DDF85875DDF84C550C3690
:1042800080E7079C013244F0200407944B78FEF746
:10429000BABE0DF5A86209985946043202F008FF2B
:1042A00000287EF489AF0DF59A66DDF84C550C3682
:1042B000FFF76CBB0DF5A86209985946043202F06D
:1042C000F7FE00287EF478AF0DF59A66DDF84C55C0
:1042D000DDF848450C360E9A0134AD18072CC6F8A7
:1042E00000A07260CDF84C55CDF848457FF763AA21
:1042F000FFF7D9BA02F0ACFE00230D901093FFF740
:104300000DB90DF5A86209985946043202F0D0FEA5
:1043100000287EF451AF0DF59A66DDF84C550C3649
:10432000BAE4A0461C460134ED19072CC6F80080FB
:104330007760CDF84C55CDF84845BBDC0836CAE768
:104340000DF5A86209985946043202F0B1FE002822
:104350007EF432AF0DF59A66DDF85835DDF84C5530
:104360000C3649E5062F28BF062727EAE7700D9788
:104370000A900F94DFF8F4A0FFF7A5B80DF5A86236
:1043800009985946043202F093FE00287EF414AFD7
:10439000DDF858350E9C0DF59A66DDF84C55E31A9C
:1043A0000C3643E59DF86735FEF773BFDDF8581509
:1043B000C81C02DB8F4280F29380139C023C139452
:1043C0000139139C0029CDF858158DF85045C0F2DD
:1043D000E7802B238DF85135092940F3C2800DF574
:1043E0008E640B34199F204687FB0132CB17C3EB39
:1043F000A20303EB8302A1EB420202F13005092B79
:104400000246194600F8015DEEDC3031C9B202F80F
:10441000021D944240F2F8800DF5AA630DF58E60FE
:1044200002330A3001E012F8011F03F8011B824237
:104430001946F8D10DF5AA630E9CCB1A1C190D94E0
:104440000E9C1B93012C40F3B0800D9B013323EA9B
:10445000E3740A9400240D93159403E6B4F142002A
:104460007CF1420080F1420064F14200ACF1420074
:10447000DDF860359C4240F2C580302203F8012B04
:10448000A342CDF86035F9D1CDE503218DE8820056
:104490000DF5AB6102910DF5AA610C310391424615
:1044A0000DF5AC612B460998049100F0C5F9B946A9
:1044B0008246C4199AF80030302B03D0DDF8583505
:1044C000E418A5E5404629460022002304F058FEE2
:1044D0000028F3D1C9F10103CDF85835E41897E568
:1044E0000E9CA1424DDB079CE50752D54B1C23EAED
:1044F000E3740A9467240D931394B2E527EAE771F5
:1045000010900A919DF867350F940D971590FEF75E
:10451000C0BE4FF0FF340B94FEF757BE0DF5A862F6
:1045200009985946043202F0C3FD00287EF444AED7
:104530000DF59A66DDF85875DDF84C55DDF84845FF
:104540000C3636E622460027FEF75EBD002F08BF78
:10455000012724E5062722E52D2405F100451094C6
:1045600026E5303130238DF853150DF5AA618DF80D
:10457000523504315EE707F1010927E5DDF86045B2
:1045800051E500290E9CD4BFC1F1020301231B1980
:10459000ADE721EAE1740A9467240D91139460E574
:1045A0002D2349428DF8513516E7079C14F001037D
:1045B0007FF44BAF0D9C159324EAE4740A9451E503
:1045C0000F9953780F680431002F0F912246BEF6E1
:1045D0001AAD4FF0FF37FEF716BD0137CF1927EAA6
:1045E000E7740D970A943CE517B9079CE30705D5D6
:1045F000023727EAE7740D970A9432E501240A94FA
:104600000D942EE51C460EE50DF5AA61023111E769
:1046100030B440F2D043C2F200031D680C4613468A
:1046200001462246284630BCFEF764BC38B52C4B08
:10463000054618680C4610B1836B002B35D0A28953
:1046400093B219070CD52169A9B113F001021ED04C
:10465000636900225B42A260A361F1B1002038BD12
:10466000D8063AD5590723D4216942F00803A3811B
:104670009BB20029E9D103F42072B2F5007FE4D0A7
:104680002146284601F06CFBA3892169DDE79B07E1
:1046900058BF6269A2600029E0D1A38913F0800F9E
:1046A00014BF4FF0FF30002038BD01F00DF9C6E710
:1046B000216B49B104F14003994203D0284601F02F
:1046C000E5F9A2890023236322F024022169120460
:1046D0000023120C84E80A00C7E74FF0FF3038BD12
:1046E000D00400202DE9F04F0B69026983B093429A
:1046F000804600F39C80DA1C92008F187E68821836
:1047000052680136B2FBF6F600F1140201F114050D
:104710005C1E04370192002E4AD04FF0000E104666
:10472000F2462A46994652F804BB03681FFA8BFCEE
:104730004FEA1B4B06FB0CEC06FB0BFE1FFA83FB40
:104740000EEB1C4EDA441FFA8CFC1FFA8EFBCCEBEE
:104750000A0CCBEB134A0AEB2C4A1FFA8CFC4CEAEE
:104760000A43974240F8043B4FEA1E4E4FEA2A4A5A
:10477000D9D2201D08EB8002D2F804E04B46BEF1EE
:10478000000F15D1DDF804E096450FD258F820004F
:1047900060B96FEA0E00023B8018A3EB900302E0C1
:1047A00052F8040D10B9013C9C42F9D1C8F81040F0
:1047B000404602F0C9F8002835DB4FF0000C019BA1
:1047C0000136624655F8040B19681FFA80FC1FFA7F
:1047D00081F9000CCCEB090C9444C0EB114202EBC4
:1047E0002C421FFA8CFC4CEA02411214AF4243F8EF
:1047F000041BE7D2221D08EB8203596899B901997D
:1048000099420ED258F822205AB9C943C91821F04A
:104810000301591A02E053F8042D12B9013C8B42EE
:10482000F9D1C8F81040304603B0BDE8F08F002041
:10483000FAE700BF000000002DE9F04F016C9FB0C7
:1048400003902B9D92469B4651B1436C012202FA84
:1048500003F24B608A6001F03BFE039C002323645B
:10486000BBF10004C0F2E78000232B6000231A464E
:10487000C7F6F073C7F6F0722340934200F0C4808D
:10488000002350465946002204F07AFC56465F4603
:10489000012390B913F0FF0F13D12A9C0123236049
:1048A0002C9C002C00F0EC807D4C2C980460013C8A
:1048B000049404981FB0BDE8F08F002313F0FF0F9D
:1048C000EBD01DA9009103981CA932463B460191EB
:1048D00002F042F9C4F30A550D90002D40F0BA8061
:1048E000DDF870801D9D6FF4826345449D42C0F2E7
:1048F000B2824FF60E43CFF6FF7305F582625B1B63
:10490000023204FA03F32AFA02F0184304F05AF9C7
:104910000B460246CDE90823099B0124A3F1F87355
:104920000993013D159400230022C3F6F873DDE9D5
:10493000080104F009F854A3D3E9002304F0B8F9FE
:1049400053A3D3E9002304F001F8064628460F4696
:1049500004F048F950A3D3E9002304F0A9F9024672
:104960000B463046394603F0F1FF06460F4604F089
:1049700039FC39460B9000223046002304F00AFC33
:1049800050B10B9804F02EF932463B4604F0F8FB88
:1049900010B90B9C013C0B940B9C162C00F2398235
:1049A0004049524601EBC4015B46D1E9000104F0E5
:1049B0000FFC002800F04C820B9C013C0B9400245F
:1049C0001494C5EB0805B5F1010900F12E8200240D
:1049D0000A940B9C002CC0F21F82A1441294002464
:1049E0000E94289C092C65D8052C40F34E86043C77
:1049F00028940026289CA31E032B5DD8DFE813F023
:104A0000E603B402F303F0032A9842F20F73036043
:104A1000BAF1000F15D0244C04942C9C002C3FF4C8
:104A200048AF049CE378002B00F0028104F10803F6
:104A30002C9C23603DE724F0004401232B60A34617
:104A400014E7194B194AC4F31304002C18BF1A4673
:104A50000492E2E73B463246CDE90823099CA5F5DE
:104A60007E7524F07F4323F4700343F07E5343F4B8
:104A7000E00300240993073DDDF87080159452E7A8
:104A80000B4C049415E700BF61436F63A787D23FC7
:104A9000B3C8608B288AC63FFB799F501344D33F2D
:104AA000B5F14200F0F14200D4F14200C8F14200F9
:104AB000B4F1420000242894039800242146446461
:104AC00001F0E0FC039A4FF0FF31012304901391B1
:104AD00010640F930C9129941D9B002BC0F2AB80A6
:104AE0000B9C0E2C00F3A7809F4B03EBC403299C67
:104AF000D3E90001002CCDE90601C0F27783DDE99E
:104B000006235046594604F0FDF904F06BFB0546B8
:104B100004F068F8DDE9062304F0CAF802460B4603
:104B20005046594603F010FFDDF810A00C9C05F12B
:104B300030030AF8013B012C02460B4657464ED083
:104B400000230022C4F2240304F0B2F80023002260
:104B50008046894604F014FB0123002840F00282BD
:104B600013F0FF0F54D004980C99CDF814A0841CB6
:104B70004618DDE906AB12E000230022C4F224034C
:104B800004F096F8002300228046894604F0F8FAE3
:104B90000134012300B1002313F0FF0F38D0524637
:104BA0005B464046494604F0ADF904F01BFB054660
:104BB00004F018F852465B4604F07AF802460B46B9
:104BC0004046494603F0C0FE05F13003B44204F804
:104BD000013C02460B462746CED1DDF814A0104614
:104BE000194603F0B3FE804689464246DDE90601D8
:104BF0004B4604F0CFFA002840F03083DDE906018F
:104C000042464B4604F0BCFA10B1EB0700F1268394
:104C100003980D9901F05CFC0B9C0022631C2A9CFC
:104C20003A7023602C9C002C3FF443AE276040E692
:104C3000049CE31CFCE60F9C002C00F0FD80289CEB
:104C4000012C40F301830C9C651E0E9CAC42C0F20B
:104C5000CB83651B0C9C002CC0F2B0840A9C0C9B7F
:104C60000A9A0398D21801210A92994401F014FD7E
:104C7000804664B1B9F1000F09DD0A98A145B4BFBF
:104C80004B462346C01A0A90E41AC3EB09090E9951
:104C900000291ADD0F9A002A00F09F83002D10DDF5
:104CA00041462A46039801F0A3FD804641460D9AED
:104CB000039801F0FBFC0D990646039801F008FCEF
:104CC0000D960E9B5A1B40F0AE820121039801F015
:104CD000E3FC05461298002805DD29460398129A40
:104CE00001F086FD05462899012940F3248100261C
:104CF000129B002B40F04A8301234B4413F01F0307
:104D000000F09F80C3F12002042A40F3B8840A987F
:104D1000C3F11C03C0180A90E41899440A9A002AA7
:104D200004DD03980D9901F0AFFD0D90B9F1000F6E
:104D300005DD294603984A4601F0A6FD0546149B69
:104D4000002B40F00B830C98002840F328830F9829
:104D5000002840F08880C2460F9C0C9EDDF834B0DD
:104D6000049FDDF80C8008E0F0F14200594640460F
:104D70000A22002301F0B6FB834629465846FFF776
:104D8000B1FC00F1300907F804900134A642EDDCD3
:104D9000D0460C9CDDF810A0CDF834B0012CACBF8F
:104DA000A2440AF1010A002601220D99039801F09C
:104DB0006BFD29460D9001F0C7FD002840F33982B4
:104DC0001AF8013C049C621C03E01AF8023C0AF148
:104DD000FF3A392B574640F06A839245F5D10B9C38
:104DE000312301340B9402F8013C0398294601F069
:104DF0006FFBB8F1000F3FF40BAF2EB1464503D067
:104E00000398314601F064FB0398414601F060FBD2
:104E1000FEE601241494D4E50A9C0B98241A0A9403
:104E200044420E9400241294DBE5C9F10009CDF848
:104E300028904FF00009CCE50E9D0A9CDDF83C80DF
:104E400017E71C230A99E418C9180A91994465E7E1
:104E500000241494B5E54FF6EE30CFF6FF70401BFA
:104E60000AFA00F052E5002C05DD4146039822467F
:104E700001F00AFD8046002E40F01D834446049F49
:104E800046464FF001080AEA0801C1460595B846B2
:104E9000039D0D9F0E9105993846FFF723FC31467F
:104EA0000A90384601F050FD2246089005992846A0
:104EB00001F068FD8246C2680A9800F13003002ABA
:104EC00000F0E78128465146029301F001FB029B66
:104ED0004FF0010B08980028C0F29F8205D1289955
:104EE00019B90E9A002A00F09882BBF1000F00F366
:104EF000F9820C9808F8013B8145C24600F0FB821C
:104F000039460A220023284601F0ECFAA642074659
:104F100000F0E78131460A220023284601F0E2FA38
:104F2000214606460A222846002301F0DBFA09F151
:104F300001090446AFE7BAF1000F7FF4D8AECBF316
:104F40001303002B40F04183C7F6F0730BEA030311
:104F5000002B00F069830A9A09F1010901320A92D3
:104F60000126C5E60023FBE500240F9429980B9C3D
:104F70000419651C002D13942C4640F347820C95B0
:104F8000039A0021172D51640AD9012204235B00E2
:104F900003F1140011460132A842F8D9039B596469
:104FA000039801F06FFA03990E2C049008643FF601
:104FB00093AD002E3FF490AD0B9C52465B46002C07
:104FC000CDE910ABCDE9082340F34D82A54B04F0A9
:104FD0000F0203EBC2032411D3E900ABE30640F157
:104FE0000B82A14BDDE91001D3E9082303F08AFF0E
:104FF000CDE9100104F00F04032674B19A4D504618
:105000005946E70704D5D5E9002303F051FE0136E0
:1050100008356410F5D182468B46DDE91001524611
:105020005B4603F06FFFCDE91001149C002C00F0EB
:1050300063810023DDE910010022C3F6F07304F060
:10504000A9F8002800F058810C9C002C00F0EF8299
:10505000139C002C40F3018200230022C4F224039D
:10506000DDE9100103F024FECDE91001701C03F00E
:10507000B9FD02460B46DDE9100103F019FE0023DD
:105080000022C4F21C0303F061FC04460B98DDF817
:105090004C8001381A90A1F150750F9B002B00F045
:1050A0003282704B002103EBC80353E90223002036
:1050B000C3F6E07103F026FF2B46224603F044FCC2
:1050C000CDE91801DDE9100104F08CF8054603F084
:1050D00089FD02460B46DDE9100103F035FC303551
:1050E000DDF810A0CDE91601DDE91623DDE9180190
:1050F000EDB20AF8015B04F06BF85746002862D164
:105100000021DDE916230020C3F6F07103F01CFC3A
:1051100002460B46DDE9180104F05AF8002840F079
:105120008082B8F1010F40F39881049C5646A04458
:10513000CDF86C90CDF84080DDE91689CDF858A007
:10514000DDE918AB0CE003F0FFFB52465B4604F0D0
:1051500021F8002840F06382109CA64200F07B8179
:1051600000230022C4F224035046594603F0A0FD58
:1051700000230022C4F2240382468B46404649465F
:1051800003F096FD8946804604F02CF8044603F0AF
:1051900029FD02460B464046494603F0D5FB303414
:1051A000E5B206F8015B52465B468946804603F04D
:1051B000F1FF0021044642464B460020C3F6F07141
:1051C0003746002CBFD01A9C0B9421E500240F9485
:1051D000299C002C40F31281254613940C94CFE6B1
:1051E00001240F94C2E601240F94F1E70C9C002CDB
:1051F0003FF785AC40F0408200230022C4F2140344
:10520000DDE9060103F054FD52465B4603F0D6FF8C
:105210000C9DA846002800F0D780299C049FE443F9
:105220000B940026E1E503980D9901F0E1FA0D9049
:105230004BE503D119F0010F7FF4C2AD57461AF8C0
:10524000013D302BFAD0D0E5159C002C00F0C08138
:1052500003F5866303330E9D0A9C01E517F8015C94
:105260003B4606E0F0F14200B8F2420013F8025C5F
:10527000013B392D1F4640F0B2815345F6D10B9CBE
:1052800030230AF8013C013431230B940AF8013C25
:10529000BEE451463846029301F056FB5146834620
:1052A000284601F015F9029BBBF1000F7FF412AE06
:1052B000289900297FF40EAE0E9A002A7FF40AAED8
:1052C000392B0D979946059D474600F0BE80089BF7
:1052D000002B02DD0A9B03F1310907F8019BA04670
:1052E00083E5314628460A22002301F0FBF809F144
:1052F000010906460446CEE5304603F073FCDDE9BD
:10530000102303F0D5FC00230022C4F21C0303F099
:105310001DFBA1F150750C990446002978D100239A
:105320000022C4F21403DDE9100103F00DFB224654
:105330002B4682468B4603F04BFF0646002840F082
:10534000DF80224605F100435046594603F022FF14
:10535000002800F082803546B0465EE70D98294669
:1053600001F0F2FA0028BFF6EEAC0D9903980A227C
:10537000002301F0B7F80D900B980F9901380B90AE
:10538000002940F06E81139B0C93DCE42B6905EB44
:105390008303186901F034F9C0F12003ADE42899C2
:1053A00002297FF7D4AC00287FF437AF05220346EB
:1053B0002946039801F096F8054629460D9801F014
:1053C000C3FA00287FF729AF0B9C049F31230134D7
:1053D00007F8013B0B94002607E503980D990E9AF8
:1053E00001F006FA0D9070E40E9C0E952B1B129C9A
:1053F0000025E41812942DE40226FEE501241394FE
:105400000C942994039800214164C9E50C95F9E7AF
:105410000B9ADDF830801A923FE6BBF1000F0D9732
:105420009946059D47467FF758AF01220D9903988D
:1054300001F02AFA29460D9001F086FA002840F37F
:105440000981B9F1390F7FF445AF3923BA460AF81B
:10545000013BA046B6E4DDF86C90DDE90801824628
:105460008B46FFF739BB0B984442002C00F0AB8011
:10547000874B04F00F0203EBC203DDE91001D3E90F
:10548000002303F015FC2411CDE9100100F09B80EE
:10549000804D0226E20704D5D5E9002303F008FC7D
:1054A000013608356410F5D1CDE91001BDE50133B1
:1054B0000AF8013C99E4D8F80410039800F0E2FFE0
:1054C000D8F8102004460232920008F10C0100F1D5
:1054D0000C00FDF731FC21460398012201F0D4F9BC
:1054E0000446CCE4392B0D979946059D4746ACD030
:1054F00003F10109F1E699460D97059DA04653E495
:105500000025A84660E7624908F1FF3B01EBCB01AB
:1055100022462B46D1E9000103F0CAFBCDE9160172
:10552000DDE9100103F05EFE044603F05BFB0B4671
:105530000246DDE9100103F007FADDF810A004F1DE
:1055400030030AF8013BB8F1010FCDE910015746CD
:1055500020D0049CDDE91001631E98440023002242
:10556000C4F2240303F0A4FB0F46064603F03AFE00
:10557000054603F037FB303502460B4630463946C8
:1055800003F0E2F904F8015F4445E7D1CDE91001E9
:105590000AEB0B0700230022C3F6E073DDE91601D6
:1055A00003F0D4F902460B46DDE9100103F010FECA
:1055B000E0B11A9C17F8015C0B9451E60A9800239D
:1055C000041BFFF74DBB02262FE55646FFF790BBA5
:1055D0001C9B0E9DC3F136030A9CFFF741BB6B1C5D
:1055E000DBB2BA460AF8013CFFF712BB0021DDE945
:1055F00016230020C3F6E07103F0A6F902460B461D
:10560000DDE9100103F0C6FD00283FF426AF3B465C
:1056100013F8012C1F46013B302AF9D0D3E5DDF801
:1056200058A01A9C0B941BE61E46FFF761BB304640
:1056300003F0D8FA02460B46DDE9100103F038FB0F
:1056400000230022C4F21C0303F080F90446A1F1F8
:10565000507564E67FF441AE19F0010F3FF43DAEA2
:10566000EFE641460A220398002300F03BFF139A1D
:1056700080460C92FFF767BB0025A846CDE53FF4B6
:105680004DABC3F13C03FFF7DDBB0126FFF7B2B919
:10569000F0F14200B8F242002DE9F04180460C469C
:1056A00010B1836B002B66D0A689002E60D033B278
:1056B00013F008001CD02669002E00F083809B07A1
:1056C00025680CBF636900232660AD1BA3600AE058
:1056D00032462B46E169676A4046B8470028C0EB6E
:1056E0000505064454DD002DF2DC0020BDE8F08104
:1056F000626846F40063002AA38151DDA66A002E89
:1057000060D000229BB2D8F80050C8F8002013F4F3
:10571000805233D0226D590705D56168236B521A28
:105720000BB1E36BD21A0023E1694046B047431C3A
:105730003AD0A389002123F400631B041B0C2269C7
:105740006160D904A381226002D5421C3DD020654E
:10575000216BC8F8005000293CD004F14003994265
:1057600002D0404600F092F900202063BDE8F081AD
:105770003046BDE8F08100F0A7F895E70123E16924
:105780004046B0470246013027D0A389A66AC2E747
:10579000A3894FF0FF3043F04003A381BDE8F081BF
:1057A000E26B002AAADCE4E7D8F80030002BC0D076
:1057B0001D2BBED0162BBCD0A38943F04003A38180
:1057C000BDE8F0813046BDE8F081D8F80030002B0C
:1057D000BED1BCE70846BDE8F081D8F80030002B08
:1057E000D3D01D2B08D0162B06D0A389104643F02A
:1057F0004003A381BDE8F081C8F800500020BDE857
:10580000F08100BF014618B1044B1868FFF744BF90
:10581000034B0449186800F02BBA00BFD0040020E5
:10582000DCF142009956400000207047002070478C
:1058300047F64161C0F2400100F0F0B910B5002315
:10584000044623606360A360A1816366E2812361F3
:105850006361A361194600F15C00082200F0C6FDF7
:1058600046F6E153C0F24003236246F60963C0F2F4
:105870004003636246F64963C0F24003A36246F602
:105880006D63C0F24003E461E36210BD70B568254A
:1058900005FB01F50E4605F10C0100F0D1FA0446B6
:1058A00040B1002100F10C0084E84200A0602A46CB
:1058B00000F09CFD204670BD4FF2DC13C0F24203A5
:1058C0001868FFF7B5BF00BFF8B5836B044603B196
:1058D000F8BD0F4F01251A46C4F8E03204F53B76B7
:1058E00003230421C4F8E4324068E763A563C4F8E5
:1058F000E862FFF7A3FFA06809212A46FFF79EFF91
:10590000E06812210222BDE8F840FFF797BF00BF10
:1059100031584000244B70B51D680646AB6B002B18
:1059200032D005F538756B68A968013B0FD4B1F921
:105930000C200C467AB101F1680005E06834621A67
:10594000121832F95C2C32B113F1FF33F6D2286809
:10595000F0B10546E7E74FF6FF730025E381012329
:1059600004F15C00A38165662560A5606560256122
:105970006561A5612946082200F038FD256365634D
:105980006564A564204670BD2846FFF79DFFC8E703
:1059900030460421FFF77AFF28600028D9D10C2374
:1059A00033600446EEE700BFDCF14200704700BF01
:1059B000704700BF704700BF704700BF40F2D04340
:1059C000C2F20003186845F62901C0F2400100F058
:1059D00025B900BF40F2D043C2F20003186845F673
:1059E0002D01C0F2400100F019B900BFF8B5244DF7
:1059F00004460F4600F042FDAB6820465E6826F084
:105A0000030606F57E630F33DF1B3F0B013F3F03A9
:105A1000B7F5805F1CDB002101F0D0F9AB689B1962
:105A2000984219D0204600F02BFD0020F8BD00213F
:105A3000204601F0C3F9AB68C21A0F2A07DD1149ED
:105A400042F0010209685A60401A0F490860204676
:105A500000F016FD0020F8BD7942204601F0AEF9B5
:105A60000130E4D0084BAA681968F61B46F001061D
:105A7000CF1B204656601F6000F002FD0120F8BDDC
:105A8000500500205C090020900900202DE9F0411C
:105A90000D460446002958D000F0F0FC55F8040CDF
:105AA0005A4EA5F1080120F00103CA18D6F808C023
:105AB0005768944527F0030765D010F00100576040
:105AC00032D00020D5196D6815F0010F06D1DB1911
:105AD000956800284BD0D268EA60956043F00102D7
