:020000040800F2
:10000000906401203D0D0008090D00083D0D000819
:100010000D0D00080D0D00080D0D0008000000007A
:100020000000000000000000000000000D0D0008AE
:100030000D0D00080D0D00080D0D0008110D000834
:100040000D0D00080D0D00080D0D00080D0D000828
:100050000D0D00080D0D00080D0D00080D0D000818
:100060000D0D00080D0D00080D0D00080D0D000808
:100070000D0D00080D0D00080D0D00080D0D0008F8
:100080000D0D00080D0D00080D0D00080D0D0008E8
:100090000D0D00080D0D00080D0D00080D0D0008D8
:1000A0000D0D00080D0D00080D0D00080D0D0008C8
:1000B0000D0D00080D0D00080D0D00080D0D0008B8
:1000C0000D0D00080D0D00080D0D00080D0D0008A8
:1000D0000D0D00080D0D00080D0D00080D0D000898
:1000E0000D0D00080D0D00080D0D00080D0D000888
:1000F0000D0D00080D0D00080D0D00080D0D000878
:100100000D0D00080D0D00080D0D00080D0D000867
:100110000D0D00080D0D00080D0D00080D0D000857
:100120000D0D00084D0400080D0D00080D0D000810
:100130000D0D00080D0D00080D0D00080D0D000837
:100140000D0D00080D0D00080D0D00080D0D000827
:100150000D0D00080D0D00080D0D00080D0D000817
:100160000D0D00080D0D00080D0D00080D0D000807
:100170000D0D00080D0D00080D0D00080D0D0008F7
:100180000D0D00080D0D000870B586B04FF400107D
:10019000012101F0D5F80220012101F0A7F8204C3F
:1001A00020460921042201F0CFFA2046082104222A
:1001B00001F0CAFA4FF44073049302238DF814300F
:1001C00000258DF8155001268DF816608DF8175012
:1001D000204604A901F032FAA4F5D834204601F0F3
:1001E000E3FF2046314602F08FF8ADF804504BF69D
:1001F000FF73ADF80630FE23ADF808304FF480638E
:10020000ADF80A304FF48043ADF80C3006A9054B29
:1002100041F8183D204601F0F9FF06B070BD00BF5F
:1002200000040240A08601002DE9F04F97B017208E
:10023000012101F05BF80120014601F065F8564804
:1002400006210D2201F080FA544F384606210D2276
:1002500001F07AFA384607210D2201F075FA504D67
:10026000284600210D2201F06FFA284601210D22B7
:1002700001F06AFA284604210D2201F065FA494E80
:10028000304606210D2201F05FFA284605210D2295
:1002900001F05AFA284606210D2201F055FA30469F
:1002A00007210D2201F050FA3B4804210D2201F0F4
:1002B0004BFA4FF0C00BCDF840B04FF0020A8DF86A
:1002C00044A04FF003088DF8458000248DF8464087
:1002D0004FF001098DF84790384610A901F0AEF9AA
:1002E00073231093284610A901F0A8F9CDF840B067
:1002F000304610A901F0A2F9502310938DF844A0C4
:100300008DF84640244810A901F098F9ADF848400E
:10031000ADF84A40ADF84C408023ADF84E30402354
:10032000ADF85030ADF85240ADF8544012A801F08D
:1003300095FC4FF48000494600F0D8FF05F5A8452C
:100340002835284601F052FD4FF000730193164BFB
:100350000293164B039304944FF420730593069471
:100360004FF4806307934FF4805308934FF4804316
:1003700009934FF480730A934FF400330B930C945A
:10038000CDF834800E940F94284601A901F0D8FDD1
:1003900017B0BDE8F08F00BF000002400008024027
:1003A000001002400004024028000550745801204B
:1003B00010B5FFF7E9FE60201221802203F07AFBDE
:1003C000A0B9044603F0E4FB60201221632203F08D
:1003D00071FB60204021102203F06CFB602015218E
:1003E000082203F067FBFFF71FFF00E0FF24204611
:1003F00010BD00BF10B584B000238DF80F3040242D
:100400008DF808408DF8093007228DF80A208DF804
:100410000B308DF80C3002A804F03EFE8DF804403D
:1004200010238DF8053020238DF8063001A804F044
:1004300023FF1E2000F0B6FC04A8C02300F8013DF5
:100440002221012204F006FE04B010BD2DE9F04F78
:1004500083B05248524901F023FE524B1E685D683A
:100460004FF4A07E9A46DFF858914F4FDFF854B111
:10047000F446BAF8082009EB8201531C9BB24B48A2
:10048000A0FB0340400A00EB8000A3EBC013AAF8D6
:1004900008307400464BE3180193B31CA7FB030616
:1004A000760B4FF4963000FB163639F822E04B8875
:1004B0000EF01F02C2EBC2024FEADE214D2000FB0C
:1004C00001F000EB8201CEF3841E972202FB0E1294
:1004D000384890F800E0120A724538BF002203F055
:1004E0001F00C0EBC0004FEAD3284D2101FB08F1EB
:1004F00001EB8000C3F38413972101FB03031B0A64
:100500009E4588BF00232A48245A019949882A48D1
:100510000088844205D192B2D40244EA8214224374
:1005200094B2814205D19BB2D90241EA83110B43B7
:1005300099B2B5F5004F04D2DBF8003023F815402E
:1005400004E0A5F500431D4A22F813400135A7FB3E
:100550000532520B4FF4963303FB1252B2F5004FA3
:1005600004D2DBF8003023F8121004E0A2F50043B7
:10057000124820F813100132A7FB02356D0B4FF41F
:10058000963303FB1525BCF1010C7FF472AF054BCC
:100590001E605D6003B0BDE8F08F00BF28640240BC
:1005A000000C001094620120B5814E1BCDCCCCCC48
:1005B00014590008746201206400002068000020C3
:1005C000745801200000002038B54E20002102F0B0
:1005D00011FC4F20002102F00DFC0C4B1B68222067
:1005E000198802F007FC0224084D2B68185B02F002
:1005F00017FC0234B4F5803FF7D1054C054D34F8B3
:10060000020F02F00DFCAC42F9D138BD0000002011
:1006100066000020685801202DE9F843044688460A
:1006200091461F46012101F07DFE42F21175274ED1
:1006300001E0013D3ED02046314601F091FF002807
:10064000F7D020464146002201F088FE42F21175A3
:100650001F4E01E0013D30D02046314601F080FFC1
:100660000028F7D020465FFA89F101F00FFF42F22F
:100670001175184E01E0013D22D02046314601F0AF
:100680006FFF0028F7D02046394601F0FFFE42F206
:100690001175104E01E0013D15D02046314601F0A4
:1006A0005FFF0028F7D02046012101F049FE00201D
:1006B000BDE8F883FF20BDE8F883FF20BDE8F8839C
:1006C000FF20BDE8F883FF20BDE8F88301000300A8
:1006D00080000700840007002DE9F04104460F4622
:1006E0009046012101F01EFE42F21175404E01E0DC
:1006F000013D6AD02046314601F032FF0028F7D094
:1007000020463946002201F029FE42F21175394E89
:1007100001E0013D5CD02046314601F021FF002878
:10072000F7D020465FFA88F101F0B0FE42F2117571
:10073000314E01E0013D4ED02046314601F010FF20
:100740000028F7D0A38A9BB243F48063A38220469B
:10075000012101F0F5FD2046012101F0E3FD42F207
:100760001175234E01E0013D38D02046314601F09D
:10077000F7FE0028F7D020463946012201F0EEFDB1
:1007800042F211751D4E01E0013D2AD0204631464E
:1007900001F0E6FE0028F7D02046002101F0E8FD38
:1007A00042F21175164E01E0013D1DD02046314642
:1007B00001F0D6FE0028F7D02046012101F0C0FD4F
:1007C000204601F065FEBDE8F081FF20BDE8F08124
:1007D000FF20BDE8F081FF20BDE8F081FF20BDE8EB
:1007E000F081FF20BDE8F081FF20BDE8F08100BF6F
:1007F00001000300820007008400070002000300DC
:100800004000030010B5364C204682210422FFF739
:1008100063FF00F0FC03204682210422FFF7FCFE68
:10082000204682210A22FFF757FF40F003032046AB
:1008300082210A22DBB2FFF7EFFE2046822120222E
:100840004923FFF7E9FE022000F0ACFA204682219E
:1008500021220123FFF7E0FE204682211722FFF725
:100860003BFF00F0E103204682211722FFF7D4FE70
:100870002046822141229A23FFF7CEFE2046822184
:100880004A220123FFF7C8FE204682214B22012382
:10089000FFF7C2FE204682214B220023FFF7BCFE59
:1008A0002046822156220123FFF7B6FE20468221F0
:1008B00058220123FFF7B0FE204682214022012367
:1008C000FFF7AAFE204682210B22FF23FFF7A4FE9A
:1008D000044B00201881D8809880588010BD00BF3C
:1008E000005400407862012070B52C4882214022DB
:1008F000FFF7F2FE2A4B188000F080005880002895
:1009000030D0264E304682214D22FFF7E5FE0546C7
:10091000304682214E22FFF7DFFE40EA052085B2F5
:10092000304682214F22FFF7D7FE0446304682210F
:100930005022FFF7D1FE40EA042080B2194B5B89B8
:100940009D428CBFEB1A5B1B9AB2164B9B89984257
:100950008CBFC31A1B1A9BB21344052B02DD114B2B
:100960005D8198810E4C0F4B5A89A2809B89E38050
:100970000A4D284682215122FFF7AEFE20812846EB
:1009800082214B220123FFF747FE284682214B227A
:100990000023FFF741FE204670BD00BF0054004019
:1009A000786201209462012030B52DED048B87B070
:1009B000BF4A1378527843EA0223BE4A1380BE4BE3
:1009C0001B78202B28BF0023BB4A1370BB4C20464A
:1009D00000F010FC6368BA4AA2FB03239B09013BA9
:1009E000B84A5360F021B84B83F823100025956076
:1009F00007231360FFF7FEFC02F076FF284602F0A3
:100A00008BFA284602F06CFA4FF61F0002F05CFAEF
:100A100003F016F802F07AFAAC4C2846214602F0B0
:100A200025FB02F073FAC088214602F01FFB02F09A
:100A30006DFAC088400080B2A54902F017FB02F0B1
:100A400065FAC08800EB400080B2A24902F00EFBBC
:100A500002F05CFAC088800080B2214602F006FBFA
:100A600002F054FAC08800EB800080B2214602F008
:100A7000FDFA02F04BFAC38803EB4303580080B23F
:100A8000214602F0F3FA02F041FAC088C0EBC00040
:100A900080B2214602F0EAFA02F038FAC088C000BB
:100AA00080B2214602F0E2FA02F030FAC08800EB90
:100AB000C00080B2214602F0D9FAFFF779FC002885
:100AC0004FD102F023FAC088400080B2214602F0E4
:100AD000CDFA02F01BFAC08800EB400080B221463C
:100AE00002F0C4FA284629464FF4A072F02302F01F
:100AF000D7FA02F08FF9784C2046012101F05EFA16
:100B000020461821012201F0E5FA4FF4E06000F0E0
:100B100051FA39238DF814308DF815508DF8165090
:100B200001248DF8174005A800F04EFA204601F088
:100B3000FFF8204601F00CF9FFF764FE40F6FF7065
:100B400001F068FD01F06CFD01F072FD634DDFED19
:100B5000649A9FED649ADFED648A9FED648A644C29
:100B600028E04FF4784002F0AFF902F0CFF9C088E6
:100B7000400080B25F4902F079FA02F0C7F9C088FC
:100B800000EB400080B25C4902F070FA02F0BEF95E
:100B9000C08800EB800080B2584902F067FA02F08A
:100BA000B5F9C38803EB4303580080B2544902F0FF
:100BB0005DFAFEE7FFF7E8FA322000F0F3F801F003
:100BC0002FFDFFF791FE4388002B50D00023EB81CF
:100BD00083886E2B69D9C288962A66D9C3F57A6351
:100BE00007EE903AF8EEE77A67EEA97AC7EE897ACF
:100BF000FCEEE77ACDED017ABDF80430963A07EEC7
:100C0000902AF8EEE77A67EEA87AC7EE887AFCEECB
:100C1000E77ACDED017ABDF80420A188994213D27C
:100C20002189994210D9E18891420DD2618991427E
:100C30000AD9214A13780133DBB213701F2B34D940
:100C40001F221D4B1A7030E0A18999422DD2218AB2
:100C500099422AD9E389934227D2638A934224D9BD
:100C6000154B1B780BB3013B134A13701DE003882F
:100C700013F0010F19D1EB8901339BB2EB81642B87
:100C800013D90120014600F031FB4FF400740394A6
:100C900001238DF810301B4D284603A900F0CEFC2F
:100CA0002846214600F04CFDFEE7FFF78DFC81E76A
:100CB000145900086400002074620120846201203D
:100CC000D34D621010E000E000ED00E06C58000829
:100CD000845800089C58000828640240946201204F
:100CE0000000A043002073450000704300406745AA
:100CF00000000020B4580008CC580008E458000850
:100D0000FC58000800000240FEE700BFFEE700BFFD
:100D1000084B1B681BB1074A1368013B1360064B65
:100D20001A6801321A605A6801325A609A680132B0
:100D30009A6070476C580120A462012008B5134BDB
:100D4000134A9A420DD2101D0333181A20F00300E3
:100D50000430104B184453F8041B42F8041B834220
:100D6000F9D10D4B0D4A9A420BD2131D0C4AD21ADF
:100D700022F003021A44043B002143F8041B93426F
:100D8000FBD100F03DF8FFF70FFE08BD6400002026
:100D90000000002044E7020898640120640000205D
:100DA0009B640120034B18601A461368002BFCD18A
:100DB000704700BF6C5801200022014B1A60704739
:100DC000A46201200022014B5A607047A4620120F6
:100DD0000022014B9A607047A4620120014B186801
:100DE000704700BFA4620120014B5868704700BFE4
:100DF000A4620120014B9868704700BFA4620120E3
:100E000082B0424AD2F8883043F47003C2F8883086
:100E10003F4B1A6842F001021A60002199601A687B
:100E200022F0847222F480321A603A4A5A601A68B8
:100E300022F480221A60D960009101911A6842F46C
:100E400080321A601A46136803F400330193009B42
:100E500001330093019B1BB9009BB3F5A06FF2D146
:100E60002B4B1B6813F4003F14BF01230023019395
:100E7000019B012B32D1264B1A6C42F080521A642E
:100E800025490A6842F480420A609A689A609A6822
:100E900042F400429A609A6842F4A0529A601F4A53
:100EA0005A601A6842F080721A601A46136813F08A
:100EB000007FFBD040F20562194B1A60A3F58063F6
:100EC0009A6822F003029A609A6842F002029A60DD
:100ED0001A46936803F00C03082BFAD10C4B9A685E
:100EE00022F400029A600F4AC3F884201A6842F084
:100EF00080621A601A46136813F0006FFBD04FF03F
:100F00000062024B9A6002B0704700BF00ED00E043
:100F100000380240103000240070004008544007A0
:100F2000003C0240003000501E4B9B6803F00C0355
:100F3000042B06D0082B08D023BB1B4A1B4B1A607E
:100F400023E01B4A194B1A601FE0164B5A685B6876
:100F500003F03F0312F4800F124A5268C2F3881262
:100F600014BF13491049B1FBF3F303FB02F20D4B1D
:100F70005B68C3F3014301335B00B2FBF3F30B4A3D
:100F8000136002E0084A094B1A60064B9B68C3F3E2
:100F90000313064A13441979C9B21368CB4013608E
:100FA000704700BF003802400024F4001800002001
:100FB00000127A0040F0BF6040F40030014BD8606E
:100FC000704700BF00ED00E0C3780BB3164BDA6842
:100FD000D243C2F302224378C2F10401C9B28B406A
:100FE000D9B2D2B20F231341827813400B431B01B5
:100FF000DBB202780D490A4482F8003303785809BD
:1010000003F01F03012202FA03F341F82030704776
:1010100003785A0903F01F030121994002F12003CC
:10102000024A42F82310704700ED00E000E100E0C2
:1010300021F0604121F07F010843014B9860704727
:1010400000ED00E021B1054A1369184310617047B3
:10105000024A136923EA00001061704700ED00E0C6
:101060000428044A13680CBF43F0040323F004036C
:101070001360704710E000E00A4B1A6842F001026A
:101080001A60002199601A6822F0847222F480327A
:101090001A60054A5A601A6822F480221A60D960E0
:1010A000704700BF0038024010300024024B00227D
:1010B0001A701870704700BF02380240034A136864
:1010C00023F0F80343EAC000106070470038024084
:1010D000014B1860704700BF00004742084B0022D8
:1010E0001A701A70012802D0042804D07047012217
:1010F000034B1A7070470522014B1A70704700BFEE
:1011000070380240014B1860704700BF800E4742A4
:1011100010B4019C40EA0460014341EA82125B087A
:10112000013B42EA0340024B58605DF8044B7047B4
:1011300000380240014B1860704700BF6000474212
:10114000090741EA8010024BC3F88400704700BFD2
:1011500000380240014B1860704700BF68004742EA
:10116000014B1860704700BF4C004742034A936828
:1011700023F0EC6319430843906070470038024045
:10118000034A936823F078431943084390607047FB
:1011900000380240034A936823F003031843906029
:1011A000704700BF00380240024B986800F00C0006
:1011B000704700BF00380240034A936823F0F003F1
:1011C00018439060704700BF00380240034A93689C
:1011D00023F4E05318439060704700BF003802408A
:1011E000034A936823F4604343EAC0009060704769
:1011F0000038024010B4244B9B6803F00C03042B0E
:1012000005D0082B06D00BBB204B036020E0204B01
:1012100003601DE01C4B5A685B6803F03F0312F447
:10122000800F194A5268C2F3881214BF184917492F
:10123000B1FBF3F303FB02F2134B5B68C3F301430F
:1012400001335B00B2FBF3F3036001E00F4B03607B
:101250000D4A9368C3F303130E49CC5CE4B20368F0
:10126000E34043609468C4F382240C5DE4B223FA43
:1012700004F484609268C2F342328A5CD2B2D340F2
:10128000C3605DF8044B7047003802400024F4004E
:1012900000127A002C00002000F44073B3F5407F68
:1012A00009D108498B6823F4F81320F0704222F426
:1012B000407213438B60034A136FC0F30B00184353
:1012C0001067704700380240014B1860704700BF3C
:1012D0003C0E4742014B1860704700BF400E47422A
:1012E000014B1860704700BF5C01474221B1054ABD
:1012F000136B184310637047024A136B23EA000014
:10130000106370470038024021B1054A536B1843FF
:1013100050637047024A536B23EA000050637047E2
:101320000038024021B1054A936B1843906370471F
:10133000024A936B23EA0000906370470038024032
:1013400021B1054A136C184310647047024A136CAC
:1013500023EA0000106470470038024021B1054ABA
:10136000536C184350647047024A536C23EA0000E0
:10137000506470470038024021B1054A1369184390
:1013800010617047024A136923EA00001061704738
:101390000038024021B1054A536918435061704733
:1013A000024A536923EA0000506170470038024046
:1013B00021B1054A9369184390617047024A9369C5
:1013C00023EA0000906170470038024021B1054ACD
:1013D000136A184310627047024A136A23EA000036
:1013E000106270470038024021B1054A536A184321
:1013F00050627047024A536A23EA00005062704705
:101400000038024021B1054A136D1843106570473A
:10141000024A136D23EA000010657047003802404D
:1014200021B1054A536D184350657047024A536D08
:1014300023EA0000506570470038024021B1054A98
:10144000936D184390657047024A936D23EA00003C
:10145000906570470038024021B1054A136E184369
:1014600010667047024A136E23EA00001066704748
:101470000038024021B1054A536E18435066704748
:10148000024A536E23EA000050667047003802405B
:1014900021B1054B1A78104318707047024A13782F
:1014A00023EA0000107070470D3802404309012BF9
:1014B00002D1074B1A6804E0022B054B0CBF1A6FD0
:1014C0005A6F00F01F0322FA03F000F0010070478A
:1014D0000038024010B582B0002301933124204629
:1014E000FFF7E4FF019B01330193019BB3F5A06F6C
:1014F00001D00028F3D03120FFF7D8FF003018BF0B
:10150000012002B010BD00BF024A536F43F0807348
:101510005367704700380240034BDB68184214BF22
:1015200001200020704700BF00380240014B1870B6
:10153000704700BF0E38024008B5374B984208D1BB
:1015400001200146FFF718FF01200021FFF714FFDB
:1015500008BD324B984208D102200121FFF70CFF51
:1015600002200021FFF708FF08BD2D4B984208D14B
:1015700004200121FFF700FF04200021FFF7FCFEFB
:1015800008BD284B984208D108200121FFF7F4FE3E
:1015900008200021FFF7F0FE08BD234B984208D138
:1015A00010200121FFF7E8FE10200021FFF7E4FEE4
:1015B00008BD1E4B984208D120200121FFF7DCFE18
:1015C00020200021FFF7D8FE08BD194B984208D112
:1015D00040200121FFF7D0FE40200021FFF7CCFE84
:1015E00008BD144B984208D180200121FFF7C4FEAA
:1015F00080200021FFF7C0FE08BD0F4B984209D1A3
:101600004FF480700121FFF7B7FE4FF48070002186
:10161000FFF7B2FE08BD00BF000002400004024018
:1016200000080240000C024000100240001402407A
:1016300000180240001C024000200240F0B50022C9
:101640000126032706FA02F30C681C409C4237D19E
:101650000368540007FA04F5ED432B400360036868
:1016600091F804E00EFA04FE4EEA030303600B79DE
:10167000013BDBB2012B16D883681D40856085686D
:101680004B79A3402B43836043681FFA82FE06FA1E
:101690000EF523EA0503436045688B7903FA0EF3E0
:1016A0009BB22B434360C36895B26D0007FA05F502
:1016B00023EA0503C360C568CB79A3402B43C3600D
:1016C0000132102ABED1F0BD4FF6FF730360002334
:1016D000037143718371C371704700BF82B04FF4CF
:1016E00080330193019B0B430193019BC361C16153
:1016F000019BC361C3690193C369019302B0704741
:101700000369194214BF012000207047006980B2AC
:10171000704700BF4369194214BF01200020704781
:10172000406980B2704700BF0183704741837047B2
:101730000AB1018370474183704700BF4161704720
:10174000436959404161704710B401F007039B00A1
:10175000C90800EB8100046A0F21994024EA0101C5
:101760000162016A9A40114301625DF8044B7047BF
:10177000034628B943F2DB014FF02042116005E037
:1017800043F2D2014FF0204242F82010581C6FF073
:1017900070424FF0204141F8202001F5827141F85C
:1017A0002320704710B40168826843681A43C368F5
:1017B0001A4303691A4343691A4383691A43C36985
:1017C0001A43036A1A43436A1A43836A1A43C36A71
:1017D0001A43036B13434FF0204242F821308368D1
:1017E000082B06D103689B0013441A6842F040029C
:1017F0001A6001680131426B94691368234354688D
:1018000043EA0413946843EA0423D46843EA044394
:10181000146943EA0453526943EA02634FF02042D9
:1018200042F82130C36AB3F5804F14D10168826B4E
:10183000906913680343506843EA0013906843EAD1
:101840000023106943EA0053526943EA0263064ADF
:1018500042F8213005E002686FF07041024B43F816
:1018600022105DF8044B7047040100A010B400235F
:101870000360022242608360C3600361436183614D
:10188000C36103624FF4805242624FF4005282629D
:10189000C3620363416B0F220A60416B4A60446B71
:1018A000FF21A160446BE260446B2261446B626182
:1018B000446BA361846B2260846B6260846BA16063
:1018C000816BCA60816B0A61816B4A61826B936133
:1018D0005DF8044B704700BF39B1800000F1204033
:1018E000036843F0010303607047800000F120406B
:1018F0000268024B13400360704700BFFEFF0F00F9
:1019000010280CBF054B064B18221A6040225A6063
:101910004FF0FC329A60DA60704700BF600000A0B0
:10192000800000A030B442688368134343F008038A
:10193000C2681A4303691343426943EA4223826936
:1019400043EA4232C1694C688B681B0443EA0423B2
:101950000C682343CD6843EA0565046A6168A3689F
:101960001B0443EA012321680B43E16843EA016356
:10197000016810290CBF034903490A608D60CB60E0
:1019800030BC7047600000A0800000A010230360FE
:10199000002343608360C360036143618361C26964
:1019A000FC231360C2695360C2699360C269D3604B
:1019B000026A1360026A5360026A9360026AD3602B
:1019C000704700BF41B110280CBF084A084A13688D
:1019D00043F004031360704710280CBF034A044A05
:1019E0001168044B0B401360704700BF600000A0FB
:1019F000800000A0FBFF0F0041B110280CBF084A77
:101A0000084A136843F040031360704710280CBF66
:101A1000034A044A1168044B0B401360704700BF2F
:101A2000600000A0800000A0BFFF0F0010280CBFC6
:101A3000014B024B58697047600000A0800000A075
:101A4000054B18221A6000225A604FF0FC329A604F
:101A5000DA601A61704700BFA00000A010B40368EC
:101A600043F01003426843EA4223826843EA423368
:101A700014490B60C4686368A268120442EA032236
:101A800023681343E26843EA02638B600469636876
:101A9000A268120442EA032223681343E26843EA7D
:101AA0000263CB60406943688268120442EA032201
:101AB00003681343C26843EA02630B615DF8044B99
:101AC000704700BFA00000A0002303604360836054
:101AD000C268FC231360C2685360C2689360C26826
:101AE000D3600269136002695360026993600269FE
:101AF000D3604269136042695360426993604269EE
:101B0000D360704728B1064A136843F0040313609A
:101B10007047034A1168034B0B401360704700BFC6
:101B2000A00000A0FBFF0F007AB1102804D1104ADA
:101B30005368194351607047B0F5807F0CBF0D4A60
:101B40000D4A5368194351607047102805D1084A5F
:101B5000536823EA010151607047B0F5807F0CBFE4
:101B6000044A054A536823EA01015160704700BFE7
:101B7000600000A0800000A0A00000A0102802D1FA
:101B8000064B5B6805E0B0F5807F0CBF044B054B4E
:101B90005B680B4214BF012000207047600000A06A
:101BA000800000A0A00000A0102805D1074A5368BB
:101BB00023EA010151607047B0F5807F0CBF044AF1
:101BC000044A536823EA010151607047600000A095
:101BD000800000A0A00000A0102802D1094B5B6883
:101BE00005E0B0F5807F0CBF074B084B5B680B42EC
:101BF00005D013EAD10314BF012000207047002054
:101C0000704700BF600000A0800000A0A00000A0FE
:101C1000102805D1074A536823EAD1015160704763
:101C2000B0F5807F0CBF044A044A536823EAD1010F
:101C300051607047600000A0800000A0A00000A0DC
:101C4000054B00221A60DA601F2159619A61DA613E
:101C50001A625A62704700BF0000055010B40F4C62
:101C6000236823F4804323F001032360236823F4D3
:101C70007F6323F00203418802880A4381880A4374
:101C8000C1880A4301890A4341890A4381890A4379
:101C900092B2134323605DF8044B70470000055077
:101CA0000023038043808380C38003814381838139
:101CB000704700BF0288438843EA0243034A136225
:101CC0008188C38843EA014353627047000005508E
:101CD00028B1064A136843F0040313607047034AAF
:101CE000136823F004031360704700BF0000055021
:101CF000427883781B0443EA022302781343C278B4
:101D000043EA0263014A9361704700BF0000055037
:101D100028B1064A136843F0080313607047034A6A
:101D2000136823F008031360704700BF00000550DC
:101D300028B1064A136843F4804313607047034A8E
:101D4000136823F480431360704700BF0000055000
:101D500028B1064A136843F0010313607047034A31
:101D6000136823F001031360704700BF00000550A3
:101D7000014B986A704700BF0000055021B1064A28
:101D8000D3681843D0607047034AD368C04380B219
:101D90001840D060704700BF00000550030B012BB6
:101DA00002D1064B9B6804E0022B044B0CBF5B681E
:101DB0001B69034214BF012000207047000005503A
:101DC000014B5861704700BF00000550034B1B6971
:101DD000184214BF01200020704700BF00000550CA
:101DE000014B5861704700BF00000550036823F0A5
:101DF000010303600023036043608360C3600361E9
:101E0000212343613B4B984203D13D22103B9A6012
:101E10007047394B984204D14FF47462283B9A6062
:101E20007047364B984204D14FF47412403B9A608D
:101E30007047334B984204D14FF07462583B9A601C
:101E40007047304B984203D12F4A703BDA6070479D
:101E50002E4B984203D12E4A883BDA6070472D4BB7
:101E6000984203D12C4AA03BDA6070472B4B984232
:101E700004D14FF03D52B83BDA607047284B98428E
:101E800003D13D22103B9A607047264B984204D103
:101E90004FF47462283B9A607047234B984204D1F8
:101EA0004FF47412403B9A607047204B984204D123
:101EB0004FF07462583B9A6070471D4B984203D1B3
:101EC000114A703BDA6070471A4B984203D1104AAE
:101ED000883BDA607047184B984203D10E4AA03B0A
:101EE000DA607047154B984203D14FF03D52B83B32
:101EF000DA60704710600240286002404060024093
:101F000058600240706002403D000020886002403E
:101F1000400F0020A060024000003D20B860024059
:101F20001064024028640240406402405864024049
:101F30007064024088640240A0640240B8640240B9
:101F400010B40268134B1340CC680A6814434A6902
:101F500014438A691443CA6914430A6A14434A6AD7
:101F600014438A6A14434A6B14438A6B2243134313
:101F70000360436923F007020C6BCB6A23431343CE
:101F800043610B6943604B6883608B68C3605DF895
:101F9000044B70473F801CF0002303604360836064
:101FA000C360036143618361C3610362436283620F
:101FB000C362036343638363704700BF21B1036857
:101FC00043F0010303607047036823F001030360DB
:101FD000704700BF21B1036843F4004303607047BA
:101FE000036823F400430360704700BF21B1036816
:101FF00043F0200303607047036823F0200303606D
:10200000704700BF41607047406880B2704700BFB2
:1020100022B1036843F40023036003E0036823F460
:10202000002303600161704721B1036843F48023FA
:1020300003607047036823F480230360704700BF88
:102040000AB101617047C160704700BF0068C0F30A
:10205000C0407047006800F001007047406900F020
:102060003800704710B40B4A0B4B0C4CA04294BF85
:102070001846104611F0005F14BF4368036821F052
:10208000F02121F08211194214BF012000205DF8D7
:10209000044B704700640240006002400F6402403D
:1020A00010B4094A094B0A4CA04294BF1846104686
:1020B00011F0005F21F0F02121F0821114BFC16006
:1020C00081605DF8044B704700640240006002408C
:1020D0000F64024011F0800F0ED032B1436943F01B
:1020E0008003436180290AD17047436923F080034C
:1020F0004361802909D1704780290CD02AB1036837
:1021000001F01E01194301607047036801F01E01D0
:1021100023EA01010160704710B4134B134A144CB9
:10212000A04298BF134621F0F02222F0C3122AB138
:10213000006800F01E0000EAD12002E0406900F0D3
:10214000800011F0005F14BF5B681B6821F0F02174
:1021500021F08211194203D0003018BF012000E0A5
:1021600000205DF8044B70470064024000600240AC
:102170000F64024010B4094A094B0A4CA04294BFB4
:102180001846104611F0005F21F0F02121F0821175
:1021900014BFC16081605DF8044B70470064024069
:1021A000006002400F64024008B5154B98420AD106
:1021B0004FF400100121FFF709F94FF4001000213E
:1021C000FFF704F908BD0F4B98420AD14FF4800085
:1021D0000121FFF7FBF84FF480000021FFF7F6F82C
:1021E00008BD094B984209D14FF400000121FFF7C7
:1021F000EDF84FF400000021FFF7E8F808BD00BF3C
:102200000054004000580040005C004070B584B0AD
:1022100004460D46868826F03F063604360C68468E
:10222000FEF7E8FF02992E4BA3FB01239B0C98B20B
:102230000643A680228822F001021204120C22809A
:102240002A68284EB24209D85200B1FBF2F292B28B
:10225000032A98BF04220130208427E0EE884BF641
:10226000FF70864205D102EB4202B1FBF2F292B25C
:1022700008E002EB820202EB8202B1FBF2F292B2C0
:1022800042F48042C2F30B0109B942F0010242F468
:1022900000424FF4967103FB01F3134981FB0301E4
:1022A000DB17C3EBA11301339BB22384A2832388E2
:1022B0009BB243F00103238023889BB223F4816304
:1022C00023F002016B89AA8813430B439BB223803E
:1022D0002A89AB8913439BB2238104B070BD00BF30
:1022E00083DE1B43A0860100D34D621041F2883388
:1022F0000360002383804BF6FF72C2800381438119
:102300004FF480438381704729B103889BB243F027
:10231000010303807047038823F001031B041B0C97
:102320000380704729B103889BB243F48073038014
:102330007047038823F480731B041B0C03807047D1
:1023400029B103889BB243F400730380704703886C
:1023500023F400731B041B0C0380704712B141F07F
:10236000010101E001F0FE0189B20182704700BF66
:1023700029B103889BB243F48063038070470388CC
:1023800023F480631B041B0C0380704783899BB27A
:1023900001F0FE0123F0FE030B438381704700BF71
:1023A00029B183899BB243F00103838170478389FC
:1023B00023F001031B041B0C8381704729B10388A0
:1023C0009BB243F0400303807047038823F040032F
:1023D0001B041B0C0380704739B103886FEA434329
:1023E0006FEA53439BB2038070470388C3F30E0325
:1023F0000380704729B903889BB243F080030380B0
:102400007047038823F080031B041B0C0380704774
:10241000B1F5804F06D0838B23F480431B041B0C43
:1024200083837047838B9BB243F4804383837047DD
:10243000B1F5006F05D103889BB243F400630380BC
:102440007047038823F400631B041B0C0380704750
:10245000B1F5005F05D103889BB243F400530380BC
:102460007047038823F400531B041B0C0380704740
:1024700029B103889BB243F010030380704703889F
:1024800023F010031B041B0C03807047018270476C
:10249000008AC0B2704700BF29B103889BB243F4E1
:1024A000805303807047038823F480531B041B0C64
:1024B00003807047B1F5006F05D103889BB243F4E8
:1024C000006303807047038823F400631B041B0C24
:1024D0000380704729B103889BB243F02003038037
:1024E0007047038823F020031B041B0C03807047F4
:1024F000008BC0F30720704729B183889BB243F457
:10250000006383807047838823F400631B041B0CE3
:102510008380704729B183889BB243F480538380C2
:102520007047838823F480531B041B0C83807047FF
:1025300082B0002301930190019B19440191019BFA
:10254000188880B202B0704722B183889BB21943C9
:102550008180704783889BB223EA010181807047A4
:1025600010B4838A9AB2038B21F07F4442EA03437A
:1025700004EA0300814214BF002001205DF8044BEF
:10258000704700BF838A9BB2008B43EA004020F073
:102590007F40704782B000230193009300900B0F9F
:1025A000019321F07F41019B1BB1009B14330093E9
:1025B00003E0090C009B18330093009B1B68194231
:1025C00014BF0120002002B0704700BFC94389B288
:1025D0008182704783889AB2838A9BB20B4207D06C
:1025E00001F0E06112EA114314BF0120002070479E
:1025F00000207047C94389B281827047014B18603F
:10260000704700BF00300040014B5860704700BF6A
:1026100000300040014B9860704700BF0030004020
:102620004AF6AA22014B1A60704700BF00300040F2
:102630004CF6CC42014B1A60704700BF003000409E
:10264000034BDB68184214BF01200020704700BF15
:102650000030004008B5154B98420AD14FF4805025
:102660000121FEF7C1FE4FF480500021FEF7BCFEB1
:1026700008BD0F4B98420AD14FF480400121FEF76C
:10268000A5FE4FF480400021FEF7A0FE08BD094BD7
:10269000984209D14FF400400121FEF797FE4FF414
:1026A00000400021FEF792FE08BD00BF003001404F
:1026B00000380040003C004010B4038803F441544B
:1026C0004A880B8813438A881343CA8813430A89AC
:1026D00013434A8913438A891343CA891343234303
:1026E0009BB20380838B23F400631B041B0C838346
:1026F0000B8A03825DF8044B704700BFF0B4838BF4
:102700009BB223F47B6323F00F039BB283830223EA
:102710000384858BADB28B68022B48D08B88002B4D
:102720000CBF012702272D4B9B6813F4000F04D028
:102730002A4A936823F400039360284AD2F88460FD
:10274000D2F884305268C6F3881602F03F02244C57
:10275000B4FBF2F404FB06F2C3F30273B2FBF3F230
:10276000CB88B3F5007F09D1120A02EB8202520036
:102770008B68B2FBF3F305339BB20AE07B01B2FB3B
:10278000F3F303EB83035B008A68B3FBF2F30533D7
:102790009BB2144AA2FB0323DB0803F001025B088F
:1027A0009C1EA4B2FD2C05D8120292B204E00022B5
:1027B000022301E0002202231343CA881343038447
:1027C0000B881D4345F400654B882B438A881343CF
:1027D0008A8913439BB28383F0BC70470038024060
:1027E00000127A00CDCCCCCC0023038043808380C0
:1027F000C380038143818381C381072303827047A0
:102800000023038043808380C3800222826083810F
:10281000704700BF29B103889BB243F04003038097
:102820007047038823F040031B041B0C0380704790
:1028300029B1838B9BB243F4806383837047838B7E
:1028400023F480631B041B0C83837047038823F4E9
:1028500000631B041B0C038003889BB21943018097
:10286000704700BFB1F5804F05D103889BB243F498
:10287000804303807047038823F480431B041B0CB0
:10288000038070474FF6FF63994205D003889BB2DF
:1028900043F4807303807047038823F480731B0420
:1028A0001B0C0380704700BF29B183889BB243F0A3
:1028B000040383807047838823F004031B041B0CEC
:1028C0008380704729B183889BB243F010038380D3
:1028D0007047838823F010031B041B0C8380704710
:1028E00030B4838B9BB223F47B6323F00F039BB242
:1028F000838302230384828B92B20B8823F40073B8
:102900001B041B0C002B0CBF4FF4807500254C885A
:10291000224342F400628B8813438A8913439BB29B
:102920002B43838330BC7047808980B2704700BFDF
:102930008181704729B103889BB243F4005303801F
:102940007047038823F400531B041B0C038070475B
:1029500003889BB243F4805303807047012914BF5E
:10296000008B808A80B27047008A80B2704700BFB7
:1029700022B183889BB219438180704783889BB2C0
:1029800023EA010181807047090901238B409BB232
:1029900022B1828892B2134383807047828892B2B8
:1029A00022EA0303838070470389194214BF012080
:1029B00000207047C94389B20181704710B48388F1
:1029C0009CB2028992B201F00F00012383401A42A7
:1029D00007D0090901238B401C4214BF01200020AD
:1029E00000E000205DF8044B704700BF01F00F01CC
:1029F00001238B40DB439BB203817047F0B583B06A
:102A000004200121FEF768FF0420FEF7B1FE4CF21E
:102A10000373009300248DF804408DF80740804D27
:102A200028466946FEF70AFE284621462246FEF75A
:102A30008BFE284601212246FEF786FE2846082105
:102A40002246FEF781FE284609212246FEF77CFE3B
:102A500028460A212246FEF777FE28460E21224606
:102A6000FEF772FE28460F212246FEF76DFE4FF656
:102A7000807300936B4E30466946FEF7DFFD3046AB
:102A800007212246FEF760FE304608212246FEF767
:102A90005BFE304609212246FEF756FE30460A21EB
:102AA0002246FEF751FE30460B212246FEF74CFE31
:102AB00030460C212246FEF747FE30460D212246C5
:102AC000FEF742FE30460E212246FEF73DFE30461E
:102AD0000F212246FEF738FE4FF23F030093524F7C
:102AE00038466946FEF7AAFD384621462246FEF7DB
:102AF0002BFE384601212246FEF726FE38460221EB
:102B00002246FEF721FE384603212246FEF71CFE30
:102B1000384604212246FEF717FE38460521224694
:102B2000FEF712FE38460C212246FEF70DFE38460F
:102B30000D212246FEF708FE38460E212246FEF7FA
:102B400003FE38460F212246FEF7FEFD3F23009389
:102B500007F5806738466946FEF770FD384621461E
:102B60002246FEF7F1FD384601212246FEF7ECFD34
:102B7000384602212246FEF7E7FD38460321224669
:102B8000FEF7E2FD384604212246FEF7DDFD384619
:102B900005212246FEF7D8FD4FF4605300932846E6
:102BA0006946FEF74BFD28460B212246FEF7CCFD79
:102BB00028460C212246FEF7C7FD28460D21224655
:102BC000FEF7C2FD3023009328466946FEF736FD26
:102BD000284604212246FEF7B7FD28460521224655
:102BE000FEF7B2FD4FF48063009338466946FEF766
:102BF00025FD38460C212246FEF7A6FD032300934F
:102C000030466946FEF71AFD304621462246FEF759
:102C10009BFD304601212246FEF796FD03B0F0BD34
:102C2000000C02400010024000140240F0B583B0D6
:102C30001A200121FEF75AFB4CF2B37300930223D2
:102C40008DF804308DF8053000268DF806600127D8
:102C50008DF80770494C20466946FEF7EFFC204688
:102C600031460C22FEF770FD204639460C22FEF755
:102C70006BFD204604210C22FEF766FD204605214F
:102C80000C22FEF761FD204607210C22FEF75CFDB9
:102C9000204608210C22FEF757FD204609210C2270
:102CA000FEF752FD20460A210C22FEF74DFD20467C
:102CB0000E210C22FEF748FD20460F210C22FEF7C4
:102CC00043FD4FF6887300932D4D28466946FEF765
:102CD000B5FC284603210C22FEF736FD28460721C5
:102CE0000C22FEF731FD284608210C22FEF72CFDB0
:102CF000284609210C22FEF727FD28460A210C222E
:102D0000FEF722FD28460B210C22FEF71DFD28466A
:102D10000C210A46FEF718FD28460D210C22FEF76D
:102D200013FD28460E210C22FEF70EFD28460F212A
:102D30000C22FEF709FD082300938DF804708DF82E
:102D400005608DF806608DF8076020466946FEF73D
:102D500075FC4FF4005500958DF804708DF80570E2
:102D60008DF806608DF8076020466946FEF766FC20
:102D700020462946FEF7D8FC03B0F0BD000C024007
:102D80000010024010B596B001200146FEF7CAFAC5
:102D90000523009300240194029303940494059462
:102DA000069407940894099410230A930B940C94A6
:102DB0000D940E940F944FF4805310931194129429
:102DC0001394CDF850D0CDF854D007A8FEF7EAFC04
:102DD00020460121FEF780FD16B010BD4FF0C04225
:102DE0004E231380024B18804F20108019807047AB
:102DF000000010604FF0C043188003F58013198065
:102E0000704700BF4FF0C043188003F58013188847
:102E100080B2704722224FF0C0431A80704700BF33
:102E2000014B1880704700BF00001060014B1888EC
:102E300080B270470000106008B500200146FFF71F
:102E4000CDFF22224FF0C0431A804FF4C8430B49F4
:102E50004FF600020A80013BFCD14FF4C8430749FA
:102E60004FF4FC620A80013BFCD14FF4C843034994
:102E70004FF01F020A80013BFCD108BD000010602A
:102E800082B0ADF80600ADF80410BDF806309BB274
:102E9000044A1380BDF804309BB2034A138002B089
:102EA000704700BF906401203C000020044B1B8849
:102EB0009BB20380034B1B889BB20B80704700BF03
:102EC000906401203C00002082B0ADF80600BDF8FF
:102ED00006309BB2014A138002B070479064012013
:102EE00082B0ADF80600BDF806309BB2014A1380EF
:102EF00002B070473C000020704700BF704700BF21
:102F0000014B5860704700BF90640120014B586826
:102F1000704700BF9064012010B5044600200146B0
:102F2000FFF75CFF22224FF0C0431A804FF4963324
:102F3000024A1480013BFCD110BD00BF00001060AC
:102F40002DE9F04F83B001912A4B5B68DB88002BA1
:102F50004CD0814617460025264C274EDFF89C8032
:102F6000DFF89CA001984946FFF738FF22224FF076
:102F7000C0431A806368988828B300224FF0800C01
:102F800037F81510A6FB00B3DB08DB000CFA03F3DF
:102F900013410B4202D10C2806D922E0114111F055
:102FA000010F07D10C2805D9BAF800309BB2A8F858
:102FB000003003E023889BB2A8F800300132636838
:102FC00098889042DCD809F101091FFA89F9019823
:102FD0004946FFF703FF01356368DB88AB42C1D880
:102FE00004E0114111F0010FDED0E3E703B0BDE8CA
:102FF000F08F00BF90640120ABAAAAAA0000106065
:103000003C00002010B5A2F12003DBB25A2B0CD9F2
:10301000BF2A02D9613AD3B207E0A82A04D0B82A5D
:1030200014BF1346A02300E09F23054A5468E2889A
:1030300002FB03F3226802EB4302FFF781FF10BD9E
:1030400090640120F8B5074600242026064D384636
:1030500021463246FFF7D6FF6B689B881C44A4B21A
:10306000B4F5A07FF3D3F8BD90640120F8B50D4608
:103070000A788AB106460024084F30462146FFF7F9
:10308000C1FF7B689B881C44A4B2B4F5A07F03D227
:1030900015F8012F002AF0D1F8BD00BF906401207F
:1030A00038B545254FF0C044258004F580142080B4
:1030B0008418B4F5A07F09DB46244FF0C042148089
:1030C00040F23F1402F58012148008E0024492B2EC
:1030D00046254FF0C044258004F5801422800B441F
:1030E000EF2BD4BF1B024FF46F4303439BB2442426
:1030F0004FF0C042148002F580121380FFF76EFE7D
:1031000038BD00BF704700BF2DE9F84F06460C469A
:1031100015461F46FFF762FE1FB12F4695B9BDE861
:10312000F88F22224FF0C0431A8029461DB3002297
:10313000124C134823889BB2038001328A42F9D192
:10314000BDE8F88F00254FF0C04B4FF0220ADFF8A2
:103150002C90DFF82C80ABF800A0B9F800309BB2BF
:10316000A8F800300134A4B230462146FFF736FEFD
:103170000135BD42EFD1BDE8F88F00BF906401205A
:103180000000106080B2B0F5A07F08D289B2EF29AC
:1031900005D808B501220023FFF7B6FF08BD704728
:1031A000F8B506460F4614461D461A460123FFF79A
:1031B000ABFFA4B2601E304480B239462A460123D8
:1031C000FFF7A2FF3046394622460023FFF79CFF57
:1031D0007919304689B222460023FFF795FFF8BDE2
:1031E0002DE9F04F87B0009001915300C3F1030324
:1031F00004930392002302934FF0C0484C4FDFF832
:1032000034B1BDF80840009B04EB03091FFA89F9AB
:10321000BDF80C50019905EB010A1FFA8AFA4846DD
:103220005146FFF7DBFD2226A8F800603B889BB2E1
:10323000ABF8003001994B1B98B202464846059204
:103240001146FFF7CBFDA8F800603B889BB2ABF8B6
:103250000030009AC4EB02091FFA89F9484651462A
:10326000FFF7BCFDA8F800603B889BB2ABF80030CC
:1032700048460599FFF7B2FDA8F800603B889BB26D
:10328000ABF80030009905EB010A1FFA8AFA019B9E
:1032900003EB04091FFA89F950464946FFF79EFDE2
:1032A000A8F800603B889BB2ABF80030019B1C1B68
:1032B000A4B250462146FFF791FDA8F800603B8874
:1032C0009BB2ABF8003000994D1BADB22846494681
:1032D000FFF784FDA8F800603B889BB2ABF8003094
:1032E00028462146FFF77AFDA8F800603B889BB28C
:1032F000ABF80030049B002B05DA029A03EB820343
:103300000633049309E0049B0A3302980399421A96
:1033100003EB820304934B1E0393029B013302933E
:10332000039A9A42BFF46DAF07B0BDE8F08F00BFBB
:103330009064012000001060F8B50446002040F2BF
:103340003F11FFF74BFD22224FF0C0431A80204669
:1033500004F5165E4FF0000C01240B4F0B4D0C4E84
:103360000EE004FA03F201680A420CBF32883A8880
:1033700092B22A800133202BF3D10430704501D062
:103380006346EEE7F8BD00BF9064012000001060C6
:103390003C000020704700BF2DE9F84307460C466B
:1033A00090461D461D4E33889BB233800023FFF7A5
:1033B000ABFE6119384689B242460023FFF7A4FEEE
:1033C000384621462A460123FFF79EFE08F1FF30CA
:1033D000384480B221462A460123FFF795FE611C3E
:1033E00089B20F4B1B889BB23380AE1EB6B2012D43
:1033F0000DD001360025A9464C1CA4B238464246E1
:103400004B46FFF781FE01352146B542F4D1034A10
:1034100013889BB21380BDE8F88300BF906401203D
:103420003C0000202DE9F04F83B081468A4601928E
:103430005400C4F103041646294B1B889BB2294A49
:1034400013800025C6B1AFB20AEB060B1FFA8BFB47
:103450004FEA46081FFA88F8C7EB090080B25946C0
:1034600042460023FFF750FE07EB090080B25946A1
:1034700042460023FFF748FEC5B11FFA86F8AFB2F7
:1034800007EB0A0B1FFA8BFB7F00BFB2C8EB0900EA
:1034900080B259463A460023FFF736FE08EB090092
:1034A00080B259463A460023FFF72EFE002C03DA7D
:1034B00004EB8504063404E00A34AB1B04EB8304FC
:1034C000013E0135AE42BDD2064A13889BB213803D
:1034D00048465146019AFFF783FE03B0BDE8F08FDE
:1034E0003C000020906401202DE9F04F85B0141AB3
:1034F000002CB8BF6442A4B227460194C1EB030973
:10350000B9F1000FB8BFC9F100091FFA89F984B2F7
:103510008DB24FF6FF76824228BF012602964FF603
:10352000FF728B4228BF012203923AB20FFA89F34D
:103530009A420BDBBDF9046006EBD676C6F34F0664
:10354000DDF808A0002302939B460EE00FFA89F6EF
:1035500006EBD676C6F34F06019BCDF8049099464C
:10356000DDF80CB0002303939A46019A12F4004F41
:103570001DD100270FFA82F820B229B2FFF702FE10
:103580004E44B3B29EB232B2904508DC019A9E1A04
:10359000B6B2029B1C44A4B2039B1D44ADB254447A
:1035A000A4B25D44ADB201373BB29845E4DA05B050
:1035B000BDE8F08F01292BD92DE9F8439046074645
:1035C000028843881BD0044602398EB2013600EBD4
:1035D00086061FFA82F99DB2A2884A44E3882B44EA
:1035E0004846294692B29BB2FFF77EFFA2884A4422
:1035F00092B2E3881D44ABB20434B442E9D1B8F1CD
:10360000000F03D038887988FFF76EFFBDE8F88394
:10361000704700BF012912D938B5041D8D1EADB207
:10362000023500EB850534F8040C34F8021C2288BE
:103630006388FFF759FF0434AC42F4D138BD7047BA
:1036400038B505460C46FFF7E5FF04F18043013B22
:1036500005EB83042888698835F823206388FFF701
:1036600043FF38BD08B50022FFF7A4FF08BD00BF27
:1036700008B50122FFF79EFF08BD00BF2DE9F04FFE
:10368000F1B006884388012940F20C811A460546AC
:103690008C1EA4B2013400EB840403460592374625
:1036A00096469446DA88964228BF1646974238BF17
:1036B000174633F8042F944528BF9446964538BFE3
:1036C0009646A342EED1CDF820E0CDF814C07A4B57
:1036D0001B889BB2794A1380E64540F2DE800A914E
:1036E0004B1E9BB209930B95B946B0460746099EFF
:1036F0000A9B002B63D0DDF82CA00025AB46CDF84B
:103700001890CDF81C8099461FFA85F837F82540A7
:1037100020B201F0BDFFCDE90201059801F0A8FF3C
:1037200002460B46CDE90023DDE9020102F076F8FE
:1037300050B137F9260001F0ABFF02460B46DDE938
:10374000000102F075F888B937F9260001F0A0FFF2
:1037500002460B46DDE9000102F07EF818B3DDE910
:103760000201DDE9002302F06DF8E0B10BF1010088
:10377000BAF802100FFA84FE07EB8603059ACEEB27
:103780000204B3F902200BB2D31A03FB04F337F996
:103790002640CEEB040493FBF4F40C440CAB23F86A
:1037A0001B401FFA80FB01350AF1040A4646ABB202
:1037B0004B45A9D3DDF81890DDF81C8001E04FF0EF
:1037C000000B00230BF1FF3013E00CAA32F81310AA
:1037D0005A1C0CAC34F81240A14208D90CAE26F8A1
:1037E000154026F8121023B1013B9BB201E00133D2
:1037F0009BB21D468342E8DBBBF1000F45D0BDF80C
:103800003010894541D90022144605E022460CAB10
:1038100033F81410894538D9531C0CA830F813001C
:1038200040452ED9884584BF0CA921F812800CA9E7
:1038300031F81310494584BF0CA921F813901E4993
:10384000098889B21D4801800CA931F8135031F85C
:103850001260AA1BDDF814A05046294692B200233C
:10386000FFF752FC154B1B889BB2144A13800FFACA
:103870008AFA504629B2FFF785FC504631B2FFF76D
:1038800081FC0234A4B25C45C0D3059B01339BB2DA
:103890000593089A9342FFF42AAF084A13889BB213
:1038A000138005E0044B1B889BB2044A1380F4E7A5
:1038B00071B0BDE8F08F00BF3C0000209064012093
:1038C00084B0019000230393019A42F2107303FB2A
:1038D00002F30393039B2BB1039B013B0393039BD5
:1038E000002BF9D104B0704770B5FFF79FF9FFF7CF
:1038F00049FA0520FFF7E4FF4D4C20460821FDF76B
:1039000015FF0A20FFF7DCFF20460821FDF70CFF1A
:103910004FF0C04510222A80464C012323801E21EF
:103920002980B2212180282129800621218000269A
:103930002E8023802B8043F2EF03238002232B80F1
:103940004FF4C06323802A8026800520FFF7B8FF4C
:1039500011232B8046F63003238012232B8040F660
:103960009913238026232B804FF460532380072351
:103970002B80332323800C222A80052222803022B0
:103980002A80268031222A8040F20332228032228D
:103990002A8040F2074222802B8040F201332380AC
:1039A00034222A80238035232B8040F20343238056
:1039B00036232B8040F20773238037232B804FF46C
:1039C000806323803A232B804FF4206323803B23A2
:1039D0002B804FF4805323800D232B800A232380D8
:1039E0000E232B804FF43853238044232B804FF435
:1039F0006F43238045232B80268046232B8040F273
:103A00003F1323804E232B8026804F232B8026803C
:103A100022232B8026804FF4963321464FF000025C
:103A20000A80013BFCD1044A044B5A6070BD00BFC0
:103A3000000C02400000106058000020906401203B
:103A4000F0B583B008200121FDF750FC4FF48056FB
:103A5000009601278DF8047000248DF805408DF83C
:103A600006408DF80740124D28466946FDF7E6FDF1
:103A700028463146FDF75AFE0A20FDF793F92846FD
:103A80003146FDF751FE402600968DF804708DF802
:103A900005408DF806408DF8074028466946FDF739
:103AA000CDFD28463146FDF741FE03B0F0BD00BF15
:103AB000000C02402DE9F8438146884617462C4801
:103AC0000121FEF72FFC42F21174294E294D01E02D
:103AD000013C41D030462946FEF742FD0028F7D090
:103AE000234849460022FEF739FC42F21174204E69
:103AF000214D01E0013C32D030462946FEF730FD31
:103B00000028F7D01A485FFA88F1FEF7BFFC42F2AE
:103B10001174174E194D01E0013C23D0304629465F
:103B2000FEF71EFD0028F7D011483946FEF7AEFC1F
:103B300042F211740E4E114D01E0013C15D0304699
:103B40002946FEF70DFD0028F7D009480121FEF7B0
:103B5000F7FB0020BDE8F883FF20BDE8F883FF20D5
:103B6000BDE8F883FF20BDE8F883FF20BDE8F883B7
:103B70000054004001000300820007008400070099
:103B800008B5602012218022FFF794FF08BD00BF16
:103B900008B50120FDF706F9602000210A46FFF76D
:103BA00089FF0120FDF7FEF8602001218022FFF748
:103BB00081FF0120FDF7F6F8602002218022FFF747
:103BC00079FF0120FDF7EEF8602003210222FFF7C4
:103BD00071FF0120FDF7E6F8602004210322FFF7C2
:103BE00069FF0120FDF7DEF8602009210122FFF7BF
:103BF00061FF0120FDF7D6F860200B215722FFF767
:103C000059FF0120FDF7CEF860200E216122FFF759
:103C100051FF0120FDF7C6F860200F214022FFF779
:103C200049FF0120FDF7BEF8602011210122FFF7B6
:103C300041FF0120FDF7B6F8602012216222FFF754
:103C400039FF0120FDF7AEF860201321C722FFF7EE
:103C500031FF0120FDF7A6F8602014213A22FFF77A
:103C600029FF0120FDF79EF8602016212422FFF78E
:103C700021FF0120FDF796F8602017211822FFF799
:103C800019FF0120FDF78EF8602018210422FFF7AC
:103C900011FF0120FDF786F8602019210122FFF7AE
:103CA00009FF0120FDF77EF860201A218122FFF72D
:103CB00001FF0120FDF776F860201E213022FFF77A
:103CC000F9FE0120FDF76EF8602024213C22FFF769
:103CD000F1FE0120FDF766F8602025213622FFF76E
:103CE000E9FE0120FDF75EF8602026217222FFF731
:103CF000E1FE0120FDF756F8602027210822FFF79A
:103D0000D9FE0120FDF74EF8602028210822FFF798
:103D1000D1FE0120FDF746F8602029211522FFF78A
:103D2000C9FE0120FDF73EF860202A210022FFF79E
:103D3000C1FE0120FDF736F860202B210022FFF79D
:103D4000B9FE0120FDF72EF860202C210822FFF794
:103D5000B1FE0120FDF726F8602032211222FFF784
:103D6000A9FE0120FDF71EF8602033210022FFF795
:103D7000A1FE0120FDF716F8602034213F22FFF755
:103D800099FE0120FDF70EF8602035210022FFF793
:103D900091FE0120FDF706F8602036213A22FFF758
:103DA00089FE0120FCF7FEFF602038217222FFF718
:103DB00081FE0120FCF7F6FF602039215722FFF732
:103DC00079FE0120FCF7EEFF60203A21CC22FFF7BC
:103DD00071FE0120FCF7E6FF60203B210422FFF783
:103DE00069FE0120FCF7DEFF60203D219922FFF7EC
:103DF00061FE0120FCF7D6FF60203E210222FFF782
:103E000059FE0120FCF7CEFF60203F21C122FFF7C1
:103E100051FE0120FCF7C6FF60204021C022FFF7C1
:103E200049FE0120FCF7BEFF602041210A46FFF752
:103E300041FE0120FCF7B6FF60204221C022FFF7BF
:103E400039FE0120FCF7AEFF602043210A22FFF774
:103E500031FE0120FCF7A6FF60204421F022FFF78D
:103E600029FE0120FCF79EFF602045214622FFF736
:103E700021FE0120FCF796FF602046216222FFF719
:103E800019FE0120FCF78EFF602047212A22FFF750
:103E900011FE0120FCF786FF602048213C22FFF73D
:103EA00009FE0120FCF77EFF60204A21FC22FFF77B
:103EB00001FE0120FCF776FF60204B21FC22FFF77A
:103EC000F9FD0120FCF76EFF60204C217F22FFF7F7
:103ED000F1FD0120FCF766FF60204D217F22FFF7F6
:103EE000E9FD0120FCF75EFF60204E217F22FFF7F5
:103EF000E1FD0120FCF756FF60204F219822FFF7DB
:103F0000D9FD0120FCF74EFF602050219822FFF7D9
:103F1000D1FD0120FCF746FF602051210022FFF770
:103F2000C9FD0120FCF73EFF602052212822FFF747
:103F3000C1FD0120FCF736FF602053217022FFF7FE
:103F4000B9FD0120FCF72EFF602054219822FFF7D5
:103F5000B1FD0120FCF726FF602058211A22FFF74F
:103F6000A9FD0120FCF71EFF602059218522FFF7E3
:103F7000A1FD0120FCF716FF60205A21A922FFF7BE
:103F800099FD0120FCF70EFF60205B216422FFF702
:103F900091FD0120FCF706FF60205C218422FFF7E1
:103FA00089FD0120FCF7FEFE60205D215322FFF712
:103FB00081FD0120FCF7F6FE60205E210E22FFF756
:103FC00079FD0120FCF7EEFE60205F21F022FFF773
:103FD00071FD0120FCF7E6FE60200146F022FFF7AC
:103FE00069FD0120FCF7DEFE60206121F022FFF771
:103FF00061FD0120FCF7D6FE602062210022FFF760
:1040000059FD0120FCF7CEFE602063210022FFF75E
:1040100051FD0120FCF7C6FE602064210222FFF75B
:1040200049FD0120FCF7BEFE602065212022FFF73C
:1040300041FD0120FCF7B6FE602066210022FFF75B
:1040400039FD0120FCF7AEFE602069210A22FFF74E
:1040500031FD0120FCF7A6FE60206B215A22FFF7FC
:1040600029FD0120FCF79EFE60206C210422FFF751
:1040700021FD0120FCF796FE60206D215522FFF7FF
:1040800019FD0120FCF78EFE60206E210022FFF753
:1040900011FD0120FCF786FE60206F219D22FFF7B5
:1040A00009FD0120FCF77EFE602070212122FFF730
:1040B00001FD0120FCF776FE602071217822FFF7D8
:1040C000F9FC0120FCF76EFE0120FCF76BFE60207E
:1040D00072211122FFF7EEFC0120FCF763FE0120A4
:1040E000FCF760FE602073210122FFF7E3FC012052
:1040F000FCF758FE602074211022FFF7DBFC012042
:10410000FCF750FE602075211022FFF7D3FC012040
:10411000FCF748FE602076210122FFF7CBFC01204E
:10412000FCF740FE602077210222FFF7C3FC01204C
:10413000FCF738FE60207A211222FFF7BBFC012039
:10414000FCF730FE60207B210822FFF7B3FC012042
:10415000FCF728FE60207C211622FFF7ABFC012033
:10416000FCF720FE60207D213022FFF7A3FC012018
:10417000FCF718FE60207E215E22FFF79BFC0120E9
:10418000FCF710FE60207F217222FFF793FC0120D4
:10419000FCF708FE602080218222FFF78BFC0120C3
:1041A000FCF700FE602081218E22FFF783FC0120B6
:1041B000FCF7F8FD602082219A22FFF77BFC0120AA
:1041C000FCF7F0FD60208321A422FFF773FC01209F
:1041D000FCF7E8FD60208421AC22FFF76BFC012096
:1041E000FCF7E0FD60208521B822FFF763FC012089
:1041F000FCF7D8FD60208621C322FFF75BFC01207D
:10420000FCF7D0FD60208721D622FFF753FC012068
:10421000FCF7C8FD60208821E622FFF74BFC012057
:10422000FCF7C0FD60208921F222FFF743FC01204A
:10423000FCF7B8FD60208A212422FFF73BFC012017
:10424000FCF7B0FD60208C218022FFF733FC0120B9
:10425000FCF7A8FD602090217D22FFF72BFC0120B8
:10426000FCF7A0FD602091217B22FFF723FC0120B9
:10427000FCF798FD60209D210222FFF71BFC012026
:10428000FCF790FD60209E210222FFF713FC012025
:10429000FCF788FD60209F217A22FFF70BFC0120AC
:1042A000FCF780FD6020A0217922FFF703FC0120AC
:1042B000FCF778FD6020A1214022FFF7FBFB0120E5
:1042C000FCF770FD6020A4215022FFF7F3FB0120D2
:1042D000FCF768FD6020A5216822FFF7EBFB0120B9
:1042E000FCF760FD6020A6214A22FFF7E3FB0120D6
:1042F000FCF758FD6020A821C122FFF7DBFB01205D
:10430000FCF750FD6020A921EF22FFF7D3FB01202D
:10431000FCF748FD6020AA219222FFF7CBFB012089
:10432000FCF740FD6020AB210422FFF7C3FB012016
:10433000FCF738FD6020AC218022FFF7BBFB012099
:10434000FCF730FD6020AD218022FFF7B3FB012098
:10435000FCF728FD6020AE218022FFF7ABFB012097
:10436000FCF720FD6020AF218022FFF7A3FB012096
:10437000FCF718FD6020B221F222FFF79BFB012021
:10438000FCF710FD6020B3212022FFF793FB0120F2
:10439000FCF708FD6020B4212022FFF78BFB0120F1
:1043A000FCF700FD6020B5210022FFF783FB012010
:1043B000FCF7F8FC6020B621AF22FFF77BFB012061
:1043C000FCF7F0FC6020BB21AE22FFF773FB01205D
:1043D000FCF7E8FC6020BC217F22FFF76BFB01208B
:1043E000FCF7E0FC6020BD217F22FFF763FB01208A
:1043F000FCF7D8FC6020BE217F22FFF75BFB012089
:10440000FCF7D0FC6020BF217F22FFF753FB012087
:10441000FCF7C8FC6020BF217F22FFF74BFB012087
:10442000FCF7C0FC6020C021AA22FFF743FB01205B
:10443000FCF7B8FC6020C121C022FFF73BFB012044
:10444000FCF7B0FC6020C2210122FFF733FB012002
:10445000FCF7A8FC6020C3214E22FFF72BFB0120B4
:10446000FCF7A0FC6020C6210522FFF723FB0120FA
:10447000FCF798FC6020C7218122FFF71BFB01207D
:10448000FCF790FC6020C921E022FFF713FB01201C
:10449000FCF788FC6020CA21E822FFF70BFB012013
:1044A000FCF780FC6020CB21F022FFF703FB01200A
:1044B000FCF778FC6020CC21D822FFF7FBFA012022
:1044C000FCF770FC6020CD219322FFF7F3FA012066
:1044D000FCF768FC08BD00BF08B50120FCF762FCD2
:1044E000602000210A46FFF7E5FA0120FCF75AFC9C
:1044F000602001218022FFF7DDFA0120FCF752FC49
:10450000602002218022FFF7D5FA0120FCF74AFC47
:10451000602003210222FFF7CDFA0120FCF742FCC4
:10452000602004210322FFF7C5FA0120FCF73AFCC2
:10453000602009210122FFF7BDFA0120FCF732FCBF
:1045400060200B215722FFF7B5FA0120FCF72AFC67
:1045500060200E216122FFF7ADFA0120FCF722FC5A
:1045600060200F214022FFF7A5FA0120FCF71AFC7A
:10457000602011210122FFF79DFA0120FCF712FCB7
:10458000602012216222FFF795FA0120FCF70AFC55
:1045900060201321C722FFF78DFA0120FCF702FCEF
:1045A000602014213A22FFF785FA0120FCF7FAFB7C
:1045B000602016212422FFF77DFA0120FCF7F2FB90
:1045C000602017211822FFF775FA0120FCF7EAFB9B
:1045D000602018210422FFF76DFA0120FCF7E2FBAE
:1045E000602019210122FFF765FA0120FCF7DAFBB0
:1045F00060201A218122FFF75DFA0120FCF7D2FB2F
:1046000060201E212022FFF755FA0120FCF7CAFB8B
:10461000602024213C22FFF74DFA0120FCF7C2FB69
:10462000602025213622FFF745FA0120FCF7BAFB6E
:10463000602026217222FFF73DFA0120FCF7B2FB31
:10464000602027210822FFF735FA0120FCF7AAFB9A
:10465000602028210822FFF72DFA0120FCF7A2FB99
:10466000602029211522FFF725FA0120FCF79AFB8B
:1046700060202A210022FFF71DFA0120FCF792FB9F
:1046800060202B210022FFF715FA0120FCF78AFB9E
:1046900060202C210822FFF70DFA0120FCF782FB95
:1046A00060203221A422FFF705FA0120FCF77AFBF3
:1046B000602033210022FFF7FDF90120FCF772FB97
:1046C000602034213F22FFF7F5F90120FCF76AFB57
:1046D000602035210022FFF7EDF90120FCF762FB95
:1046E000602036213A22FFF7E5F90120FCF75AFB5A
:1046F000602038217222FFF7DDF90120FCF752FB20
:10470000602039215722FFF7D5F90120FCF74AFB39
:1047100060203A21CC22FFF7CDF90120FCF742FBC3
:1047200060203B210422FFF7C5F90120FCF73AFB8A
:1047300060203D219922FFF7BDF90120FCF732FBF3
:1047400060203E210E22FFF7B5F90120FCF72AFB7D
:1047500060203F21C122FFF7ADF90120FCF722FBC9
:1047600060204021C022FFF7A5F90120FCF71AFBC9
:10477000602041210A46FFF79DF90120FCF712FB5A
:1047800060204221C022FFF795F90120FCF70AFBC7
:10479000602043210A22FFF78DF90120FCF702FB7C
:1047A00060204421F022FFF785F90120FCF7FAFA96
:1047B000602045214622FFF77DF90120FCF7F2FA3F
:1047C000602046216222FFF775F90120FCF7EAFA22
:1047D000602047212A22FFF76DF90120FCF7E2FA59
:1047E000602048213C22FFF765F90120FCF7DAFA46
:1047F00060204A21FC22FFF75DF90120FCF7D2FA84
:1048000060204B21FC22FFF755F90120FCF7CAFA82
:1048100060204C217F22FFF74DF90120FCF7C2FAFE
:1048200060204D217F22FFF745F90120FCF7BAFAFD
:1048300060204E217F22FFF73DF90120FCF7B2FAFC
:1048400060204F219822FFF735F90120FCF7AAFAE2
:10485000602050219822FFF72DF90120FCF7A2FAE1
:10486000602051210022FFF725F90120FCF79AFA78
:10487000602052212822FFF71DF90120FCF792FA4F
:10488000602053217022FFF715F90120FCF78AFA06
:10489000602054219822FFF70DF90120FCF782FADD
:1048A000602058211A22FFF705F90120FCF77AFA57
:1048B000602059218522FFF7FDF80120FCF772FAEC
:1048C00060205A21A922FFF7F5F80120FCF76AFAC7
:1048D00060205B216422FFF7EDF80120FCF762FA0B
:1048E00060205C218422FFF7E5F80120FCF75AFAEA
:1048F00060205D215322FFF7DDF80120FCF752FA1A
:1049000060205E210E22FFF7D5F80120FCF74AFA5D
:1049100060205F21F022FFF7CDF80120FCF742FA7A
:1049200060200146F022FFF7C5F80120FCF73AFAB3
:1049300060206121F022FFF7BDF80120FCF732FA78
:10494000602062210022FFF7B5F80120FCF72AFA67
:10495000602063210022FFF7ADF80120FCF722FA66
:10496000602064210222FFF7A5F80120FCF71AFA63
:10497000602065212022FFF79DF80120FCF712FA44
:10498000602066210022FFF795F80120FCF70AFA63
:10499000602069210A22FFF78DF80120FCF702FA56
:1049A00060206B215A22FFF785F80120FCF7FAF905
:1049B00060206C210422FFF77DF80120FCF7F2F95A
:1049C00060206D215522FFF775F80120FCF7EAF908
:1049D00060206E210022FFF76DF80120FCF7E2F95C
:1049E00060206F219D22FFF765F80120FCF7DAF9BE
:1049F000602070212122FFF75DF80120FCF7D2F939
:104A0000602071217822FFF755F80120FCF7CAF9E0
:104A1000602072212222FFF74DF80120FCF7C2F935
:104A2000602073210222FFF745F80120FCF7BAF954
:104A3000602074211022FFF73DF80120FCF7B2F945
:104A4000602075211022FFF735F80120FCF7AAF944
:104A5000602076210122FFF72DF80120FCF7A2F952
:104A6000602077210222FFF725F80120FCF79AF950
:104A700060207A211222FFF71DF80120FCF792F93D
:104A800060207B210822FFF715F80120FCF78AF946
:104A900060207C211622FFF70DF80120FCF782F937
:104AA00060207D213022FFF705F80120FCF77AF91C
:104AB00060207E215E22FEF7FDFF0120FCF772F9E7
:104AC00060207F217222FEF7F5FF0120FCF76AF9D2
:104AD000602080218222FEF7EDFF0120FCF762F9C1
:104AE000602081218E22FEF7E5FF0120FCF75AF9B4
:104AF000602082219A22FEF7DDFF0120FCF752F9A7
:104B000060208321A422FEF7D5FF0120FCF74AF99B
:104B100060208421AC22FEF7CDFF0120FCF742F992
:104B200060208521B822FEF7C5FF0120FCF73AF985
:104B300060208621C322FEF7BDFF0120FCF732F979
:104B400060208721D622FEF7B5FF0120FCF72AF965
:104B500060208821E622FEF7ADFF0120FCF722F954
:104B600060208921F222FEF7A5FF0120FCF71AF947
:104B700060208A212422FEF79DFF0120FCF712F914
:104B800060208C218022FEF795FF0120FCF70AF9B6
:104B9000602090217D22FEF78DFF0120FCF702F9B5
:104BA000602091217B22FEF785FF0120FCF7FAF8B7
:104BB00060209D210222FEF77DFF0120FCF7F2F824
:104BC00060209E210222FEF775FF0120FCF7EAF823
:104BD00060209F217A22FEF76DFF0120FCF7E2F8AA
:104BE0006020A0217922FEF765FF0120FCF7DAF8AA
:104BF0006020A1214022FEF75DFF0120FCF7D2F8E2
:104C00006020A4215022FEF755FF0120FCF7CAF8CE
:104C10006020A5216822FEF74DFF0120FCF7C2F8B5
:104C20006020A6214A22FEF745FF0120FCF7BAF8D2
:104C30006020A821C122FEF73DFF0120FCF7B2F859
:104C40006020A921EF22FEF735FF0120FCF7AAF82A
:104C50006020AA219222FEF72DFF0120FCF7A2F886
:104C60006020AB210422FEF725FF0120FCF79AF813
:104C70006020AC218022FEF71DFF0120FCF792F896
:104C80006020AD218022FEF715FF0120FCF78AF895
:104C90006020AE218022FEF70DFF0120FCF782F894
:104CA0006020AF218022FEF705FF0120FCF77AF893
:104CB0006020B221F222FEF7FDFE0120FCF772F81F
:104CC0006020B3212022FEF7F5FE0120FCF76AF8F0
:104CD0006020B4212022FEF7EDFE0120FCF762F8EF
:104CE0006020B5210022FEF7E5FE0120FCF75AF80E
:104CF0006020B621AF22FEF7DDFE0120FCF752F85E
:104D00006020B621AF22FEF7D5FE0120FCF74AF85D
:104D10006020BB21AE22FEF7CDFE0120FCF742F859
:104D20006020BC217F22FEF7C5FE0120FCF73AF887
:104D30006020BD217F22FEF7BDFE0120FCF732F886
:104D40006020BE217F22FEF7B5FE0120FCF72AF885
:104D50006020BF217F22FEF7ADFE0120FCF722F884
:104D60006020BF217F22FEF7A5FE0120FCF71AF884
:104D70006020C021AA22FEF79DFE0120FCF712F858
:104D80006020C121C022FEF795FE0120FCF70AF841
:104D90006020C2210122FEF78DFE0120FCF702F8FF
:104DA0006020C3214E22FEF785FE0120FBF7FAFFAB
:104DB0006020C6210522FEF77DFE0120FBF7F2FFF1
:104DC0006020C7218222FEF775FE0120FBF7EAFF73
:104DD0006020C921E022FEF76DFE0120FBF7E2FF13
:104DE0006020CA21E822FEF765FE0120FBF7DAFF0A
:104DF0006020CB21F022FEF75DFE0120FBF7D2FF01
:104E00006020CC21D822FEF755FE0120FBF7CAFF17
:104E10006020CD219322FEF74DFE0120FBF7C2FF5B
:104E200008BD00BF08B5024660201121FEF742FE12
:104E300008BD00BF08B5024660201221FEF73AFE09
:104E400008BD00BF08B5024660201221FEF732FE01
:104E500008BD00BF08B50A4601466020FEF72AFEDD
:104E600008BD00BF08B5024660203221FEF722FED1
:104E700008BD00BF08B5024660204021FEF71AFEBB
:104E800008BD00BF2DE9F04107468846444801218E
:104E9000FDF748FA42F21174414E424D01E0013CE7
:104EA0006CD030462946FDF75BFB0028F7D03C4824
:104EB00039460022FDF752FA42F21174384E3A4D4B
:104EC00001E0013C5DD030462946FDF749FB002852
:104ED000F7D033485FFA88F1FDF7D8FA42F211743F
:104EE0002F4E324D01E0013C4ED030462946FDF7B1
:104EF00037FB0028F7D02A48838A9BB243F48063AB
:104F000083820121FDF70EFA42F21174244E254DE1
:104F100001E0013C3BD030462946FDF721FB00284B
:104F2000F7D01F4839460122FDF718FA42F21174F2
:104F30001B4E1F4D01E0013C2CD030462946FDF7A9
:104F40000FFB0028F7D016480021FDF711FA42F2B6
:104F50001174134E174D01E0013C1ED03046294616
:104F6000FDF7FEFA0028F7D00D4C20460121FDF791
:104F7000E7F92046FDF78CFABDE8F081FF20BDE897
:104F8000F081FF20BDE8F081FF20BDE8F081FF2027
:104F9000BDE8F081FF20BDE8F081FF20BDE8F08191
:104FA0000054004001000300820007008400070055
:104FB000020003004000030010B5044660201C21DD
:104FC000FFF760FF207060201D21FFF75BFF60701E
:104FD00060200B21FFF756FFA07060200A21FFF729
:104FE00051FFE07010BD00BFF8B507464FF4805286
:104FF000164B1A60164E02251C4604E023685A1E02
:10500000226003B9FEE730462946FDF7CDFC0028B3
:10501000F4D00F483946FDF78BFC4FF480520B4B10
:105020001A600B4E01251C4604E023685A1E2260BC
:1050300003B9FEE730462946FDF7B6FC0028F4D058
:105040000348FDF771FCC0B2F8BD00BF600000204E
:105050000030014070B504460E461546012A88BF4F
:1050600041F040060B480821FCF760FB3046FFF793
:10507000BBFF4DB1013DADB20135254414F8010B24
:10508000FFF7B2FFAC42F9D102480821FCF74CFB14
:1050900070BD00BF001002402DE9F04F89B080467E
:1050A00000248DF81F404FF480500121FCF756F981
:1050B00001200146FCF71AF910200121FCF716F92E
:1050C0004A4F384605210A46FCF73EFB3846062182
:1050D0000522FCF739FB384607210522FCF734FB93
:1050E00002268DF808608DF80A408DF80B608DF867
:1050F00009604FF0200A0DEB0A0545F81CAD384653
:105100002946FCF79BFA8023019338462946FCF791
:1051100095FA4023019338462946FCF78FFAA7F504
:1051200050473846FDF796FAADF80C40ADF8104000
:10513000ADF81240ADF814404FF40073ADF81630DE
:105140002823ADF81830ADF81A400723ADF81C300D
:105150004FF48273ADF80E30384603A9FDF7ACFA70
:1051600038460121FDF756FB4FF0080BCDF804B08F
:105170004FF001098DF808908DF80A408DF809600C
:1051800007F5604738462946FCF758FA384659462D
:10519000FCF7CAFACDF804908DF808408DF80A4063
:1051A0008DF809608DF80B4038462946FCF746FA21
:1051B000019638462946FCF741FA98F8002098F8FD
:1051C0000130134398F803100B4398F804201A4356
:1051D00098F8023013430DEB0A0000F8013D5146E8
:1051E0004A46FFF737FF09B0BDE8F08F00000240E4
:1051F00070B504461546012A8CBF41F0C00641F047
:1052000080060C480821FCF791FA3046FFF7ECFEC7
:105210005DB1013DADB20135254400263046FFF7B2
:10522000E3FE04F8010BAC42F8D102480821FCF778
:105230007BFA70BD0010024030B583B0054602AC69
:10524000002304F8013D204621210122FFF7D0FF71
:105250006A782B781343AA781A439DF8073023F015
:105260002F0313438DF80730204621210122FFF739
:10527000F1FE03B030BD00BF30B583B0054602ACCF
:10528000002304F8013D204638210122FFF7B0FF3A
:105290006A782B781A43AB7813438DF80730204691
:1052A00038210122FFF7D6FE03B030BD10B582B021
:1052B00004460DF1070020210122FFF799FF9DF818
:1052C000070020F0400020438DF807000DF1070093
:1052D00020210122FFF7BEFE02B010BD10B582B042
:1052E00004460DF1070020210122FFF781FF9DF800
:1052F000070000F07F0020438DF807000DF1070044
:1053000020210122FFF7A6FE02B010BD10B582B029
:1053100004460DF1070020210122FFF769FF9DF8E7
:10532000070020F0200020438DF807000DF1070052
:1053300020210122FFF78EFE02B010BD00B583B020
:105340000DF1070021210122FFF752FF9DF80730E0
:1053500043F040038DF807300DF1070021210122B1
:10536000FFF778FE03B05DF804FB00BF10B584B012
:1053700004460DF1070020210122FFF739FF02A8A2
:1053800029210622FFF734FF9DF8073003F02003A0
:1053900003F0FF020BB19AB924E09DF9083003EB4A
:1053A000C3035B0023609DF90A3003EBC3035B007A
:1053B00063609DF90C3003EBC3035B00A36011E055
:1053C0009DF9083003EBC303DB0023609DF90A302D
:1053D00003EBC303DB0063609DF90C3003EBC303F5
:1053E000DB00A36004B010BDFEE700BF81F0004108
:1053F00002E000BF83F0004330B54FEA41044FEABA
:10540000430594EA050F08BF90EA020F1FBF54EA54
:10541000000C55EA020C7FEA645C7FEA655C00F0F0
:10542000E2804FEA5454D4EB5555B8BF6D420CDDC1
:105430002C4480EA020281EA030382EA000083EA44
:10544000010180EA020281EA0303362D88BF30BDE4
:1054500011F0004F4FEA01314FF4801C4CEA11313A
:1054600002D0404261EB410113F0004F4FEA033399
:105470004CEA133302D0524263EB430394EA050F24
:1054800000F0A780A4F10104D5F1200E0DDB02FA93
:105490000EFC22FA05F2801841F1000103FA0EF227
:1054A000801843FA05F359410EE0A5F120050EF1ED
:1054B000200E012A03FA0EFC28BF4CF0020C43FA1E
:1054C00005F3C01851EBE37101F0004507D54FF02B
:1054D000000EDCF1000C7EEB00006EEB0101B1F57B
:1054E000801F1BD3B1F5001F0CD349085FEA3000C1
:1054F0004FEA3C0C04F101044FEA445212F5800FCC
:1055000080F09A80BCF1004F08BF5FEA500C50F168
:10551000000041EB045141EA050130BD5FEA4C0C4B
:10552000404141EB010111F4801FA4F10104E9D1D4
:1055300091F0000F04BF01460020B1FA81F308BFCB
:105540002033A3F10B03B3F120020CDA0C3208DD97
:1055500002F1140CC2F10C0201FA0CF021FA02F172
:105560000CE002F11402D8BFC2F1200C01FA02F1E2
:1055700020FA0CFCDCBF41EA0C019040E41AA2BF07
:1055800001EB0451294330BD6FEA04041F3C1CDACF
:105590000C340EDC04F11404C4F1200220FA04F0EF
:1055A00001FA02F340EA030021FA04F345EA030199
:1055B00030BDC4F10C04C4F1200220FA02F001FA5B
:1055C00004F340EA0300294630BD21FA04F02946DD
:1055D00030BD94F0000F83F4801306BF81F4801176
:1055E0000134013D4EE77FEA645C18BF7FEA655CE9
:1055F00029D094EA050F08BF90EA020F05D054EABB
:10560000000C04BF1946104630BD91EA030F1EBFBF
:105610000021002030BD5FEA545C05D140004941C3
:1056200028BF41F0004130BD14F580043CBF01F5B6
:10563000801130BD01F0004545F0FE4141F470019C
:105640004FF0000030BD7FEA645C1ABF1946104677
:105650007FEA655C1CBF0B46024650EA013406BF78
:1056600052EA033591EA030F41F4002130BD00BF37
:1056700090F0000F04BF0021704730B54FF48064F4
:1056800004F132044FF000054FF0000150E700BF75
:1056900090F0000F04BF0021704730B54FF48064D4
:1056A00004F1320410F0004548BF40424FF00001C1
:1056B0003EE700BF42004FEAE2014FEA31014FEA04
:1056C00002701FBF12F07F4393F07F4F81F0605153
:1056D000704792F0000F14BF93F07F4F704730B5C2
:1056E0004FF4607401F0004521F0004120E700BF55
:1056F00050EA010208BF704730B54FF000050AE0DC
:1057000050EA010208BF704730B511F0004502D5DC
:10571000404261EB41014FF4806404F132045FEADE
:10572000915C3FF4DCAE4FF003025FEADC0C18BF83
:1057300003325FEADC0C18BF033202EBDC02C2F179
:10574000200300FA03FC20FA02F001FA03FE40EA0B
:105750000E0021FA02F11444C1E600BF4FF0FF3CF5
:1057600006E000BF4FF0010C02E000BF4FF0010C5B
:105770004DF804CD4FEA410C7FEA6C5C4FEA430CD4
:1057800018BF7FEA6C5C1BD001B050EA410C0CBF23
:1057900052EA430C91EA030F02BF90EA020F002085
:1057A000704710F1000F91EA030F58BF994208BFEC
:1057B00090422CBFD8176FEAE37040F001007047A9
:1057C0004FEA410C7FEA6C5C02D150EA013C07D100
:1057D0004FEA430C7FEA6C5CD6D152EA033CD3D04B
:1057E0005DF8040B704700BF8446104662468C4645
:1057F0001946634600E000BF01B5FFF7B7FF002878
:1058000048BF10F1000F01BD4DF808EDFFF7F4FFA0
:105810000CBF012000205DF808FB00BF4DF808ED2B
:10582000FFF7EAFF34BF012000205DF808FB00BF4E
:105830004DF808EDFFF7E0FF94BF012000205DF870
:1058400008FB00BF4DF808EDFFF7CEFF94BF012025
:1058500000205DF808FB00BF4DF808EDFFF7C4FF1E
:1058600034BF012000205DF808FB00BF202020206D
:105870002020202020202020202020202020202028
:105880000000000020C8E4B8F220E8EDE8F6E8E007
:10589000EBE8E7E0F6E8FF200000000020202020F1
:1058A0002020EAE0ECE5F0FB2E2E2E202020202008
:1058B00000000000C8EDE8F6E8E0EBE8E7E0F6E815
:1058C000FF20EAE0ECE5F0FB0000000020202020B3
:1058D00020EDE520EFF0EEF8EBE021212120202063
:1058E00000000000CFF0EEE2E5F0FCF2E520F1EE82
:1058F000E5E4E8EDE5EDE8E50000000020E820EF54
:10590000EEE2F2EEF0E8F2E520EFEEEFFBF2EAF382
:1059100000000000593AB832172B172B172B172B02
:10592000172B172B172B172B172B172B172B172B67
:10593000172B172B172B172B172B172B172B172B57
:10594000172B172B172B172B172B172B172B172B47
:10595000172B172B172B172B172B172B172B172B37
:10596000172B172B172B172B172B172B172B172B27
:10597000172B172B172B172BB832593A593A593A7C
:10598000593A593A172B172B172B172B172B172B65
:10599000172B172B172B172B172B172B172B172BF7
:1059A000172B172B172B172B172B172B172B172BE7
:1059B000172B172B172B172B172B172B172B172BD7
:1059C000172B172B172B172B172B172B172B172BC7
:1059D000172B172B172B172B172B172B172B172BB7
:1059E000172B172B172B172B172B172B172B172BA7
:1059F000172B172B172B172B172B172B172B172B97
:105A0000172B172B172B172B172B172B172B172B86
:105A1000172B172B172B172B172B172B172B172B76
:105A2000172B172B172B172B172B172B172B172B66
:105A3000172B172B172B172B172B172B172B172B56
:105A4000172B172B172B172B172B172B172B172B46
:105A5000172B172B172B172B172B172B172B172B36
:105A6000172B172B172B172B172B172B172B172B26
:105A7000172B172B172B172B172B172B172B172B16
:105A8000172B172B172B172B172B172B172B172B06
:105A9000172B172B172B172B172B172B172B172BF6
:105AA000172B172B172B172B172B172B172B172BE6
:105AB000172B172B172B172B172B172B172B172BD6
:105AC000172B172B172B172B172B593A593A593AD3
:105AD000593A593A593A593A593A593A593A593A2E
