:020000040800F2
:100000009C020120350F0008ED0E0008350F000896
:10001000F10E0008F10E0008F10E000800000000CB
:10002000000000000000000000000000F10E0008C9
:10003000F10E0008F10E0008F10E0008F50E0008A0
:10004000F10E0008F10E0008F10E0008F10E000894
:10005000F10E0008F10E0008F10E0008F10E000884
:10006000F10E0008F10E0008F10E0008F10E000874
:10007000F10E0008F10E0008F10E0008F10E000864
:10008000F10E0008F10E0008F10E0008F10E000854
:10009000F10E0008F10E0008F10E0008F10E000844
:1000A000F10E0008F10E0008F10E0008F10E000834
:1000B000F10E0008F10E0008F10E0008F10E000824
:1000C000F10E0008F10E0008F10E0008F10E000814
:1000D000F10E0008F10E0008F10E0008F10E000804
:1000E000F10E0008F10E0008F10E0008F10E0008F4
:1000F000F10E0008F10E0008F10E0008F10E0008E4
:10010000F10E0008F10E0008F10E0008F10E0008D3
:10011000F10E0008F10E0008F10E0008F10E0008C3
:10012000F10E0008E5040008F10E0008F10E0008C9
:10013000F10E0008F10E0008F10E0008F10E0008A3
:10014000F10E0008F10E0008F10E0008F10E000893
:10015000F10E0008F10E0008F10E0008F10E000883
:10016000F10E0008F10E0008F10E0008F10E000873
:10017000F10E0008F10E0008F10E0008F10E000863
:10018000F10E0008F10E000870B586B04FF40010B3
:100190004FF0010101F07EFA4FF002004FF0010133
:1001A00001F042FA4FF48064C4F2020420464FF09A
:1001B00009014FF0040201F0F3FC20464FF0080162
:1001C0004FF0040201F0ECFC4FF4407304934FF045
:1001D00002038DF814304FF000058DF815504FF0E4
:1001E00001068DF816608DF81750204604A901F01D
:1001F00039FC4FF4A844C4F20004204601F074FF17
:100200002046314602F03AF8ADF804504BF6FF7341
:10021000ADF806304FF0FE03ADF808304FF48063C0
:10022000ADF80A304FF48043ADF80C3048F2A062CC
:1002300066F31F4206A941F8182D4FF4A84063F356
:100240001F40694601F08AFF06B070BD2DE9F04FEE
:1002500097B04FF017004FF0010101F0E5F94FF0B2
:100260000100014601F0F2F94FF00008C4F2020863
:1002700040464FF006014FF00D0201F091FC4FF4A3
:100280000065C4F2020528464FF006014FF00D024A
:1002900001F086FC28464FF007014FF00D0201F0F7
:1002A0007FFC4FF48056C4F2020630464FF0000146
:1002B0004FF00D0201F074FC30464FF001014FF099
:1002C0000D0201F06DFC30464FF004014FF00D02BD
:1002D00001F066FC4FF48067C4F2020738464FF025
:1002E00006014FF00D0201F05BFC30464FF00501B6
:1002F0004FF00D0201F054FC30464FF006014FF074
:100300000D0201F04DFC38464FF007014FF00D0291
:1003100001F046FC40464FF004014FF00D0201F0A1
:100320003FFC4FF0C009CDF840904FF0020A8DF825
:1003300044A04FF003038DF845304FF000048DF8D2
:1003400046404FF0010B8DF847B0284610A901F048
:1003500089FB4FF073031093304610A901F082FB24
:10036000CDF84090384610A901F07CFB4FF05003C7
:1003700010938DF844A08DF84640404610A901F036
:1003800071FBADF84840ADF84A40ADF84C404FF035
:100390008003ADF84E304FF04003ADF85030ADF86B
:1003A0005240ADF8544012A802F058FB4FF48000C0
:1003B000594601F039F946F22845C4F202052846AB
:1003C00002F000F94FF0007301934FF02803C5F2DB
:1003D0000503029340F28403C2F2000303930494E2
:1003E0004FF48043059306944FF4806207924FF4D4
:1003F0008052089209934FF480730A934FF40033AC
:100400000B930C944FF003030D930E940F94284616
:1004100001A902F0D1F917B0BDE8F08F08B5FFF7D8
:10042000B3FE4FF060004FF012014FF0800202F077
:1004300079FEF0B903F034FE4FF060004FF0120186
:100440004FF0630202F06EFE4FF060004FF040018B
:100450004FF0100202F066FE4FF060004FF0150101
:100460004FF0080202F05EFEFFF7F0FE4FF00000D2
:1004700008BD4FF0FF0008BD10B584B04FF0000379
:100480008DF80F304FF040048DF808408DF809309A
:100490004FF007028DF80A208DF80B308DF80C30E4
:1004A00002A804F085FF8DF804404FF010038DF88A
:1004B00005304FF020038DF8063001A804F034FF1A
:1004C0004FF01E0000F06CFD04A84FF0C00300F8D0
:1004D000013D4FF022014FF0010204F08DFE04B007
:1004E00010BD00BF2DE9F04F85B046F22840C4F2A0
:1004F00002004FF44061C1F2000102F011FA4FF422
:10050000005840F2A004C2F2010446F60459C0F6B5
:1005100000094CF6CD41CCF6CC41039140F2000AE3
:10052000C2F2000A40F2740BC2F2000B278840F2BC
:100530008402C2F2000202EB8702029207F1010379
:100540004FEA83434FEA93432380656809EB4503F1
:10055000009305F102036360B3F5963F13D94DF2A2
:100560000243CFF6FE73EB1863604FF04E004FF07E
:10057000000105F031FA4FF04F004FF0000105F097
:100580002BFA05F04BFA62680399A1FB02134FEABC
:10059000132303EB8306A2EB8616B6B29BB201933C
:1005A00039F81500BAF8003083420BD140F28003CD
:1005B000C2F200031B8840F28402C2F2000232F849
:1005C00027001840DBF8003093B11A88B2420FD8E8
:1005D0009A88B2420CD35A8801998A4208D8DB889B
:1005E0008B4205D340F28003C2F200031B881840FF
:1005F00005F01AFA009A5088BAF80030834207D101
:1006000040F28003C2F200031B8802994888184018
:10061000DBF8003093B11A88B2420FD89A88B24200
:100620000CD35A8801998A4208D8DB888B4205D3BB
:1006300040F28003C2F200031B88184005F0F4F971
:10064000B8F101087FF472AF05B0BDE8F08F00BFCC
:100650002DE9F84304460F46904699464FF00101B4
:1006600001F01CFE42F211754FF00106C0F20306C4
:1006700001E0013D4AD02046314601F04FFF0028FD
:10068000F7D0204639464FF0000201F027FE42F233
:1006900011754FF08006C0F2070601E0013D39D028
:1006A0002046314601F03AFF0028F7D05FFA88F182
:1006B000204601F0BDFE42F211754FF08406C0F2F3
:1006C000070601E0013D29D02046314601F026FF12
:1006D0000028F7D02046494601F0AAFE42F21175E3
:1006E0004FF08406C0F2070601E0013D1AD0204613
:1006F000314601F013FF0028F7D020464FF00101EA
:1007000001F0DCFD4FF00000BDE8F8834FF0FF0082
:10071000BDE8F8834FF0FF00BDE8F8834FF0FF001D
:10072000BDE8F8834FF0FF00BDE8F8832DE9F04104
:1007300004460F4690464FF0010101F0AFFD42F232
:1007400011754FF00106C0F2030601E0013D7FD0B4
:100750002046314601F0E2FE0028F7D02046394617
:100760004FF0000201F0BAFD42F211754FF082061F
:10077000C0F2070601E0013D6ED02046314601F08F
:10078000CDFE0028F7D05FFA88F1204601F050FE38
:1007900042F211754FF08406C0F2070601E0013DF8
:1007A0005ED02046314601F0B9FE0028F7D0A38A7A
:1007B0009BB243F48063A38220464FF0010101F015
:1007C0007DFD20464FF0010101F068FD42F21175F8
:1007D0004FF00106C0F2030601E0013D44D020467F
:1007E000314601F09BFE0028F7D0204639464FF0F5
:1007F000010201F073FD42F211754FF00206C0F2E2
:10080000030601E0013D33D02046314601F086FE6B
:100810000028F7D020464FF0000101F067FD42F2BA
:1008200011754FF04006C0F2030601E0013D23D0F0
:100830002046314601F072FE0028F7D020464FF0E6
:10084000010101F03BFD204601F0F4FDBDE8F0811F
:100850004FF0FF00BDE8F0814FF0FF00BDE8F081F0
:100860004FF0FF00BDE8F0814FF0FF00BDE8F081E0
:100870004FF0FF00BDE8F0814FF0FF00BDE8F081D0
:1008800070B54FF4A840C4F200004FF082014FF061
:100890004002FFF74BFF40F28403C2F201031880CD
:1008A00000F0800080B25880002848D04FF4A8445F
:1008B000C4F2000420464FF082014FF04D02FFF7D2
:1008C00035FF054620464FF082014FF04E02FFF7FC
:1008D0002DFF40EA0525ADB220464FF082014FF0D2
:1008E0004F02FFF723FF064620464FF082014FF0EC
:1008F0005002FFF71BFF40EA0626B6B240F2A00303
:10090000C2F201031B899D428CBFC3EB0503C5EBFB
:1009100003039AB240F2A003C2F201035B899E4234
:100920008CBFC3EB0603C6EB03039BB2D318052BA6
:1009300005DD40F2A003C2F201031D815E8140F299
:100940008404C2F2010440F2A003C2F201031A8936
:10095000A2805B89E3804FF4A845C4F200052846D5
:100960004FF082014FF05102FFF7E0FE2081284650
:100970004FF082014FF04B024FF00103FFF768FE8A
:1009800028464FF082014FF04B024FF00003FFF773
:100990005FFE204670BD00BF10B54FF4A844C4F2FE
:1009A000000420464FF082014FF00402FFF7BEFE24
:1009B00000F0FC0320464FF082014FF00402FFF7E5
:1009C00047FE20464FF082014FF00A02FFF7AEFECD
:1009D00040F00303DBB220464FF082014FF00A02E1
:1009E000FFF736FE20464FF082014FF020024FF015
:1009F0004903FFF72DFE4FF0020000F0D1FA204628
:100A00004FF082014FF021024FF00103FFF720FE6B
:100A100020464FF082014FF01702FFF787FE00F0EB
:100A2000E10320464FF082014FF01702FFF710FE5E
:100A300020464FF082014FF041024FF09A03FFF73A
:100A400007FE20464FF082014FF04A024FF00103AB
:100A5000FFF7FEFD20464FF082014FF04B024FF0B2
:100A60000103FFF7F5FD20464FF082014FF04B02E6
:100A70004FF00003FFF7ECFD20464FF082014FF0EE
:100A800056024FF00103FFF7E3FD20464FF08201CD
:100A90004FF058024FF00103FFF7DAFD20464FF008
:100AA00082014FF040024FF00103FFF7D1FD2046D5
:100AB0004FF082014FF00B024FF0FF03FFF7C8FD2C
:100AC00040F28403C2F201034FF000001881D88085
:100AD0009880588010BD00BF70B52DED028B82B09C
:100AE00040F20002C2F2000246F60453C0F60003D0
:100AF0001B88138040F28003C2F200031B88928897
:100B00009A4219D040F20002C2F20002D2889A4200
:100B100012D040F20002C2F2000212899A420BD0B7
:100B2000BF4A52899A4207D04FF6FF72BD4B1A80D6
:100B30004FF00002BC4B1A6040F29004C2F2010474
:100B4000204600F0D5FC626844F6D353C1F262033C
:100B5000A3FB02134FEA931202F1FF324EF210038D
:100B6000CEF200035A604FF46D42CEF200024FF015
:100B7000F00182F823104FF000059D604FF007024E
:100B80001A60FFF779FC05F01DFD284604F0D8FF38
:100B9000284604F0B7FF4FF61F0004F0A5FF02F04F
:100BA00081FA04F0C7FF46F61044C0F60004284658
:100BB000214605F079F804F0BDFFC088214605F014
:100BC00073F804F0B7FFC0884FEA400080B246F6E1
:100BD0002841C0F6000105F067F804F0ABFFC388B8
:100BE00003EB430398B246F65041C0F6000105F00E
:100BF0005BF804F09FFFC0884FEA800080B2214676
:100C000005F052F804F096FFC38803EB830398B213
:100C1000214605F049F804F08DFFC38803EB430338
:100C20004FEA430398B2214605F03EF804F082FFF4
:100C3000C388C3EBC30398B2214605F035F804F02E
:100C400079FFC0884FEAC00080B2214605F02CF839
:100C500004F070FFC38803EBC30398B2214605F08C
:100C600023F8FFF7DBFB002857D104F063FFC088AF
:100C70004FEA400080B2214605F016F804F05AFF12
:100C8000C3884FF0030000FB03F080B2214605F05B
:100C90000BF8284629464FF4A0724FF0F00305F0F8
:100CA00021F804F0BBFE46F22844C4F202042046B8
:100CB0004FF0010101F0BEFD20464FF018014FF04A
:100CC000010201F04BFE4FF4E06000F0C1FA4FF07A
:100CD00039038DF804308DF805508DF806504FF02B
:100CE00001048DF8074001A800F0BCFA204601F08D
:100CF0002BFF204601F03CFFFFF74EFE40F6FF7051
:100D000001F09EFF01F0A2FF01F0A8FF9FED478ACE
:100D1000434C444D04F11C062EE04FF4784004F09F
:100D2000E3FE04F007FFC0884FEA400080B240496C
:100D300004F0BAFF04F0FEFEC3884FF0030000FB8E
:100D400003F080B23B4904F0AFFF04F0F3FEC38828
:100D50004FF0050000FB03F080B2374904F0A4FF18
:100D600004F0E8FEC3884FF0060000FB03F080B2F9
:100D7000324904F099FFFEE7FFF706FA4FF06400EE
:100D800000F00EF901F062FFFFF77AFD4388002BB7
:100D900000F0978040F2A003C2F201034FF000027E
:100DA0009A8183886E2BE7D9C1889629E4D9C3F547
:100DB0007A6307EE903AB8EEE77A27EE087ADFED2D
:100DC000207AC7EE277AFCEEE77A17EE902A92B2E5
:100DD000A1F1960107EE901AB8EEE77ADFED197AE5
:100DE00027EE277ADFED187AC7EE277AFCEEE77A4E
:100DF00017EE903A9BB2A189914227D2218A914263
:100E000024D9E189994221D2618A99421ED94FF4AD
:100E100078432B8004F10C02034B1A60ACE700BF4F
:100E20000000002080000020740000200000A0438B
:100E30006C6C0008946C0008B46C0008DC6C000852
:100E4000002073450000704300406745A18A91422D
:100E500010D2218B91420DD9E18A99420AD2618B3D
:100E6000994207D94FF4FC632B8004F114021E4B06
:100E70001A6081E7A18B91420ED2218C91420BD94D
:100E8000E18B994208D2618C994205D94FF01F033A
:100E90002B80154B1E606FE702F1FF3292B2B2F564
:100EA0009F7F3FF669AF002B3FF466AF332B3FF6D1
:100EB00063AF4FF6FF732B804FF000020A4B1A60AE
:100EC0005AE7038813F0010F7FF456AF40F2A003F6
:100ED000C2F201039A8902F1010292B29A81642A54
:100EE0007FF64AAFFEE700BF74000020FEE700BFB8
:100EF000FEE700BF40F27803C2F200031B683BB17B
:100F000040F27803C2F200031A6802F1FF321A605D
:100F100040F2B003C2F201031A6802F101021A6042
:100F20005A6802F101025A609A6802F101029A605D
:100F3000704700BF08B5164B164A9A4211D24FF6B9
:100F40004472C0F6020240F20003C2F2000340F213
:100F50007400C2F2000052F8041B43F8041B8342E1
:100F6000F9D30D4B0D4A9A420DD240F27403C2F2EE
:100F700000034FF0000140F2A422C2F2010243F844
:100F8000041B9342FBD300F03FF8FFF7A5FD08BD1B
:100F90007400002000000020A40201207400002042
:100FA00040F27803C2F2000318601A461368002B5F
:100FB000FCD1704740F2B003C2F201034FF00002CF
:100FC0001A60704740F2B003C2F201034FF0000212
:100FD0005A60704740F2B003C2F201034FF00002C2
:100FE0009A60704740F2B003C2F20103186870477C
:100FF00040F2B003C2F201035868704740F2B003F8
:10100000C2F201039868704782B04FF46D43CEF28C
:101010000003D3F8882042F47002C3F888204FF40C
:101020006053C4F202031A6842F001021A604FF0E2
:1010300000029A60196821F0847121F480311960EE
:1010400043F21001C2F200415960196821F4802175
:101050001960DA60009201921A6842F480321A60D4
:101060004FF46052C4F20202136803F40033019398
:10107000009B03F101030093019B1BB9009BB3F597
:10108000A06FF1D14FF46053C4F202031B6813F454
:10109000003F14BF012300230193019B012B46D184
:1010A0004FF46053C4F202031A6C42F080521A6487
:1010B0004FF4E042C4F20002116841F48041116033
:1010C0009A689A609A6842F400429A609A6842F478
:1010D000A0529A6045F20842C0F240725A601A6803
:1010E00042F080721A604FF46052C4F20202136838
:1010F00013F0007FFBD04FF47053C4F2020340F2B0
:1011000005621A604FF46053C4F202039A6822F039
:1011100003029A609A6842F002029A604FF46052A9
:10112000C4F20202936803F00C03082BFAD14FF4C7
:101130006053C4F202039A6822F400029A604FF4EA
:101140004052C5F20002C3F884201A6842F080625F
:101150001A604FF46052C4F20202136813F0006F79
:10116000FBD04FF46D43CEF200034FF000629A6063
:1011700002B070474FF46053C4F202039B6803F05F
:101180000C03042B0DD0082B15D0002B44D140F2BA
:101190002803C2F200034FF41052C0F2F4021A60A6
:1011A00043E040F22803C2F200034FF49052C0F231
:1011B0007A021A6039E04FF46053C4F202035968AE
:1011C0005B6803F03F0311F4800F4FF46052C4F2E8
:1011D00002025068C0F3881019BF4FF49051C0F25A
:1011E0007A014FF41051C0F2F401B1FBF3F202FBAB
:1011F00000F24FF46053C4F20203596840F228032E
:10120000C2F20003C1F3014101F101014FEA4101C2
:10121000B2FBF1F21A6008E040F22803C2F20003C8
:101220004FF41052C0F2F4021A604FF46053C4F24B
:1012300002039A68C2F3031240F22803C2F20003C9
:101240009A181279196821FA02F21A60704700BFE1
:1012500040F0BE6040F420204FF46D43CEF2000316
:10126000D860704710B4C3786BB34FF46D43CEF2BF
:101270000003DB686FEA0303C3F302234178C3F181
:101280000402D2B201FA02F2D2B24FF00F0141FAD7
:1012900003F18478214011434FEA0111C9B2027869
:1012A0004FF46143CEF200039A1882F800130278DB
:1012B0004FEA521102F01F024FF0010000FA02F251
:1012C00043F8212010E003784FEA531203F01F0384
:1012D0004FF0010101FA03F14FF46143CEF2000334
:1012E00002F1200243F8221010BC704721F0604147
:1012F00021F07F0108434FF46D43CEF20003986064
:10130000704700BF39B14FF46D43CEF200031A6944
:101310001043186170474FF46D43CEF200031A6911
:1013200022EA00001861704704284EF21003CEF242
:1013300000031A680CBF42F0040222F004021A6093
:10134000704700BF4FF46053C4F202031A6842F0C2
:1013500001021A604FF000029A60196821F084714E
:1013600021F48031196043F21001C2F2004159604A
:10137000196821F480211960DA60704743F602038E
:10138000C4F202034FF000021A701870704700BFD9
:101390004FF46053C4F202031A6822F0F80242EAE2
:1013A000C0001860704700BF4FF00003C4F247232D
:1013B0001860704743F67003C4F202034FF0000256
:1013C0001A701A70012802D004280FD107E043F6E2
:1013D0007003C4F202034FF001021A70704743F623
:1013E0007003C4F202034FF005021A70704700BF89
:1013F0004FF46863C4F2472318607047014341EA21
:101400008212009942EA01614FEA530202F1FF326F
:1014100041EA02424FF46053C4F202035A6070473B
:101420004FF06003C4F24723186070474FEA801002
:1014300040EA01704FF46053C4F20203C3F8840021
:10144000704700BF4FF06803C4F24723186070472D
:101450004FF04C03C4F24723186070474FF46053B9
:10146000C4F202039A6822F0EC62104308439860C9
:10147000704700BF4FF46053C4F202039A6822F031
:101480007842104308439860704700BF4FF46053A0
:10149000C4F202039A6822F0030210439860704776
:1014A0004FF46053C4F20203986800F00C007047D8
:1014B0004FF46053C4F202039A6822F0F002104322
:1014C000986070474FF46053C4F202039A6822F4A4
:1014D000E0521043986070474FF46053C4F2020327
:1014E0009A6822F4604242EAC0009860704700BFE8
:1014F00010B44FF46053C4F202039B6803F00C0372
:10150000042B09D0082B0DD0002B38D14FF41053E9
:10151000C0F2F403036037E04FF49053C0F27A0353
:10152000036031E04FF46053C4F202035C685A6810
:1015300002F03F0214F4800F4FF46053C4F2020330
:101540005B68C3F3881319BF4FF49054C0F27A0458
:101550004FF41054C0F2F404B4FBF2F101FB03F1B8
:101560004FF46053C4F202035A68C2F3014202F11D
:1015700001024FEA4202B1FBF2F3036004E04FF4D0
:101580001053C0F2F40303604FF46052C4F202023D
:101590009168C1F3031140F23C03C2F20003595CAD
:1015A000046824FA01F141609468C4F382241C5D4C
:1015B00021FA04F484609268C2F342329B5C21FAFF
:1015C00003F1C16010BC704700F44073B3F5407F75
:1015D0000CD14FF46053C4F20203996821F4F8115E
:1015E00020F0704222F440720A439A604FF4605334
:1015F000C4F202031A6F4FEA00504FEA1050104332
:101600001867704740F63C63C4F247231860704780
:101610004FF46463C4F24723186070474FF4AE730D
:10162000C4F247231860704739B14FF46053C4F2D5
:1016300002031A6B1043186370474FF46053C4F2EF
:1016400002031A6B22EA00001863704739B14FF4A5
:101650006053C4F202035A6B1043586370474FF44F
:101660006053C4F202035A6B22EA000058637047C9
:1016700039B14FF46053C4F202039A6B104398637C
:1016800070474FF46053C4F202039A6B22EA0000E1
:101690009863704739B14FF46053C4F202031A6C77
:1016A0001043186470474FF46053C4F202031A6C7D
:1016B00022EA00001864704739B14FF46053C4F255
:1016C00002035A6C1043586470474FF46053C4F2DD
:1016D00002035A6C22EA00005864704739B14FF493
:1016E0006053C4F202031A691043186170474FF443
:1016F0006053C4F202031A6922EA000018617047BD
:1017000039B14FF46053C4F202035A69104358616F
:1017100070474FF46053C4F202035A6922EA000092
:101720005861704739B14FF46053C4F202039A69AB
:101730001043986170474FF46053C4F202039A69F2
:1017400022EA00009861704739B14FF46053C4F247
:1017500002031A6A1043186270474FF46053C4F2D0
:1017600002031A6A22EA00001862704739B14FF486
:101770006053C4F202035A6A1043586270474FF430
:101780006053C4F202035A6A22EA000058627047AA
:1017900039B14FF46053C4F202031A6D1043186557
:1017A00070474FF46053C4F202031A6D22EA00003E
:1017B0001865704739B14FF46053C4F202035A6D93
:1017C0001043586570474FF46053C4F202035A6DDA
:1017D00022EA00005865704739B14FF46053C4F2F3
:1017E00002039A6D1043986570474FF46053C4F23A
:1017F00002039A6D22EA00009865704739B14FF4F0
:101800006053C4F202031A6E1043186670474FF417
:101810006053C4F202031A6E22EA00001866704791
:1018200039B14FF46053C4F202035A6E1043586644
:1018300070474FF46053C4F202035A6E22EA00006C
:101840005866704739B143F60D03C4F202031A78A3
:1018500010431870704743F60D03C4F202031A7860
:1018600022EA0000187070474FEA5013012B05D18F
:101870004FF46053C4F202031B6807E0022B4FF4DD
:101880006053C4F202030CBF1B6F5B6F00F01F00BC
:1018900023FA00F000F00100704700BF10B582B0DD
:1018A0004FF0000301934FF031042046FFF7DCFFB7
:1018B000019B03F101030193019BB3F5A06F01D0DC
:1018C0000028F2D04FF03100FFF7CEFF003018BFF4
:1018D000012002B010BD00BF4FF46053C4F20203F8
:1018E0005A6F42F080725A67704700BF4FF46053DE
:1018F000C4F20203DB6818420CBF002001207047CD
:1019000043F60E03C4F202031870704708B54FF097
:101910000003C4F2020398420BD14FF001000146CC
:10192000FFF7DCFE4FF001004FF00001FFF7D6FE9D
:1019300008BD4FF48063C4F2020398420CD14FF00B
:1019400002004FF00101FFF7C9FE4FF002004FF017
:101950000001FFF7C3FE08BD4FF40063C4F20203A9
:1019600098420CD14FF004004FF00101FFF7B6FE92
:101970004FF004004FF00001FFF7B0FE08BD4FF438
:101980004063C4F2020398420CD14FF008004FF0BC
:101990000101FFF7A3FE4FF008004FF00001FFF731
:1019A0009DFE08BD4FF48053C4F2020398420CD14F
:1019B0004FF010004FF00101FFF790FE4FF01000C4
:1019C0004FF00001FFF78AFE08BD4FF4A053C4F2A8
:1019D000020398420CD14FF020004FF00101FFF7B5
:1019E0007DFE4FF020004FF00001FFF777FE08BDAD
:1019F0004FF4C053C4F2020398420CD14FF04000A0
:101A00004FF00101FFF76AFE4FF040004FF0000178
:101A1000FFF764FE08BD4FF4E053C4F2020398429E
:101A20000CD14FF080004FF00101FFF757FE4FF04F
:101A300080004FF00001FFF751FE08BD4FF4005346
:101A4000C4F2020398420BD14FF480704FF00101B1
:101A5000FFF744FE4FF480704FF00001FFF73EFEA9
:101A600008BD00BF2DE9F0074FF0000213464FF00C
:101A700001074FF0030C1E4607FA03F40D682540DA
:101A8000A54243D1D0F8009090460CFA02F46FEAD8
:101A9000040404EA0909C0F80090D0F800A091F805
:101AA000049009FA02F949EA0A09C0F8009091F88D
:101AB000049009F1FF395FFA89F9B9F1010F1CD8D7
:101AC000D0F8089004EA0909C0F80890D0F808A0F6
:101AD00091F8059009FA02F949EA0A09C0F8089054
:101AE000D0F8049029EA05054560456891F806900C
:101AF00009FA03F6B6B22E434660C5682C40C460AE
:101B0000C568CC7904FA08F42C43C46003F10103DE
:101B100002F10202102BAED1BDE8F007704700BF02
:101B20004FF6FF7303604FF000030371437183713D
:101B3000C371704782B04FF480330193019B0B4314
:101B40000193019BC361C161019BC361C36901939F
:101B5000C369019302B07047036919420CBF0020AA
:101B600001207047006980B2704700BF4369194285
:101B70000CBF002001207047406980B2704700BF51
:101B800001837047418370470AB1018370474183E5
:101B9000704700BF416170474369594041617047D8
:101BA00030B401F007034FEA83034FEAD10101F19A
:101BB000080150F821504FF00F0404FA03F425EA0D
:101BC000040440F8214050F8214002FA03F3234373
:101BD00040F8213030BC704728B943F2DB024FF0A7
:101BE00020431A6005E043F2D2024FF0204343F84D
:101BF000202000F101016FF070424FF0204343F8C4
:101C000021204FF48273CAF2000343F8202070476A
:101C100010B40268816843681943C36819430369B3
:101C200019434369194383691943C3691943036A13
:101C30001943436A1943836A1943C36A1943036BFF
:101C400019434FF0204343F822108368082B08D132
:101C500002684FF0204353F8221041F0400143F84E
:101C60002210026802F10102436B9C69196821434A
:101C70005C6841EA04119C6841EA0421DC6841EA9D
:101C800004411C6941EA04515B6941EA03614FF078
:101C9000204343F82210C36AB3F5804F17D102687E
:101CA000836B986919680143586841EA0011986884
:101CB00041EA0021186941EA00515B6941EA036188
:101CC0004FF48273CAF2000343F8221008E002685E
:101CD0004FF48273CAF200036FF0704143F8221090
:101CE00010BC704710B44FF0000303604FF00202C5
:101CF00042608360C360036143618361C3610362C7
:101D00004FF4805242624FF400528262C362036316
:101D1000416B4FF00F020A60416B4A60446B4FF019
:101D2000FF01A160446BE260446B2261446B62611D
:101D3000446BA361846B2260846B6260846BA160DE
:101D4000816BCA60816B0A61816B4A61826B9361AE
:101D500010BC704741B14FF0204353F8202042F0AF
:101D6000010243F8202070474FF0204252F8201023
:101D70004FF6FE73C0F20F030B4042F8203070475D
:101D800010280CBF60238023CAF200034FF0180212
:101D90001A604FF040025A604FF0FC329A60DA60ED
:101DA000704700BF30B4446883681C4344F00804A3
:101DB000C3681C4303691C43436944EA43248369A1
:101DC00044EA4334C3695A689D684FEA054545EAC9
:101DD00002251A681543DB6845EA0365036A5968FA
:101DE0009A684FEA024242EA012219680A43DB6814
:101DF00042EA03620368102B0CBF60238023CAF2FF
:101E000000031C609D60DA6030BC70474FF0100327
:101E100003604FF0000343608360C360036143616C
:101E20008361C2694FF0FC031360C2695360C269E9
:101E30009360C269D360026A1360026A5360026AE7
:101E40009360026AD360704751B110280CBF6023C1
:101E50008023CAF200031A6842F004021A60704735
:101E600010280CBF60228022CAF2000211684FF6CF
:101E7000FB73C0F20F030B401360704751B1102881
:101E80000CBF60238023CAF200031A6842F04002AC
:101E90001A60704710280CBF60228022CAF200022C
:101EA00011684FF6BF73C0F20F030B401360704709
:101EB000102805D14FF06003CAF20003586970473B
:101EC0004FF08003CAF20003586970474FF0A00337
:101ED000CAF200034FF018021A604FF000025A6075
:101EE0004FF0FC329A60DA601A61704710B40268F1
:101EF00042F01002436842EA4322836842EA4332D6
:101F00004FF0A003CAF200031A60C26854689168D7
:101F10004FEA014141EA042114682143D26841EAB1
:101F200002629A600269546891684FEA014141EA8D
:101F3000042114682143D26841EA0262DA604269EE
:101F4000506891684FEA014141EA0021106801435D
:101F5000D26841EA02621A6110BC70474FF0000378
:101F6000036043608360C2684FF0FC031360C26883
:101F70005360C2689360C268D360026913600269EB
:101F80005360026993600269D360426913604269D9
:101F90005360426993604269D360704740B14FF02B
:101FA000A003CAF200031A6842F004021A607047E4
:101FB0004FF0A002CAF2000211684FF6FB73C0F2A4
:101FC0000F030B4013607047A2B1102807D14FF0E8
:101FD0006003CAF200035A68114359607047B0F5B4
:101FE000807F0CBF8023A023CAF200035A681143EC
:101FF00059607047102808D14FF06003CAF20003FF
:102000005A6822EA010159607047B0F5807F0CBF21
:102010008023A023CAF200035A6822EA0101596012
:10202000704700BF102805D14FF06003CAF20003CB
:102030005B6807E0B0F5807F0CBF8023A023CAF265
:1020400000035B680B420CBF00200120704700BFFB
:10205000102808D14FF06003CAF200035A6822EA40
:10206000010159607047B0F5807F0CBF8023A02329
:10207000CAF200035A6822EA01015960704700BFA2
:10208000102805D14FF06003CAF200035B6807E037
:10209000B0F5807F0CBF8023A023CAF200035B68E9
:1020A0000B4205D013EAD1010CBF0020012070477C
:1020B0004FF00000704700BF102808D14FF06003B8
:1020C000CAF200035A6822EAD10159607047B0F59C
:1020D000807F0CBF8023A023CAF200035A6822EA43
:1020E000D1015960704700BF08B54FF4A843C4F24E
:1020F000000398420CD14FF400104FF00101FFF79C
:1021000023FB4FF400104FF00001FFF71DFB08BD4B
:102110004FF4B043C4F2000398420CD14FF4800056
:102120004FF00101FFF710FB4FF480004FF000016A
:10213000FFF70AFB08BD4FF4B843C4F2000398420E
:102140000BD14FF400004FF00101FFF7FDFA4FF4FF
:1021500000004FF00001FFF7F7FA08BD70B584B03A
:1021600004460D46868826F03F064FEA06464FEAAB
:1021700016466846FFF7BCF902994DF68362C4F231
:102180001B32A2FB01024FEA92421643A68023882B
:1021900023F001034FEA03434FEA134323802B68E4
:1021A00048F2A060C0F2010083420BD84FEA43031B
:1021B000B1FBF3F189B202F101022284032998BF35
:1021C00004212EE0EE884BF6FF70864205D103EB2A
:1021D0004303B1FBF3F189B208E003EB830303EBA4
:1021E0008303B1FBF3F189B241F480414FEA01531B
:1021F0004FEA13530BB941F001016FEA41416FEA15
:10220000514189B24FF4967303FB02F244F6D35363
:10221000C1F2620383FB02034FEAA31303F101033C
:102220002384A18323889BB243F001032380238866
:1022300023F4806323F00A034FEA03434FEA134376
:102240006989AA880A4313439BB223802A89AB89F0
:1022500013439BB2238104B070BD00BF41F28833A9
:1022600003604FF0000383804BF6FF72C28003814E
:1022700043814FF480438381704700BF29B10388B5
:102280009BB243F0010303807047038823F00103EE
:102290004FEA03434FEA13430380704729B1038891
:1022A0009BB243F4807303807047038823F48073E8
:1022B0004FEA03434FEA13430380704729B1038871
:1022C0009BB243F4007303807047038823F40073C8
:1022D0004FEA03434FEA13430380704712B141F0C2
:1022E000010101E001F0FE010182704729B103887C
:1022F0009BB243F4806303807047038823F48063B8
:102300004FEA03434FEA134303807047838901F088
:10231000FE0123F0FE034FEA03434FEA13430B434E
:102320008381704729B183899BB243F00103838184
:102330007047838923F001034FEA03434FEA1343B5
:102340008381704729B103889BB243F04003038027
:102350007047038823F040034FEA03434FEA1343D7
:102360000380704739B103886FEA43436FEA5343F0
:102370009BB20380704703884FEA43434FEA5343BD
:102380000380704729B903889BB243F08003038020
:102390007047038823F080034FEA03434FEA134357
:1023A00003807047B1F5804F08D0838B23F48043BE
:1023B0004FEA03434FEA134383837047838B9BB2F7
:1023C00043F4804383837047B1F5006F05D10388E0
:1023D0009BB243F4006303807047038823F40063D7
:1023E0004FEA03434FEA134303807047B1F5005FA0
:1023F00005D103889BB243F40053038070470388E0
:1024000023F400534FEA03434FEA1343038070471A
:1024100029B103889BB243F01003038070470388FF
:1024200023F010034FEA03434FEA1343038070473E
:1024300001827047008AC0B2704700BF29B103888B
:102440009BB243F4805303807047038823F4805386
:102450004FEA03434FEA134303807047B1F5006F1F
:1024600005D103889BB243F400630380704703885F
:1024700023F400634FEA03434FEA1343038070479A
:1024800029B103889BB243F020030380704703887F
:1024900023F020034FEA03434FEA134303807047BE
:1024A000008BC0F30720704729B183889BB243F4A7
:1024B000006383807047838823F400634FEA0343FB
:1024C0004FEA13438380704729B183889BB243F45A
:1024D000805383807047838823F480534FEA0343FB
:1024E0004FEA13438380704782B04FF0000301939B
:1024F0000190019BC9180191019B188880B202B01C
:10250000704700BF22B183889BB219438180704716
:1025100083889BB223EA010181807047838A9BB242
:10252000008B43EA0040084020F07F40814214BF06
:1025300000200120704700BF838A9BB2008B43EAD2
:10254000004020F07F40704782B04FF000030193BD
:10255000009300904FEA1173019321F07F41019B9A
:1025600023B1009B03F11403009305E04FEA1141EE
:10257000009B03F118030093009B1B6819420CBFDA
:102580000020012002B070476FEA010189B2818208
:10259000704700BF83889AB2838A9BB20B4207D0F0
:1025A00001F0E06112EA11410CBF002001207047E8
:1025B0004FF00000704700BF6FEA010189B28182CD
:1025C000704700BF036823F0010303604FF000036E
:1025D000036043608360C36003614FF02103436184
:1025E00046F21003C4F20203984207D14FF4C043ED
:1025F000C4F202034FF03D029A60704746F228038E
:10260000C4F20203984207D14FF4C043C4F202035C
:102610004FF474629A60704746F24003C4F20203BA
:10262000984207D14FF4C043C4F202034FF474122E
:102630009A60704746F25803C4F20203984207D1E9
:102640004FF4C043C4F202034FF074629A607047C3
:1026500046F27003C4F20203984209D14FF4C0431A
:10266000C4F202034FF03D02C2F20002DA6070478A
:1026700046F28803C4F20203984209D14FF4C043E2
:10268000C4F202034FF47462C2F20002DA607047CF
:1026900046F2A003C4F20203984209D14FF4C043AA
:1026A000C4F202034FF00002C2F23D02DA6070474A
:1026B00046F2B803C4F20203984207D14FF4C04374
:1026C000C4F202034FF03D52DA60704746F2104305
:1026D000C4F20203984207D14FF4C843C4F2020384
:1026E0004FF03D029A60704746F22843C4F202035D
:1026F000984207D14FF4C843C4F202034FF4746206
:102700009A60704746F24043C4F20203984207D1F0
:102710004FF4C843C4F202034FF474129A60704736
:1027200046F25843C4F20203984207D14FF4C8431B
:10273000C4F202034FF074629A60704746F270432D
:10274000C4F20203984209D14FF4C843C4F2020311
:102750004FF03D02C2F20002DA60704746F2884351
:10276000C4F20203984209D14FF4C843C4F20203F1
:102770004FF47462C2F20002DA60704746F2A0437E
:10278000C4F20203984209D14FF4C843C4F20203D1
:102790004FF00002C2F23D02DA60704746F2B843E1
:1027A000C4F20203984206D14FF4C843C4F20203B4
:1027B0004FF03D52DA60704710B4026848F23F03B0
:1027C000CFF21C031340CC680A6822434C692243B1
:1027D0008C692243CC6922430C6A22434C6A22430F
:1027E0008C6A22434C6B22438C6B2243134303605D
:1027F000426922F007020C6BCB6A23431343436107
:102800000B6943604B6883608B68C36010BC704782
:102810004FF00003036043608360C3600361436162
:102820008361C361036243628362C3620363436380
:102830008363704721B1036843F00103036070476D
:10284000036823F001030360704700BF21B10368F0
:1028500043F4004303607047036823F400430360BC
:10286000704700BF21B1036843F020030360704745
:10287000036823F020030360704700BF4160704786
:10288000406880B2704700BF22B1036843F4002360
:10289000036003E0036823F40023036001617047D1
:1028A00021B1036843F4802303607047036823F475
:1028B00080230360704700BF0AB101617047C160A7
:1028C000704700BF0068C0F3C0407047006800F068
:1028D00001007047406900F03800704710B446F2BC
:1028E0000F44C4F202044FF4C842C4F202024FF48F
:1028F000C043C4F20203A0428CBF1046184611F038
:10290000005F14BF4268026840F67D73C0F67D73B5
:102910000B4013420CBF0020012010BC704700BFC9
:1029200010B446F20F44C4F202044FF4C842C4F299
:1029300002024FF4C043C4F20203A0428CBF10460F
:10294000184611F0005F40F67D73C0F67D7301EA12
:10295000030314BFC360836010BC704711F0800F85
:1029600009D022B1436943F08003436103E0436926
:1029700023F08003436180290CD02AB1036801F061
:102980001E01194301607047036801F01E0123EA2C
:1029900001010160704700BF10B446F20F44C4F259
:1029A00002044FF4C842C4F202024FF4C043C4F21E
:1029B0000203A04298BF1A4640F63C73C0F63C732F
:1029C0000B402BB1006800F01E0000EAD12002E0AD
:1029D000406900F0800011F0005F14BF5268126877
:1029E00040F67D73C0F67D730B40134203D0003078
:1029F00018BF012001E04FF0000010BC704700BF7D
:102A000010B446F20F44C4F202044FF4C842C4F2B8
:102A100002024FF4C043C4F20203A0428CBF10462E
:102A2000184611F0005F40F67D73C0F67D7301EA31
:102A3000030314BFC360836010BC70474FF00003F2
:102A4000C5F205034FF000021A60DA604FF01F0173
:102A500059619A61DA611A625A62704710B44FF094
:102A60000003C5F205031A6822F4804222F0010235
:102A70001A60196821F47E6121F0120144880288ED
:102A8000224384882243C488224304892243448900
:102A900022438089024392B20A431A6010BC7047F5
:102AA0004FF00003038043808380C3800381438110
:102AB000838170470288438843EA02424FF0000353
:102AC000C5F205031A628188C28842EA01425A624D
:102AD000704700BF40B14FF00003C5F205031A680C
:102AE00042F004021A6070474FF00003C5F205037C
:102AF0001A6822F004021A60704700BF4378827897
:102B00004FEA024242EA032203781A43C37842EAB8
:102B100003624FF00003C5F205039A61704700BFDE
:102B200040B14FF00003C5F205031A6842F00802F5
:102B30001A6070474FF00003C5F205031A6822F0CF
:102B400008021A60704700BF40B14FF00003C5F2A1
:102B500005031A6842F480421A6070474FF0000380
:102B6000C5F205031A6822F480421A60704700BF5C
:102B700040B14FF00003C5F205031A6842F00102AC
:102B80001A6070474FF00003C5F205031A6822F07F
:102B900001021A60704700BF4FF00003C5F2050341
:102BA000986A704739B14FF00003C5F20503DA683F
:102BB0001043D86070474FF00003C5F20503DA6890
:102BC0006FEA000080B21040D86070474FEA1033BF
:102BD000012B05D14FF00003C5F205039B6807E008
:102BE000022B4FF00003C5F205030CBF5B681B69A5
:102BF00003420CBF00200120704700BF4FF00003CC
:102C0000C5F20503586170474FF00003C5F2050394
:102C10001B6918420CBF0020012070474FF00003D1
:102C2000C5F20503586170474FF44053C4F20003E6
:102C3000186070474FF44053C4F200035860704767
:102C40004FF44053C4F20003986070474FF4405370
:102C5000C4F200034AF6AA221A6070474FF44053A8
:102C6000C4F200034CF6CC421A6070474FF4405354
:102C7000C4F20003DB6818420CBF0020012070473B
:102C800008B54FF44053C4F2010398420CD14FF4FD
:102C900080504FF00101FEF769FD4FF480504FF076
:102CA0000001FEF763FD08BD4FF46053C4F200035A
:102CB00098420CD14FF480404FF00101FEF744FDE3
:102CC0004FF480404FF00001FEF73EFD08BD4FF489
:102CD0007053C4F2000398420BD14FF400404FF000
:102CE0000101FEF731FD4FF400404FF00001FEF707
:102CF0002BFD08BD10B4028802F441524C880B88A9
:102D000023438C882343CC8823430C8923434C8959
:102D100023438C892343CC89234313439BB20380F1
:102D2000838B23F400634FEA03434FEA1343838307
:102D30000B8A038210BC7047F0B4838B23F47A6350
:102D400023F01F034FEA03434FEA134383834FF0FB
:102D500002030384848BA4B28B68022B54D08E8828
:102D6000002E14BF022601264FF46053C4F2020362
:102D70009B6813F4000F07D04FF46053C4F20203B2
:102D80009A6822F400029A604FF46053C4F202037E
:102D9000D3F88450D3F884205F68C5F3881507F012
:102DA0003F074FF49053C0F27A03B3FBF7F303FBF2
:102DB00005F3C2F30272B3FBF2F3CA88B2F5007FE7
:102DC0000EBF1B0A7601B3FBF6F303EB83034FEA56
:102DD00043038A68B3FBF2F303F105039BB24CF69D
:102DE000CD42CCF6CC42A2FB03534FEAD30303F00F
:102DF00001024FEA5303A3F10205ADB2FD2D08D83D
:102E00004FEA022292B208E04FF000024FF00203B4
:102E100003E04FF000024FF002031343CA8813434C
:102E200003840A8844EA020343F400634A88134394
:102E30008A8813438A8913439BB28383F0BC70470B
:102E40004FF00003038043808380C380038143816C
:102E50008381C3814FF00703038270474FF0000363
:102E6000038043808380C3804FF0020282608381AD
:102E7000704700BF29B103889BB243F04003038031
:102E80007047038823F040034FEA03434FEA13439C
:102E90000380704729B1838B9BB243F480638383A3
:102EA0007047838B23F480634FEA03434FEA134355
:102EB00083837047038823F400634FEA03434FEA98
:102EC0001343038003889BB219430180704700BFFE
:102ED000B1F5804F05D103889BB243F48043038052
:102EE0007047038823F480434FEA03434FEA1343B8
:102EF000038070474FF6FF63994205D003889BB269
:102F000043F4807303807047038823F480734FEA8F
:102F100003434FEA13430380704700BF29B18388FE
:102F20009BB243F0040383807047838823F004033B
:102F30004FEA03434FEA13438380704729B18388E4
:102F40009BB243F0100383807047838823F0100303
:102F50004FEA03434FEA13438380704710B4838BD7
:102F600023F47A6323F01F034FEA03434FEA13432A
:102F700083834FF002030384828B92B20B88B3F5F4
:102F8000007F05D0002B0CBF4FF48073002301E0BD
:102F90004FF480734C88224342F400628C882243B1
:102FA00089890A4392B21343838310BC704700BFE0
:102FB000808980B2704700BF8181704729B1038842
:102FC0009BB243F4005303807047038823F40053FB
:102FD0004FEA03434FEA13430380704703889BB2D1
:102FE00043F4805303807047012902D0008B80B2E4
:102FF0007047808A80B27047008A80B2704700BFF5
:1030000022B183889BB219438180704783889BB229
:1030100023EA0101818070474FEA11114FF001034B
:1030200003FA01F189B222B183889BB219438180EE
:10303000704783889BB223EA01018180704700BFFB
:10304000038919420CBF0020012070476FEA01017B
:1030500089B20181704700BF10B483889CB2028995
:1030600092B201F00F034FF0010000FA03F31A428D
:1030700008D04FEA111100FA01F10C420CBF0020F8
:10308000012001E04FF0000010BC704701F00F017B
:103090004FF0010303FA01F36FEA03039BB20381CC
:1030A000704700BFF0B583B04FF008004FF001014A
:1030B000FEF7BAFA4FF4805600964FF001078DF8EC
:1030C00004704FF000058DF805508DF806508DF80E
:1030D00007504FF44064C4F2020420466946FEF7EC
:1030E000C1FC20463146FEF74DFD4FF00A00FDF7CA
:1030F00057FF20463146FEF743FD4FF0400600964D
:103100008DF804708DF805508DF806508DF8075035
:1031100020466946FEF7A6FC20463146FEF732FD02
:1031200003B0F0BD2DE9F8430746884691464FF4B9
:10313000A840C4F200004FF00101FFF7AFF842F2DF
:1031400011744FF4A845C4F200054FF00106C0F217
:10315000030601E0013C62D028463146FFF7DEF964
:103160000028F7D04FF4A840C4F2000039464FF0D1
:103170000002FFF7B3F842F211744FF4A845C4F20D
:1031800000054FF08206C0F2070601E0013C4AD07C
:1031900028463146FFF7C2F90028F7D04FF4A8407F
:1031A000C4F200005FFA88F1FFF742F942F21174AD
:1031B0004FF4A845C4F200054FF08406C0F207069C
:1031C00001E0013C33D028463146FFF7A7F900283B
:1031D000F7D04FF4A840C4F200004946FFF728F9A1
:1031E00042F211744FF4A845C4F200054FF0840672
:1031F000C0F2070601E0013C1DD028463146FFF72A
:103200008DF90028F7D04FF4A840C4F200004FF029
:103210000101FFF753F84FF00000BDE8F8834FF0CD
:10322000FF00BDE8F8834FF0FF00BDE8F8834FF0E2
:10323000FF00BDE8F8834FF0FF00BDE8F88300BF52
:1032400008B502464FF060004FF04001FFF76AFFFB
:1032500008BD00BF08B502464FF060004FF03201D4
:10326000FFF760FF08BD00BF08B503460A464FF0F0
:1032700060001946FFF756FF08BD00BF08B50246BB
:103280004FF060004FF01201FFF74CFF08BD00BF88
:1032900008B502464FF060004FF01201FFF742FF01
:1032A00008BD00BF08B502464FF060004FF01101A5
:1032B000FFF738FF08BD00BF08B54FF00100FDF76C
:1032C0006FFE4FF060004FF000010A46FFF72AFF43
:1032D0004FF00100FDF764FE4FF060004FF0010178
:1032E0004FF08002FFF71EFF4FF00100FDF758FE80
:1032F0004FF060004FF002014FF08002FFF712FF25
:103300004FF00100FDF74CFE4FF060004FF003015D
:103310004FF00202FFF706FF4FF00100FDF740FEFD
:103320004FF060004FF004014FF00302FFF7FAFE88
:103330004FF00100FDF734FE4FF060004FF009013F
:103340004FF00102FFF7EEFE4FF00100FDF728FEFF
:103350004FF060004FF00B014FF05702FFF7E2FE15
:103360004FF00100FDF71CFE4FF060004FF00E0122
:103370004FF06102FFF7D6FE4FF00100FDF710FE9F
:103380004FF060004FF00F014FF04002FFF7CAFE10
:103390004FF00100FDF704FE4FF060004FF0110107
:1033A0004FF00102FFF7BEFE4FF00100FDF7F8FD00
:1033B0004FF060004FF012014FF06202FFF7B2FED3
:1033C0004FF00100FDF7ECFD4FF060004FF01301EE
:1033D0004FF0C702FFF7A6FE4FF00100FDF7E0FD3A
:1033E0004FF060004FF014014FF03A02FFF79AFEE1
:1033F0004FF00100FDF7D4FD4FF060004FF01601D3
:103400004FF02402FFF78EFE4FF00100FDF7C8FDDC
:103410004FF060004FF017014FF01802FFF782FEE7
:103420004FF00100FDF7BCFD4FF060004FF01801B8
:103430004FF00402FFF776FE4FF00100FDF7B0FDFC
:103440004FF060004FF019014FF00102FFF76AFEE4
:103450004FF00100FDF7A4FD4FF060004FF01A019E
:103460004FF08102FFF75EFE4FF00100FDF798FD7F
:103470004FF060004FF01E014FF02002FFF752FEA8
:103480004FF00100FDF78CFD4FF060004FF024017C
:103490004FF03C02FFF746FE4FF00100FDF780FDC4
:1034A0004FF060004FF025014FF03602FFF73AFE73
:1034B0004FF00100FDF774FD4FF060004FF0260162
:1034C0004FF07202FFF72EFE4FF00100FDF768FD8E
:1034D0004FF060004FF027014FF00802FFF722FE87
:1034E0004FF00100FDF75CFD4FF060004FF0280148
:1034F0004FF00802FFF716FE4FF00100FDF750FDF8
:103500004FF060004FF029014FF01502FFF70AFE5F
:103510004FF00100FDF744FD4FF060004FF02A012D
:103520004FF00002FFF7FEFD4FF00100FDF738FD00
:103530004FF060004FF02B014FF00002FFF7F2FD5B
:103540004FF00100FDF72CFD4FF060004FF02C0113
:103550004FF00802FFF7E6FD4FF00100FDF720FDF8
:103560004FF060004FF032014FF0A402FFF7DAFD98
:103570004FF00100FDF714FD4FF060004FF03301F4
:103580004FF00002FFF7CEFD4FF00100FDF708FD00
:103590004FF060004FF034014FF03F02FFF7C2FDE3
:1035A0004FF00100FDF7FCFC4FF060004FF03501DB
:1035B0004FF00002FFF7B6FD4FF00100FDF7F0FC01
:1035C0004FF060004FF036014FF03A02FFF7AAFDCE
:1035D0004FF00100FDF7E4FC4FF060004FF03801C0
:1035E0004FF07202FFF79EFD4FF00100FDF7D8FC8F
:1035F0004FF060004FF039014FF05702FFF792FD96
:103600004FF00100FDF7CCFC4FF060004FF03A01A5
:103610004FF0CC02FFF786FD4FF00100FDF7C0FC34
:103620004FF060004FF03B014FF00402FFF77AFDCE
:103630004FF00100FDF7B4FC4FF060004FF03D018A
:103640004FF09902FFF76EFD4FF00100FDF7A8FC67
:103650004FF060004FF03E014FF00E02FFF762FDA9
:103660004FF00100FDF79CFC4FF060004FF03F0170
:103670004FF0C102FFF756FD4FF00100FDF790FC3F
:103680004FF060004FF040014FF0C002FFF74AFDDD
:103690004FF00100FDF784FC4FF060004FF0410156
:1036A0000A46FFF73FFD4FF00100FDF779FC4FF0B0
:1036B00060004FF042014FF0C002FFF733FD4FF0C2
:1036C0000100FDF76DFC4FF060004FF043014FF03B
:1036D0000A02FFF727FD4FF00100FDF761FC4FF0F4
:1036E00060004FF044014FF0F002FFF71BFD4FF078
:1036F0000100FDF755FC4FF060004FF045014FF021
:103700004602FFF70FFD4FF00100FDF749FC4FF0B7
:1037100060004FF046014FF06202FFF703FD4FF0EB
:103720000100FDF73DFC4FF060004FF047014FF006
:103730002A02FFF7F7FC4FF00100FDF731FC4FF0D4
:1037400060004FF048014FF03C02FFF7EBFC4FF0F8
:103750000100FDF725FC4FF060004FF04A014FF0EB
:10376000FC02FFF7DFFC4FF00100FDF719FC4FF002
:1037700060004FF04B014FF0FC02FFF7D3FC4FF01D
:103780000100FDF70DFC4FF060004FF04C014FF0D1
:103790007F02FFF7C7FC4FF00100FDF701FC4FF07F
:1037A00060004FF04D014FF07F02FFF7BBFC4FF080
:1037B0000100FDF7F5FB4FF060004FF04E014FF0B8
:1037C0007F02FFF7AFFC4FF00100FDF7E9FB4FF080
:1037D00060004FF04F014FF09802FFF7A3FC4FF04D
:1037E0000100FDF7DDFB4FF060004FF050014FF09E
:1037F0009802FFF797FC4FF00100FDF7D1FB4FF067
:1038000060004FF051014FF00002FFF78BFC4FF0CA
:103810000100FDF7C5FB4FF060004FF052014FF083
:103820002802FFF77FFC4FF00100FDF7B9FB4FF0D6
:1038300060004FF053014FF07002FFF773FC4FF040
:103840000100FDF7ADFB4FF060004FF054014FF069
:103850009802FFF767FC4FF00100FDF7A1FB4FF066
:1038600060004FF058014FF01A02FFF75BFC4FF079
:103870000100FDF795FB4FF060004FF059014FF04C
:103880008502FFF74FFC4FF00100FDF789FB4FF079
:1038900060004FF05A014FF0A902FFF743FC4FF0D0
:1038A0000100FDF77DFB4FF060004FF05B014FF032
:1038B0006402FFF737FC4FF00100FDF771FB4FF09A
:1038C00060004FF05C014FF08402FFF72BFC4FF0DB
:1038D0000100FDF765FB4FF060004FF05D014FF018
:1038E0005302FFF71FFC4FF00100FDF759FB4FF0AB
:1038F00060004FF05E014FF00E02FFF713FC4FF037
:103900000100FDF74DFB4FF060004FF05F014FF0FD
:10391000F002FFF707FC4FF00100FDF741FB4FF00D
:10392000600001464FF0F002FFF7FCFB4FF0010092
:10393000FDF736FB4FF060004FF061014FF0F002F1
:10394000FFF7F0FB4FF00100FDF72AFB4FF060009E
:103950004FF062014FF00002FFF7E4FB4FF001006F
:10396000FDF71EFB4FF060004FF063014FF00002C7
:10397000FFF7D8FB4FF00100FDF712FB4FF060009E
:103980004FF064014FF00202FFF7CCFB4FF0010053
:10399000FDF706FB4FF060004FF065014FF020028D
:1039A000FFF7C0FB4FF00100FDF7FAFA4FF060009F
:1039B0004FF066014FF00002FFF7B4FB4FF001003B
:1039C000FDF7EEFA4FF060004FF069014FF00A0288
:1039D000FFF7A8FB4FF00100FDF7E2FA4FF060009F
:1039E0004FF06B014FF05A02FFF79CFB4FF00100C4
:1039F000FDF7D6FA4FF060004FF06C014FF0040273
:103A0000FFF790FB4FF00100FDF7CAFA4FF060009E
:103A10004FF06D014FF05502FFF784FB4FF00100AE
:103A2000FDF7BEFA4FF060004FF06E014FF000025C
:103A3000FFF778FB4FF00100FDF7B2FA4FF060009E
:103A40004FF06F014FF09D02FFF76CFB4FF001004C
:103A5000FDF7A6FA4FF060004FF070014FF0210221
:103A6000FFF760FB4FF00100FDF79AFA4FF060009E
:103A70004FF071014FF07802FFF754FB4FF0010057
:103A8000FDF78EFA4FF060004FF072014FF0220206
:103A9000FFF748FB4FF00100FDF782FA4FF060009E
:103AA0004FF073014FF00202FFF73CFB4FF00100B3
:103AB000FDF776FA4FF060004FF074014FF01002FE
:103AC000FFF730FB4FF00100FDF76AFA4FF060009E
:103AD0004FF075014FF01002FFF724FB4FF001008B
:103AE000FDF75EFA4FF060004FF076014FF00102F3
:103AF000FFF718FB4FF00100FDF752FA4FF060009E
:103B00004FF077014FF00202FFF70CFB4FF001007E
:103B1000FDF746FA4FF060004FF07A014FF01202C5
:103B2000FFF700FB4FF00100FDF73AFA4FF060009D
:103B30004FF07B014FF00802FFF7F4FA4FF001005D
:103B4000FDF72EFA4FF060004FF07C014FF01602A7
:103B5000FFF7E8FA4FF00100FDF722FA4FF060009E
:103B60004FF07D014FF03002FFF7DCFA4FF001001B
:103B7000FDF716FA4FF060004FF07E014FF05E0245
:103B8000FFF7D0FA4FF00100FDF70AFA4FF060009E
:103B90004FF07F014FF07202FFF7C4FA4FF00100BF
:103BA000FDF7FEF94FF060004FF080014FF0820208
:103BB000FFF7B8FA4FF00100FDF7F2F94FF060009F
:103BC0004FF081014FF08E02FFF7ACFA4FF0010089
:103BD000FDF7E6F94FF060004FF082014FF09A02D6
:103BE000FFF7A0FA4FF00100FDF7DAF94FF060009F
:103BF0004FF083014FF0A402FFF794FA4FF0010059
:103C0000FDF7CEF94FF060004FF084014FF0AC02A9
:103C1000FFF788FA4FF00100FDF7C2F94FF060009E
:103C20004FF085014FF0B802FFF77CFA4FF001002A
:103C3000FDF7B6F94FF060004FF086014FF0C30278
:103C4000FFF770FA4FF00100FDF7AAF94FF060009E
:103C50004FF087014FF0D602FFF764FA4FF00100F2
:103C6000FDF79EF94FF060004FF088014FF0E6023B
:103C7000FFF758FA4FF00100FDF792F94FF060009E
:103C80004FF089014FF0F202FFF74CFA4FF00100BC
:103C9000FDF786F94FF060004FF08A014FF02402E3
:103CA000FFF740FA4FF00100FDF77AF94FF060009E
:103CB0004FF08C014FF08002FFF734FA4FF0010013
:103CC000FDF76EF94FF060004FF090014FF07D026C
:103CD000FFF728FA4FF00100FDF762F94FF060009E
:103CE0004FF091014FF07B02FFF71CFA4FF00100FB
:103CF000FDF756F94FF060004FF09D014FF00202C2
:103D0000FFF710FA4FF00100FDF74AF94FF060009D
:103D10004FF09E014FF00202FFF704FA4FF001004E
:103D2000FDF73EF94FF060004FF09F014FF07A022F
:103D3000FFF7F8F94FF00100FDF732F94FF060009E
:103D40004FF0A0014FF07902FFF7ECF94FF00100BE
:103D5000FDF726F94FF060004FF0A1014FF040024F
:103D6000FFF7E0F94FF00100FDF71AF94FF060009E
:103D70004FF0A4014FF05002FFF7D4F94FF00100CB
:103D8000FDF70EF94FF060004FF0A5014FF068020B
:103D9000FFF7C8F94FF00100FDF702F94FF060009E
:103DA0004FF0A6014FF04A02FFF7BCF94FF00100B7
:103DB000FDF7F6F84FF060004FF0A8014FF0C10298
:103DC000FFF7B0F94FF00100FDF7EAF84FF060009F
:103DD0004FF0A9014FF0EF02FFF7A4F94FF00100F7
:103DE000FDF7DEF84FF060004FF0AA014FF09202AD
:103DF000FFF798F94FF00100FDF7D2F84FF060009F
:103E00004FF0AB014FF00402FFF78CF94FF00100C7
:103E1000FDF7C6F84FF060004FF0AC014FF08002A4
:103E2000FFF780F94FF00100FDF7BAF84FF060009E
:103E30004FF0AD014FF08002FFF774F94FF0010031
:103E4000FDF7AEF84FF060004FF0AE014FF080028A
:103E5000FFF768F94FF00100FDF7A2F84FF060009E
:103E60004FF0AF014FF08002FFF75CF94FF0010017
:103E7000FDF796F84FF060004FF0B2014FF0F202FC
:103E8000FFF750F94FF00100FDF78AF84FF060009E
:103E90004FF0B3014FF02002FFF744F94FF001005B
:103EA000FDF77EF84FF060004FF0B4014FF02002B4
:103EB000FFF738F94FF00100FDF772F84FF060009E
:103EC0004FF0B5014FF00002FFF72CF94FF0010061
:103ED000FDF766F84FF060004FF0B6014FF0AF020B
:103EE000FFF720F94FF00100FDF75AF84FF060009E
:103EF0004FF0B6014FF0AF02FFF714F94FF0010099
:103F0000FDF74EF84FF060004FF0BB014FF0AE02EE
:103F1000FFF708F94FF00100FDF742F84FF060009D
:103F20004FF0BC014FF07F02FFF7FCF84FF00100AB
:103F3000FDF736F84FF060004FF0BD014FF07F0203
:103F4000FFF7F0F84FF00100FDF72AF84FF060009E
:103F50004FF0BE014FF07F02FFF7E4F84FF0010091
:103F6000FDF71EF84FF060004FF0BF014FF07F02E9
:103F7000FFF7D8F84FF00100FDF712F84FF060009E
:103F80004FF0BF014FF07F02FFF7CCF84FF0010078
:103F9000FDF706F84FF060004FF0C0014FF0AA02A5
:103FA000FFF7C0F84FF00100FCF7FAFF4FF0600098
:103FB0004FF0C1014FF0C002FFF7B4F84FF001001D
:103FC000FCF7EEFF4FF060004FF0C2014FF001022E
:103FD000FFF7A8F84FF00100FCF7E2FF4FF0600098
:103FE0004FF0C3014FF04E02FFF79CF84FF0010075
:103FF000FCF7D6FF4FF060004FF0C6014FF005020E
:10400000FFF790F84FF00100FCF7CAFF4FF0600097
:104010004FF0C7014FF08202FFF784F84FF0010024
:10402000FCF7BEFF4FF060004FF0C9014FF0E00217
:10403000FFF778F84FF00100FCF7B2FF4FF0600097
:104040004FF0CA014FF0E802FFF76CF84FF00100A3
:10405000FCF7A6FF4FF060004FF0CB014FF0F002ED
:10406000FFF760F84FF00100FCF79AFF4FF0600097
:104070004FF0CC014FF0D802FFF754F84FF0010099
:10408000FCF78EFF4FF060004FF0CD014FF0930230
:10409000FFF748F84FF00100FCF782FF08BD00BFB2
:1040A00008B54FF00100FCF77BFF4FF060004FF0C8
:1040B00000010A46FFF736F84FF00100FCF770FFE9
:1040C0004FF060004FF001014FF08002FFF72AF837
:1040D0004FF00100FCF764FF4FF060004FF0020169
:1040E0004FF08002FFF71EF84FF00100FCF758FF79
:1040F0004FF060004FF003014FF00202FFF712F89B
:104100004FF00100FCF74CFF4FF060004FF004014E
:104110004FF00302FFF706F84FF00100FCF740FFF5
:104120004FF060004FF009014FF00102FEF7FAFF77
:104130004FF00100FCF734FF4FF060004FF00B012F
:104140004FF05702FEF7EEFF4FF00100FCF728FF9B
:104150004FF060004FF00E014FF06102FEF7E2FFFA
:104160004FF00100FCF71CFF4FF060004FF00F0113
:104170004FF04002FEF7D6FF4FF00100FCF710FFB2
:104180004FF060004FF011014FF00102FEF7CAFF3F
:104190004FF00100FCF704FF4FF060004FF01201F8
:1041A0004FF06202FEF7BEFF4FF00100FCF7F8FE91
:1041B0004FF060004FF013014FF0C702FEF7B2FF5F
:1041C0004FF00100FCF7ECFE4FF060004FF01401DF
:1041D0004FF03A02FEF7A6FF4FF00100FCF7E0FEB9
:1041E0004FF060004FF016014FF02402FEF79AFFE7
:1041F0004FF00100FCF7D4FE4FF060004FF01701C4
:104200004FF01802FEF78EFF4FF00100FCF7C8FEDA
:104210004FF060004FF018014FF00402FEF782FFEC
:104220004FF00100FCF7BCFE4FF060004FF01901A9
:104230004FF00102FEF776FF4FF00100FCF7B0FEF1
:104240004FF060004FF01A014FF08102FEF76AFF55
:104250004FF00100FCF7A4FE4FF060004FF01E018C
:104260004FF03002FEF75EFF4FF00100FCF798FEC2
:104270004FF060004FF024014FF03C02FEF752FF78
:104280004FF00100FCF78CFE4FF060004FF025016D
:104290004FF03602FEF746FF4FF00100FCF780FEBC
:1042A0004FF060004FF026014FF07202FEF73AFF28
:1042B0004FF00100FCF774FE4FF060004FF0270153
:1042C0004FF00802FEF72EFF4FF00100FCF768FEEA
:1042D0004FF060004FF028014FF00802FEF722FF78
:1042E0004FF00100FCF75CFE4FF060004FF0290139
:1042F0004FF01502FEF716FF4FF00100FCF750FEDD
:104300004FF060004FF02A014FF00002FEF70AFF65
:104310004FF00100FCF744FE4FF060004FF02B011E
:104320004FF00002FEF7FEFE4FF00100FCF738FEF2
:104330004FF060004FF02C014FF00802FEF7F2FE44
:104340004FF00100FCF72CFE4FF060004FF03201FF
:104350004FF01202FEF7E6FE4FF00100FCF720FEE0
:104360004FF060004FF033014FF00002FEF7DAFE2D
:104370004FF00100FCF714FE4FF060004FF03401E5
:104380004FF03F02FEF7CEFE4FF00100FCF708FEB3
:104390004FF060004FF035014FF00002FEF7C2FE13
:1043A0004FF00100FCF7FCFD4FF060004FF03601CC
:1043B0004FF03A02FEF7B6FE4FF00100FCF7F0FDB9
:1043C0004FF060004FF038014FF07202FEF7AAFE86
:1043D0004FF00100FCF7E4FD4FF060004FF03901B1
:1043E0004FF05702FEF79EFE4FF00100FCF7D8FD9C
:1043F0004FF060004FF03A014FF0CC02FEF792FE12
:104400004FF00100FCF7CCFD4FF060004FF03B0196
:104410004FF00402FEF786FE4FF00100FCF7C0FDEE
:104420004FF060004FF03D014FF09902FEF77AFE29
:104430004FF00100FCF7B4FD4FF060004FF03E017B
:104440004FF00202FEF76EFE4FF00100FCF7A8FDF0
:104450004FF060004FF03F014FF0C102FEF762FEE7
:104460004FF00100FCF79CFD4FF060004FF0400161
:104470004FF0C002FEF756FE4FF00100FCF790FD32
:104480004FF060004FF041010A46FEF74BFE4FF03F
:104490000100FCF785FD4FF060004FF042014FF046
:1044A000C002FEF73FFE4FF00100FCF779FD4FF030
:1044B00060004FF043014FF00A02FEF733FE4FF069
:1044C0000100FCF76DFD4FF060004FF044014FF02C
:1044D000F002FEF727FE4FF00100FCF761FD4FF000
:1044E00060004FF045014FF04602FEF71BFE4FF013
:1044F0000100FCF755FD4FF060004FF046014FF012
:104500006202FEF70FFE4FF00100FCF749FD4FF08D
:1045100060004FF047014FF02A02FEF703FE4FF014
:104520000100FCF73DFD4FF060004FF048014FF0F7
:104530003C02FEF7F7FD4FF00100FCF731FD4FF0B4
:1045400060004FF04A014FF0FC02FEF7EBFD4FF028
:104550000100FCF725FD4FF060004FF04B014FF0DC
:10456000FC02FEF7DFFD4FF00100FCF719FD4FF0F4
:1045700060004FF04C014FF07F02FEF7D3FD4FF08B
:104580000100FCF70DFD4FF060004FF04D014FF0C2
:104590007F02FEF7C7FD4FF00100FCF701FD4FF071
:1045A00060004FF04E014FF07F02FEF7BBFD4FF071
:1045B0000100FCF7F5FC4FF060004FF04F014FF0A9
:1045C0009802FEF7AFFD4FF00100FCF7E9FC4FF059
:1045D00060004FF050014FF09802FEF7A3FD4FF03E
:1045E0000100FCF7DDFC4FF060004FF051014FF08F
:1045F0000002FEF797FD4FF00100FCF7D1FC4FF0F1
:1046000060004FF052014FF02802FEF78BFD4FF093
:104610000100FCF7C5FC4FF060004FF053014FF074
:104620007002FEF77FFD4FF00100FCF7B9FC4FF080
:1046300060004FF054014FF09802FEF773FD4FF009
:104640000100FCF7ADFC4FF060004FF058014FF057
:104650001A02FEF767FD4FF00100FCF7A1FC4FF0D6
:1046600060004FF059014FF08502FEF75BFD4FF0FF
:104670000100FCF795FC4FF060004FF05A014FF03D
:10468000A902FEF74FFD4FF00100FCF789FC4FF047
:1046900060004FF05B014FF06402FEF743FD4FF006
:1046A0000100FCF77DFC4FF060004FF05C014FF023
:1046B0008402FEF737FD4FF00100FCF771FC4FF06C
:1046C00060004FF05D014FF05302FEF72BFD4FF0FD
:1046D0000100FCF765FC4FF060004FF05E014FF009
:1046E0000E02FEF71FFD4FF00100FCF759FC4FF0E2
:1046F00060004FF05F014FF0F002FEF713FD4FF046
:104700000100FCF74DFC4FF0600001464FF0F00255
:10471000FEF708FD4FF00100FCF742FC4FF060008F
:104720004FF061014FF0F002FEF7FCFC4FF001008A
:10473000FCF736FC4FF060004FF062014FF00002D2
:10474000FEF7F0FC4FF00100FCF72AFC4FF0600090
:104750004FF063014FF00002FEF7E4FC4FF0010060
:10476000FCF71EFC4FF060004FF064014FF00202B6
:10477000FEF7D8FC4FF00100FCF712FC4FF0600090
:104780004FF065014FF02002FEF7CCFC4FF0010026
:10479000FCF706FC4FF060004FF066014FF000029E
:1047A000FEF7C0FC4FF00100FCF7FAFB4FF0600091
:1047B0004FF069014FF00A02FEF7B4FC4FF0010020
:1047C000FCF7EEFB4FF060004FF06B014FF05A0228
:1047D000FEF7A8FC4FF00100FCF7E2FB4FF0600091
:1047E0004FF06C014FF00402FEF79CFC4FF001000B
:1047F000FCF7D6FB4FF060004FF06D014FF0550213
:10480000FEF790FC4FF00100FCF7CAFB4FF0600090
:104810004FF06E014FF00002FEF784FC4FF00100F4
:10482000FCF7BEFB4FF060004FF06F014FF09D02B0
:10483000FEF778FC4FF00100FCF7B2FB4FF0600090
:104840004FF070014FF02102FEF76CFC4FF00100B9
:10485000FCF7A6FB4FF060004FF071014FF07802BB
:10486000FEF760FC4FF00100FCF79AFB4FF00100EF
:10487000FCF796FB4FF060004FF072014FF0110211
:10488000FEF750FC4FF00100FCF78AFB4FF00100EF
:10489000FCF786FB4FF060004FF073014FF0010210
:1048A000FEF740FC4FF00100FCF77AFB4FF0600090
:1048B0004FF074014FF01002FEF734FC4FF001008E
:1048C000FCF76EFB4FF060004FF075014FF01002E7
:1048D000FEF728FC4FF00100FCF762FB4FF0600090
:1048E0004FF076014FF00102FEF71CFC4FF0010083
:1048F000FCF756FB4FF060004FF077014FF00202DB
:10490000FEF710FC4FF00100FCF74AFB4FF060008F
:104910004FF07A014FF01202FEF704FC4FF0010055
:10492000FCF73EFB4FF060004FF07B014FF00802B8
:10493000FEF7F8FB4FF00100FCF732FB4FF0600090
:104940004FF07C014FF01602FEF7ECFB4FF0010038
:10495000FCF726FB4FF060004FF07D014FF0300276
:10496000FEF7E0FB4FF00100FCF71AFB4FF0600090
:104970004FF07E014FF05E02FEF7D4FB4FF00100D6
:10498000FCF70EFB4FF060004FF07F014FF072021A
:10499000FEF7C8FB4FF00100FCF702FB4FF0600090
:1049A0004FF080014FF08202FEF7BCFB4FF0010098
:1049B000FCF7F6FA4FF060004FF081014FF08E02E5
:1049C000FEF7B0FB4FF00100FCF7EAFA4FF0600091
:1049D0004FF082014FF09A02FEF7A4FB4FF0010066
:1049E000FCF7DEFA4FF060004FF083014FF0A402B5
:1049F000FEF798FB4FF00100FCF7D2FA4FF0600091
:104A00004FF084014FF0AC02FEF78CFB4FF0010039
:104A1000FCF7C6FA4FF060004FF085014FF0B80286
:104A2000FEF780FB4FF00100FCF7BAFA4FF0600090
:104A30004FF086014FF0C302FEF774FB4FF0010008
:104A4000FCF7AEFA4FF060004FF087014FF0D6024E
:104A5000FEF768FB4FF00100FCF7A2FA4FF0600090
:104A60004FF088014FF0E602FEF75CFB4FF00100CB
:104A7000FCF796FA4FF060004FF089014FF0F20218
:104A8000FEF750FB4FF00100FCF78AFA4FF0600090
:104A90004FF08A014FF02402FEF744FB4FF0010073
:104AA000FCF77EFA4FF060004FF08C014FF080026F
:104AB000FEF738FB4FF00100FCF772FA4FF0600090
:104AC0004FF090014FF07D02FEF72CFB4FF00100FC
:104AD000FCF766FA4FF060004FF091014FF07B0257
:104AE000FEF720FB4FF00100FCF75AFA4FF0600090
:104AF0004FF09D014FF00202FEF714FB4FF0010052
:104B0000FCF74EFA4FF060004FF09E014FF00202AA
:104B1000FEF708FB4FF00100FCF742FA4FF060008F
:104B20004FF09F014FF07A02FEF7FCFA4FF00100C0
:104B3000FCF736FA4FF060004FF0A0014FF0790219
:104B4000FEF7F0FA4FF00100FCF72AFA4FF0600090
:104B50004FF0A1014FF04002FEF7E4FA4FF00100E0
:104B6000FCF71EFA4FF060004FF0A4014FF0500226
:104B7000FEF7D8FA4FF00100FCF712FA4FF0600090
:104B80004FF0A5014FF06802FEF7CCFA4FF001009C
:104B9000FCF706FA4FF060004FF0A6014FF04A0212
:104BA000FEF7C0FA4FF00100FCF7FAF94FF0600091
:104BB0004FF0A8014FF0C102FEF7B4FA4FF0010028
:104BC000FCF7EEF94FF060004FF0A9014FF0EF0253
:104BD000FEF7A8FA4FF00100FCF7E2F94FF0600091
:104BE0004FF0AA014FF09202FEF79CFA4FF001003D
:104BF000FCF7D6F94FF060004FF0AB014FF0040224
:104C0000FEF790FA4FF00100FCF7CAF94FF0600090
:104C10004FF0AC014FF08002FEF784FA4FF0010034
:104C2000FCF7BEF94FF060004FF0AD014FF080028D
:104C3000FEF778FA4FF00100FCF7B2F94FF0600090
:104C40004FF0AE014FF08002FEF76CFA4FF001001A
:104C5000FCF7A6F94FF060004FF0AF014FF0800273
:104C6000FEF760FA4FF00100FCF79AF94FF0600090
:104C70004FF0B2014FF0F202FEF754FA4FF001008C
:104C8000FCF78EF94FF060004FF0B3014FF02002B7
:104C9000FEF748FA4FF00100FCF782F94FF0600090
:104CA0004FF0B4014FF02002FEF73CFA4FF0010044
:104CB000FCF776F94FF060004FF0B5014FF00002BD
:104CC000FEF730FA4FF00100FCF76AF94FF0600090
:104CD0004FF0B6014FF0AF02FEF724FA4FF001009B
:104CE000FCF75EF94FF060004FF0BB014FF0AE02F1
:104CF000FEF718FA4FF00100FCF752F94FF0600090
:104D00004FF0BC014FF07F02FEF70CFA4FF00100AC
:104D1000FCF746F94FF060004FF0BD014FF07F0205
:104D2000FEF700FA4FF00100FCF73AF94FF060008F
:104D30004FF0BE014FF07F02FEF7F4F94FF0010093
:104D4000FCF72EF94FF060004FF0BF014FF07F02EB
:104D5000FEF7E8F94FF00100FCF722F94FF0600090
:104D60004FF0BF014FF07F02FEF7DCF94FF001007A
:104D7000FCF716F94FF060004FF0C0014FF0AA02A7
:104D8000FEF7D0F94FF00100FCF70AF94FF0600090
:104D90004FF0C1014FF0C002FEF7C4F94FF001001F
:104DA000FCF7FEF84FF060004FF0C2014FF0010237
:104DB000FEF7B8F94FF00100FCF7F2F84FF0600091
:104DC0004FF0C3014FF04E02FEF7ACF94FF0010077
:104DD000FCF7E6F84FF060004FF0C6014FF0050217
:104DE000FEF7A0F94FF00100FCF7DAF84FF0600091
:104DF0004FF0C7014FF08102FEF794F94FF0010028
:104E0000FCF7CEF84FF060004FF0C9014FF0E00220
:104E1000FEF788F94FF00100FCF7C2F84FF0600090
:104E20004FF0CA014FF0E802FEF77CF94FF00100A5
:104E3000FCF7B6F84FF060004FF0CB014FF0F002F6
:104E4000FEF770F94FF00100FCF7AAF84FF0600090
:104E50004FF0CC014FF0D802FEF764F94FF001009B
:104E6000FCF79EF84FF060004FF0CD014FF0930239
:104E7000FEF758F94FF00100FCF792F808BD00BFAB
:104E800008B54FF060004FF012014FF08002FEF7BE
:104E900049F908BD2DE9F04180460F464FF4A8407E
:104EA000C4F200004FF00101FDF7F8F942F211746D
:104EB0004FF4A845C4F200054FF00106C0F2030606
:104EC00002E0013C00F0A28028463146FDF726FBB7
:104ED0000028F6D04FF4A840C4F2000041464FF03D
:104EE0000002FDF7FBF942F211744FF4A845C4F239
:104EF00000054FF08206C0F2070602E0013C00F018
:104F0000898028463146FDF709FB0028F6D04FF48A
:104F1000A840C4F20000F9B2FDF78AFA42F2117417
:104F20004FF4A845C4F200054FF08406C0F207060E
:104F300001E0013C72D028463146FDF7EFFA002827
:104F4000F7D04FF4A840C4F20000838A9BB243F428
:104F5000806383824FF00101FDF7A0F942F21174E2
:104F60004FF4A845C4F200054FF00106C0F2030655
:104F700001E0013C56D028463146FDF7CFFA002823
:104F8000F7D04FF4A840C4F2000041464FF00102B0
:104F9000FDF7A4F942F211744FF4A845C4F20005DC
:104FA0004FF00206C0F2030601E0013C3ED0284665
:104FB0003146FDF7B3FA0028F7D04FF4A840C4F209
:104FC00000004FF00001FDF791F942F211744FF427
:104FD000A845C4F200054FF04006C0F2030601E008
:104FE000013C27D028463146FDF798FA0028F7D033
:104FF0004FF4A844C4F2000420464FF00101FDF72D
:105000005DF92046FDF716FABDE8F0814FF0FF008C
:10501000BDE8F0814FF0FF00BDE8F0814FF0FF00E8
:10502000BDE8F0814FF0FF00BDE8F0814FF0FF00D8
:10503000BDE8F0814FF0FF00BDE8F08110B50446F7
:105040004FF060004FF01C01FFF724FF20704FF07D
:1050500060004FF01D01FFF71DFF60704FF0600012
:105060004FF00B01FFF716FFA0704FF060004FF0FC
:105070000A01FFF70FFFE07010BD00BFFEE700BFA1
:1050800070B5064640F24C03C2F200034FF4805262
:105090001A604FF44055C4F201051C4606E023682F
:1050A00003F1FF3222600BB9FFF7E8FF28464FF00B
:1050B0000201FDF7C5FF0028F1D04FF44050C4F2C3
:1050C00001003146FDF778FF40F24C03C2F20003C5
:1050D0004FF480521A604FF44055C4F201051C464B
:1050E00006E0236803F1FF3222600BB9FFF7C6FF29
:1050F00028464FF00101FDF7A3FF0028F1D04FF43F
:105100004050C4F20100FDF753FFC0B270BD00BFB4
:1051100070B504461646012A8CBF41F0C00541F027
:1051200080054FF48050C4F202004FF00801FCF7F4
:1051300029FD2846FFF7A4FF76B104F1010306F12B
:10514000FF3513FA85F54FF000063046FFF798FF5C
:1051500004F8010BAC42F8D14FF48050C4F20200C5
:105160004FF00801FCF70CFD70BD00BF10B584B016
:1051700004460DF107004FF020014FF00102FFF748
:10518000C7FF02A84FF029014FF00602FFF7C0FF4A
:105190009DF8073013F0200301D05BB315E09DF9B3
:1051A000083003EBC3034FEA430323609DF90A3041
:1051B00003EBC3034FEA430363609DF90C3003EB39
:1051C000C3034FEA4303A36014E09DF9083003EBE7
:1051D000C3034FEAC30323609DF90A3003EBC30303
:1051E0004FEAC30363609DF90C3003EBC3034FEA3E
:1051F000C303A36004B010BD70B504460D46164647
:10520000012A88BF41F040054FF48050C4F20200EB
:105210004FF00801FCF7B6FC2846FFF731FF5EB1FE
:1052200004F1010306F1FF3613FA86F614F8010BB8
:10523000FFF726FFB442F9D14FF48050C4F20200C8
:105240004FF00801FCF79CFC70BD00BF00B583B0B7
:105250000DF107004FF021014FF00102FFF758FF59
:105260009DF8073043F040038DF807300DF107003B
:105270004FF021014FF00102FFF7BEFF03B000BD68
:1052800010B582B004460DF107004FF020014FF039
:105290000102FFF73DFF9DF8073023F020031C4378
:1052A0008DF807400DF107004FF020014FF001028B
:1052B000FFF7A2FF02B010BD10B582B004460DF199
:1052C00007004FF020014FF00102FFF721FF9DF88A
:1052D000073003F07F031C438DF807400DF10700F2
:1052E0004FF020014FF00102FFF786FF02B010BD22
:1052F00010B582B004460DF107004FF020014FF0C9
:105300000102FFF705FF9DF8073023F040031C431F
:105310008DF807400DF107004FF020014FF001021A
:10532000FFF76AFF02B010BD30B583B0054602AC8E
:105330004FF0000304F8013D20464FF038014FF0D4
:105340000102FFF7E5FE6A782B781343AA7813432E
:105350008DF8073020464FF038014FF00102FFF77B
:105360004BFF03B030BD00BF30B583B0054602AC83
:105370004FF0000304F8013D20464FF021014FF0AB
:105380000102FFF7C5FE6A782B781343AA7813430E
:105390009DF8072022F02F0213438DF80730204696
:1053A0004FF021014FF00102FFF726FF03B030BD9F
:1053B0002DE9F04F89B080464FF000048DF81F4072
:1053C0004FF480504FF00101FCF776F94FF00100E7
:1053D0000146FCF729F94FF010004FF00101FCF7EE
:1053E00023F92546C4F2020528464FF005010A4676
:1053F000FCF7D6FB28464FF006014FF00502FCF7FC
:10540000CFFB28464FF007014FF00502FCF7C8FB21
:105410004FF002078DF818708DF81A408DF81B7048
:105420008DF819704FF0200B0DEB0B0646F80CBDF4
:1054300028463146FCF716FB4FF0800305932846BB
:105440003146FCF70FFB4FF04003059328463146E9
:10545000FCF708FB4FF44055C4F201052846FDF760
:105460000FFCA146ADF80040ADF80440ADF8064091
:10547000ADF808404FF40073ADF80A304FF0280340
:10548000ADF80C30ADF80E404FF00703ADF810301A
:105490004FF48273ADF8023028466946FDF72AFCC6
:1054A00028464FF00101FDF7E5FC4FF0080ACDF862
:1054B00014A04FF001058DF818508DF81A408DF8A2
:1054C00019704FF48054C4F2020420463146FCF7B0
:1054D000C9FA20465146FCF753FB05958DF8189004
:1054E0008DF81A908DF819708DF81B902046314672
:1054F000FCF7B8FA059720463146FCF7B3FA98F85E
:10550000002098F80130134398F80320134398F8CB
:105510000420134398F8022013430DEB0B0000F80E
:10552000013D59462A46FFF767FE09B0BDE8F08FF6
:10553000F0B583B04FF004004FF00101FCF70AFC16
:105540004FF00400FCF748FB4CF2037300934FF05C
:1055500000048DF804408DF807404FF44066C4F213
:10556000020630466946FCF77DFA3046214622465F
:10557000FCF716FB30464FF001012246FCF710FB0A
:1055800030464FF008012246FCF70AFB30464FF048
:1055900009012246FCF704FB30464FF00A0122467F
:1055A000FCF7FEFA30464FF00E012246FCF7F8FAFF
:1055B00030464FF00F012246FCF7F2FA4FF68073A7
:1055C00000934FF48057C4F2020738466946FCF74F
:1055D00049FA38464FF007012246FCF7E1FA38460F
:1055E0004FF008012246FCF7DBFA38464FF009017C
:1055F0002246FCF7D5FA38464FF00A012246FCF75E
:10560000CFFA38464FF00B012246FCF7C9FA38466C
:105610004FF00C012246FCF7C3FA38464FF00D015B
:105620002246FCF7BDFA38464FF00E012246FCF741
:10563000B7FA38464FF00F012246FCF7B1FA4FF2A5
:105640003F0300934FF4A055C4F202052846694673
:10565000FCF708FA284621462246FCF7A1FA28461C
:105660004FF001012246FCF79BFA28464FF0020159
:105670002246FCF795FA28464FF003012246FCF734
:105680008FFA28464FF004012246FCF789FA284693
:105690004FF005012246FCF783FA28464FF00C0133
:1056A0002246FCF77DFA28464FF00D012246FCF712
:1056B00077FA28464FF00E012246FCF771FA284689
:1056C0004FF00F012246FCF76BFA4FF03F030093B7
:1056D0004FF4C055C4F2020528466946FCF7C2F9EA
:1056E000284621462246FCF75BFA28464FF0010186
:1056F0002246FCF755FA28464FF002012246FCF7F5
:105700004FFA28464FF003012246FCF749FA284693
:105710004FF004012246FCF743FA28464FF00501FA
:105720002246FCF73DFA4FF4605300933046694639
:10573000FCF798F930464FF00B012246FCF730FA9F
:1057400030464FF00C012246FCF72AFA30464FF063
:105750000D012246FCF724FA4FF030030093304647
:105760006946FCF77FF930464FF004012246FCF70A
:1057700017FA30464FF005012246FCF711FA4FF4B4
:105780008063009328466946FCF76CF928464FF081
:105790000C012246FCF704FA4FF00303009338464D
:1057A0006946FCF75FF9384621462246FCF7F8F9CE
:1057B00038464FF001012246FCF7F2F903B0F0BD84
:1057C000F0B583B04FF01A004FF00101FBF72CFF4A
:1057D0004CF2B37300934FF002038DF804308DF850
:1057E00005304FF000068DF806604FF001078DF888
:1057F00007704FF44064C4F2020420466946FCF787
:1058000031F9204631464FF00C02FCF7C9F9204629
:1058100039464FF00C02FCF7C3F920464FF0040163
:105820004FF00C02FCF7BCF920464FF005014FF099
:105830000C02FCF7B5F920464FF007014FF00C02BF
:10584000FCF7AEF920464FF008014FF00C02FCF7D0
:10585000A7F920464FF009014FF00C02FCF7A0F920
:1058600020464FF00A014FF00C02FCF799F9204650
:105870004FF00E014FF00C02FCF792F920464FF06A
:105880000F014FF00C02FCF78BF94FF68873009371
:105890004FF48055C4F2020528466946FCF7E2F849
:1058A00028464FF003014FF00C02FCF779F9284627
:1058B0004FF007014FF00C02FCF772F928464FF049
:1058C00008014FF00C02FCF76BF928464FF0090174
:1058D0004FF00C02FCF764F928464FF00A014FF034
:1058E0000C02FCF75DF928464FF00B014FF00C025B
:1058F000FCF756F928464FF00C010A46FCF750F920
:1059000028464FF00D014FF00C02FCF749F92846EC
:105910004FF00E014FF00C02FCF742F928464FF011
:105920000F014FF00C02FCF73BF94FF00803009316
:105930008DF804708DF805608DF806608DF80760AD
:1059400020466946FCF78EF84FF4005500958DF817
:1059500004708DF805708DF806608DF8076020469C
:105960006946FCF77FF820462946FCF709F903B0A1
:10597000F0BD00BF10B596B04FF001000146FBF737
:1059800077FE4FF0050300934FF00004019402935B
:1059900003940494059406940794089409944FF092
:1059A00010030A930B940C940D940E940F944FF4DF
:1059B000805310931194129413940DEB04031493D9
:1059C000159307A8FCF724F920464FF00101FCF7D6
:1059D000C1F916B010BD00BF4FF0C04318804FF0A2
:1059E0000003C6F210031980704700BF10B50346CC
:1059F0000C464FF04E001946FFF7EEFF4FF04F00F8
:105A00002146FFF7E9FF10BD4FF0C04318804FF06B
:105A10000003C6F21003188880B270474FF02202CC
:105A20004FF0C0431A8070474FF00003C6F21003D6
:105A3000188070474FF00003C6F21003188880B238
:105A4000704700BF08B54FF000000146FFF7CEFFDA
:105A5000FFF7E4FF4FF4C8434FF00002C6F2100214
:105A60004FF600011180013BFCD14FF4C8434FF0C9
:105A70000002C6F210024FF4FC611180013BFCD120
:105A80004FF4C8434FF00002C6F210024FF01F015E
:105A90001180013BFCD108BD82B0ADF80600ADF825
:105AA0000410BDF8062092B240F29C23C2F201031A
:105AB0001A80BDF8042092B240F25003C2F20003F3
:105AC0001A8002B0704700BF40F29C23C2F201036B
:105AD0001B889BB2038040F25003C2F200031B8874
