:100000000C9446000C945D000C945D000C945D0013
:100010000C945D000C945D000C945D000C945D00EC
:100020000C945D000C945D000C945D000C945D00DC
:100030000C945D000C945D000C945D000C945D00CC
:100040000C945D000C945D000C945D000C945D00BC
:100050000C945D000C945D000C945D000C945D00AC
:100060000C945D000C945D000C945D000C945D009C
:100070000C945D000C945D000C945D000C945D008C
:100080000C945D000C945D000C945D0011241FBE67
:10009000CFEFD0E1DEBFCDBF11E0A0E0B1E0EEEAEE
:1000A000F2E000E00BBF02C007900D92A831B1074B
:1000B000D9F70E945F000C9455010C940000DF9367
:1000C000CF93CDB7DEB72E970FB6F894DEBF0FBE35
:1000D000CDBF81E08E871D8619821A821B821C8209
:1000E000EAE3F0E08FEF8083E7E3F0E083E08083F2
:1000F000EBE3F0E01082E8E3F0E0108280E090E1D2
:10010000A0E0B0E08D839E83AF83B8875EC0EBE351
:10011000F0E08E858083A8E3B0E0E8E3F0E0808142
:1001200082608C93A8E3B0E0E8E3F0E080818D7F0B
:100130008C938E85880F8E878E85882311F481E0BD
:100140008E874BE350E089819A81AB81BC812D85FC
:10015000222F30E0880F991F880F991F880F991F51
:10016000820F931FFC01E050FF4F8081FA018083D2
:100170008D858F5F8D87A8E3B0E0E8E3F0E08081B4
:1001800081608C93A8E3B0E0E8E3F0E080818E7FAB
:100190008C938D8587708D8719861A861B861C86A1
:1001A0000BC089859A85AB85BC850196A11DB11DC3
:1001B00089879A87AB87BC8789859A85AB85BC85FB
:1001C00084369105A105B10564F38D819E81AF81CF
:1001D000B8850197A109B1098D839E83AF83B88744
:1001E0008D819E81AF81B885181619061A061B06E7
:1001F0000CF48DCF89819A81AB81BC810196A11DC0
:10020000B11D89839A83AB83BC8389819A81AB8139
:10021000BC8123E030E040E050E0BC01CD010E9411
:100220001801DC01CB0189839A83AB83BC8366CF41
:1002300097FB092E05260ED057FD04D014D00AD006
:10024000001C38F450954095309521953F4F4F4F05
:100250005F4F0895F6F790958095709561957F4F63
:100260008F4F9F4F0895A1E21A2EAA1BBB1BFD01C1
:100270000DC0AA1FBB1FEE1FFF1FA217B307E40785
:10028000F50720F0A21BB30BE40BF50B661F771FDD
:10029000881F991F1A9469F76095709580959095BD
:0E02A0009B01AC01BD01CF010895F894FFCF82
:1002AE00FFFF81007E0081FFFFFF7F00007EFFFFCA
:0802BE00FFFF39201C1C79FF31
:00000001FF
