:020000020000FC
:100000000C94E10818951895189518951895189559
:100010001895189518951895189518951895189578
:10002000189518950C944D071895189518951895CE
:100030001895189518951895189518951895189558
:1000400018951895189518950C94A7081895189553
:100050000C94A20818951895189518951895189548
:100060001895189518951895189518951895189528
:100070001895189518951895189518951895189518
:1000800018951895189518951895189520212223DC
:100090002425262728292A2B2C2D2E2F30313233A8
:1000A0003435363738393A3B3C3D3E3F4041424398
:1000B0004445464748494A4B4C4D4E4F5051525388
:1000C0005455565758595A5B5C5D5E5F6061626378
:1000D0006465666768696A6B6C6D6E6F7071727368
:1000E0007475767778797A202020E741A042A1E0E4
:1000F00045A3A4A5A64BA74D484FA8504354A9AA71
:1001000058E1ABACE2ADAEC4AFB0B161B2B3B4E3F1
:1001100065B6B7B8B9BABBBCBD6FBE7063BF79E492
:1001200078E5C0C1E6C2C3C4C5C6C7070903010359
:09013000BB0E1AB252423B02124E
:10013A00010015050C00070509050B050105030556
:10014A000505FB04FD04FF040F050D0511050E94BA
:10015A00AF092397C801A22F06E0088316D021E031
:10016A001FD002E317E001501040E9F700C0000079
:10017A00092F00FB00E003F9026008838983AA8340
:10018A000DD02396E3E00C94BA0908B30E7C006202
:10019A0008BB00C000C000C000000895F6DF23E0DD
:1001AA0030E08E010E942707F4DF08B3016308BB21
:1001BA0008952397212F20FB20E023F92360288329
:1001CA000983ECDF0A81239608958A939DD080E003
:1001DA00282F2C59082F10E0BADF83958436C0F3F4
:1001EA0080E0082F10E0E5DF202F30E0082F10E034
:1001FA000C591F4F2017310721F08CD081D029F4D8
:10020A00FDCF8395843668F38AD0899108950E9438
:10021A00AE09D901CA010E94E1019C018D01C2DF28
:10022A00E4E00C94B9090E94AC092597C801D901E8
:10023A002A010E94C60107FB16F000E01EC021D069
:10024A0004E8088300E009830A830B8324E030E092
:10025A008E010E94270792018D01A4DF03E808831B
:10026A00082F000F092F001F0983880F8A8300E0D7
:10027A000B8307D024E094DF01E02596E6E00C9496
:10028A00B70908B3016384DF08B30E7C016080CF2D
:10029A00EF97A59739D000E0202F2C592CD0208336
:1002AA0003950436C8F322D0BEDF48D000E023D03D
:1002BA00108303950436D8F319D0A9DF00E0202F64
:1002CA0030E0FE01E00FF31F408150E02C593F4F10
:1002DA004217530721F01ED013D029F4FDCF0395FE
:1002EA00043668F31CD0EF96A596089544E650E0CC
:1002FA009E0100E00895FE0110E0E00FF11F08954D
:10030A000E949F070023089515D00E94C20200E2AE
:10031A0012E003C00BD00CE212E00C94B10206D03A
:10032A0003E312E0FADFECDFF1F304C011E000E0CE
:10033A000C94C50203D0E4DFF1F708950FEF1FE331
:10034A0022E0015010402040E1F700C0000008956B
:10035A000E940E0701C039DF0E94C20206E312E0C2
:10036A00DCDFE4DF05E412E0D8DFCADFF1F307508F
:10037A0091F30A9521F00250C1F70C94C20288DF6A
:10038A00EBCF229707ED088308B301630FD008B3B8
:10039A000E7C01600BD022E030E08E010E9427071C
:1003AA0008B3016308BB09812296089508BB00C0FF
:1003BA0000C000C000000895289728B321631DD00B
:1003CA0028B32E7C216019D028EE2883202F220FF3
:1003DA00212F221F2983000F0A8303E020E0FE0158
:1003EA00E00FF21F208303950830C0F328E030E0C5
:1003FA008E010E9427072896089528BB00C000C0D6
:10040A0000C00000089507B3076307BB00916400AA
:10041A000861009364000895219700E00883C19859
:10042A0008B30E7C08BB21E030E08E010E9427074A
:10043A0008B3016308BB08812196089507B30763CF
:10044A0007BB009164000861009364000895219736
:10045A00088308B30E7C016108BB21E030E08E01FD
:10046A000E94270708B3016308BB2196089530E06C
:10047A0028E0369507FB0EF43068000F2A95C9F775
:10048A00032F08950E943C020F7010916200107FA2
:10049A001093620010916200102B109362001A9A56
:1004AA0000001A9808958A93802F0E944702829525
:1004BA00082F0E9447020FEF13E201501040E9F79C
:1004CA0000C000008991089501B3006A01BB129A25
:1004DA00009161000F600093610002B30F7502BBC7
:1004EA001A9800916200007F009362000FEF17EDE7
:1004FA0001501040E9F700C000000DD00CD000E216
:10050A000BD008E23BD008E039D001E037D006E052
:10051A0035D00CE033C000E30E9447020FEF13E22C
:10052A0001501040E9F700C00000089530E00032A1
:10053A0040F00F3730F4ECE6F0E0E00FF31F0491DF
:10054A0006C0003C18F0EBE2F0E0F7CF00E2979A21
:10055A00000014D0979808950E94AE09C801A0E03F
:10056A0002C05BD0A395B0E0FC01EA0FFB1F00813B
:10057A000023B9F7E4E00C94B90901E00C9458029D
:10058A00003108F00FE0123010F4112309F0005C7A
:10059A000068F4CF0E94AC092697C801A22F5524FF
:1005AA004424112322F49195819590405394B0E00C
:1005BA002ED0FE01EB0FF41D408329D0C801B3955C
:1005CA00B630B0F3263008F0A5E0552031F00DE240
:1005DA0024D0AA9502C015D01FD0AA2331F426969A
:1005EA00E6E00C94B70900E218D0AA95442099F7DE
:1005FA00AA2389F306D00023B1F30ED044244394EE
:10060A00F4CFFE01B0E0EA0FFB1F008108958C01D0
:10061A004AE050E00C941309005D88CFAB980FEFC5
:10062A000BBBAB9AAB980895C29808B30E7C0161D4
:10063A0008BB08E0C198C19A0A95E1F708B30163BB
:10064A0008BB089507B3076307BB0FEF0ABB04B3E0
:10065A000F6004BB0091640008610093640000917C
:10066A0065000861009365000E9413030C94190346
:10067A0000916400046000936400009165000B7FA0
:10068A000093650009E913E001501040E9F7000002
:10069A00009164000B7F0093640005EF0A95F1F75F
:1006AA0000C000916300047021EE32E02150304016
:1006BA00E9F7002311F401E0089500E0089510918C
:1006CA006400146010936400109165001B7F1093FE
:1006DA006500002321F40CEA0A95F1F70DC008E140
:1006EA000A95F1F700000091650004600093650027
:1006FA0003E90A95F1F70000009164000B7F00936B
:10070A0064000895009164000460009364000091FD
:10071A0065000B7F0093650004E00A95F1F700C0BD
:10072A00009164000B7F009364000DE10A95F1F7D4
:10073A00000000916300047017E81A95F1F700238E
:10074A0011F001E0089500E008959A938A93902F9A
:10075A0088E0092F01700E94640396950CE00A95BF
:10076A00F1F78A95B1F78991999108959A938A93A5
:10077A0090E088E096950E948703002309F090682C
:10078A000CE00A95F1F78A95A9F7092F89919991B1
:10079A000895239712E5188311E019830295007FC3
:1007AA00000F1ED004E0098322E01CD0239608958E
:1007BA00239703E5088323E08E010E9463080981D9
:1007CA0014E0019F90010A81019F012D022B132F32
:1007DA00EDCF23971CE5188310E0198301D0E6CFEB
:1007EA000A8323E08E010C94370800918F020023BC
:1007FA0021F00CB900E000938F021B9808950CB108
:10080A0000938F021B9A0DE30CB908952A97A0E072
:10081A00B0E0FE01A193A193A193A19380E090E09F
:10082A000E9427030E9469020DE412E03CD137D1ED
:10083A000AE512E038D10CE712E035D10FEF1FEFCD
:10084A002CE2015010402040E1F700C000000E9455
:10085A00C2020E943D070E9423020E94080200E58C
:10086A0013EC20E030E00E941D0808B3016308BBC6
:10087A000E94D108139A00E00E947005402E0FE7EB
:10088A004022142D00E00E946705FFD021F00CE001
:10089A00FAD002E4F8D0F9D011F00EEEF4D0789440
:1008AA001FC000E712E0FFD0E6D007FF10C0E3D078
:1008BA0007FFFDCF10919C00DED005FFFDCF0DE3B1
:1008CA0000939C00D8D005FFFDCF10939C000FEF3A
:1008DA001FE322E0015010402040E1F700C0000071
:1008EA000E940E070091630000FF03C0C1D00F7E73
:1008FA0002C0BED00061009365000091630001FF51
:10090A0003C0B6D0077F02C0B3D008600093650069
:10091A000E9411020E942C020E941E0710E0C0D001
:10092A0003E0ACD0169507951695079552DF30E08F
:10093A0024E082010E94B10702E0A3D030E020E067
:10094A000E94B10701E09AD002E612E0ACD024E09E
:10095A0082018CD0082F092B49F497D031F00AEA8A
:10096A0092D00E94BB03A02F01C0AFEF0196853041
:10097A0000E0900711F480E090E023E00A2F10E0F5
:10098A0075D007E612E08FD00AE612E08CD00E94FA
:10099A009F07402E002309F441C00CE0401619F4C9
:1009AA0078D0B0E009C0FE0110E0EB0FF11F4082E1
:1009BA00B395B43009F4B3E000E030E0FE01E00F93
:1009CA00F31F1081EBE2F1E0E00FF31F24911217FD
:1009DA0031F40395043088F30E94AD015AD0042DF6
:1009EA00EAE3F0E0FBBFF1E00C94630901E368D0AD
:1009FA0002E366D003E364D004E362D005E360D087
:100A0A0006E35ED007E35CD008E35AD009E358D086
:100A1A0000E356D00AE254D003E201C000E250D00B
:100A2A003ED001E042D00AE34BD000E03ED00E9423
:100A3A001706002309F435CF0E94C806002309F4DB
:100A4A0033CF8E010C5F1F4F0E94900600E238D010
:100A5A008E010C5F1F4F27D00E94C1064AE00E94F8
:100A6A002F0924E003D00DE612E01DCF0C94CF022B
:100A7A0000916500089500919B00089502D0280115
:100A8A00089587DE95CE0C94AA030E943D030023A5
:100A9A00089500E00B830A8309830883089511E00F
:100AAA0000E00C94C5020C94B1020E947005402E1D
:100ABA0002950770005D04D00FE0402200E3040DA8
:100ACA000C949B02239720ED288309831A8323E041
:100ADA0011D023960895229710ED1883098322E0F6
:100AEA0009D001ED088322E08E010E946308098182
:100AFA00229608958E010C9437089A938A93219727
:100B0A0084EF91E00CD00BD00197FDD008810F3F04
:100B1A0019F0082F092BB9F70881219673C13CD027
:100B2A0021E0EED043C0219708B3016308BBF7DF89
:100B3A002196089508B30E7C006108BBDEDF0F3FE3
:100B4A0009F064C101E008950E94AC092297D80116
:100B5A00290188EE93E000E010E007C02FEFFD01C5
:100B6A00E00FF11F20830F5F1F4F04151307B0F327
:100B7A00D6DF019708810F3F21F4082F092BC1F70F
:100B8A0002C00E3F11F000E003C0920108D001E05C
:100B9A002296E6E00C94B7090FEF088308958D01B9
:100BAA0005D00FEF0983088322E0AAD00C94270707
:100BBA000E94AD092797402ECA01DB0147FA3EF48D
:100BCA00E89447F893D007E790D0023038F51DD162
:100BDA00B1DF002311F40FEF21C04882B983AA8341
:100BEA009B838C8381E000E4401611F485E904C0FC
:100BFA0008E4401609F487E88D830FEF0E8327E097
:100C0A0090DFCADF0CE4401609F48ADFC5DF8AE008
:100C1A0086DF088107FF02C08A95D1F72796E5E0AB
:100C2A000C94B8090E94AF09259794E60E941E0702
:100C3A0000E00E9414078AE072DF8A95E9F780E0F3
:100C4A0055D000E452D0013009F040C04AEA51E0E0
:100C5A0060E070E008E449D0013021F54CD0A6DF0D
:100C6A000B81013099F50C810A3A81F501C04BD00C
:100C7A00092F9A95002339F040E050E060E070E4D3
:100C8A0009EEBDD0A1F7992309F130D00AE7B7D010
:100C9A00E9F431D08BDF098106FF02C08CE016C06F
:100CAA0084E014C023D009EE20D0023018F482E088
:100CBA00A9EE04C081E0A1E401C025D0092F9A95CC
:100CCA00002321F013D00A2F9AD0B9F78093940207
:100CDA009CD00E941E07882319F001E00E94140785
:100CEA00082F2596E3E00C94BA0962CF40E050E061
:100CFA0060E070E0089524E003D00F5F1F4F08956D
:100D0A0030E08E01089502E317E001501040E9F740
:100D1A0000C00000089525E5F80120832EE4218310
:100D2A0024E4228325E4238326E4248320E0258304
:100D3A002091940220FF08C02DE42083218323E41C
:100D4A00228320E2238324832091940221FF03C07B
:100D5A000AD021E324832091940222FF03C003D006
:100D6A0022E32483089523E5208324E4218320E2D7
:100D7A00228326E723830895E0E9F2E000811181C6
:100D8A002281338108959A938A936097AFDF09E4A9
:100D9A0036D091F520E1B4DFD7DE002369F12E8148
:100DAA002370322F330F330F0F8114E0019F80011C
:100DBA00130F288534E0239F812D90E0800F911F27
:100DCA0001968C01292F220F220B322F4A85440FBC
:100DDA0040E0441F59855370550F540F4D814F7091
:100DEA00450F48500E942709E0E9F2E00083118389
:100DFA002283338301E001C000E0609603C0D8DE9D
:100E0A00002308958991999108958DCE8CDE00E092
:100E1A000895219707B3076307BB00E50CC0219724
:100E2A00002311F000E501C002E50DB901E00EB999
:100E3A0003C0219700E00DB90EB108830FB10883F2
:100E4A002196089540E00AC0F801E40FF51F508189
:100E5A005FB9779BFECF5FB15083439550E042174D
:100E6A00530790F30895AB980BBBAB9AAB980895D0
:100E7A000FEF0ABB04B30F6004BB0DE005BD0FE022
:100E8A0003BD06B7006806BF07B7006807BF089525
:100E9A005A924A92BA93AA939A938A93FA93EA93A2
:100EAA003A922A921A920A927A936A935A934A9394
:100EBA003A932A931A930A934FB65BB6A2E8B2E022
:100ECA00FD018485843080F490E0E80FF91F908753
:100EDA009D9B02C001E007C09E9B02C002E003C0C6
:100EEA009F9B02C003E0008783958770FD0184877A
:100EFA000FEFB9DF03B3087F082B05BB90E0A80FFB
:100F0A00B91F0C91B0DF5BBE4FBE099119912991AF
:100F1A00399149915991699179910990199029903A
:100F2A003990E991F99189919991A991B991499049
:100F3A0059901895002400E0E2E8F2E0E00FF01D75
:100F4A002085222321F013E0019F020E03C003959E
:100F5A00043090F3002D08950E94A809C801832E39
:100F6A00662448EE53E056D00A3008F00A50B0E042
:100F7A0012E8412E12E0512E420E561C402F50E02C
:100F8A00002311F4343039F46394EFE2F1E0E00F16
:100F9A00F51F049101C00FEFF201038308EE13E07D
:100FAA003BD044E637D0002321F4662011F43330D5
:100FBA0021F46624639436D001C01FEFF201128334
:100FCA00402F50E004E610E027D04AE023D0002367
:100FDA0021F4662011F4323011F424D001C01FEF3D
:100FEA00F2011183EFE2F1E01AE0019F8019E80FA4
:100FFA00FB1F0491F2010083332349F09924820EE6
:10100A009B1EF401EF57FD4F00810D7F0083EAE03C
:10101A000C94B3090C94FB080E94F308801B910BF3
:10102A008C010895EFE2F1E0E00FFB1F149108959F
:10103A009A93F82FA801B90100E010E820E730E000
:10104A000E943709C801409796958795809370004A
:10105A0000E000937100E093730004E06BD08F2FDF
:10106A009991089534EA309374003091740037FFEF
:10107A00FCCFF8011CD03091740037FFFCCF3091BF
:10108A007100383119F055D000E0089541E00AC0E6
:10109A0050E0F801E40FF51F0AD03091740037FFD1
:1010AA00FCCF43954217A0F344D001E00895308164
:1010BA003093730034E8309374000895392F082E62
:1010CA00A80104EA37D00091740007FFFCCFFA01A7
:1010DA0000810093730004E82DD00091740007FF8B
:1010EA00FCCF00917100003419F023D000E01EC03B
:1010FA0001E00EC014EC109374001091740017FFF5
:10110A00FCCF10917300FA01E00FF71F10830395CB
:10111A00021750F4602F70E0822F90E00197681751
:10112A00790741F714E8E7CF04D001E0802D932F27
:10113A00089504E90093740008951BD00E94FA03ED
:10114A0005D0189516D00E940404FACF9BBF8FBF12
:10115A0009911991299139914991599169917991F5
:10116A000990199029903990E991F9918991999169
:10117A0008959A938A93FA93EA933A922A921A9240
:10118A000A927A936A935A934A933A932A931A93AE
:10119A000A938FB79BB7089500E0009398000FE277
:1011AA000093990008E100939A0006E000939D00DD
:1011BA00089500008895FECF0FE10DBF02E00EBF33
:1011CA00C0E0D2E00E94C409002311F00E94D609AF
:1011DA000E940B040E94DE080C94DE08149F102D56
:1011EA00059F100D049F002D110D08950024112450
:1011FA00EFE0001F111F001C111C0416150610F049
:10120A00041A150AEA95AAF7001F111FA0010095F2
:10121A00109508955195419550400895FF275523FB
:10122A0012F4F160F7DF112312F4F09507D00E944F
:10123A00FB08F0FD03D0F1FDEDCF0895119501955E
:10124A00104008954A952AF0000F111F221F331FDC
:10125A00F9CF08954A952AF0359527951795079558
:10126A00F9CF0895002411241001E0E2EA9592F0E2
:10127A00001F111F221F331F001C111C221C331CAC
:10128A00041615062606370688F3041A150A260ACE
:10129A00370AECCF001F111F221F331FA001B10113
:1012AA0000951095209530950895779167915791FB
:1012BA004791179011FA279037900895F9DF041B88
:1012CA0010E003C0F4DF041B150B20E030E005C07A
:1012DA00ECDF041B150B260B370BB8F010FC17C0FC
:1012EA0047910790E00FF11F0417100540E024070B
:1012FA00340758F436F406910024F101E01BF00992
:10130A000994E00FF11F27903790F101099411F425
:10131A00D6F7F1CF31960EF0319650E060E070E0EA
:10132A0047914B3F48F089F34F3F29F04E3F11F068
:10133A007791679157914791041B150B260B370B31
:10134A0039F318F3E7CF9A928A927A926A925A926A
:10135A004A92BA93AA939A938A930895998488840D
:10136A007F806E805D804C80BB81AA819981888153
:10137A00F0E00FB6F894CE0FDF1F0FBE089501E01C
:10138A00089520E008D0E9F708953BBF27913BB7BD
:10139A0002D0D9F708952D9301501040202F212B08
:1013AA0008950CE0402E04E1502E00E0602EF20178
:1013BA00362D6BBE07911691F201EE5FFF4F3F4F3C
:1013CA003BBFA791B691F201362DEC5FFF4F3F4F1D
:1013DA003BBF479157916691242F252B262B21F04D
:1013EA00FA01362FD2DF01C0CCDF07E0400E00E061
:1013FA00501E601EA201662D4A3154416040B8F267
:10140A0008956F0020021A140006008F02000000DF
:10141A00CFF0EEE2E5F0EAE02E2E2E00CEF8E8E17B
:10142A00EAE0004F4B00312D4652414D20322D4605
:10143A004C415348002A2DC2DBD5CEC4002020CD12
:10144A00D2D62D33312E31303000E2E5F0F1E8FF0B
:10145A002000C0C4333D006F4300204B004DC10043
:10146A0020EDE5F22053444320202000312E302E77
:0F147A003000FFFFFFFFFFFFFFFF00000000003B
:0400000300000000F9
:00000001FF
