:020000040800F2
:10000000546E002045120008111200084512000825
:100010001512000815120008151200080000000053
:1000200000000000000000000000000015120008A1
:100030001512000815120008151200081912000800
:1000400015120008151200081512000815120008F4
:1000500015120008151200081512000815120008E4
:1000600015120008151200081512000815120008D4
:1000700015120008151200081512000815120008C4
:1000800015120008151200081512000815120008B4
:1000900015120008151200081512000815120008A4
:1000A0001512000815120008151200081512000894
:1000B0001512000815120008151200081512000884
:1000C0001512000815120008151200081512000874
:1000D0001512000815120008151200081512000864
:1000E0001512000815120008151200081512000854
:1000F0001512000815120008151200081512000844
:100100001512000815120008151200081512000833
:100110001512000815120008151200081512000823
:100120001512000815120008151200081512000813
:100130001512000815120008151200081512000803
:1001400015120008151200081512000815120008F3
:1001500015120008151200081512000815120008E3
:1001600015120008151200081512000815120008D3
:1001700015120008151200081512000815120008C3
:10018000151200081512000805EE900A0123F7EE7B
:10019000006AB0EE666ADFED184A9FED185A07EE66
:1001A000903AF8EE677A85EEA77A5A1C07EE902A05
:1001B000F8EE677AC5EEA77A67EE677A66EEA76A09
:1001C00036EE266AF5EEC06AF1EE10FA07DDF4EEBF
:1001D000C56AF1EE10FAACBF0122002206E0F4EE8F
:1001E000E46AF1EE10FA94BF012200220233002AE1
:1001F000D5D116EE100A70476F1283BA6F12833A88
:1002000006EE100A06EE900A05EE900A0223DFEDD4
:10021000184A9FED185A07EE903AF8EE677A86EE84
:10022000277A5A1C07EE902AF8EE677AC6EE277AEC
:1002300067EE677A66EEA76A75EEA65AF5EEC06AB3
:10024000F1EE10FA07DDF4EEC56AF1EE10FAACBF7C
:100250000122002206E0F4EEE46AF1EE10FA94BF07
:10026000012200220233002AD5D115EE900A7047F0
:100270006F1283BA6F12833A2DE9F04700F1080537
:10028000CB8833B30E4600274FF04E0A4FF04F098C
:100290004FF022085046318802F0F0F87188394456
:1002A000484689B202F0EAF82988404689B202F04D
:1002B000E5F8B3884BB1002435F8020B80B202F0A8
:1002C000F3F80134B388A342F6D80137F388BB4270
:1002D000E0D8BDE8F08700BF2DE9F04F87B0109C53
:1002E000E578A47804EB05241FFA84FB141A002C8B
:1002F000B8BF6442A4B226460394C1EB030ABAF124
:10030000000FB8BFCAF1000A1FFA8AFA84B28FB28E
:100310004FF6FF75824228BF012504954FF6FF7204
:100320008B4228BF0122059232B20FFA8AF39A4219
:100330000ADBBDF90C6006EBD676C6F34F060195D5
:100340000023049302930EE00FFA8AF606EBD676AA
:10035000C6F34F06039BCDF80CA09A46059B02936B
:10036000002305930193039A12F4004F34D14FF008
:1003700000080FFA82F93BB222B20BFB03230433CD
:10038000109A32F8130002F0E3F8A5B2B5F5A07F99
:1003900007D2B9B2EF2904D828460122002302F07F
:1003A000F7F95644B3B29EB232B2914508DC039AD3
:1003B0009E1AB6B2049BEC18A4B2059B1F44BFB2B0
:1003C000019B1C44A4B2029B1F44BFB208F1010868
:1003D0000FFA88F39945CEDA07B0BDE8F08F00BF79
:1003E0002DE9F04F85B0029101F580730193214B07
:1003F0000093DFF888A003900AF1200AAAF12108EF
:100400000AF1FF3BDDF80090039D0020044614E054
:1004100012EA0E0F1D8814BF6419641B3A420D4680
:10042000B3F800C014BF6044CCEB000052080231A6
:100430000233B342ECD1C34509D018F801EF19F8E3
:10044000017FA91C2B4605F110068022E0E724124B
:10045000029B23F8024B02930012019B23F8020B2C
:100460000193009B20330093034B9A45C4D105B000
:10047000BDE8F08F070000200820002008100020B1
:100480002DE9F04F85B0029101F580730193224B65
:100490000093DFF88CA003900AF1200AAAF1240847
:1004A000AAF1040BDDF80090039D0020044614E03F
:1004B00012EA0E0F1D8814BF6419641B3A420D46E0
:1004C000B3F800C014BF6044CCEB00005208023106
:1004D0000233B342ECD1C3450AD058F804EF59F8BF
:1004E000047FA91C2B4605F140064FF00042DFE7D0
:1004F0002412029B23F8024B02930012019B23F863
:10050000020B0193009B20330093044B9A45C3D107
:1005100005B0BDE8F08F00BF505C0020503A0020CD
:10052000502A00202DE9F04F85B0029003924FEA47
:10053000510BC2F108034FF0010C0CFA03FC00EB65
:10054000CB0301930BF1FF3E1FFA8EFEBBF1000FB0
:100550004CD01FFA8CFC4FEA8C0C00F1080503F11B
:1005600008040EF1020E00EBCE0E0026DFF8849098
:10057000DFF8848056F8090056F8082055F8087C02
:1005800055F8043C54F8081C394445F8081C54F844
:10059000041C194445F8041C54F8081CC1EB070A54
:1005A00054F8041C5B1A0AFB00F703FB12773F1296
:1005B00044F8087C03FB00F30AFB0232121244F8F1
:1005C000042C6644083508347545D3D1BBF1010FBE
:1005D0000CD9039C0298013CA4B259462246FFF76D
:1005E000A1FF019859462246FFF79CFF05B0BDE8E0
:1005F000F08F00BF08260020082400202DE9F04FCE
:10060000ADF62C0D044609917D484FF4004101F0F0
:10061000ADFA0CABA21E0DF50364002032F8021FE8
:1006200043F8081C43F8040C0833A342F6D107230F
:1006300008930123079380230393DFF8C891DFF821
:10064000C8B10399CB0004930AAA13440193079AF3
:10065000531E9BB20293002A59D04FEA820C4B1EC4
:100660009BB29A1CD20006920133DB0005930DF178
:10067000280A3FE056F8090056F80B2055F8087C88
:1006800055F8043C54F8081C394445F8081C54F843
:10069000041C194445F8041C54F8081CC1EB070855
:1006A00054F8041C5B1A08FB00F703FB12773F1297
:1006B00044F8087C03FB00F308FB0232121244F8F2
:1006C000042C6644083508347545D3D1059A924404
:1006D000019B194611440191049A9244019B1946C9
:1006E00011440191029B013B9BB202934FF6FF72B2
:1006F00093420CD0039B002BEED00AF10805019B1E
:1007000003F10804069B0AEB030E0026B2E7079BE1
:100710005B009BB20793039B5B080393089B013B21
:100720009BB20893002B8CD1079A561EB6B2002AB2
:100730005CD010AB0DF6280202EB0616A6F5FB66A0
:1007400053F8181C53F8142C53F8104C601843F845
:10075000180C53F80C0C851843F8145C091B43F86B
:10076000101C121A43F80C2C1033B342E8D13DE0B0
:10077000A6B2E0B24346624600F0010141EA4202FD
:1007800092B24008013B13F0FF03F5D1B24210D9F9
:100790000AAB53F834E06F6803EBC4030AA901EB1A
:1007A000C20696E8030083E803000AAB43F832E090
:1007B000776001340835802CDAD1099D05F5807009
:1007C0000CAB0DF58664083353F8042C53F8081C61
:1007D000091225F8021B121220F8022BA342F2D1B3
:1007E00007484FF4004101F0C3F905E00AAD0024C9
:1007F0004FF00808A446BBE70DF62C0DBDE8F08FBE
:100800000008024008260020082400202DE9F04FAF
:10081000ADF61C0D059108AB02380DF50264002100
:1008200030F8022F43F8082C43F8041C0833A34285
:10083000F6D106AD00244FF00808A446A6B2E0B2F7
:100840004346624600F0010141EA420292B240088A
:10085000013B13F0FF03F5D1B24210D906AB53F8B8
:1008600034E06F6803EBC40306A901EBC20696E807
:10087000030083E8030006AB43F832E077600134FD
:100880000835B4F5807FD9D1072304930127DFF819
:100890001491DFF81481FB00029306AA02EB030B0C
:1008A000049A9446012393409BB25A1E92B201923D
:1008B000002B54D07B1E9BB20133DB0003930DF160
:1008C000180A43E00EFA0CF359F8235058F82300A5
:1008D00054F8082C54F8041C05FB02F301FB1033F8
:1008E0001B1244F8083C01FB05F100FB0212121236
:1008F00044F8042C56F8080C56F8041C034446F837
:10090000083C54F8043C0B4446F8043C54F8082CCA
:10091000821A44F8082C54F8043CCB1A44F8043CDE
:100920000EF1010E083608341FFA8EF3BB42C9D30C
:10093000039A92449344029A92449344019B013B4C
:100940009BB201934FF6FF72934208D0002FF2D072
:100950000AF108060BF108044FF0000EB2E77F0021
:10096000BFB2049B013B9BB21A4604934FF6FF7340
:100970009A4290D1059D05F5807008AB0DF5846411
:10098000083353F8042C53F8081C091225F8021BED
:10099000121220F8022BA342F2D10DF61C0DBDE875
:1009A000F08F00BF08260020082400202DE9F04128
:1009B0004F08C2F1080301269E4000EBC70807F16B
:1009C000FF3E1FFA8EFE002F4AD0B6B2B60000F1ED
:1009D000080108F108030EF1020E00EBCE0E214DC6
:1009E000214CD4ED005AD5ED007A11ED026A51ED9B
:1009F000016A13ED027A36EE077A01ED027A13ED01
:100A0000017A36EE877A01ED017A13ED027A36EE3D
:100A1000476A13ED017A36EEC77A65EE866A27EEED
:100A2000875A76EEC56A43ED026A67EE867A25EE4E
:100A3000877A77EE877A43ED017A3444354408317A
:100A400008337145CDD1012F0AD9541EA4B23946BD
:100A50002246FFF7ABFF404639462246FFF7A6FF86
:100A6000BDE8F08108200020082200202DE9F04197
:100A7000ADF5006D0C4602AB02380DF60801002200
:100A800030F8025F07EE905AF8EE677A43ED027A8B
:100A900043F8042C08338B42F2D168464FF480713E
:100AA0000822FFF783FF01AE00254FF0080E2F4606
:100AB000E9B273463A4601F0010040EA420292B2BE
:100AC0004908013B13F0FF03F5D1AA420ED956F8AD
:100AD000048C334653F804C90DEBC20292E80300BC
:100AE00083E80300C2F80080C2F804C00135ADB24B
:100AF0000836802DDCD104F5807102AADFED0F6A83
:100B00000DF58160083252ED017A12ED027A27EE7E
:100B1000267ABDEEC77A17EE103A24F8023B67EE4C
:100B2000A67AFDEEE77A17EE903A21F8023B824270
:100B3000E8D10DF5006DBDE8F08100BF0000803BFD
:100B40002DE9F04FADF60C0D8B4604AB02380DF5D8
:100B50000161002230F8024F07EE904AF8EE677A02
:100B600043ED027A43F8042C08338B42F2D103ADF3
:100B7000002408272646E1B23B46324601F0010038
:100B800040EA420292B24908013B13F0FF03F5D15B
:100B9000A2420FD955F804CC2B4653F804E902A918
:100BA00001EBC20292E8030083E80300C2F800C030
:100BB000C2F804E00134A4B20835B4F5807FDAD17C
:100BC000072300930125504FDFF844A1CDF804B06E
:100BD0004FEAC50B02AB03EB0B08009A1646012344
:100BE00093409BB203F1FF3E1FFA8EFE002B5BD0B9
:100BF00005F1FF391FFA89F909F101094FEAC9091D
:100C00000DF1080C48E000FA06F29200BC1894EDD1
:100C1000007A5244D2ED006A13ED026A53ED017A74
:100C200026EE075A66EEA75A75EE655A43ED025A4C
:100C300066EE266A67EE277A76EEA77A43ED017AAA
:100C400011ED027A51ED017A75EE875A41ED025AA3
:100C500053ED016A76EEA76A41ED016A53ED026A2F
:100C600037EE667A03ED027A13ED017A77EEC77AF2
:100C700043ED017A01300831083382B2AA42C2D36F
:100C8000CC44C844DC44D8440EF1FF3E1FFA8EFE2B
:100C90004FF6FF739E4507D0002DF3D00CF10801ED
:100CA00008F108030020AEE76D00ADB2009B013BE8
:100CB0009BB21A4600934FF6FF739A4288D1DDF833
:100CC00004B00BF5807104AADFED106A0DF58260A7
:100CD000083252ED017A12ED027A27EE267ABDEE45
:100CE000C77A17EE103A2BF8023B67EEA67AFDEEB4
:100CF000E77A17EE903A21F8023B8242E8D10DF6EE
:100D00000C0DBDE8F08F00BF082200200000803BE2
:100D1000082000202DE9F0432DED0A8BADF6040DDF
:100D200002AB02380DF60804002230F8025F07EE2D
:100D3000905AF8EE677A43ED027A43F8042C0833B0
:100D4000A342F2D101F580788D1E01269FED349AE1
:100D5000DFED34BA4FF000094F46DFED338A07EE7E
:100D6000906AF8EEE7CA6CEE89CA6CEEABCA0CEE7C
:100D7000109A0BEE107A6C4608EE107A06E038EE08
:100D8000498AB4EEE88AF1EE10FAF8DC234608341A
:100D9000D3ED00AA14ED01AA18EE100AFFF7F4F93A
:100DA00009EE900A18EE100AFFF72AFA07EE900AE9
:100DB000F1EE677A38EE2C8A29EEAA7A67EE8A6A13
:100DC00037EE667A3CEE07CA67EEAA7A69EE8A9A2F
:100DD00077EEA97A3BEE27BA0DF500639C4205D069
:100DE000B4EEE88AF1EE10FAC9DCCFE72CEE2BCA9C
:100DF000FDEECC7A17EE903A25F8023F2BEE2BBA97
:100E0000FDEECB7A17EE903A28F8023B0136802EA1
:100E1000A5D10DF6040DBDEC0A8BBDE8F08300BF33
:100E2000DA0FC9400000803BDA0F4940420805D084
:100E300000230133DBB25208FBD100E000235B0842
:100E400020FA03F3024604E0B0FBF3F119441A461A
:100E50004B08934203D09A1A012AF5D81A4690B249
:100E6000704700BF2DE9F04F2DED048B87B00024B3
:100E7000CD4FDFF89093DFF89083DFF890C325E043
:100E800012F801EC917841EA0E6192F800E041EA33
:100E90000E4192F801E041EA0E2146F8041F13F8D2
:100EA00001EC997841EA0E6193F800E041EA0E41C5
:100EB00093F801E041EA0E2140F8041F04320433A4
:100EC000AA42DDD12034B4F5805F0AD0631CDA1960
:100ED000201F00EB09064344604404F121053D4412
:100EE000CEE70420012100F023FC01248DF81440FA
:100EF0004FF40043049300268DF816608DF81740D8
:100F000003238DF81530A94804A900F0B9FDA84DB8
:100F1000284600F091FB6B68A64AA2FB03239B09BD
:100F2000013BA54A5360F021A44B83F8231096603F
:100F30000723136002F01CF84FF61F00314601F042
:100F4000E3FA01F027FB9E4D3046294601F0D2FB23
:100F500001F020FBC088294601F0CCFB01F01AFB10
:100F6000C088A04080B2294601F0C4FB01F012FB0A
:100F7000C08800EB400080B2924901F0BBFB01F059
:100F800009FBC088800080B28F4901F0B3FB01F0FB
:100F900001FBC08800EB800080B28C4901F0AAFB05
:100FA00001F0F8FAC38803EB430303FA04F080B2BC
:100FB000294601F09FFB01F0EDFAC088C0EBC000AC
:100FC00080B2294601F096FB01F0E4FAC088C00027
:100FD00080B2294601F08EFB01F0DCFAC08800EBFC
:100FE000C00080B2294601F085FB794DDFED797AAA
:100FF000B7EE008A6AA7D7E90067DFED779A9FED21
:10100000779ADFED778A1EE0F8EE677A67EEA97AC5
:1010100077EE887A67EEA77A67EEA77A07EE104A2E
:10102000B8EEC77A27EE097A67EE277AF5EEC07A2E
:10103000F1EE10FA06DD77EEE87AF5EEC07AF1EE21
:1010400010FAF8DC013417EE900AFFF79DF807EE6E
:10105000900A77EE887A17EE900A02F099F93246F4
:101060003B4602F0E9F902F081FC25F8020FA3B239
:1010700007EE903AB4F5805FC6D15A485A49FFF757
:10108000FBF85A4B0393524B0293594B03F5FF7BEA
:101090007FE033F8021F22F8021F8342F9D14FF498
:1010A000784001F055FA524D2E4620243188C90867
:1010B000C1F1710136F8023FDB08C3F1710320462C
:1010C00089B222469BB201F053FD0134A4B25E45C1
:1010D000ECD147484749FFF791FA474E06F580782B
:1010E000B31C03F1FC09DDF80CA03746222437F9C4
:1010F000020F3AF9023F03FB03F300FB0030FFF756
:1011000095FE4008C0F1C5032046C52122469BB28A
:1011100001F02EFD0134A4B24F45E8D1142000F0B7
:10112000C5F820242F4F2988C908C1F1710135F86D
:10113000023FDB08C3F171030097204689B22246C3
:101140009BB2FFF7C9F80134A4B2AB45EBD122241E
:10115000244FC52536F9020F38F9023F03FB03F38C
:1011600000FB0030FFF762FE4008C0F1C5030097A6
:101170002046294622469BB2FFF7AEF80134A4B2BE
:10118000B145E7D1029B083302931C4A93423FF4D6
:101190007AAF1B4A029B03F500707AE7AFF3008039
:1011A0000000000000E05F4008100020000802403E
:1011B000546C0020D34D621010E000E000ED00E020
:1011C000AC390008C4390008DC390008F4390008DB
:1011D000523C00200000000000008039DA0FC93CBA
:1011E000DA0FC9400C3A0008000000204E3B0020F6
:1011F00050280020503A00204E3A0020525A002039
:101200004E280020502A002008000020545C0020B6
:10121000FEE700BFFEE700BF084B1B681BB1074A93
:101220001368013B1360064B1A6801321A605A6852
:1012300001325A609A6801329A607047646C0020EB
:10124000686C002008B5134B134A9A420DD2101D4A
:101250000333181A20F003000430104B184453F8DD
:10126000041B42F8041B8342F9D10D4B0D4A9A42EC
:101270000BD2131D0C4AD21A22F003021A44043B6B
:10128000002143F8041B9342FBD100F03DF8FFF727
:10129000E9FD08BD502800200000002044C80208D5
:1012A0005C6E0020502800205F6E0020034B186009
:1012B0001A461368002BFCD1704700BF646C0020F5
:1012C0000022014B1A607047686C00200022014B1D
:1012D0005A607047686C00200022014B9A6070478A
:1012E000686C0020014B1868704700BF686C0020D4
:1012F000014B5868704700BF686C0020014B98682C
:10130000704700BF686C002082B0424AD2F8883033
:1013100043F47003C2F888303F4B1A6842F0010270
:101320001A60002199601A6822F0847222F48032D7
:101330001A603A4A5A601A6822F480221A60D96008
:10134000009101911A6842F480321A601A461368BB
:1013500003F400330193009B01330093019B1BB9FD
:10136000009BB3F5A06FF2D12B4B1B6813F4003F29
:1013700014BF012300230193019B012B32D1264B83
:101380001A6C42F080521A6425490A6842F480427D
:101390000A609A689A609A6842F400429A609A6871
:1013A00042F4A0529A601F4A5A601A6842F0807252
:1013B0001A601A46136813F0007FFBD040F20562F2
:1013C000194B1A60A3F580639A6822F003029A60B1
:1013D0009A6842F002029A601A46936803F00C037E
:1013E000082BFAD10C4B9A6822F400029A600F4A3B
:1013F000C3F884201A6842F080621A601A461368A3
:1014000013F0006FFBD04FF00062024B9A6002B005
:10141000704700BF00ED00E00038024010300024AB
:101420000070004008544007003C0240003000506B
:101430001E4B9B6803F00C03042B06D0082B08D02E
:1014400023BB1B4A1B4B1A6023E01B4A194B1A6033
:101450001FE0164B5A685B6803F03F0312F4800FDD
:10146000124A5268C2F3881214BF13491049B1FBE3
:10147000F3F303FB02F20D4B5B68C3F3014301334B
:101480005B00B2FBF3F30B4A136002E0084A094B1E
:101490001A60064B9B68C3F30313064A1344197979
:1014A000C9B21368CB401360704700BF00380240D8
:1014B0000024F4000828002000127A000A4B1A6861
:1014C00042F001021A60002199601A6822F08472C9
:1014D00022F480321A60054A5A601A6822F4802287
:1014E0001A60D960704700BF0038024010300024F5
:1014F000024B00221A701870704700BF0238024079
:10150000034A136823F0F80343EAC00010607047F1
:1015100000380240014B1860704700BF000047428E
:10152000084B00221A701A70012802D0042804D037
:1015300070470122034B1A7070470522014B1A7045
:10154000704700BF70380240014B1860704700BF01
:10155000800E474210B4019C40EA0460014341EA16
:1015600082125B08013B42EA0340024B58605DF87F
:10157000044B704700380240014B1860704700BFB1
:1015800060004742090741EA8010024BC3F884001B
:10159000704700BF00380240014B1860704700BF21
:1015A00068004742014B1860704700BF4C0047423B
:1015B000034A936823F0EC63194308439060704733
:1015C00000380240034A936823F0784319430843E4
:1015D0009060704700380240034A936823F0030389
:1015E00018439060704700BF00380240024B986873
:1015F00000F00C00704700BF00380240034A9368B7
:1016000023F0F00318439060704700BF0038024099
:10161000034A936823F4E05318439060704700BF77
:1016200000380240034A936823F4604343EAC00051
:10163000906070470038024010B4244B9B6803F060
:101640000C03042B05D0082B06D00BBB204B0360EA
:1016500020E0204B03601DE01C4B5A685B6803F0E0
:101660003F0312F4800F194A5268C2F3881214BF64
:1016700018491749B1FBF3F303FB02F2134B5B6804
:10168000C3F3014301335B00B2FBF3F3036001E0FA
:101690000F4B03600D4A9368C3F303130E49CC5CF0
:1016A000E4B20368E34043609468C4F382240C5DB1
:1016B000E4B223FA04F484609268C2F342328A5C92
:1016C000D2B2D340C3605DF8044B7047003802408B
:1016D0000024F40000127A001C28002000F440735B
:1016E000B3F5407F09D108498B6823F4F81320F043
:1016F000704222F4407213438B60034A136FC0F3AD
:101700000B0018431067704700380240014B186007
:10171000704700BF3C0E4742014B1860704700BF46
:10172000400E4742014B1860704700BF5C014742C2
:1017300021B1054A136B184310637047024A136BBB
:1017400023EA0000106370470038024021B1054AC7
:10175000536B184350637047024A536B23EA0000EF
:10176000506370470038024021B1054A936B18431B
:1017700090637047024A936B23EA000090637047BE
:101780000038024021B1054A136C184310647047B9
:10179000024A136C23EA00001064704700380240CC
:1017A00021B1054A536C184350647047024A536C88
:1017B00023EA0000506470470038024021B1054A16
:1017C0001369184310617047024A136923EA000045
:1017D000106170470038024021B1054A536918432F
:1017E00050617047024A536923EA00005061704714
:1017F0000038024021B1054A93691843906170474F
:10180000024A936923EA0000906170470038024061
:1018100021B1054A136A184310627047024A136ADD
:1018200023EA0000106270470038024021B1054AE7
:10183000536A184350627047024A536A23EA000011
:10184000506270470038024021B1054A136D1843B9
:1018500010657047024A136D23EA00001065704757
:101860000038024021B1054A536D18435065704756
:10187000024A536D23EA0000506570470038024069
:1018800021B1054A936D184390657047024A936DE4
:1018900023EA0000906570470038024021B1054AF4
:1018A000136E184310667047024A136E23EA000055
:1018B000106670470038024021B1054A536E184344
:1018C00050667047024A536E23EA00005066704724
:1018D0000038024021B1054B1A7810431870704748
:1018E000024A137823EA0000107070470D38024056
:1018F0004309012B02D1074B1A6804E0022B054B68
:101900000CBF1A6F5A6F00F01F0322FA03F000F0A9
:10191000010070470038024010B582B000230193E7
:1019200031242046FFF7E4FF019B01330193019B23
:10193000B3F5A06F01D00028F3D03120FFF7D8FF16
:10194000003018BF012002B010BD00BF024A536F23
:1019500043F080735367704700380240034BDB68E5
:10196000184214BF01200020704700BF0038024019
:10197000014B1870704700BF0E38024008B5374B56
:10198000984208D101200146FFF718FF01200021ED
:10199000FFF714FF08BD324B984208D10220012105
:1019A000FFF70CFF02200021FFF708FF08BD2D4BB9
:1019B000984208D104200121FFF700FF04200021F4
:1019C000FFF7FCFE08BD284B984208D108200121F2
:1019D000FFF7F4FE08200021FFF7F0FE08BD234BBF
:1019E000984208D110200121FFF7E8FE10200021C5
:1019F000FFF7E4FE08BD1E4B984208D120200121CC
:101A0000FFF7DCFE20200021FFF7D8FE08BD194BB0
:101A1000984208D140200121FFF7D0FE402000214C
:101A2000FFF7CCFE08BD144B984208D1802001215D
:101A3000FFF7C4FE80200021FFF7C0FE08BD0F4B5A
:101A4000984209D14FF480700121FFF7B7FE4FF49F
:101A500080700021FFF7B2FE08BD00BF0000024009
:101A60000004024000080240000C02400010024046
:101A70000014024000180240001C024000200240F6
:101A8000F0B500220126032706FA02F30C681C4079
:101A90009C4237D10368540007FA04F5ED432B400C
:101AA0000360036891F804E00EFA04FE4EEA0303B3
:101AB00003600B79013BDBB2012B16D883681D4014
:101AC000856085684B79A3402B43836043681FFA88
:101AD00082FE06FA0EF523EA0503436045688B791A
:101AE00003FA0EF39BB22B434360C36895B26D00BB
:101AF00007FA05F523EA0503C360C568CB79A3405F
:101B00002B43C3600132102ABED1F0BD4FF6FF73E4
:101B100003600023037143718371C371704700BF79
:101B200082B04FF480330193019B0B430193019BDF
:101B3000C361C161019BC361C3690193C36901931F
:101B400002B070470369194214BF0120002070479A
:101B5000006980B2704700BF4369194214BF012079
:101B600000207047406980B2704700BF0183704712
:101B7000418370470AB1018370474183704700BFBA
:101B800041617047436959404161704710B401F0A9
:101B900007039B00C90800EB8100046A0F219940EC
:101BA00024EA01010162016A9A40114301625DF871
:101BB000044B7047034628B943F2DB014FF0204243
:101BC000116005E043F2D2014FF0204242F82010AC
:101BD000581C6FF070424FF0204141F8202001F571
:101BE000827141F82320704710B40168826843680D
:101BF0001A43C3681A4303691A4343691A43836942
:101C00001A43C3691A43036A1A43436A1A43836A2D
:101C10001A43C36A1A43036B13434FF0204242F83E
:101C200021308368082B06D103689B0013441A688F
:101C300042F040021A6001680131426B94691368F6
:101C40002343546843EA0413946843EA0423D468A2
:101C500043EA0443146943EA0453526943EA0263C2
:101C60004FF0204242F82130C36AB3F5804F14D1BF
:101C70000168826B906913680343506843EA00135C
:101C8000906843EA0023106943EA0053526943EA2B
:101C90000263064A42F8213005E002686FF07041A5
:101CA000024B43F822105DF8044B7047040100A07A
:101CB00010B400230360022242608360C3600361AA
:101CC00043618361C36103624FF4805242624FF407
:101CD00000528262C3620363416B0F220A60416B50
:101CE0004A60446BFF21A160446BE260446B226157
:101CF000446B6261446BA361846B2260846B62609D
:101D0000846BA160816BCA60816B0A61816B4A61DF
:101D1000826B93615DF8044B704700BF39B180005E
:101D200000F12040036843F0010303607047800026
:101D300000F120400268024B13400360704700BF6F
:101D4000FEFF0F0010280CBF054B064B18221A602F
:101D500040225A604FF0FC329A60DA60704700BF50
:101D6000600000A0800000A030B442688368134384
:101D700043F00803C2681A4303691343426943EA04
:101D80004223826943EA4232C1694C688B681B0472
:101D900043EA04230C682343CD6843EA0565046ADB
:101DA0006168A3681B0443EA012321680B43E168CF
:101DB00043EA0163016810290CBF034903490A6023
:101DC0008D60CB6030BC7047600000A0800000A038
:101DD00010230360002343608360C3600361436199
:101DE0008361C269FC231360C2695360C269936056
:101DF000C269D360026A1360026A5360026A936028
:101E0000026AD360704700BF41B110280CBF084A76
:101E1000084A136843F004031360704710280CBF8E
:101E2000034A044A1168044B0B401360704700BF1B
:101E3000600000A0800000A0FBFF0F0041B110284F
:101E40000CBF084A084A136843F040031360704708
:101E500010280CBF034A044A1168044B0B4013605E
:101E6000704700BF600000A0800000A0BFFF0F000F
:101E700010280CBF014B024B58697047600000A04E
:101E8000800000A0054B18221A6000225A604FF013
:101E9000FC329A60DA601A61704700BFA00000A0AF
:101EA00010B4036843F01003426843EA4223826897
:101EB00043EA423314490B60C4686368A2681204A1
:101EC00042EA032223681343E26843EA02638B6019
:101ED00004696368A268120442EA03222368134378
:101EE000E26843EA0263CB60406943688268120497
:101EF00042EA032203681343C26843EA02630B61A8
:101F00005DF8044B704700BFA00000A000230360F1
:101F100043608360C268FC231360C2685360C26878
:101F20009360C268D36002691360026953600269FA
:101F300093600269D36042691360426953604269E9
:101F400093604269D360704728B1064A136843F032
:101F5000040313607047034A1168034B0B4013607E
:101F6000704700BFA00000A0FBFF0F007AB110284F
:101F700004D1104A5368194351607047B0F5807F0F
:101F80000CBF0D4A0D4A5368194351607047102821
:101F900005D1084A536823EA010151607047B0F542
:101FA000807F0CBF044A054A536823EA010151604F
:101FB000704700BF600000A0800000A0A00000A04B
:101FC000102802D1064B5B6805E0B0F5807F0CBF9E
:101FD000044B054B5B680B4214BF01200020704787
:101FE000600000A0800000A0A00000A0102805D183
:101FF000074A536823EA010151607047B0F5807FBA
:102000000CBF044A044A536823EA01015160704737
:10201000600000A0800000A0A00000A0102802D155
:10202000094B5B6805E0B0F5807F0CBF074B084BA0
:102030005B680B4205D013EAD10314BF01200020D6
:1020400070470020704700BF600000A0800000A023
:10205000A00000A0102805D1074A536823EAD10147
:1020600051607047B0F5807F0CBF044A044A536842
:1020700023EAD10151607047600000A0800000A0F9
:10208000A00000A0F0B583B004200121FFF746FEB8
:102090000420FFF78FFD4CF20373009300248DF8AA
:1020A00004408DF80740804D28466946FFF7E8FC5C
:1020B000284621462246FFF769FD2846012122468F
:1020C000FFF764FD284608212246FFF75FFD2846FA
:1020D00009212246FFF75AFD28460A212246FFF72A
:1020E00055FD28460E212246FFF750FD28460F21B8
:1020F0002246FFF74BFD4FF6807300936B4E304640
:102100006946FFF7BDFC304607212246FFF73EFD3A
:10211000304608212246FFF739FD30460921224684
:10212000FFF734FD30460A212246FFF72FFD3046E7
:102130000B212246FFF72AFD30460C212246FFF7ED
:1021400025FD30460D212246FFF720FD30460E21A9
:102150002246FFF71BFD30460F212246FFF716FDF2
:102160004FF23F030093524F38466946FFF788FC11
:10217000384621462246FFF709FD3846012122460E
:10218000FFF704FD384602212246FFF7FFFC3846E0
:1021900003212246FFF7FAFC384604212246FFF7C6
:1021A000F5FC384605212246FFF7F0FC38460C21A5
:1021B0002246FFF7EBFC38460D212246FFF7E6FCEE
:1021C00038460E212246FFF7E1FC38460F21224611
:1021D000FFF7DCFC3F23009307F58067384669462C
:1021E000FFF74EFC384621462246FFF7CFFC384623
:1021F00001212246FFF7CAFC384602212246FFF79A
:10220000C5FC384603212246FFF7C0FC38460421AE
:102210002246FFF7BBFC384605212246FFF7B6FCF5
:102220004FF46053009328466946FFF729FC28467F
:102230000B212246FFF7AAFC28460C212246FFF775
:10224000A5FC28460D212246FFF7A0FC3023009371
:1022500028466946FFF714FC284604212246FFF76A
:1022600095FC284605212246FFF790FC4FF4806339
:10227000009338466946FFF703FC38460C21224696
:10228000FFF784FC0323009330466946FFF7F8FB11
:10229000304621462246FFF779FC3046012122468E
:1022A000FFF774FC03B0F0BD000C024000100240C8
:1022B00000140240F0B583B01A200121FFF738FA6C
:1022C0004CF2B373009302238DF804308DF805307F
:1022D00000268DF8066001278DF80770494C2046CE
:1022E0006946FFF7CDFB204631460C22FFF74EFC36
:1022F000204639460C22FFF749FC204604210C22D7
:10230000FFF744FC204605210C22FFF73FFC204646
:1023100007210C22FFF73AFC204608210C22FFF788
:1023200035FC204609210C22FFF730FC20460A210B
:102330000C22FFF72BFC20460E210C22FFF726FC77
:1023400020460F210C22FFF721FC4FF688730093E3
:102350002D4D28466946FFF793FB284603210C22A2
:10236000FFF714FC284607210C22FFF70FFC284634
:1023700008210C22FFF70AFC284609210C22FFF74E
:1023800005FC28460A210C22FFF700FC28460B21F9
:102390000C22FFF7FBFB28460C210A46FFF7F6FB51
:1023A00028460D210C22FFF7F1FB28460E210C22B6
:1023B000FFF7ECFB28460F210C22FFF7E7FB082371
:1023C00000938DF804708DF805608DF806608DF827
:1023D000076020466946FFF753FB4FF40055009510
:1023E0008DF804708DF805708DF806608DF8076023
:1023F00020466946FFF744FB20462946FFF7B6FB17
:1024000003B0F0BD000C02400010024010B596B0C1
:1024100001200146FFF7A8F9052300930024019449
:1024200002930394049405940694079408940994E1
:1024300010230A930B940C940D940E940F944FF464
:1024400080531093119412941394CDF850D0CDF87A
:1024500054D007A8FFF7C8FB20460121FFF75EFC18
:1024600016B010BD4FF0C0424E231380024B1880AF
:102470004F20108019807047000010604FF0C0435B
:10248000188003F580131980704700BF4FF0C043D8
:10249000188003F58013188880B2704722224FF00D
:1024A000C0431A80704700BF014B1880704700BFBF
:1024B00000001060014B188880B270470000106067
:1024C00008B500200146FFF7CDFF22224FF0C043A0
:1024D0001A804FF4C8430B494FF600020A80013BB3
:1024E000FCD14FF4C84307494FF4FC620A80013B1A
:1024F000FCD14FF4C84303494FF01F020A80013B4F
:10250000FCD108BD0000106082B0ADF80600ADF847
:102510000410BDF806309BB2044A1380BDF80430A5
:102520009BB2034A138002B0704700BF546E002074
:102530002C280020044B1B889BB20380034B1B8874
:102540009BB20B80704700BF546E00202C280020E7
:1025500082B0ADF80600BDF806309BB2014A138088
:1025600002B07047546E002082B0ADF80600BDF88E
:1025700006309BB2014A138002B070472C2800201D
:10258000704700BF704700BF014B5860704700BFE5
:10259000546E0020014B5868704700BF546E0020F5
:1025A00010B5044600200146FFF75CFF22224FF0E1
:1025B000C0431A804FF49633024A1480013BFCD189
:1025C00010BD00BF000010602DE9F04F83B00191F5
:1025D0002A4B5B68DB88002B4CD0814617460025D0
:1025E000264C274EDFF89C80DFF89CA001984946D6
:1025F000FFF738FF22224FF0C0431A8063689888A3
:1026000028B300224FF0800C37F81510A6FB00B35A
:10261000DB08DB000CFA03F313410B4202D10C2858
:1026200006D922E0114111F0010F07D10C2805D97C
:10263000BAF800309BB2A8F8003003E023889BB2C0
:10264000A8F800300132636898889042DCD809F11C
:1026500001091FFA89F901984946FFF703FF01357F
:102660006368DB88AB42C1D804E0114111F0010F6F
:10267000DED0E3E703B0BDE8F08F00BF546E00206A
:10268000ABAAAAAA000010602C28002010B5A2F165
:102690002003DBB25A2B0CD9BF2A02D9613AD3B23C
:1026A00007E0A82A04D0B82A14BF1346A02300E0EC
:1026B0009F23054A5468E28802FB03F3226802EB79
:1026C0004302FFF781FF10BD546E0020F8B50746A6
:1026D00000242026064D384621463246FFF7D6FF15
:1026E0006B689B881C44A4B2B4F5A07FF3D3F8BDFB
:1026F000546E0020F8B50D460A788AB106460024CB
:10270000084F30462146FFF7C1FF7B689B881C4479
:10271000A4B2B4F5A07F03D215F8012F002AF0D19E
:10272000F8BD00BF546E002038B545254FF0C044B9
:10273000258004F5801420808418B4F5A07F09DB7F
:1027400046244FF0C042148040F23F1402F580123C
:10275000148008E0024492B246254FF0C044258020
:1027600004F5801422800B44EF2BD4BF1B024FF4DE
:102770006F4303439BB244244FF0C042148002F5E0
:1027800080121380FFF76EFE38BD00BF704700BF98
:102790002DE9F84F06460C4615461F46FFF762FE28
:1027A0001FB12F4695B9BDE8F88F22224FF0C043E4
:1027B0001A8029461DB30022124C134823889BB26D
:1027C000038001328A42F9D1BDE8F88F00254FF02D
:1027D000C04B4FF0220ADFF82C90DFF82C80ABF8CA
:1027E00000A0B9F800309BB2A8F800300134A4B2C0
:1027F00030462146FFF736FE0135BD42EFD1BDE838
:10280000F88F00BF546E00200000106080B2B0F559
:10281000A07F08D289B2EF2905D808B5012200238C
:10282000FFF7B6FF08BD7047F8B506460F461446D9
:102830001D461A460123FFF7ABFFA4B2601E3044C9
:1028400080B239462A460123FFF7A2FF30463946B7
:1028500022460023FFF79CFF7919304689B22246B1
:102860000023FFF795FFF8BD2DE9F04F87B00090EA
:1028700001915300C3F103030493039200230293D5
:102880004FF0C0484C4FDFF834B1BDF80840009B12
:1028900004EB03091FFA89F9BDF80C50019905EB07
:1028A000010A1FFA8AFA48465146FFF7DBFD222645
:1028B000A8F800603B889BB2ABF8003001994B1B35
:1028C00098B20246484605921146FFF7CBFDA8F89C
:1028D00000603B889BB2ABF80030009AC4EB020961
:1028E0001FFA89F948465146FFF7BCFDA8F8006079
:1028F0003B889BB2ABF8003048460599FFF7B2FD24
:10290000A8F800603B889BB2ABF80030009905EB5B
:10291000010A1FFA8AFA019B03EB04091FFA89F9DD
:1029200050464946FFF79EFDA8F800603B889BB2E1
:10293000ABF80030019B1C1BA4B250462146FFF7A8
:1029400091FDA8F800603B889BB2ABF8003000997D
:102950004D1BADB228464946FFF784FDA8F800603C
:102960003B889BB2ABF8003028462146FFF77AFD42
:10297000A8F800603B889BB2ABF80030049B002BAA
:1029800005DA029A03EB82030633049309E0049B01
:102990000A3302980399421A03EB820304934B1EF5
:1029A0000393029B01330293039A9A42BFF46DAFE3
:1029B00007B0BDE8F08F00BF546E0020000010602B
:1029C000F8B50446002040F23F11FFF74BFD2222EC
:1029D0004FF0C0431A80204604F5165E4FF0000CFD
:1029E00001240B4F0B4D0C4E0EE004FA03F201686C
:1029F0000A420CBF32883A8892B22A800133202BD7
:102A0000F3D10430704501D06346EEE7F8BD00BF56
:102A1000546E0020000010602C280020704700BF7A
:102A20002DE9F84307460C4690461D461D4E338857
:102A30009BB233800023FFF7ABFE6119384689B2A1
:102A400042460023FFF7A4FE384621462A460123CA
:102A5000FFF79EFE08F1FF30384480B221462A4637
:102A60000123FFF795FE611C89B20F4B1B889BB2B7
:102A70003380AE1EB6B2012D0DD001360025A94619
:102A80004C1CA4B2384642464B46FFF781FE013546
:102A90002146B542F4D1034A13889BB21380BDE8A6
:102AA000F88300BF546E00202C2800202DE9F04F41
:102AB00083B081468A4601925400C4F1030416464D
:102AC000294B1B889BB2294A13800025C6B1AFB29F
:102AD0000AEB060B1FFA8BFB4FEA46081FFA88F831
:102AE000C7EB090080B2594642460023FFF750FE6B
:102AF00007EB090080B2594642460023FFF748FE23
:102B0000C5B11FFA86F8AFB207EB0A0B1FFA8BFBB1
:102B10007F00BFB2C8EB090080B259463A46002395
:102B2000FFF736FE08EB090080B259463A4600230B
:102B3000FFF72EFE002C03DA04EB8504063404E0D4
:102B40000A34AB1B04EB8304013E0135AE42BDD217
:102B5000064A13889BB2138048465146019AFFF7F4
:102B600083FE03B0BDE8F08F2C280020546E0020B7
:102B70002DE9F04F85B0141A002CB8BF6442A4B2FE
:102B800027460194C1EB0309B9F1000FB8BFC9F1A1
:102B900000091FFA89F984B28DB24FF6FF7682429E
:102BA00028BF012602964FF6FF728B4228BF0122F2
:102BB00003923AB20FFA89F39A420BDBBDF9046033
:102BC00006EBD676C6F34F06DDF808A00023029385
:102BD0009B460EE00FFA89F606EBD676C6F34F0653
:102BE000019BCDF804909946DDF80CB000230393C7
:102BF0009A46019A12F4004F1DD100270FFA82F86D
:102C000020B229B2FFF702FE4E44B3B29EB232B2F6
:102C1000904508DC019A9E1AB6B2029B1C44A4B2ED
:102C2000039B1D44ADB25444A4B25D44ADB2013720
:102C30003BB29845E4DA05B0BDE8F08F01292BD905
:102C40002DE9F84390460746028843881BD0044686
:102C500002398EB2013600EB86061FFA82F99DB268
:102C6000A2884A44E3882B444846294692B29BB244
:102C7000FFF77EFFA2884A4492B2E3881D44ABB2BC
:102C80000434B442E9D1B8F1000F03D03888798810
:102C9000FFF76EFFBDE8F883704700BF012912D926
:102CA00038B5041D8D1EADB2023500EB850534F834
:102CB000040C34F8021C22886388FFF759FF04349F
:102CC000AC42F4D138BD704738B505460C46FFF725
:102CD000E5FF04F18043013B05EB83042888698804
:102CE00035F823206388FFF743FF38BD08B500227D
:102CF000FFF7A4FF08BD00BF08B50122FFF79EFF44
:102D000008BD00BF2DE9F04FF1B0068843880129C6
:102D100040F20C811A4605468C1EA4B2013400EB29
:102D2000840403460592374696469446DA889642CE
:102D300028BF1646974238BF174633F8042F9445EC
:102D400028BF9446964538BF9646A342EED1CDF8AB
:102D500020E0CDF814C07A4B1B889BB2794A1380CF
:102D6000E64540F2DE800A914B1E9BB209930B951B
:102D7000B946B0460746099E0A9B002B63D0DDF892
:102D80002CA00025AB46CDF81890CDF81C809946B4
:102D90001FFA85F837F8254020B200F0E7FACDE9B0
:102DA0000201059800F0D2FA02460B46CDE9002355
:102DB000DDE9020100F0B2FD50B137F9260000F064
:102DC000D5FA02460B46DDE9000100F0B1FD88B9F5
:102DD00037F9260000F0CAFA02460B46DDE9000189
:102DE00000F0BAFD18B3DDE90201DDE9002300F0CF
:102DF000A9FDE0B10BF10100BAF802100FFA84FE50
:102E000007EB8603059ACEEB0204B3F902200BB25E
:102E1000D31A03FB04F337F92640CEEB040493FBEB
:102E2000F4F40C440CAB23F81B401FFA80FB013573
:102E30000AF1040A4646ABB24B45A9D3DDF8189017
:102E4000DDF81C8001E04FF0000B00230BF1FF3098
:102E500013E00CAA32F813105A1C0CAC34F81240D0
:102E6000A14208D90CAE26F8154026F8121023B15D
:102E7000013B9BB201E001339BB21D468342E8DB7C
:102E8000BBF1000F45D0BDF83010894541D9002273
:102E9000144605E022460CAB33F81410894538D9A6
:102EA000531C0CA830F8130040452ED9884584BF28
:102EB0000CA921F812800CA931F81310494584BFE0
:102EC0000CA921F813901E49098889B21D48018078
:102ED0000CA931F8135031F81260AA1BDDF814A0C8
:102EE0005046294692B20023FFF752FC154B1B882F
:102EF0009BB2144A13800FFA8AFA504629B2FFF7A0
:102F000085FC504631B2FFF781FC0234A4B25C4527
:102F1000C0D3059B01339BB20593089A9342FFF4FB
:102F20002AAF084A13889BB2138005E0044B1B8824
:102F30009BB2044A1380F4E771B0BDE8F08F00BF84
:102F40002C280020546E002084B0019000230393AD
:102F5000019A42F2107303FB02F30393039B2BB11C
:102F6000039B013B0393039B002BF9D104B07047F3
:102F700070B5FFF79FF9FFF749FA0520FFF7E4FF67
:102F80004D4C20460821FEF7F3FD0A20FFF7DCFF39
:102F900020460821FEF7EAFD4FF0C04510222A80A6
:102FA000464C012323801E212980B2212180282123
:102FB00029800621218000262E8023802B8043F249
:102FC000EF03238002232B804FF4C06323802A80E9
:102FD00026800520FFF7B8FF11232B8046F630032B
:102FE000238012232B8040F69913238026232B80E5
:102FF0004FF46053238007232B80332323800C223C
:103000002A800522228030222A80268031222A80AE
:1030100040F20332228032222A8040F2074222808C
:103020002B8040F20133238034222A8023803523F1
:103030002B8040F20343238036232B8040F207731A
:10304000238037232B804FF4806323803A232B8007
:103050004FF4206323803B232B804FF48053238045
:103060000D232B800A2323800E232B804FF438530B
:10307000238044232B804FF46F43238045232B80F0
:10308000268046232B8040F23F1323804E232B8043
:1030900026804F232B80268022232B8026804FF4EE
:1030A000963321464FF000020A80013BFCD1044ACE
:1030B000044B5A6070BD00BF000C0240000010605D
:1030C00048280020546E002081F0004102E000BF3B
:1030D00083F0004330B54FEA41044FEA430594EAD8
:1030E000050F08BF90EA020F1FBF54EA000C55EA13
:1030F000020C7FEA645C7FEA655C00F0E2804FEAE4
:103100005454D4EB5555B8BF6D420CDD2C4480EAC5
:10311000020281EA030382EA000083EA010180EAF5
:10312000020281EA0303362D88BF30BD11F0004F43
:103130004FEA01314FF4801C4CEA113102D0404279
:1031400061EB410113F0004F4FEA03334CEA1333B4
:1031500002D0524263EB430394EA050F00F0A780CC
:10316000A4F10104D5F1200E0DDB02FA0EFC22FAC7
:1031700005F2801841F1000103FA0EF2801843FABB
:1031800005F359410EE0A5F120050EF1200E012AAC
:1031900003FA0EFC28BF4CF0020C43FA05F3C018EA
:1031A00051EBE37101F0004507D54FF0000EDCF163
:1031B000000C7EEB00006EEB0101B1F5801F1BD30C
:1031C000B1F5001F0CD349085FEA30004FEA3C0C10
:1031D00004F101044FEA445212F5800F80F09A8006
:1031E000BCF1004F08BF5FEA500C50F1000041EB0A
:1031F000045141EA050130BD5FEA4C0C404141EB0E
:10320000010111F4801FA4F10104E9D191F0000F34
:1032100004BF01460020B1FA81F308BF2033A3F1B7
:103220000B03B3F120020CDA0C3208DD02F1140CAE
:10323000C2F10C0201FA0CF021FA02F10CE002F1E9
:103240001402D8BFC2F1200C01FA02F120FA0CFCE2
:10325000DCBF41EA0C019040E41AA2BF01EB04512B
:10326000294330BD6FEA04041F3C1CDA0C340EDC29
:1032700004F11404C4F1200220FA04F001FA02F36C
:1032800040EA030021FA04F345EA030130BDC4F12A
:103290000C04C4F1200220FA02F001FA04F340EA1F
:1032A0000300294630BD21FA04F0294630BD94F0D0
:1032B000000F83F4801306BF81F480110134013DB7
:1032C0004EE77FEA645C18BF7FEA655C29D094EA28
:1032D000050F08BF90EA020F05D054EA000C04BFA6
:1032E0001946104630BD91EA030F1EBF0021002091
:1032F00030BD5FEA545C05D14000494128BF41F030
:10330000004130BD14F580043CBF01F5801130BD93
:1033100001F0004545F0FE4141F470014FF000001E
:1033200030BD7FEA645C1ABF194610467FEA655CCF
:103330001CBF0B46024650EA013406BF52EA033571
:1033400091EA030F41F4002130BD00BF90F0000F5F
:1033500004BF0021704730B54FF4806404F132049B
:103360004FF000054FF0000150E700BF90F0000F54
:1033700004BF0021704730B54FF4806404F132047B
:1033800010F0004548BF40424FF000013EE700BF4B
:1033900042004FEAE2014FEA31014FEA02701FBFDB
:1033A00012F07F4393F07F4F81F06051704792F0AD
:1033B000000F14BF93F07F4F704730B54FF4607427
:1033C00001F0004521F0004120E700BF50EA010272
:1033D00008BF704730B54FF000050AE050EA01021F
:1033E00008BF704730B511F0004502D5404261EB8F
:1033F00041014FF4806404F132045FEA915C3FF4D0
:10340000DCAE4FF003025FEADC0C18BF03325FEA68
:10341000DC0C18BF033202EBDC02C2F1200300FA1D
:1034200003FC20FA02F001FA03FE40EA0E0021FA42
:1034300002F11444C1E600BF70B54FF0FF0C4CF42C
:10344000E06C1CEA11541DBF1CEA135594EA0C0FE2
:1034500095EA0C0F00F0DEF82C4481EA030621EA1D
:103460004C5123EA4C5350EA013518BF52EA033558
:1034700041F4801143F4801338D0A0FB02CE4FF00A
:103480000005E1FB02E506F00042E0FB03E54FF03A
:103490000006E1FB03569CF0000F18BF4EF0010E32
:1034A000A4F1FF04B6F5007F64F5407404D25FEA2E
:1034B0004E0E6D4146EB060642EAC62141EA5551E1
:1034C0004FEAC52040EA5E504FEACE2EB4F1FD0C23
:1034D00088BFBCF5E06F1ED8BEF1004F08BF5FEAA1
:1034E000500E50F1000041EB045170BD06F0004653
:1034F00046EA010140EA020081EA0301B4EB5C0400
:10350000C2BFD4EB0C0541EA045170BD41F48011F7
:103510004FF0000E013C00F3AB8014F1360FDEBF1C
:10352000002001F0004170BDC4F10004203C35DAF8
:103530000C341BDC04F11404C4F1200500FA05F37B
:1035400020FA04F001FA05F240EA020001F000421C
:1035500021F0004110EBD37021FA04F642EB060192
:103560005EEA430E08BF20EAD37070BDC4F10C04BC
:10357000C4F1200500FA04F320FA05F001FA04F280
:1035800040EA020001F0004110EBD37041F100016C
:103590005EEA430E08BF20EAD37070BDC4F1200577
:1035A00000FA05F24EEA020E20FA04F301FA05F2DF
:1035B00043EA020321FA04F001F0004121FA04F287
:1035C00020EA020000EBD3705EEA430E08BF20EA57
:1035D000D37070BD94F0000F0FD101F00046400091
:1035E00041EB010111F4801F08BF013CF7D041EA13
:1035F000060195F0000F18BF704703F00046520017
:1036000043EB030313F4801F08BF013DF7D043EAE7
:103610000603704794EA0C0F0CEA135518BF95EA9D
:103620000C0F0CD050EA410618BF52EA4306D1D124
:1036300081EA030101F000414FF0000070BD50EA43
:10364000410606BF1046194652EA430619D094EACD
:103650000C0F02D150EA013613D195EA0C0F05D1B7
:1036600052EA03361CBF104619460AD181EA03010B
:1036700001F0004141F0FE4141F470014FF00000C3
:1036800070BD41F0FE4141F4780170BD70B54FF05E
:10369000FF0C4CF4E06C1CEA11541DBF1CEA1355DE
:1036A00094EA0C0F95EA0C0F00F0A7F8A4EB0504C0
:1036B00081EA030E52EA03354FEA013100F08880B7
:1036C0004FEA03334FF0805545EA131343EA126380
:1036D0004FEA022245EA111545EA10654FEA002635
:1036E0000EF000419D4208BF964244F1FD0404F5EE
:1036F000407402D25B084FEA3202B61A65EB03054A
:103700005B084FEA32024FF480104FF4002CB6EB06
:10371000020E75EB030E22BFB61A754640EA0C0086
:103720005B084FEA3202B6EB020E75EB030E22BFC6
:10373000B61A754640EA5C005B084FEA3202B6EB07
:10374000020E75EB030E22BFB61A754640EA9C00C6
:103750005B084FEA3202B6EB020E75EB030E22BF96
:10376000B61A754640EADC0055EA060E18D04FEA54
:10377000051545EA16754FEA06164FEAC30343EAF4
:1037800052734FEAC2025FEA1C1CC0D111F4801FC1
:103790000BD141EA00014FF000004FF0004CB6E7BA
:1037A00011F4801F04BF01430020B4F1FD0C88BF59
:1037B000BCF5E06F3FF6AFAEB5EB030C04BFB6EB64
:1037C000020C5FEA500C50F1000041EB045170BD57
:1037D0000EF0004E4EEA113114EB5C04C2BFD4EB84
:1037E0000C0541EA045170BD41F480114FF0000E08
:1037F000013C90E645EA060E8DE60CEA135594EA84
:103800000C0F08BF95EA0C0F3FF43BAF94EA0C0F86
:103810000AD150EA01347FF434AF95EA0C0F7FF4FB
:1038200025AF104619462CE795EA0C0F06D152EA4F
:1038300003353FF4FDAE1046194622E750EA410633
:1038400018BF52EA43067FF4C5AE50EA41047FF444
:103850000DAF52EA43057FF4EBAE12E74FF0FF3CA9
:1038600006E000BF4FF0010C02E000BF4FF0010C7A
:103870004DF804CD4FEA410C7FEA6C5C4FEA430CF3
:1038800018BF7FEA6C5C1BD001B050EA410C0CBF42
:1038900052EA430C91EA030F02BF90EA020F0020A4
:1038A000704710F1000F91EA030F58BF994208BF0B
:1038B00090422CBFD8176FEAE37040F001007047C8
:1038C0004FEA410C7FEA6C5C02D150EA013C07D11F
:1038D0004FEA430C7FEA6C5CD6D152EA033CD3D06A
:1038E0005DF8040B704700BF8446104662468C4664
:1038F0001946634600E000BF01B5FFF7B7FF002897
:1039000048BF10F1000F01BD4DF808EDFFF7F4FFBF
:103910000CBF012000205DF808FB00BF4DF808ED4A
:10392000FFF7EAFF34BF012000205DF808FB00BF6D
:103930004DF808EDFFF7E0FF94BF012000205DF88F
:1039400008FB00BF4DF808EDFFF7CEFF94BF012044
:1039500000205DF808FB00BF4DF808EDFFF7C4FF3D
:1039600034BF012000205DF808FB00BF4A0011D2DF
:1039700012F5001211D20DD56FF47873B3EB6252C9
:103980000ED44FEAC12343F0004343EA505323FAD5
:1039900002F070474FF00000704750EA013002D14A
:1039A0004FF0FF3070474FF000007047202020207C
:1039B0002020202020202020202020202020202007
:1039C0000000000020C8E4B8F220E8EDE8F6E8E0E6
:1039D000EBE8E7E0F6E8FF2000000000202020EC04
:1039E000E0F1F1E8E2E020EFEEF2EEEAE020202064
:1039F00000000000202020202020E4E0EDEDFBF579
:103A00002E2E2E202020202000000000001040013B
:103A1000F000011B185DD513D513D513D513D5139D
:103A2000D513D513D513D513D513D513D513D51356
:103A3000D513D513D513D513D513D513D513D51346
:103A4000D513D513D513D513D513D513D513D51336
:103A5000D513D513D513D513D513D513D513D51326
:103A6000D513D513D513D513D513D513D513D51316
:103A7000D513D513D513D513D513FDCEFFFFFFFFF7
:103A80007EDF1624D513D513D513D513D513D5132F
:103A9000D513D513D513D513D513D513D513D513E6
:103AA000D513D513D513D513D513D513D513D513D6
:103AB000D513D513D513D513D513D513D513D513C6
:103AC000D513D513D513D513D513D513D513D513B6
:103AD000D513D513D513D513D513D513D513D513A6
:103AE000D513D513D513D513D513D513D513D51396
:103AF000D513D513D513D513D513D513D513D51386
:103B0000D513D513D513D513D513D513D513D51375
:103B1000D513D513D513D513D513D513D513D51365
:103B2000D513D513D513D513D513D513D513D51355
:103B3000D513D513D513D513D513D513D513D51345
:103B4000D513D513D513D513D513D513D513D51335
:103B5000D513D513D513D513D513D513D513D51325
:103B6000D513D513D513D513D513D513D513D51315
:103B7000D513D513D513D513D513D513D513D51305
:103B8000D513D513D513D513D513D513D513D513F5
:103B9000D513D513D513D513D513D513D513D513E5
:103BA000D513D513D513D513D513D513D513D513D5
:103BB000D513D513D513D513D513D513D513D513C5
:103BC000D513D513D513D513D51316247EE7FFFFD0
:103BD000FFFFFFFFFFFFFFFFFFFFFFFFFFFFFFFFF5
:103BE000FFFFFFFFFFFFFFFFFFFFFFFFFFFFFFFFE5
:103BF000FFFFFFFFFFFFFFFFFFFFFFFFFFFFFFFFD5
:103C0000FFFFFFFFFFFFFFFFFFFFFFFFFFFFFFFFC4
:103C1000FFFFFFFFFFFFFFFFFFFFFFFFFFFFFFFFB4
:103C2000FFFFFFFFFFFFFFFFFFFFFFFFFFFFFFFFA4
:103C3000FFFFFFFFFFFFFFFF7EE7596DD51BD51389
:103C4000D513BA85FFFFFFFF3ED7362CD513F854A6
:103C5000BCB6FFFFFFFFFFFF9744D513D8545BA608
:103C6000FFFFFFFFFFFF9744D513D854FB95FFFFDD
:103C7000FFFFFFFFFFFFFFFFFFFFFFFFFFFFFFFF54
:103C8000FFFFFFFFFFFFFFFFFFFFFFFFFFFFFFFF44
:103C9000FFFFFFFFD513D513D513D513D513D513B8
:103CA000D513D513D513D513D513D513D513D513D4
:103CB000D513D513D513D513D513D513D513D513C4
:103CC000D513D513D513D513D513D513D513D513B4
:103CD000D513D513D513D513D513D513D513D513A4
:103CE000D513D513D513D513D513D513D513D51394
:103CF000D513D513D513D513D513DA85FFFFFFFFE1
:103D0000FA8DD513D513D513D513D513D513D513D4
:103D1000D513D513D513D513D513D513D513D51363
:103D2000D513D513D513D513D513D513D513D51353
:103D3000D513D513D513D513D513D513D513D51343
:103D4000D513D513D513D513D513D513D513D51333
:103D5000D513D513D513D513D513D513D513D51323
:103D6000D513D513D513D513D513D513D513D51313
:103D7000D513D513D513D513D513D513D513D51303
:103D8000D513D513D513D513D513D513D513D513F3
:103D9000D513D513D513D513D513D513D513D513E3
:103DA000D513D513D513D513D513D513D513D513D3
:103DB000D513D513D513D513D513D513D513D513C3
:103DC000D513D513D513D513D513D513D513D513B3
:103DD000D513D513D513D513D513D513D513D513A3
:103DE000D513D513D513D513D513D513D513D51393
:103DF000D513D513D513D513D513D513D513D51383
:103E0000D513D513D513D513D513D513D513D51372
:103E1000D513D513D513D513D513D513D513D51362
:103E2000D513D513D513D513D513D513D513D51352
:103E3000D513D513D513D513D513D513D513D51342
:103E4000D513D513D513D513D513D5131B96FFFF53
:103E5000FFFFFFFFFFFFFFFFFFFFFFFFFFFFFFFF72
:103E6000FFFFFFFFFFFFFFFFFFFFFFFFFFFFFFFF62
:103E7000FFFFFFFFFFFFFFFFFFFFFFFFFFFFFFFF52
:103E8000FFFFFFFFFFFFFFFFFFFFFFFFFFFFFFFF42
:103E9000FFFFFFFFFFFFFFFFFFFFFFFFFFFFFFFF32
:103EA000FFFFFFFFFFFFFFFFFFFFFFFFFFFFFFFF22
:103EB000FFFFFFFFFFFFBA85D513D513D513D51329
:103EC000D513D513DCBEFFFF9CB6D513D513D51380
:103ED000D513F854FFFFFFFFD513D513D513D51312
:103EE000B84C7EE7FFFFD513D513D513D513773C18
:103EF0009EE7FFFFFFFFFFFFFFFFFFFFFFFFFFFF4B
:103F0000FFFFFFFFFFFFFFFFFFFFFFFFFFFFFFFFC1
:103F1000FFFFFFFFD513D513D513D513D513D51335
:103F2000D513D513D513D513D513D513D513D51351
:103F3000D513D513D513D513D513D513D513D51341
:103F4000D513D513D513D513D513D513D513D51331
:103F5000D513D513D513D513D513D513D513D51321
:103F6000D513D513D513D513D513D513D513D51311
:103F7000D513D513D513D513D513BA7DFFFFFFFF86
:103F8000FA8DD513D513D513D513D513D513D51352
:103F9000D513D513D513D513D513D513D513D513E1
:103FA000D513D513D513D513D513D513D513D513D1
:103FB000D513D513D513D513D513D513D513D513C1
:103FC000D513D513D513D513D513D513D513D513B1
:103FD000D513D513D513D513D513D513D513D513A1
:103FE000D513D513D513D513D513D513D513D51391
:103FF000D513D513D513D513D513D513D513D51381
:10400000D513D513D513D513D513D513D513D51370
:10401000D513D513D513D513D513D513D513D51360
:10402000D513D513D513D513D513D513D513D51350
:10403000D513D513D513D513D513D513D513D51340
:10404000D513D513D513D513D513D513D513D51330
:10405000D513D513D513D513D513D513D513D51320
:10406000D513D513D513D513D513D513D513D51310
:10407000D513D513D513D513D513D513D513D51300
:10408000D513D513D513D513D513D513D513D513F0
:10409000D513D513D513D513D513D513D513D513E0
:1040A000D513D513D513D513D513D513D513D513D0
:1040B000D513D513D513D513D513D513D513D513C0
:1040C000D513D513D513D513D513D5131B96FFFFD1
:1040D000FFFFFFFFFFFFFFFFFFFFFFFFFFFFFFFFF0
:1040E000FFFFFFFFFFFFFFFFFFFFFFFFFFFFFFFFE0
:1040F000FFFFFFFFFFFFFFFFFFFFFFFFFFFFFFFFD0
:10410000FFFFFFFFFFFFFFFFFFFFFFFFFFFFFFFFBF
:10411000FFFFFFFFFFFFFFFFFFFFFFFFFFFFFFFFAF
:10412000FFFFFFFFFFFFFFFFFFFFFFFFFFFFFFFF9F
:10413000FFFFBFEFB84CD513D513D513D513D51347
:10414000D513D513BA7DFFFFFFFFDA85F61BD51314
:10415000D513D513F854FFFF1B96F623D513D513AB
:10416000D513773CFFFF3B9E5734D513D513D5139A
:104170005734FFFFFFFFFFFFFFFFFFFFFFFFFFFFC2
:10418000FFFFFFFFFFFFFFFFFFFFFFFFFFFFFFFF3F
:10419000FFFFFFFFD513D513D513D513D5137CAE71
:1041A000FFFFFFFFFFFFFFFFFFFFFFFFFFFFFFFF1F
:1041B000FFFFFFFFFFFFFFFFFFFFFFFFFFFFFFFF0F
:1041C0009EE7D854D513D513D513D513D513D513CE
:1041D000D513D513D513D513D513D513D513D5139F
:1041E000D513D513D513D513D513D513D513D5138F
:1041F000D513D513D513D513D513BA7DFFFFFFFF04
:10420000FA8DD513D513D513D513D513D513D513CF
:10421000D513D513D513D513D513D513D513D5135E
:10422000D513D513D513D513D513D513D513D5134E
:10423000D513D513D513D513D513D513D513D5133E
:10424000D513D513D513D513D513D513D513D5132E
:10425000D513D513D513D513D513D513D513D5131E
:10426000D513D513D513D513D513D513D513D5130E
:10427000D513D513D513D513D513D513D513D513FE
:10428000D513D513D513D513D513D513D513D513EE
:10429000D513D513D513D513D513D513D513D513DE
:1042A000D513D513D513D513D513D513D513D513CE
:1042B000D513D513D513D513D513D513D513D513BE
:1042C000D513D513D513D513D513D513D513D513AE
:1042D000D513D513D513D513D513D513D513D5139E
:1042E000D513D513D513D513D513D513D513D5138E
:1042F000D513D513D513D513D513D513D513D5137E
:10430000D513D513D513D513D513D513D513D5136D
:10431000D513D513D513D513D513D513D513D5135D
:10432000D513D513D513D513D513D513D513D5134D
:10433000D513D513D513D513D513D513D513D5133D
:10434000D513D513D513D513D513D5131B96FFFF4E
:10435000FFFFFFFFFFFFFFFFFFFFFFFFFFFFFFFF6D
:10436000FFFFFFFFFFFFFFFFFFFFFFFFFFFFFFFF5D
:10437000FFFFFFFFFFFFFFFFFFFFFFFFFFFFFFFF4D
:10438000FFFFFFFFFFFFFFFFFFFFFFFFFFFFFFFF3D
:10439000FFFFFFFFFFFFFFFFFFFFFFFFFFFFFFFF2D
:1043A000FFFFFFFFFFFFFFFFFFFFFFFFFFFFFFFF1D
:1043B0003DD71624D513D513D513D513D513D5133F
:1043C000D513D513596DFFFFFFFFFFFF9EEFD84CAC
:1043D000D513D513D5137CAEFFFFFFFF185DD513A2
:1043E000D513D5139A7DFFFFFFFFF85CD513D513C6
:1043F000D5133965FFFFFFFFFFFFFFFFFFFFFFFF43
:10440000FFFFFFFFFFFFFFFFFFFFFFFFFFFFFFFFBC
:10441000FFFFFFFFD513D513D513D5139A7DFFFFEB
:10442000FFFFFFFFFFFFFFFFFFFFFFFFFFFFFFFF9C
:10443000FFFFFFFFFFFFFFFFFFFFFFFFFFFFFFFF8C
:10444000FFFFDFF7D513D513D513D513D513D51328
:10445000D513D513D513D513D513D513D513D5131C
:10446000D513D513D513D513D513D513D513D5130C
:10447000D513D513D513D513D513BA7DFFFFFFFF81
:10448000FA8DD513D513D513D513D513D513D5134D
:10449000D513D513D513D513D513D513D513D513DC
:1044A000D513D513D513D513D513D513D513D513CC
:1044B000D513D513D513D513D513D513D513D513BC
:1044C000D513D513D513D513D513D513D513D513AC
:1044D000D513D513D513D513D513D513D513D5139C
:1044E000D513D513D513D513D513D513D513D5138C
:1044F000D513D513D513D513D513D513D513D5137C
:10450000D513D513D513D513D513D513D513D5136B
:10451000D513D513D513D513D513D513D513D5135B
:10452000D513D513D513D513D513D513D513D5134B
:10453000D513D513D513D513D513D513D513D5133B
:10454000D513D513D513D513D513D513D513D5132B
:10455000D513D513D513D513D513D513D513D5131B
:10456000D513D513D513D513D513D513D513D5130B
:10457000D513D513D513D513D513D513D513D513FB
:10458000D513D513D513D513D513D513D513D513EB
:10459000D513D513D513D513D513D513D513D513DB
:1045A000D513D513D513D513D513D513D513D513CB
:1045B000D513D513D513D513D513D513D513D513BB
:1045C000D513D513D513D513D513D5131B96FFFFCC
:1045D000FFFFFFFFFFFFFFFFFFFFFFFFFFFFFFFFEB
:1045E000FFFFFFFFFFFFFFFFFFFFFFFFFFFFFFFFDB
:1045F000FFFFFFFFFFFFFFFFFFFFFFFFFFFFFFFFCB
:10460000FFFFFFFFFFFFFFFFFFFFFFFFFFFFFFFFBA
:10461000FFFFFFFFFFFFFFFFFFFFFFFFFFFFFFFFAA
:10462000FFFFFFFFFFFFFFFFFFFFFFFFFFFFFDC6D5
:10463000D513D513D513D513D513D513D513D5133A
:10464000D513D513B744FFFFFFFFFFFFFFFF9EE722
:10465000D513D513D513773CFFFFFFFFFFFF57346A
:10466000D513D513D51BDFF7FFFFFFFF773CD5131D
:10467000D513D513DFF7FFFFFFFFFFFFFFFFFFFF9E
:10468000FFFFFFFFFFFFFFFFFFFFFFFFFFFFFFFF3A
:10469000FFFFFFFFD513D513D513D513FA8DFFFFF9
:1046A000FFFFFA8DFA8DFA8DFA8DFA8DFA8DFA8D5B
:1046B000FA8DFA8DFA8DFA8DFA8DFA8DFA8DFDC686
:1046C000FFFFFFFFD61BD513D513D513D513D51375
:1046D000D513D513D513D513D513D513D513D5139A
:1046E000D513D513D513D513D513D513D513D5138A
:1046F000D513D513D513D513D513BA7DFFFFFFFFFF
:10470000FA8DD513D513D513D513D513D513D513CA
:10471000D513D513D513D513D513D513D513D51359
:10472000D513D513D513D513D513D513D513D51349
:10473000D513D513D513D513D513D513D513D51339
:10474000D513D513D513D513D513D513D513D51329
:10475000D513D513D513D513D513D513D513D51319
:10476000D513D513D513D513D513D513D513D51309
:10477000D513D513D513D513D513D513D513D513F9
:10478000D513D513D513D513D513D513D513D513E9
:10479000D513D513D513D513D513D513D513D513D9
:1047A000D513D513D513D513D513D513D513D513C9
:1047B000D513D513D513D513D513D513D513D513B9
:1047C000D513D513D513D513D513D513D513D513A9
:1047D000D513D513D513D513D513D513D513D51399
:1047E000D513D513D513D513D513D513D513D51389
:1047F000D513D513D513D513D513D513D513D51379
:10480000D513D513D513D513D513D513D513D51368
:10481000D513D513D513D513D513D513D513D51358
:10482000D513D513D513D513D513D513D513D51348
:10483000D513D513D513D513D513D513D513D51338
:10484000D513D513D513D513D513D5131B96FFFF49
:10485000FFFFFFFFFFFFFFFFFFFFFFFFFFFFFFFF68
:10486000FFFFFFFFFFFFFFFFFFFFFFFFFFFFFFFF58
:10487000FFFFFFFFFFFFFFFFFFFFFFFFFFFFFFFF48
:10488000FFFFFFFFFFFFFFFFFFFFFFFFFFFFFFFF38
:10489000FFFFFFFFFFFFFFFFFFFFFFFFFFFFFFFF28
:1048A000FFFFFFFFFFFFFFFFFFFFFFFF9CAED513E2
:1048B000D513D513D513D513D513D513D513D513B8
:1048C000D513D5131624FFFFFFFFFFFFFFFFFFFFE8
:1048D0009975D513D513D513BFEFFFFFFFFFDA8D01
:1048E000D513D513D513BCBEFFFFFFFF7CA6D51390
:1048F000D513D5131B96FFFFFFFFFFFFFFFFFFFF41
:10490000FFFFFFFFFFFFFFFFFFFFFFFFFFFFFFFFB7
:10491000FFFFFFFFD513D513D513D513FA8DFFFF76
:10492000FFFFD513D513D513D513D513D513D51331
:10493000D513D513D513D513D513D513D513FA8D98
:10494000FFFFFFFFD61BD513D513D513D513D513F2
:10495000D513D513D513D513D513D513D513D51317
:10496000D513D513D513D513D513D513D513D51307
:10497000D513D513D513D513D513BA7DFFFFFFFF7C
:10498000FA8DD513D513D513D513D513D513D51348
:10499000D513D513D513D513D513D513D513D513D7
:1049A000D513D513D513D513D513D513D513D513C7
:1049B000D513D513D513D513D513D513D513D513B7
:1049C000D513D513D513D513D513D513D513D513A7
:1049D000D513D513D513D513D513D513D513D51397
:1049E000D513D513D513D513D513D513D513D51387
:1049F000D513D513D513D513D513D513D513D51377
:104A0000D513D513D513D513D513D513D513D51366
:104A1000D513D513D513D513D513D513D513D51356
:104A2000D513D513D513D513D513D513D513D51346
:104A3000D513D513D513D513D513D513D513D51336
:104A4000D513D513D513D513D513D513D513D51326
:104A5000D513D513D513D513D513D513D513D51316
:104A6000D513D513D513D513D513D513D513D51306
:104A7000D513D513D513D513D513D513D513D513F6
:104A8000D513D513D513D513D513D513D513D513E6
:104A9000D513D513D513D513D513D513D513D513D6
:104AA000D513D513D513D513D513D513D513D513C6
:104AB000D513D513D513D513D513D513D513D513B6
:104AC000D513D513D513D513D513D5131B96FFFFC7
:104AD000FFFFFFFFFFFFFFFFFFFFFFFFFFFFFFFFE6
:104AE000FFFFFFFFFFFFFFFFFFFFFFFFFFFFFFFFD6
:104AF000FFFFFFFFFFFFFFFFFFFFFFFFFFFFFFFFC6
:104B0000FFFFFFFFFFFFFFFFFFFFFFFFFFFFFFFFB5
:104B1000FFFFFFFFFFFFFFFFFFFFFFFFFFFFFFFFA5
:104B2000FFFFFFFFFFFFFFFFFFFF1B96D513D5130E
:104B3000D513D513D513D513D513D513D513D51335
:104B4000D513D5131624FFFFFFFFFFFFFFFFFFFF65
:104B5000DA8DD513D513D5133B9EFFFFFFFFFDC69E
:104B6000D513D513D513DA8DFFFFFFFF7EE7D513DD
:104B7000D513D513DA8DFFFFFFFFFFFFFFFFFFFF08
:104B8000FFFFFFFFFFFFFFFFFFFFFFFFFFFFFFFF35
:104B9000FFFFFFFFD513D513D513D513FA8DFFFFF4
:104BA000FFFFD513D513D513D513D513D513D513AF
:104BB000D513D513D513D513D513D513D513FA8D16
:104BC000FFFFFFFFD61BD513D513D513D513D51370
:104BD000D513D513D513D513D513D513D513D51395
:104BE000D513D513D513D513D513D513D513D51385
:104BF000D513D513D513D513D513BA7DFFFFFFFFFA
:104C0000FA8DD513D513D513D513D513D513D513C5
:104C1000D513D513D513D513D513D513D513D51354
:104C2000D513D513D513D513D513D513D513D51344
:104C3000D513D513D513D513D513D513D513D51334
:104C4000D513D513D513D513D513D513D513D51324
:104C5000D513D513D513D513D513D513D513D51314
:104C6000D513D513D513D513D513D513D513D51304
:104C7000D513D513D513D513D513D513D513D513F4
:104C8000D513D513D513D513D513D513D513D513E4
:104C9000D513D513D513D513D513D513D513D513D4
:104CA000D513D513D513D513D513D513D513D513C4
:104CB000D513D513D513D513D513D513D513D513B4
:104CC000D513D513D513D513D513D513D513D513A4
:104CD000D513D513D513D513D513D513D513D51394
:104CE000D513D513D513D513D513D513D513D51384
:104CF000D513D513D513D513D513D513D513D51374
:104D0000D513D513D513D513D513D513D513D51363
:104D1000D513D513D513D513D513D513D513D51353
:104D2000D513D513D513D513D513D513D513D51343
:104D3000D513D513D513D513D513D513D513D51333
:104D4000D513D513D513D513D513D5131B96FFFF44
:104D5000FFFFFFFFFFFFFFFFFFFFFFFFFFFFFFFF63
:104D6000FFFFFFFFFFFFFFFFFFFFFFFFFFFFFFFF53
:104D7000FFFFFFFFFFFFFFFFFFFFFFFFFFFFFFFF43
:104D8000FFFFFFFFFFFFFFFFFFFFFFFFFFFFFFFF33
:104D9000FFFFFFFFFFFFFFFFFFFFFFFFFFFFFFFF23
:104DA000FFFFFFFFFFFFFFFF7975D513D513D51365
:104DB000D513D513D513D513D513D513D513D513B3
:104DC000D513D5131624FFFFFFFFFFFFFFFFFFFFE3
:104DD000DA8DD513D513D5133B9EFFFFFFFFFDC61C
:104DE000D513D513D513DA8DFFFFFFFF7EE7D5135B
:104DF000D513D513DA85FFFFFFFFFFFFFFFFFFFF8E
:104E0000FFFFFFFFFFFFFFFFFFFFFFFFFFFFFFFFB2
:104E1000FFFFFFFFD513D513D513D513FA8DFFFF71
:104E2000FFFFD513D513D513D513D513D513D5132C
:104E3000D513D513D513D513D513D513D513FA8D93
:104E4000FFFFFFFFD61BD513D513D513D513D513ED
:104E5000D513D513D513D513D513D513D513D51312
:104E6000D513D513D513D513D513D513D513D51302
:104E7000D513D513D513D513D513BA7DFFFFFFFF77
:104E8000FA8DD513D513D513D513D513D513596D65
:104E9000FDC6D513D513596DFDC6D513D513D5133E
:104EA0001B96FDC61624D513D513D513D513773C01
:104EB0001B96BCB6B84CD513D513D513D5133B9E52
:104EC000FDC6FDC6FDC6596DD513D513FB8DFDC6B8
:104ED000FDC6FDC6FDC6D513D513BCB6FDC6FDC6C1
:104EE000FDC6BA7DD513D513D5139A7DFDC6D84C12
:104EF000D513D513D513D513D513773CFDC6FDC6F1
:104F0000FDC6FDC6FDC63965D513DA8DFDC6FDC6E5
:104F1000FDC69A7DD513D51316243B9E7EE77EE70A
:104F20001B96D513D513D5133B9EFDC6FDC6FDC6F6
:104F3000596DD513FA8D5734D513D513FDC6185DA9
:104F4000596DFDC6FDC6FDC6FDC6BCB6D513BCB6C3
:104F5000185DD513D513BA7D1B96D5135734DA8552
:104F60009A75FDC67CA6D84CD513D513B7443B9E85
:104F70003ED7DA8D773CD513D513DDC6FDC6FDC609
:104F8000FDC67975D513D513D513B84CFDC6DA8592
:104F9000D513D513D513FDC6596DD513D5139A75F1
:104FA000FDC6D513596DDDBED513D513773CFDC6AF
:104FB000596DD513D61B1B96FDC6FDC6FDC69A7D41
:104FC000D513D513D513D513D513D5131B96FFFFC2
:104FD000FFFFFFFFFFFFFFFFFFFFFFFFFFFFFFFFE1
:104FE000FFFFFFFFFFFFFFFFFFFFFFFFFFFFFFFFD1
:104FF000FFFFFFFFFFFFFFFFFFFFFFFFFFFFFFFFC1
:10500000FFFFFFFFFFFFFFFFFFFFFFFFFFFFFFFFB0
:10501000FFFFFFFFFFFFFFFFFFFFFFFFFFFFFFFFA0
:10502000FFFFFFFFFFFFD854D513D513D513D513BA
:10503000D513D513D513D513D513D513D513D51330
:10504000D513D5131624FFFFFFFFFFFFFFFFFFFF60
:10505000BA7DD513D513D513BCB6FFFFFFFFDA8D8C
:10506000D513D513D513DA8DFFFFFFFF7CA6D5131B
:10507000D513D513DA8DFFFFFFFFFFFFFFFFFFFF03
:10508000FFFFFFFFFFFFFFFFFFFFFFFFFFFFFFFF30
:10509000FFFFFFFFD513D513D513D513FA8DFFFFEF
:1050A000FFFFD513D513D513D513D513D513D513AA
:1050B000D513D513D513D513D513D513D513FA8D11
:1050C000FFFFFFFFD61BD513362C1DCFFFFFBFF709
:1050D000B84CD513D513D84CBFF7FFFF5EDF1624AD
:1050E000D513D513D513D513D513D513D513D51380
:1050F000D513D513D513D513D513BA7DFFFFFFFFF5
:10510000FA8DD513D513D513D513D513D513FA8D21
:10511000FFFFD513D5131B96DDBED513D513F61B94
:10512000FFFFBFEFDA85D513D513D513BCB6DFFF6C
:10513000BFEFFFFFBFEF9FEF9744D513BA85FFFF87
:10514000FA8DFA8DFA8DD854D513D5139EEFFDC67E
:10515000FA8DFDC6FFFFD513D513FFFFFDC6FA8DEF
:10516000BCB6FFFF596DD513D513DFF7DFF73B9EB4
:10517000D513D513D513D513D5131965FFFFFA8DA4
:10518000FA8DFA8DFFFFFA8DD5133B9EFDC6FA8D81
:105190005BA6FFFFDA85D513DDBEFFFFDA85FB8D49
:1051A000FFFFDA85D5139A7DFFFFFA8DFA8DFA8D10
:1051B000D854D513FFFFF854D513596DFFFFF61BD4
:1051C000D854FA8DFDC6BFF7FA8DBA85D513FFFF07
:1051D0007975D513185DFFFFFFFFD513596DFFFFDC
:1051E000FA8D796DFB95BFEFD61BB744FFFFFDC667
:1051F000BA851DCFDFF7D613D513FFFFFDC6FA8D95
:10520000DDBEFFFF9744D513D5137CA6DFF7FFFF64
:10521000D513D513D513FFFFFA8DD513D5131B96D0
:10522000FFFFD513FA8DDFF7D513D513DCBEFFFFD3
:10523000FA8DD5137CAEDFFFFB8DFA8D5EDF5BA6AA
:10524000D513D513D513D513D513D5131B96FFFF3F
:10525000FFFFFFFFFFFFFFFFFFFFFFFFFFFFFFFF5E
:10526000FFFFFFFFFFFFFFFFFFFFFFFFFFFFFFFF4E
:10527000FFFFFFFFFFFFFFFFFFFFFFFFFFFFFFFF3E
:10528000FFFFFFFFFFFFFFFFFFFFFFFFFFFFFFFF2E
:10529000FFFFFFFFFFFFFFFFFFFFFFFFFFFFFFFF1E
:1052A000FFFFDFF7B84CD513D513D513D513D5139E
:1052B0005734D513D513D513D513D513D513D5130B
:1052C000D513D5131624FFFFFFFFFFFFFFFFFFFFDE
:1052D000F623D513D513D513DFF7FFFFFFFFD854FF
:1052E000D513D513D513DDC6FFFFFFFF596DD513B9
:1052F000D513D5133B9EFFFFFFFFFFFFFFFFFFFF0F
:10530000FFFFFFFFFFFFFFFFFFFFFFFFFFFFFFFFAD
:10531000FFFFFFFFD513D513D513D513FA8DFFFF6C
:10532000FFFFD513D513D513D513D513D513D51327
:10533000D513D513D513D513D513D513D513FA8D8E
:10534000FFFFFFFFD61BD513FA8DFFFFFFFFFFFF07
:10535000DDC6D513D513DDBEFFFFFFFFFFFFDA85E6
:10536000D513D513D513D513D513D513D513D513FD
:10537000D513D513D513D513D513BA7DFFFFFFFF72
:10538000FA8DD513D513D513D513D513D513FA8D9F
:10539000FFFFD513362CDFF7BA7DD513D5139A7DD1
:1053A000DFF7FA8D3DD7D513D5139A7DFFFF57341C
:1053B000FA8D5EDFD513DDBE3DD7D513FA8DFFFF25
:1053C000D513D513D513D513D513D513FFFF797581
:1053D000D513FA8DFFFFD513D513FFFFFA8DD51323
:1053E000D513FFFFFA8DD513B744FFFF7975DFF7AB
:1053F000D513D513D513D513D5131965FFFFD513C1
:10540000D513D513FFFFFA8DD5133B9EFA8DD51317
:10541000D5133DD7FA8DD61BFFFFFA8DD513D513C3
:105420009CAEBFF7D513DA85FFFFD513D513D5137F
:10543000D513D513FFFFF854D513BCB6FDCED51345
:10544000D513D513FA8D7EE7D513D513D513FFFFEA
:105450007975D5135EDF9EE7FFFFD513596DFFFF0A
:10546000D513D5133965FFFFF61BFA8DDFF7D5137A
:10547000D5137734FFFF9A75D513FFFFFA8DD51337
:10548000B744FFFF973CD513D513BFEFBA85FFFF95
:10549000185DD513D513FFFFFA8DD513D5131B96C1
:1054A000FFFFD513FA8DDFF7D513D854DFF7FFFFD1
:1054B000FA8DD5131DCF3ED7D513D513BCBE5BA631
:1054C000D513D513D513D513D513D5131B96FFFFBD
:1054D000FFFFFFFFFFFFFFFFFFFFFFFFFFFFFFFFDC
:1054E000FFFFFFFFFFFFFFFFFFFFFFFFFFFFFFFFCC
:1054F000FFFFFFFFFFFFFFFFFFFFFFFFFFFFFFFFBC
:10550000FFFFFFFFFFFFFFFFFFFFFFFFFFFFFFFFAB
:10551000FFFFFFFFFFFFFFFFFFFFFFFFFFFFFFFF9B
:105520005EDF5734D513D513D513D513D513FA8DA4
:10553000DDC6D513D513D513D513D513D513D51370
:10554000D513D5131624FFFFFFFFFFFFFFFF7CAE2F
:10555000D513D513D513773CFFFFFFFFFDCED51331
:10556000D513D513D51BFFFFFFFF5EDFD513D51372
:10557000D513D513DFF7FFFFFFFFFFFFFFFFFFFF8F
:10558000FFFFFFFFFFFFFFFFFFFFFFFFFFFFFFFF2B
:10559000FFFFFFFFD513D513D513D513FA8DFFFFEA
:1055A000FFFFD513D513D513D513D513D513D513A5
:1055B000D513D513D513D513D513D513D513FA8D0C
:1055C000FFFFFFFFD61BD513FA8DFFFFFFFFFFFF85
:1055D000DDC6D513D5139CB6FFFFFFFFFFFF596D46
:1055E000D513D513D513D513D513D513D513D5137B
:1055F000D513D513D513D513D513BA7DFFFFFFFFF0
:10560000FA8DD513D513D513D513D513D513FA8D1C
:10561000FFFFFFFFFFFFDFF7F61BD513D513BCB667
:105620001B96973CFFFF5734D5139CB69CB6D513F9
:10563000FA8D5EDFD5139A7DFFFFD513FA8DFFFF3C
:10564000FFFFFFFFFFFFD513D513362CFFFFD84C0C
:10565000D513FA8DFFFFD513D513FFFFDDBE9A7D5D
:105660003B9EFFFF3965D5131B96DDBED513FFFFAB
:105670003965D513D513D513D5131965FFFFD51388
:10568000D513D513FFFFFA8DD5133B9EDDBE9A7D52
:10569000FB8DFFFFBA7D973CFFFFF854D513D51360
:1056A000FA8DFFFFD5139A7DBFEFDFF79EE7BCB6FB
:1056B000F61BD513FFFFFFFFFFFFFFFFBA7DD513DA
:1056C000D513D513FA8D7EE7D513D513D513FFFF68
:1056D0007975FA8D1DCFFA8DFFFFD513596DFFFF38
:1056E0009A7DBA851DCFBFEFD5139CB63ED7D51393
:1056F000D513D513FFFFFA8DD513FFFFFFFFFFFF73
:10570000FFFF1DCFD513D513185DFFFF16249CB6E0
:105710009CB6D513D513FFFFFFFFFFFFFFFFFFFF71
:10572000FFFFD513FA8DDFF7D5135EDFBA7DFFFFDC
:10573000FA8DD513185DFFFFBCBE1B967EDF5BA6FE
:10574000D513D513D513D513D513D5131B96FFFF3A
:10575000FFFFFFFFFFFFFFFFFFFFFFFFFFFFFFFF59
:10576000FFFFFFFFFFFFFFFFFFFFFFFFFFFFFFFF49
:10577000FFFFFFFFFFFFFFFFFFFFFFFFFFFFFFFF39
:10578000FFFFFFFFFFFFFFFFFFFFFFFFFFFFFFFF29
:10579000FFFFFFFFFFFFFFFFFFFFFFFFFFFFFDCE4C
:1057A000362CD513D513D513D513D5133B9EFFFF38
:1057B000DDC6D513D513D513D513D513D513D513EE
:1057C000D513D5131624FFFFFFFFFFFFDFFF1624BD
:1057D000D513D513D5135BA6FFFFFFFFB84CD51328
:1057E000D513D5139A7DFFFFFFFFD84CD513D513E2
:1057F000D513596DFFFFFFFFFFFFFFFFFFFFFFFF07
:10580000FFFFFFFFFFFFFFFFFFFFFFFFFFFFFFFFA8
:10581000FFFFFFFFD513D513D513D513FA8DFFFF67
:10582000FFFFD513D513D513D513D513D513D51322
:10583000D513D513D513D513D513D513D513FA8D89
:10584000FFFFFFFFD61BD51316243ED7FFFFFFFF38
:10585000B84CD513D5139744BFF7FFFF3DD7D513E9
:10586000D513D513D513D513D513D513D513D513F8
:10587000D513D513D513D513D513BA7DFFFFFFFF6D
:10588000FA8DD513D513D513D513D513D513FA8D9A
:10589000FFFFD513773CBFF75CA6D5131624FFFF97
:1058A0003B9ED854FFFFFA8DD5135B9E5EDFD51368
:1058B000FA8D5EDFD513DA85FFFFD513FA8DFFFF72
:1058C000D513D513D513D513D513F854FFFFF623ED
:1058D000D513FA8DFFFFD513D513FFFF7EE7FDC665
:1058E0007CA63965D513D513BFEF7CAED8545EDFE7
:1058F0005CA6D513D513D513D5131965FFFFD513A2
:10590000D513D513FFFFFA8DD5133B9E7EE7FDC659
:105910007CA69A75D5135734FFFFF854D513D513C9
:10592000FA8DFFFFD513DA85FFFFD513D513D513F5
:10593000D513D513FFFFF854D513FDC6FFFFD513BC
:10594000D513D513FA8D7EE7D513D513D513FFFFE5
:105950003B96FFFF773CFA8DFFFFD513596DFFFF94
:10596000FDC6FDC6FA8D973CD5139CAE3ED7D51328
:10597000D513D513FFFFFA8DD513FFFFFA8DD5137D
:10598000773CFFFFFA8DD5133B9EFFFFD8547CA6D2
:10599000FFFFD513D513FFFF9CAE39653965BCBE3B
:1059A000FFFFD513FA8DDFF7FB8D3DD7D513FFFF32
:1059B000FA8DD513B84C7EE7BCB6FA8D5EDF5BA6D8
:1059C000D513D513D513D513D513D5131B96FFFFB8
:1059D000FFFFFFFFFFFFFFFFFFFFFFFFFFFFFFFFD7
:1059E000FFFFFFFFFFFFFFFFFFFFFFFFFFFFFFFFC7
:1059F000FFFFFFFFFFFFFFFFFFFFFFFFFFFFFFFFB7
:105A0000FFFFFFFFFFFFFFFFFFFFFFFFFFFFFFFFA6
:105A1000FFFFFFFFFFFFFFFFFFFFFFFFDDBED5130F
:105A2000D513D513D513D513D513DDBEFFFFFFFF57
:105A3000DDC6D513D513D513D513D513D513D5136B
:105A4000D513D5131624FFFFFFFFFFFFB744D5136F
:105A5000D513D513773CFFFFFFFF1965D513D51379
:105A6000D513F623BFEFFFFF7975D513D513D513E3
:105A7000F6237EE7FFFFFFFFFFFFFFFFFFFFFFFFB4
:105A8000FFFFFFFFFFFFFFFFFFFFFFFFFFFFFFFF26
:105A9000FFFFFFFFD513D513D513D513FA8DFFFFE5
:105AA000FFFFD513D513D513D513D513D513D513A0
:105AB000D513D513D513D513D513D513D513FA8D07
:105AC000FFFFFFFFD61BD513D513D5139744D5136E
:105AD000D513D513D513D513D5139744D513D51393
