:020000040800F2
:1000000030020020112700085D2700081127000892
:100010006527000865270008652700080000000024
:10002000000000000000000000000000652700083C
:100030006527000865270008652700086D27000868
:100040006527000865270008652700086527000860
:100050006527000865270008652700086527000850
:100060006527000865270008652700086527000840
:100070006527000865270008652700086527000830
:100080006527000865270008652700086527000820
:100090006527000865270008652700086527000810
:1000A0006527000865270008652700086527000800
:1000B00065270008652700086527000865270008F0
:1000C00065270008652700086527000865270008E0
:1000D00065270008652700086527000865270008D0
:1000E00065270008652700086527000865270008C0
:1000F00065270008652700086527000865270008B0
:10010000652700086527000865270008652700089F
:10011000652700086527000865270008652700088F
:10012000652700086527000865270008652700087F
:10013000652700086527000865270008652700086F
:10014000652700086527000865270008652700085F
:10015000652700086527000865270008652700084F
:10016000652700086527000865270008652700083F
:10017000652700086527000865270008652700082F
:10018000652700086527000880B400AF00BFBD46A2
:100190005DF8047B704700BF80B400AF30BFBD4640
:1001A0005DF8047B704700BF80B400AF20BFBD4640
:1001B0005DF8047B704700BF80B400AF40BFBD4610
:1001C0005DF8047B704700BF80B400AFBFF36F8F52
:1001D000BD465DF8047B704780B400AFBFF34F8F1E
:1001E000BD465DF8047B704780B400AFBFF35F8FFE
:1001F000BD465DF8047B704780B485B000AF786081
:100200007B681BBAFB60FB6818461437BD465DF877
:10021000047B704780B485B000AF78607B685BBAC0
:10022000FB60FB6818461437BD465DF8047B7047D9
:1002300080B485B000AF78607B68DBBAFB60FB6898
:1002400018461437BD465DF8047B704780B485B00E
:1002500000AF78607B6893FAA3F3FB60FB681846F5
:100260001437BD465DF8047B704700BF80B485B08D
:1002700000AF78607B68D3E84F3FFB73FB7B184689
:100280001437BD465DF8047B704700BF80B485B06D
:1002900000AF78607B68D3E85F3FFB81FB8918463D
:1002A0001437BD465DF8047B704700BF80B485B04D
:1002B00000AF78607B6853E8003FFB60FB6818463E
:1002C0001437BD465DF8047B704700BF80B485B02D
:1002D00000AF786039603B687A6843E80023FB60D0
:1002E000FB6818461437BD465DF8047B704700BFB5
:1002F00080B400AFBFF32F8FBD465DF8047B70471D
:1003000080B485B000AF78607B68B3FA83F3FB7389
:10031000FB7B18461437BD465DF8047B704700BF71
:1003200080B400AF62B6BD465DF8047B704700BF85
:1003300080B400AF72B6BD465DF8047B704700BF65
:1003400080B483B000AFEFF314837B607B68184602
:100350000C37BD465DF8047B704700BF80B483B0A6
:1003600000AF78607B6883F314880C37BD465DF876
:10037000047B704780B483B000AFEFF305837B60EC
:100380007B6818460C37BD465DF8047B704700BF9C
:1003900080B483B000AFEFF300837B607B681846C6
:1003A0000C37BD465DF8047B704700BF80B483B056
:1003B00000AFEFF303837B607B6818460C37BD46C4
:1003C0005DF8047B704700BF90B400AFEFF3098382
:1003D0001C4623461846BD4690BC704780B483B087
:1003E00000AF78607B6883F309880C37BD465DF801
:1003F000047B704790B400AFEFF308831C4623469C
:100400001846BD4690BC704780B483B000AF78609A
:100410007B6883F308880C37BD465DF8047B704722
:1004200080B483B000AFEFF310837B607B68184625
:100430000C37BD465DF8047B704700BF80B483B0C5
:1004400000AF78607B6883F310880C37BD465DF899
:10045000047B704780B400AF61B6BD465DF8047B95
:10046000704700BF80B400AF71B6BD465DF8047B35
:10047000704700BF80B483B000AFEFF312837B609E
:100480007B6818460C37BD465DF8047B704700BF9B
:1004900080B483B000AF78607B6883F311880C3739
:1004A000BD465DF8047B704780B483B000AFEFF3C6
:1004B00013837B607B6818460C37BD465DF8047B70
:1004C000704700BF80B483B000AF78607B6883F36F
:1004D00013880C37BD465DF8047B704780B483B049
:1004E00000AFF1EE103A7B607B6818460C37BD46D2
:1004F0005DF8047B704700BF80B483B000AF7860C4
:100500007B68E1EE103A0C37BD465DF8047B70471E
:1005100080B485B000AF786039607B683A6883FA50
:1005200002F3FB60FB6818461437BD465DF8047B98
:10053000704700BF80B485B000AF786039607B68D9
:100540003A6883FA12F3FB60FB6818461437BD461D
:100550005DF8047B704700BF80B485B000AF786061
:1005600039607B683A6883FA22F3FB60FB681846BF
:100570001437BD465DF8047B704700BF80B485B07A
:1005800000AF786039607B683A6883FA42F3FB60B9
:10059000FB6818461437BD465DF8047B704700BF02
:1005A00080B485B000AF786039607B683A6883FAC0
:1005B00052F3FB60FB6818461437BD465DF8047BB8
:1005C000704700BF80B485B000AF786039607B6849
:1005D0003A6883FA62F3FB60FB6818461437BD463D
:1005E0005DF8047B704700BF80B485B000AF7860D1
:1005F00039607B683A68C3FA02F3FB60FB6818460F
:100600001437BD465DF8047B704700BF80B485B0E9
:1006100000AF786039607B683A68C3FA12F3FB6018
:10062000FB6818461437BD465DF8047B704700BF71
:1006300080B485B000AF786039607B683A68C3FAEF
:1006400022F3FB60FB6818461437BD465DF8047B57
:10065000704700BF80B485B000AF786039607B68B8
:100660003A68C3FA42F3FB60FB6818461437BD468C
:100670005DF8047B704700BF80B485B000AF786040
:1006800039607B683A68C3FA52F3FB60FB6818462E
:100690001437BD465DF8047B704700BF80B485B059
:1006A00000AF786039607B683A68C3FA62F3FB6038
:1006B000FB6818461437BD465DF8047B704700BFE1
:1006C00080B485B000AF786039607B683A6893FA8F
:1006D00002F3FB60FB6818461437BD465DF8047BE7
:1006E000704700BF80B485B000AF786039607B6828
:1006F0003A6893FA12F3FB60FB6818461437BD465C
:100700005DF8047B704700BF80B485B000AF7860AF
:1007100039607B683A6893FA22F3FB60FB681846FD
:100720001437BD465DF8047B704700BF80B485B0C8
:1007300000AF786039607B683A6893FA42F3FB60F7
:10074000FB6818461437BD465DF8047B704700BF50
:1007500080B485B000AF786039607B683A6893FAFE
:1007600052F3FB60FB6818461437BD465DF8047B06
:10077000704700BF80B485B000AF786039607B6897
:100780003A6893FA62F3FB60FB6818461437BD467B
:100790005DF8047B704700BF80B485B000AF78601F
:1007A00039607B683A68D3FA02F3FB60FB6818464D
:1007B0001437BD465DF8047B704700BF80B485B038
:1007C00000AF786039607B683A68D3FA12F3FB6057
:1007D000FB6818461437BD465DF8047B704700BFC0
:1007E00080B485B000AF786039607B683A68D3FA2E
:1007F00022F3FB60FB6818461437BD465DF8047BA6
:10080000704700BF80B485B000AF786039607B6806
:100810003A68D3FA42F3FB60FB6818461437BD46CA
:100820005DF8047B704700BF80B485B000AF78608E
:1008300039607B683A68D3FA52F3FB60FB6818466C
:100840001437BD465DF8047B704700BF80B485B0A7
:1008500000AF786039607B683A68D3FA62F3FB6076
:10086000FB6818461437BD465DF8047B704700BF2F
:1008700080B485B000AF786039607B683A68A3FACD
:1008800002F3FB60FB6818461437BD465DF8047B35
:10089000704700BF80B485B000AF786039607B6876
:1008A0003A68A3FA12F3FB60FB6818461437BD469A
:1008B0005DF8047B704700BF80B485B000AF7860FE
:1008C00039607B683A68A3FA22F3FB60FB6818463C
:1008D0001437BD465DF8047B704700BF80B485B017
:1008E00000AF786039607B683A68A3FA42F3FB6036
:1008F000FB6818461437BD465DF8047B704700BF9F
:1009000080B485B000AF786039607B683A68A3FA3C
:1009100052F3FB60FB6818461437BD465DF8047B54
:10092000704700BF80B485B000AF786039607B68E5
:100930003A68A3FA62F3FB60FB6818461437BD46B9
:100940005DF8047B704700BF80B485B000AF78606D
:1009500039607B683A68E3FA02F3FB60FB6818468B
:100960001437BD465DF8047B704700BF80B485B086
:1009700000AF786039607B683A68E3FA12F3FB6095
:10098000FB6818461437BD465DF8047B704700BF0E
:1009900080B485B000AF786039607B683A68E3FA6C
:1009A00022F3FB60FB6818461437BD465DF8047BF4
:1009B000704700BF80B485B000AF786039607B6855
:1009C0003A68E3FA42F3FB60FB6818461437BD4609
:1009D0005DF8047B704700BF80B485B000AF7860DD
:1009E00039607B683A68E3FA52F3FB60FB681846AB
:1009F0001437BD465DF8047B704700BF80B485B0F6
:100A000000AF786039607B683A68E3FA62F3FB60B4
:100A1000FB6818461437BD465DF8047B704700BF7D
:100A200080B485B000AF786039607B683A6873FB4A
:100A300002F3FB60FB6818461437BD465DF8047B83
:100A4000704700BF80B487B000AFF860B9607A60CB
:100A5000FB68BA68796873FB02137B617B6918468F
:100A60001C37BD465DF8047B704700BF80B485B07D
:100A700000AF78607B683FFA83F3FB60FB68184641
:100A80001437BD465DF8047B704700BF80B485B065
:100A900000AF786039607B683A6833FA82F3FB60B4
:100AA000FB6818461437BD465DF8047B704700BFED
:100AB00080B485B000AF78607B682FFA83F3FB6069
:100AC000FB6818461437BD465DF8047B704700BFCD
:100AD00080B485B000AF786039607B683A6823FAEB
:100AE00082F3FB60FB6818461437BD465DF8047B53
:100AF000704700BF80B485B000AF786039607B6814
:100B00003A6823FB02F3FB60FB6818461437BD46C6
:100B10005DF8047B704700BF80B485B000AF78609B
:100B200039607B683A6823FB12F3FB60FB68184668
:100B30001437BD465DF8047B704700BF80B487B0B2
:100B400000AFF860B9607A60FB68BA68796823FB27
:100B500002137B617B6918461C37BD465DF8047B38
:100B6000704700BF80B487B000AFF860B9607A60AA
:100B7000FB68BA68796823FB12137B617B691846AE
:100B80001C37BD465DF8047B704700BF80B485B05C
:100B900000AF786039607B683A6843FB02F3FB6022
:100BA000FB6818461437BD465DF8047B704700BFEC
:100BB00080B485B000AF786039607B683A6843FBE9
:100BC00012F3FB60FB6818461437BD465DF8047BE2
:100BD000704700BF80B487B000AFF860B9607A603A
:100BE000FB68BA68796843FB02137B617B6918462E
:100BF0001C37BD465DF8047B704700BF80B487B0EA
:100C000000AFF860B9607A60FB68BA68796843FB46
:100C100012137B617B6918461C37BD465DF8047B67
:100C2000704700BF80B485B000AF786039607B68E2
:100C30003A68A3FA82F3FB60FB6818461437BD4696
:100C40005DF8047B704700BF80B485B000AF78606A
:100C500039607B683A6882FA83F3FB60FB68184668
:100C60001437BD465DF8047B704700BF80B485B083
:100C700000AF786039607B683A6882FAA3F3FB6062
:100C8000FB6818461437BD465DF8047B704700BF0B
:100C900080B485B000AF78607B6803F00703FB6029
:100CA0000C4BDB68BB60BA684FF6FF031340BB60B8
:100CB000FB681A02BB68134343F0BF6343F400337D
:100CC000BB60044ABB68D3601437BD465DF8047B43
:100CD000704700BF00ED00E080B400AF044BDB685C
:100CE00003F4E0631B0A1846BD465DF8047B7047B9
:100CF00000ED00E080B483B000AF0346FB7108490B
:100D000097F907305B09FA7902F01F02012000FA17
:100D100002F241F823200C37BD465DF8047B704792
:100D200000E100E080B483B000AF0346FB710949E5
:100D300097F907305B09FA7902F01F02012000FAE7
:100D400002F2203341F823200C37BD465DF8047BC6
:100D5000704700BF00E100E080B483B000AF0346FD
:100D6000FB710C4A97F907305B09403352F8233086
:100D7000FA7902F01F02012101FA02F21340002B5E
:100D800001D0012300E0002318460C37BD465DF872
:100D9000047B704700E100E080B483B000AF0346FD
:100DA000FB71094997F907305B09FA7902F01F02D4
:100DB000012000FA02F2403341F823200C37BD46EF
:100DC0005DF8047B704700BF00E100E080B483B0B1
:100DD00000AF0346FB71094997F907305B09FA79BF
:100DE00002F01F02012000FA02F2603341F82320D2
:100DF0000C37BD465DF8047B704700BF00E100E0A2
:100E000080B483B000AF0346FB710C4A97F90730FA
:100E10005B09803352F82330FA7902F01F02012176
:100E200001FA02F21340002B01D0012300E000235D
:100E300018460C37BD465DF8047B704700E100E0C2
:100E400080B483B000AF03463960FB7197F9073077
:100E5000002B0BDA0D49FB7903F00F03043B3A68D2
:100E6000D2B21201D2B20B441A7609E0084997F9BE
:100E700007303A68D2B21201D2B20B4483F8002391
:100E80000C37BD465DF8047B704700BF00ED00E005
:100E900000E100E080B483B000AF0346FB7197F936
:100EA0000730002B0ADA0D4AFB7903F00F03043BED
:100EB00013441B7EDBB21B09DBB208E0084A97F93A
:100EC0000730134493F80033DBB21B09DBB218463A
:100ED0000C37BD465DF8047B704700BF00ED00E0B5
:100EE00000E100E080B489B000AFF860B9607A60DA
:100EF000FB6803F00703FB61FB69C3F10703042BE5
:100F000028BF0423BB61FB690433062B02D9FB69AC
:100F1000033B00E000237B61BB69012202FA03F37B
:100F2000013B1A46BB681A407B699A407B690121E4
:100F300001FA03F3013B19467B680B401343184643
:100F40002437BD465DF8047B704700BF80B489B08C
:100F500000AFF860B9607A603B60BB6803F00703DC
:100F6000FB61FB69C3F10703042B28BF0423BB61AA
:100F7000FB690433062B02D9FB69033B00E0002325
:100F80007B617B69FA6822FA03F3BA69012101FAED
:100F900002F2013A1A407B681A607B69012202FA68
:100FA00003F3013B1A46FB681A403B681A6024377A
:100FB000BD465DF8047B704780B500AFFFF70CF9C4
:100FC0000549054BDB6803F4E062044B1343CB6037
:100FD000FFF702F9FEE700BF00ED00E00400FA05AC
:100FE00080B582B000AF78607B68B3F1807F01D3B9
:100FF000012311E00A4A7B6823F07F43013B5360E1
:101000004FF0FF300F21FFF71BFF054B00229A60C6
:10101000034B07221A60002318460837BD4680BDDF
:1010200010E000E080B483B000AF7860134BDB6861
:1010300003F08073002B1AD04FF06043D3F8803E4A
:1010400003F00103002B12D04FF06043D3F8003EB1
:1010500003F00103002B0AD000BF4FF060431B6870
:10106000002BFAD04FF060437A68D2B21A707B68D6
:1010700018460C37BD465DF8047B7047F0ED00E084
:1010800080B483B000AF4FF0FF337B60084B1B6828
:10109000084A934205D0064B1B687B60044B054A07
:1010A0001A607B6818460C37BD465DF8047B7047B4
:1010B00044040020A55AA55A80B400AF064B1B6813
:1010C000064A934201D1002300E001231846BD46A1
:1010D0005DF8047B704700BF44040020A55AA55A60
:1010E0002DE9B0438AB000AFC7E9000137A3D3E9C7
:1010F0000023C7E902234FF00002334BC7E908235E
:101100004FF00002304BC7E9062300237B617B6967
:101110005B000133184609F0F7FC02460B46D7E99D
:10112000000109F091FE02460B46904683F000490B
:101130007B6901335B00184609F0E6FC02460B466A
:10114000D7E9000109F080FE02460B4640464946B9
:1011500009F050FD02460B46D7E9060109F04AFDA9
:1011600002460B46C7E90623D7E90801D7E906235B
:1011700009F08EFB02460B46C7E908237B69013361
:101180007B61D7E906014FF000024FF0000309F040
:10119000C1FF0346002B02D0D7E9064503E0BC6936
:1011A000FB6983F0004520462946D7E9022309F070
:1011B000A7FF0346002BAAD1D7E9082310461946FA
:1011C0002837BD46BDE8B0830000F03FFCA9F1D24E
:1011D0004D62503FB0B586B002AFAB4803F0C2FDE0
:1011E000A94B5B68A94AA2FB03239B091846FFF79A
:1011F000F7FE08F017F94FF61F00002108F068FA13
:1012000008F0D2FA0020A24908F004FC08F0CCFA59
:101210000346DB8818469E4908F0FCFB08F0C4FA38
:101220000346DB885B009BB21846994908F0F2FB45
:1012300008F0BAFA0346DB881A46520013449BB200
:101240001846944908F0E6FB08F0AEFA0346DB883E
:101250009B009BB21846904908F0DCFB08F0A4FA0A
:101260000346DB881A46920013449BB218468B490A
:1012700008F0D0FB08F098FA0346DB881A465200C3
:1012800013445B009BB21846814908F0C3FB08F089
:101290008BFA0346DB881A46D200D31A9BB2184653
:1012A0007B4908F0B7FB08F07FFA0346DB88DB00D8
:1012B0009BB21846764908F0ADFB08F075FA034674
:1012C000DB881A46D20013449BB21846704908F0D6
:1012D000A1FB0023BB817FE0BB89184609F014FC09
:1012E00002460B46104619464FF000026C4B09F0BF
:1012F000ABFD02460B46104619464FF00002694B03
:1013000009F0C6FA02460B46C7E90023D7E90001F7
:10131000D7E9002309F06EFC02460B46C7E900231B
:10132000D7E90001D7E9002309F064FC02460B4627
:10133000C7E90023BB8907EE903AF8EEE77A9FED04
:101340005A7A67EE877A17EE900A09F0FFFB024699
:101350000B46D7E9000109F04DFC02460B46C7E9F0
:1013600000230AE0D7E9000143A3D3E9002309F0F1
:101370008DFA02460B46C7E90023D7E900013EA3D8
:10138000D3E9002309F0C6FE0346002BEAD1BC894D
:10139000D7E90001FFF7A4FE02460B4610461946A6
:1013A0004FF000023F4B09F073FA02460B4610461D
:1013B000194633A3D3E9002309F01CFC02460B466F
:1013C0001046194609F0B0FE03469AB2374B23F88F
:1013D0001420BB890133BB81BB89B3F5805FFFF467
:1013E0007BAF3348334900F09BF80023BB818DE08D
:1013F0000023FB810CE0FB89F989BA890A442B4957
:1014000031F812102C4A22F81310FB890133FB81AA
:10141000FB89FF2BEFD94FF4784008F08BF90023BC
:10142000FB811EE0FB89203398B2FB89224A32F807
:101430001330DB089BB2C3F1710399B2FB892033EF
:101440009CB2FB8901331C4A32F81330DB089BB293
:10145000C3F171039BB2224608F024FEFB890133DD
:10146000FB81FB89FE2BDDD90A2001F0A5F90023C1
:10147000FB8145E0AFF3008000000040FB211940F4
:101480000000000000E05F4048240020D34D6210BF
:1014900068B1000880B1000898B10008B0B1000838
:1014A0000000B0400000F03FDA0FC93C48040020C3
:1014B000C8B100080000002044020020FB8920334E
:1014C00098B2FB89144A32F81330DB089BB2C3F19F
:1014D000710399B2FB8920339DB2FB8901330E4A17
:1014E00032F81330DB089BB2C3F171039CB20B4B93
:1014F00000932A46234600F07FF8FB890133FB81E5
:10150000FB89FE2BDAD9BB890133BB81BB89B3F5DB
:10151000706FFFF46DAF68E744020020C8B10008A7
:1015200080B586B000AF786039607B680833FB60B7
:1015300000237B6130E03B681B884E20194608F091
:101540003FF83B6802331A887B699BB213449BB215
:101550004F20194608F034F8FB681B889BB2222004
:10156000194608F02DF800233B610BE0FB681B884F
:101570009BB2184608F05CF8FB680233FB603B69DD
:1015800001333B613B6804331B881A463B699A422E
:10159000ECD87B6901337B613B6806331B881A46B4
:1015A0007B699A42C7D81837BD4680BD80B582B0E6
:1015B00000AF03460A46FB801346BB80B7F90630EE
:1015C000002B0CDBB7F90630B3F5A07F07DAB7F9CB
:1015D0000430002B03DBB7F90430EF2B00DD07E00C
:1015E000FA88BB88104619460122002308F08EFABB
:1015F0000837BD4680BD00BF90B58DB000AF044632
:10160000084611461A462346FB800346BB800B461C
:101610007B8013463B803B6C03331B789BB21B02E1
:101620009AB23B6C02331B789BB213443B8300237A
:10163000FB820023BB820023FB850023BB850023A4
:101640007B8500233B850023FB840023BB84002390
:101650007B8400233B840023FB830023BB83002384
:101660007B837A88FB88D31A002BB8BF5B42FB824E
:101670003A88BB88D31A002BB8BF5B42BB82FB8879
:10168000FB85BB88BB857A88FB889A4204D30123FB
:101690007B8501233B8505E04FF6FF737B854FF685
:1016A000FF733B853A88BB889A4204D30123FB84AD
:1016B0000123BB8405E04FF6FF73FB844FF6FF73F5
:1016C000BB84B7F91620B7F914309A4210DB002317
:1016D0007B850023BB84FB8A7B84B7F91630DA0F45
:1016E00013445B103B84BB8AFB83FB8ABB830FE004
:1016F00000233B850023FB84BB8A7B84B7F914302D
:10170000DA0F13445B103B84FB8AFB83BB8ABB83E9
:1017100000237B8344E0B7F92C303A8B02FB03F2C1
:10172000B7F92E30134404335B003B613B693A6CDC
:1017300013441B88FB81FB89184607F0FBFFB7F9B0
:101740002E20B7F92C3010461946FFF72FFF3A8CA0
:10175000FB8B13449BB23B84B7F92020B7F92230AE
:101760009A420EDB3A8C7B8CD31A9BB23B84FA8D67
:101770007B8D13449BB2FB85BA8DFB8C13449BB2CB
:10178000BB85FA8D3B8D13449BB2FB85BA8DBB8C18
:1017900013449BB2BB857B8B9BB201339BB27B8393
:1017A000B7F91A20B7F91C309A42B4DD3437BD4678
:1017B00090BD00BFAFF3008080B400AF00BFBD4656
:1017C0005DF8047B704700BF80B400AF30BFBD46FA
:1017D0005DF8047B704700BF80B400AF20BFBD46FA
:1017E0005DF8047B704700BF80B400AF40BFBD46CA
:1017F0005DF8047B704700BF80B400AFBFF36F8F0C
:10180000BD465DF8047B704780B400AFBFF34F8FD7
:10181000BD465DF8047B704780B400AFBFF35F8FB7
:10182000BD465DF8047B704780B485B000AF78603A
:101830007B681BBAFB60FB6818461437BD465DF831
:10184000047B704780B485B000AF78607B685BBA7A
:10185000FB60FB6818461437BD465DF8047B704793
:1018600080B485B000AF78607B68DBBAFB60FB6852
:1018700018461437BD465DF8047B704780B485B0C8
:1018800000AF78607B6893FAA3F3FB60FB681846AF
:101890001437BD465DF8047B704700BF80B485B047
:1018A00000AF78607B68D3E84F3FFB73FB7B184643
:1018B0001437BD465DF8047B704700BF80B485B027
:1018C00000AF78607B68D3E85F3FFB81FB891846F7
:1018D0001437BD465DF8047B704700BF80B485B007
:1018E00000AF78607B6853E8003FFB60FB681846F8
:1018F0001437BD465DF8047B704700BF80B485B0E7
:1019000000AF786039603B687A6843E80023FB6089
:10191000FB6818461437BD465DF8047B704700BF6E
:1019200080B400AFBFF32F8FBD465DF8047B7047D6
:1019300080B485B000AF78607B68B3FA83F3FB7343
:10194000FB7B18461437BD465DF8047B704700BF2B
:1019500080B400AF62B6BD465DF8047B704700BF3F
:1019600080B400AF72B6BD465DF8047B704700BF1F
:1019700080B483B000AFEFF314837B607B681846BC
:101980000C37BD465DF8047B704700BF80B483B060
:1019900000AF78607B6883F314880C37BD465DF830
:1019A000047B704780B483B000AFEFF305837B60A6
:1019B0007B6818460C37BD465DF8047B704700BF56
:1019C00080B483B000AFEFF300837B607B68184680
:1019D0000C37BD465DF8047B704700BF80B483B010
:1019E00000AFEFF303837B607B6818460C37BD467E
:1019F0005DF8047B704700BF90B400AFEFF309833C
:101A00001C4623461846BD4690BC704780B483B040
:101A100000AF78607B6883F309880C37BD465DF8BA
:101A2000047B704790B400AFEFF308831C46234655
:101A30001846BD4690BC704780B483B000AF786054
:101A40007B6883F308880C37BD465DF8047B7047DC
:101A500080B483B000AFEFF310837B607B681846DF
:101A60000C37BD465DF8047B704700BF80B483B07F
:101A700000AF78607B6883F310880C37BD465DF853
:101A8000047B704780B400AF61B6BD465DF8047B4F
:101A9000704700BF80B400AF71B6BD465DF8047BEF
:101AA000704700BF80B483B000AFEFF312837B6058
:101AB0007B6818460C37BD465DF8047B704700BF55
:101AC00080B483B000AF78607B6883F311880C37F3
:101AD000BD465DF8047B704780B483B000AFEFF380
:101AE00013837B607B6818460C37BD465DF8047B2A
:101AF000704700BF80B483B000AF78607B6883F329
:101B000013880C37BD465DF8047B704780B483B002
:101B100000AFF1EE103A7B607B6818460C37BD468B
:101B20005DF8047B704700BF80B483B000AF78607D
:101B30007B68E1EE103A0C37BD465DF8047B7047D8
:101B400080B485B000AF786039607B683A6883FA0A
:101B500002F3FB60FB6818461437BD465DF8047B52
:101B6000704700BF80B485B000AF786039607B6893
:101B70003A6883FA12F3FB60FB6818461437BD46D7
:101B80005DF8047B704700BF80B485B000AF78601B
:101B900039607B683A6883FA22F3FB60FB68184679
:101BA0001437BD465DF8047B704700BF80B485B034
:101BB00000AF786039607B683A6883FA42F3FB6073
:101BC000FB6818461437BD465DF8047B704700BFBC
:101BD00080B485B000AF786039607B683A6883FA7A
:101BE00052F3FB60FB6818461437BD465DF8047B72
:101BF000704700BF80B485B000AF786039607B6803
:101C00003A6883FA62F3FB60FB6818461437BD46F6
:101C10005DF8047B704700BF80B485B000AF78608A
:101C200039607B683A68C3FA02F3FB60FB681846C8
:101C30001437BD465DF8047B704700BF80B485B0A3
:101C400000AF786039607B683A68C3FA12F3FB60D2
:101C5000FB6818461437BD465DF8047B704700BF2B
:101C600080B485B000AF786039607B683A68C3FAA9
:101C700022F3FB60FB6818461437BD465DF8047B11
:101C8000704700BF80B485B000AF786039607B6872
:101C90003A68C3FA42F3FB60FB6818461437BD4646
:101CA0005DF8047B704700BF80B485B000AF7860FA
:101CB00039607B683A68C3FA52F3FB60FB681846E8
:101CC0001437BD465DF8047B704700BF80B485B013
:101CD00000AF786039607B683A68C3FA62F3FB60F2
:101CE000FB6818461437BD465DF8047B704700BF9B
:101CF00080B485B000AF786039607B683A6893FA49
:101D000002F3FB60FB6818461437BD465DF8047BA0
:101D1000704700BF80B485B000AF786039607B68E1
:101D20003A6893FA12F3FB60FB6818461437BD4615
:101D30005DF8047B704700BF80B485B000AF786069
:101D400039607B683A6893FA22F3FB60FB681846B7
:101D50001437BD465DF8047B704700BF80B485B082
:101D600000AF786039607B683A6893FA42F3FB60B1
:101D7000FB6818461437BD465DF8047B704700BF0A
:101D800080B485B000AF786039607B683A6893FAB8
:101D900052F3FB60FB6818461437BD465DF8047BC0
:101DA000704700BF80B485B000AF786039607B6851
:101DB0003A6893FA62F3FB60FB6818461437BD4635
:101DC0005DF8047B704700BF80B485B000AF7860D9
:101DD00039607B683A68D3FA02F3FB60FB68184607
:101DE0001437BD465DF8047B704700BF80B485B0F2
:101DF00000AF786039607B683A68D3FA12F3FB6011
:101E0000FB6818461437BD465DF8047B704700BF79
:101E100080B485B000AF786039607B683A68D3FAE7
:101E200022F3FB60FB6818461437BD465DF8047B5F
:101E3000704700BF80B485B000AF786039607B68C0
:101E40003A68D3FA42F3FB60FB6818461437BD4684
:101E50005DF8047B704700BF80B485B000AF786048
:101E600039607B683A68D3FA52F3FB60FB68184626
:101E70001437BD465DF8047B704700BF80B485B061
:101E800000AF786039607B683A68D3FA62F3FB6030
:101E9000FB6818461437BD465DF8047B704700BFE9
:101EA00080B485B000AF786039607B683A68A3FA87
:101EB00002F3FB60FB6818461437BD465DF8047BEF
:101EC000704700BF80B485B000AF786039607B6830
:101ED0003A68A3FA12F3FB60FB6818461437BD4654
:101EE0005DF8047B704700BF80B485B000AF7860B8
:101EF00039607B683A68A3FA22F3FB60FB681846F6
:101F00001437BD465DF8047B704700BF80B485B0D0
:101F100000AF786039607B683A68A3FA42F3FB60EF
:101F2000FB6818461437BD465DF8047B704700BF58
:101F300080B485B000AF786039607B683A68A3FAF6
:101F400052F3FB60FB6818461437BD465DF8047B0E
:101F5000704700BF80B485B000AF786039607B689F
:101F60003A68A3FA62F3FB60FB6818461437BD4673
:101F70005DF8047B704700BF80B485B000AF786027
:101F800039607B683A68E3FA02F3FB60FB68184645
:101F90001437BD465DF8047B704700BF80B485B040
:101FA00000AF786039607B683A68E3FA12F3FB604F
:101FB000FB6818461437BD465DF8047B704700BFC8
:101FC00080B485B000AF786039607B683A68E3FA26
:101FD00022F3FB60FB6818461437BD465DF8047BAE
:101FE000704700BF80B485B000AF786039607B680F
:101FF0003A68E3FA42F3FB60FB6818461437BD46C3
:102000005DF8047B704700BF80B485B000AF786096
:1020100039607B683A68E3FA52F3FB60FB68184664
:102020001437BD465DF8047B704700BF80B485B0AF
:1020300000AF786039607B683A68E3FA62F3FB606E
:10204000FB6818461437BD465DF8047B704700BF37
:1020500080B485B000AF786039607B683A6873FB04
:1020600002F3FB60FB6818461437BD465DF8047B3D
:10207000704700BF80B487B000AFF860B9607A6085
:10208000FB68BA68796873FB02137B617B69184649
:102090001C37BD465DF8047B704700BF80B485B037
:1020A00000AF78607B683FFA83F3FB60FB681846FB
:1020B0001437BD465DF8047B704700BF80B485B01F
:1020C00000AF786039607B683A6833FA82F3FB606E
:1020D000FB6818461437BD465DF8047B704700BFA7
:1020E00080B485B000AF78607B682FFA83F3FB6023
:1020F000FB6818461437BD465DF8047B704700BF87
:1021000080B485B000AF786039607B683A6823FAA4
:1021100082F3FB60FB6818461437BD465DF8047B0C
:10212000704700BF80B485B000AF786039607B68CD
:102130003A6823FB02F3FB60FB6818461437BD4680
:102140005DF8047B704700BF80B485B000AF786055
:1021500039607B683A6823FB12F3FB60FB68184622
:102160001437BD465DF8047B704700BF80B487B06C
:1021700000AFF860B9607A60FB68BA68796823FBE1
:1021800002137B617B6918461C37BD465DF8047BF2
:10219000704700BF80B487B000AFF860B9607A6064
:1021A000FB68BA68796823FB12137B617B69184668
:1021B0001C37BD465DF8047B704700BF80B485B016
:1021C00000AF786039607B683A6843FB02F3FB60DC
:1021D000FB6818461437BD465DF8047B704700BFA6
:1021E00080B485B000AF786039607B683A6843FBA3
:1021F00012F3FB60FB6818461437BD465DF8047B9C
:10220000704700BF80B487B000AFF860B9607A60F3
:10221000FB68BA68796843FB02137B617B691846E7
:102220001C37BD465DF8047B704700BF80B487B0A3
:1022300000AFF860B9607A60FB68BA68796843FB00
:1022400012137B617B6918461C37BD465DF8047B21
:10225000704700BF80B485B000AF786039607B689C
:102260003A68A3FA82F3FB60FB6818461437BD4650
:102270005DF8047B704700BF80B485B000AF786024
:1022800039607B683A6882FA83F3FB60FB68184622
:102290001437BD465DF8047B704700BF80B485B03D
:1022A00000AF786039607B683A6882FAA3F3FB601C
:1022B000FB6818461437BD465DF8047B704700BFC5
:1022C00080B485B000AF78607B6803F00703FB60E3
:1022D0000C4BDB68BB60BA684FF6FF031340BB6072
:1022E000FB681A02BB68134343F0BF6343F4003337
:1022F000BB60044ABB68D3601437BD465DF8047BFD
:10230000704700BF00ED00E080B400AF044BDB6815
:1023100003F4E0631B0A1846BD465DF8047B704772
:1023200000ED00E080B483B000AF0346FB710849C4
:1023300097F907305B09FA7902F01F02012000FAD1
:1023400002F241F823200C37BD465DF8047B70474C
:1023500000E100E080B483B000AF0346FB7109499F
:1023600097F907305B09FA7902F01F02012000FAA1
:1023700002F2203341F823200C37BD465DF8047B80
:10238000704700BF00E100E080B483B000AF0346B7
:10239000FB710C4A97F907305B09403352F8233040
:1023A000FA7902F01F02012101FA02F21340002B18
:1023B00001D0012300E0002318460C37BD465DF82C
:1023C000047B704700E100E080B483B000AF0346B7
:1023D000FB71094997F907305B09FA7902F01F028E
:1023E000012000FA02F2403341F823200C37BD46A9
:1023F0005DF8047B704700BF00E100E080B483B06B
:1024000000AF0346FB71094997F907305B09FA7978
:1024100002F01F02012000FA02F2603341F823208B
:102420000C37BD465DF8047B704700BF00E100E05B
:1024300080B483B000AF0346FB710C4A97F90730B4
:102440005B09803352F82330FA7902F01F02012130
:1024500001FA02F21340002B01D0012300E0002317
:1024600018460C37BD465DF8047B704700E100E07C
:1024700080B483B000AF03463960FB7197F9073031
:10248000002B0BDA0D49FB7903F00F03043B3A688C
:10249000D2B21201D2B20B441A7609E0084997F978
:1024A00007303A68D2B21201D2B20B4483F800234B
:1024B0000C37BD465DF8047B704700BF00ED00E0BF
:1024C00000E100E080B483B000AF0346FB7197F9F0
:1024D0000730002B0ADA0D4AFB7903F00F03043BA7
:1024E00013441B7EDBB21B09DBB208E0084A97F9F4
:1024F0000730134493F80033DBB21B09DBB21846F4
:102500000C37BD465DF8047B704700BF00ED00E06E
:1025100000E100E080B489B000AFF860B9607A6093
:10252000FB6803F00703FB61FB69C3F10703042B9E
:1025300028BF0423BB61FB690433062B02D9FB6966
:10254000033B00E000237B61BB69012202FA03F335
:10255000013B1A46BB681A407B699A407B6901219E
:1025600001FA03F3013B19467B680B4013431846FD
:102570002437BD465DF8047B704700BF80B489B046
:1025800000AFF860B9607A603B60BB6803F0070396
:10259000FB61FB69C3F10703042B28BF0423BB6164
:1025A000FB690433062B02D9FB69033B00E00023DF
:1025B0007B617B69FA6822FA03F3BA69012101FAA7
:1025C00002F2013A1A407B681A607B69012202FA22
:1025D00003F3013B1A46FB681A403B681A60243734
:1025E000BD465DF8047B704780B500AFFFF70CF97E
:1025F0000549054BDB6803F4E062044B1343CB60F1
:10260000FFF702F9FEE700BF00ED00E00400FA0565
:1026100080B582B000AF78607B68B3F1807F01D372
:10262000012311E00A4A7B6823F07F43013B53609A
:102630004FF0FF300F21FFF71BFF054B00229A6080
:10264000034B07221A60002318460837BD4680BD99
:1026500010E000E080B483B000AF7860134BDB681B
:1026600003F08073002B1AD04FF06043D3F8803E04
:1026700003F00103002B12D04FF06043D3F8003E6B
:1026800003F00103002B0AD000BF4FF060431B682A
:10269000002BFAD04FF060437A68D2B21A707B6890
:1026A00018460C37BD465DF8047B7047F0ED00E03E
:1026B00080B483B000AF4FF0FF337B60084B1B68E2
:1026C000084A934205D0064B1B687B60044B054AC1
:1026D0001A607B6818460C37BD465DF8047B70476E
:1026E00044040020A55AA55A80B400AF064B1B68CD
:1026F000064A934201D1002300E001231846BD465B
:102700005DF8047B704700BF44040020A55AA55A19
:10271000B0B500AF0C4D0D4C05E023461C1D2A46FC
:10272000151D12681A600A4B9C42F6D3094C03E04F
:1027300023461C1D00221A60074B9C42F8D301F06F
:1027400043F8FEF747FDB0BD00400308000000203D
:1027500050000020500000204402002080B400AF50
:10276000FEE700BF80B400AFFEE700BF80B400AF5B
:102770000D4B1B68002B04D00B4B1B68013B0A4A16
:1027800013600A4B1B680133084A1360084B1B682F
:102790000133074A1360074B1B680133054A136076
:1027A000BD465DF8047B70475824002030020020AD
:1027B000340200203802002080B483B000AF78607B
:1027C000064A7B68136000BF044B1B68002BFBD1DB
:1027D0000C37BD465DF8047B704700BF58240020CD
:1027E00080B400AF034B00221A60BD465DF8047B45
:1027F000704700BF3002002080B400AF034B0022BE
:102800001A60BD465DF8047B704700BF34020020AB
:1028100080B400AF034B00221A60BD465DF8047B14
:10282000704700BF3802002080B400AF034B1B6824
:102830001846BD465DF8047B704700BF300200209B
:1028400080B400AF034B1B681846BD465DF8047B9F
:10285000704700BF3402002080B400AF034B1B68F8
:102860001846BD465DF8047B704700BF3802002063
:1028700080B400AF00BFBD465DF8047B704700BF69
:1028800080B400AF30BFBD465DF8047B704700BF29
:1028900080B400AF20BFBD465DF8047B704700BF29
:1028A00080B400AF40BFBD465DF8047B704700BFF9
:1028B00080B400AFBFF36F8FBD465DF8047B7047F7
:1028C00080B400AFBFF34F8FBD465DF8047B704707
:1028D00080B400AFBFF35F8FBD465DF8047B7047E7
:1028E00080B485B000AF78607B681BBAFB60FB6882
:1028F00018461437BD465DF8047B704780B485B038
:1029000000AF78607B685BBAFB60FB6818461437E1
:10291000BD465DF8047B704780B485B000AF786039
:102920007B68DBBAFB60FB6818461437BD465DF870
:10293000047B704780B485B000AF78607B6893FA01
:10294000A3F3FB60FB6818461437BD465DF8047BB3
:10295000704700BF80B485B000AF78607B68D3E873
:102960004F3FFB73FB7B18461437BD465DF8047B75
:10297000704700BF80B485B000AF78607B68D3E853
:102980005F3FFB81FB8918461437BD465DF8047B29
:10299000704700BF80B485B000AF78607B6853E8B3
:1029A000003FFB60FB6818461437BD465DF8047BAA
:1029B000704700BF80B485B000AF786039603B6875
:1029C0007A6843E80023FB60FB6818461437BD466D
:1029D0005DF8047B704700BF80B400AFBFF32F8F5A
:1029E000BD465DF8047B704780B485B000AF786069
:1029F0007B68B3FA83F3FB73FB7B18461437BD4641
:102A00005DF8047B704700BF80B400AF62B6BD467E
:102A10005DF8047B704700BF80B400AF72B6BD465E
:102A20005DF8047B704700BF80B483B000AFEFF364
:102A300014837B607B6818460C37BD465DF8047BC9
:102A4000704700BF80B483B000AF78607B6883F3C9
:102A500014880C37BD465DF8047B704780B483B0A2
:102A600000AFEFF305837B607B6818460C37BD46EB
:102A70005DF8047B704700BF80B483B000AFEFF314
:102A800000837B607B6818460C37BD465DF8047B8D
:102A9000704700BF80B483B000AFEFF303837B6067
:102AA0007B6818460C37BD465DF8047B704700BF55
:102AB00090B400AFEFF309831C4623461846BD4689
:102AC00090BC704780B483B000AF78607B6883F3BC
:102AD00009880C37BD465DF8047B704790B400AFA1
:102AE000EFF308831C4623461846BD4690BC70474A
:102AF00080B483B000AF78607B6883F308880C37BC
:102B0000BD465DF8047B704780B483B000AFEFF33F
:102B100010837B607B6818460C37BD465DF8047BEC
:102B2000704700BF80B483B000AF78607B6883F3E8
:102B300010880C37BD465DF8047B704780B400AF49
:102B400061B6BD465DF8047B704700BF80B400AF3E
:102B500071B6BD465DF8047B704700BF80B483B09A
:102B600000AFEFF312837B607B6818460C37BD46DD
:102B70005DF8047B704700BF80B483B000AF78601D
:102B80007B6883F311880C37BD465DF8047B704782
:102B900080B483B000AFEFF313837B607B6818468B
:102BA0000C37BD465DF8047B704700BF80B483B02E
:102BB00000AF78607B6883F313880C37BD465DF8FF
:102BC000047B704780B483B000AFF1EE103A7B60B5
:102BD0007B6818460C37BD465DF8047B704700BF24
:102BE00080B483B000AF78607B68E1EE103A0C37B8
:102BF000BD465DF8047B704780B485B000AF786057
:102C000039607B683A6883FA02F3FB60FB68184618
:102C10001437BD465DF8047B704700BF80B485B0B3
:102C200000AF786039607B683A6883FA12F3FB6022
:102C3000FB6818461437BD465DF8047B704700BF3B
:102C400080B485B000AF786039607B683A6883FAF9
:102C500022F3FB60FB6818461437BD465DF8047B21
:102C6000704700BF80B485B000AF786039607B6882
:102C70003A6883FA42F3FB60FB6818461437BD4696
:102C80005DF8047B704700BF80B485B000AF78600A
:102C900039607B683A6883FA52F3FB60FB68184638
:102CA0001437BD465DF8047B704700BF80B485B023
:102CB00000AF786039607B683A6883FA62F3FB6042
:102CC000FB6818461437BD465DF8047B704700BFAB
:102CD00080B485B000AF786039607B683A68C3FA29
:102CE00002F3FB60FB6818461437BD465DF8047BB1
:102CF000704700BF80B485B000AF786039607B68F2
:102D00003A68C3FA12F3FB60FB6818461437BD46F5
:102D10005DF8047B704700BF80B485B000AF786079
:102D200039607B683A68C3FA22F3FB60FB68184697
:102D30001437BD465DF8047B704700BF80B485B092
:102D400000AF786039607B683A68C3FA42F3FB6091
:102D5000FB6818461437BD465DF8047B704700BF1A
:102D600080B485B000AF786039607B683A68C3FA98
:102D700052F3FB60FB6818461437BD465DF8047BD0
:102D8000704700BF80B485B000AF786039607B6861
:102D90003A68C3FA62F3FB60FB6818461437BD4615
:102DA0005DF8047B704700BF80B485B000AF7860E9
:102DB00039607B683A6893FA02F3FB60FB68184657
:102DC0001437BD465DF8047B704700BF80B485B002
:102DD00000AF786039607B683A6893FA12F3FB6061
:102DE000FB6818461437BD465DF8047B704700BF8A
:102DF00080B485B000AF786039607B683A6893FA38
:102E000022F3FB60FB6818461437BD465DF8047B6F
:102E1000704700BF80B485B000AF786039607B68D0
:102E20003A6893FA42F3FB60FB6818461437BD46D4
:102E30005DF8047B704700BF80B485B000AF786058
:102E400039607B683A6893FA52F3FB60FB68184676
:102E50001437BD465DF8047B704700BF80B485B071
:102E600000AF786039607B683A6893FA62F3FB6080
:102E7000FB6818461437BD465DF8047B704700BFF9
:102E800080B485B000AF786039607B683A68D3FA67
:102E900002F3FB60FB6818461437BD465DF8047BFF
:102EA000704700BF80B485B000AF786039607B6840
:102EB0003A68D3FA12F3FB60FB6818461437BD4634
:102EC0005DF8047B704700BF80B485B000AF7860C8
:102ED00039607B683A68D3FA22F3FB60FB681846D6
:102EE0001437BD465DF8047B704700BF80B485B0E1
:102EF00000AF786039607B683A68D3FA42F3FB60D0
:102F0000FB6818461437BD465DF8047B704700BF68
:102F100080B485B000AF786039607B683A68D3FAD6
:102F200052F3FB60FB6818461437BD465DF8047B1E
:102F3000704700BF80B485B000AF786039607B68AF
:102F40003A68D3FA62F3FB60FB6818461437BD4653
:102F50005DF8047B704700BF80B485B000AF786037
:102F600039607B683A68A3FA02F3FB60FB68184695
:102F70001437BD465DF8047B704700BF80B485B050
:102F800000AF786039607B683A68A3FA12F3FB609F
:102F9000FB6818461437BD465DF8047B704700BFD8
:102FA00080B485B000AF786039607B683A68A3FA76
:102FB00022F3FB60FB6818461437BD465DF8047BBE
:102FC000704700BF80B485B000AF786039607B681F
:102FD0003A68A3FA42F3FB60FB6818461437BD4613
:102FE0005DF8047B704700BF80B485B000AF7860A7
:102FF00039607B683A68A3FA52F3FB60FB681846B5
:103000001437BD465DF8047B704700BF80B485B0BF
:1030100000AF786039607B683A68A3FA62F3FB60BE
:10302000FB6818461437BD465DF8047B704700BF47
:1030300080B485B000AF786039607B683A68E3FAA5
:1030400002F3FB60FB6818461437BD465DF8047B4D
:10305000704700BF80B485B000AF786039607B688E
:103060003A68E3FA12F3FB60FB6818461437BD4672
:103070005DF8047B704700BF80B485B000AF786016
:1030800039607B683A68E3FA22F3FB60FB68184614
:103090001437BD465DF8047B704700BF80B485B02F
:1030A00000AF786039607B683A68E3FA42F3FB600E
:1030B000FB6818461437BD465DF8047B704700BFB7
:1030C00080B485B000AF786039607B683A68E3FA15
:1030D00052F3FB60FB6818461437BD465DF8047B6D
:1030E000704700BF80B485B000AF786039607B68FE
:1030F0003A68E3FA62F3FB60FB6818461437BD4692
:103100005DF8047B704700BF80B485B000AF786085
:1031100039607B683A6873FB02F3FB60FB68184612
:103120001437BD465DF8047B704700BF80B487B09C
:1031300000AFF860B9607A60FB68BA68796873FBC1
:1031400002137B617B6918461C37BD465DF8047B22
:10315000704700BF80B485B000AF78607B683FFAED
:1031600083F3FB60FB6818461437BD465DF8047BAB
:10317000704700BF80B485B000AF786039607B686D
:103180003A6833FA82F3FB60FB6818461437BD4691
:103190005DF8047B704700BF80B485B000AF7860F5
:1031A0007B682FFA83F3FB60FB6818461437BD4633
:1031B0005DF8047B704700BF80B485B000AF7860D5
:1031C00039607B683A6823FA82F3FB60FB68184633
:1031D0001437BD465DF8047B704700BF80B485B0EE
:1031E00000AF786039607B683A6823FB02F3FB60CC
:1031F000FB6818461437BD465DF8047B704700BF76
:1032000080B485B000AF786039607B683A6823FB92
:1032100012F3FB60FB6818461437BD465DF8047B6B
:10322000704700BF80B487B000AFF860B9607A60C3
:10323000FB68BA68796823FB02137B617B691846D7
:103240001C37BD465DF8047B704700BF80B487B073
:1032500000AFF860B9607A60FB68BA68796823FBF0
:1032600012137B617B6918461C37BD465DF8047BF1
:10327000704700BF80B485B000AF786039607B686C
:103280003A6843FB02F3FB60FB6818461437BD46FF
:103290005DF8047B704700BF80B485B000AF7860F4
:1032A00039607B683A6843FB12F3FB60FB681846A1
:1032B0001437BD465DF8047B704700BF80B487B00B
:1032C00000AFF860B9607A60FB68BA68796843FB60
:1032D00002137B617B6918461C37BD465DF8047B91
:1032E000704700BF80B487B000AFF860B9607A6003
:1032F000FB68BA68796843FB12137B617B691846E7
:103300001C37BD465DF8047B704700BF80B485B0B4
:1033100000AF786039607B683A68A3FA82F3FB609B
:10332000FB6818461437BD465DF8047B704700BF44
:1033300080B485B000AF786039607B683A6882FA03
:1033400083F3FB60FB6818461437BD465DF8047BC9
:10335000704700BF80B485B000AF786039607B688B
:103360003A6882FAA3F3FB60FB6818461437BD463F
:103370005DF8047B704700BF80B485B000AF786013
:103380007B6803F00703FB600C4BDB68BB60BA682B
:103390004FF6FF031340BB60FB681A02BB68134380
:1033A00043F0BF6343F40033BB60044ABB68D3609F
:1033B0001437BD465DF8047B704700BF00ED00E0A8
:1033C00080B400AF044BDB6803F4E0631B0A1846CB
:1033D000BD465DF8047B704700ED00E080B483B02B
:1033E00000AF0346FB71084997F907305B09FA798A
:1033F00002F01F02012000FA02F241F823200C37EC
:10340000BD465DF8047B704700E100E080B483B006
:1034100000AF0346FB71094997F907305B09FA7958
:1034200002F01F02012000FA02F2203341F82320AB
:103430000C37BD465DF8047B704700BF00E100E03B
:1034400080B483B000AF0346FB710C4A97F9073094
:103450005B09403352F82330FA7902F01F02012150
:1034600001FA02F21340002B01D0012300E00023F7
:1034700018460C37BD465DF8047B704700E100E05C
:1034800080B483B000AF0346FB71094997F9073058
:103490005B09FA7902F01F02012000FA02F24033C0
:1034A00041F823200C37BD465DF8047B704700BF10
:1034B00000E100E080B483B000AF0346FB7109492E
:1034C00097F907305B09FA7902F01F02012000FA30
:1034D00002F2603341F823200C37BD465DF8047BCF
:1034E000704700BF00E100E080B483B000AF034646
:1034F000FB710C4A97F907305B09803352F823308F
:10350000FA7902F01F02012101FA02F21340002BA6
:1035100001D0012300E0002318460C37BD465DF8BA
:10352000047B704700E100E080B483B000AF034645
:103530003960FB7197F90730002B0BDA0D49FB79E5
:1035400003F00F03043B3A68D2B21201D2B20B442B
:103550001A7609E0084997F907303A68D2B21201A1
:10356000D2B20B4483F800230C37BD465DF8047BD0
:10357000704700BF00ED00E000E100E080B483B0E0
:1035800000AF0346FB7197F90730002B0ADA0D4AAA
:10359000FB7903F00F03043B13441B7EDBB21B09D2
:1035A000DBB208E0084A97F90730134493F8003378
:1035B000DBB21B09DBB218460C37BD465DF8047B55
:1035C000704700BF00ED00E000E100E080B489B08A
:1035D00000AFF860B9607A60FB6803F00703FB6135
:1035E000FB69C3F10703042B28BF0423BB61FB69FC
:1035F0000433062B02D9FB69033B00E000237B6107
:10360000BB69012202FA03F3013B1A46BB681A4068
:103610007B699A407B69012101FA03F3013B19465A
:103620007B680B40134318462437BD465DF8047B86
:10363000704700BF80B489B000AFF860B9607A60AD
:103640003B60BB6803F00703FB61FB69C3F1070341
:10365000042B28BF0423BB61FB690433062B02D96A
:10366000FB69033B00E000237B617B69FA6822FA77
:1036700003F3BA69012101FA02F2013A1A407B68A8
:103680001A607B69012202FA03F3013B1A46FB68C8
:103690001A403B681A602437BD465DF8047B7047CA
:1036A00080B500AFFFF70CF90549054BDB6803F463
:1036B000E062044B1343CB60FFF702F9FEE700BF63
:1036C00000ED00E00400FA0580B582B000AF78603C
:1036D0007B68B3F1807F01D3012311E00A4A7B6844
:1036E00023F07F43013B53604FF0FF300F21FFF782
:1036F0001BFF054B00229A60034B07221A60002330
:1037000018460837BD4680BD10E000E080B483B0A5
:1037100000AF7860134BDB6803F08073002B1AD086
:103720004FF06043D3F8803E03F00103002B12D02A
:103730004FF06043D3F8003E03F00103002B0AD0A2
:1037400000BF4FF060431B68002BFAD04FF060437E
:103750007A68D2B21A707B6818460C37BD465DF89D
:10376000047B7047F0ED00E080B483B000AF4FF011
:10377000FF337B60084B1B68084A934205D0064B19
:103780001B687B60044B054A1A607B6818460C373F
:10379000BD465DF8047B704744040020A55AA55A35
:1037A00080B400AF064B1B68064A934201D1002348
:1037B00000E001231846BD465DF8047B704700BF5A
:1037C00044040020A55AA55A80B500AF154A154BF0
:1037D000D3F8883043F47003C2F88830124A124B91
:1037E0001B6843F0010313600F4B00229A600E4ADE
:1037F0000D4B1B6823F0847323F4803313600A4B52
:103800000A4A5A60084A084B1B6823F48023136055
:10381000054B0022DA6000F087F8024B4FF000629F
:103820009A6080BD00ED00E00038024010300024B6
:1038300080B487B000AF00233B6100237B6102238B
:10384000FB600023BB6002237B60324B9B6803F06C
:103850000C033B613B69042B07D0082B09D0002BDC
:103860003FD12D4B2D4A1A603FE02B4B2C4A1A605A
:103870003BE0284B5B6803F480039B0DBB60254B4A
:103880005B6803F03F037B60BB68002B0DD0244ACC
:103890007B68B2FBF3F21F4B596847F6C0730B40CD
:1038A0009B0903FB02F37B610CE01C4A7B68B2FBC3
:1038B000F3F2184B596847F6C0730B409B0903FBA2
:1038C00002F37B61134B5B6803F440331B0C013341
:1038D0005B00FB607A69FB68B2FBF3F30E4A13608E
:1038E00003E00D4B0D4A1A6000BF0A4B9B6803F0C2
:1038F000F0031B090B4AD35CDBB23B61064B1A6831
:103900003B6922FA03F3044A13601C37BD465DF895
:10391000047B704700380240080000200024F400B7
:1039200000127A000C00002080B483B000AF0023A6
:103930007B6000233B60414A404B1B6843F480336B
:1039400013603E4B1B6803F400333B607B6801331C
:103950007B603B68002B03D17B68B3F5A06FF0D18F
:10396000364B1B6803F40033002B02D001233B606D
:1039700001E000233B603B68012B42D12F4A2F4BD3
:103980001B6C43F0805313642D4A2D4B1B6843F48A
:1039900080431360294A294B9B689360274A274B31
:1039A0009B6843F400439360244A244B9B6843F490
:1039B000A0539360214B234A5A60204A1F4B1B6837
:1039C00043F08073136000BF1C4B1B6803F000734F
:1039D000002BF9D01C4B40F205621A60174A174BB6
:1039E0009B6823F003039360144A144B9B6843F0D5
:1039F0000203936000BF114B9B6803F00C03082B7C
:103A0000F9D10E4A0D4B9B6823F4000393600B4BD6
:103A10000E4AC3F88420094A084B1B6843F08063B0
:103A2000136000BF054B1B6803F00063002BF9D047
:103A30000C37BD465DF8047B704700BF003802407C
:103A40000070004008544007003C02400030005025
:103A500080B400AF00BFBD465DF8047B704700BF77
:103A600080B400AF30BFBD465DF8047B704700BF37
:103A700080B400AF20BFBD465DF8047B704700BF37
:103A800080B400AF40BFBD465DF8047B704700BF07
:103A900080B400AFBFF36F8FBD465DF8047B704705
:103AA00080B400AFBFF34F8FBD465DF8047B704715
:103AB00080B400AFBFF35F8FBD465DF8047B7047F5
:103AC00080B485B000AF78607B681BBAFB60FB6890
:103AD00018461437BD465DF8047B704780B485B046
:103AE00000AF78607B685BBAFB60FB6818461437F0
:103AF000BD465DF8047B704780B485B000AF786048
:103B00007B68DBBAFB60FB6818461437BD465DF87E
:103B1000047B704780B485B000AF78607B6893FA0F
:103B2000A3F3FB60FB6818461437BD465DF8047BC1
:103B3000704700BF80B485B000AF78607B68D3E881
:103B40004F3FFB73FB7B18461437BD465DF8047B83
:103B5000704700BF80B485B000AF78607B68D3E861
:103B60005F3FFB81FB8918461437BD465DF8047B37
:103B7000704700BF80B485B000AF78607B6853E8C1
:103B8000003FFB60FB6818461437BD465DF8047BB8
:103B9000704700BF80B485B000AF786039603B6883
:103BA0007A6843E80023FB60FB6818461437BD467B
:103BB0005DF8047B704700BF80B400AFBFF32F8F68
:103BC000BD465DF8047B704780B485B000AF786077
:103BD0007B68B3FA83F3FB73FB7B18461437BD464F
:103BE0005DF8047B704700BF80B400AF62B6BD468D
:103BF0005DF8047B704700BF80B400AF72B6BD466D
:103C00005DF8047B704700BF80B483B000AFEFF372
:103C100014837B607B6818460C37BD465DF8047BD7
:103C2000704700BF80B483B000AF78607B6883F3D7
:103C300014880C37BD465DF8047B704780B483B0B0
:103C400000AFEFF305837B607B6818460C37BD46F9
:103C50005DF8047B704700BF80B483B000AFEFF322
:103C600000837B607B6818460C37BD465DF8047B9B
:103C7000704700BF80B483B000AFEFF303837B6075
:103C80007B6818460C37BD465DF8047B704700BF63
:103C900090B400AFEFF309831C4623461846BD4697
:103CA00090BC704780B483B000AF78607B6883F3CA
:103CB00009880C37BD465DF8047B704790B400AFAF
:103CC000EFF308831C4623461846BD4690BC704758
:103CD00080B483B000AF78607B6883F308880C37CA
:103CE000BD465DF8047B704780B483B000AFEFF34E
:103CF00010837B607B6818460C37BD465DF8047BFB
:103D0000704700BF80B483B000AF78607B6883F3F6
:103D100010880C37BD465DF8047B704780B400AF57
:103D200061B6BD465DF8047B704700BF80B400AF4C
:103D300071B6BD465DF8047B704700BF80B483B0A8
:103D400000AFEFF312837B607B6818460C37BD46EB
:103D50005DF8047B704700BF80B483B000AF78602B
:103D60007B6883F311880C37BD465DF8047B704790
:103D700080B483B000AFEFF313837B607B68184699
:103D80000C37BD465DF8047B704700BF80B483B03C
:103D900000AF78607B6883F313880C37BD465DF80D
:103DA000047B704780B483B000AFF1EE103A7B60C3
:103DB0007B6818460C37BD465DF8047B704700BF32
:103DC00080B483B000AF78607B68E1EE103A0C37C6
:103DD000BD465DF8047B704780B485B000AF786065
:103DE00039607B683A6883FA02F3FB60FB68184627
:103DF0001437BD465DF8047B704700BF80B485B0C2
:103E000000AF786039607B683A6883FA12F3FB6030
:103E1000FB6818461437BD465DF8047B704700BF49
:103E200080B485B000AF786039607B683A6883FA07
:103E300022F3FB60FB6818461437BD465DF8047B2F
:103E4000704700BF80B485B000AF786039607B6890
:103E50003A6883FA42F3FB60FB6818461437BD46A4
:103E60005DF8047B704700BF80B485B000AF786018
:103E700039607B683A6883FA52F3FB60FB68184646
:103E80001437BD465DF8047B704700BF80B485B031
:103E900000AF786039607B683A6883FA62F3FB6050
:103EA000FB6818461437BD465DF8047B704700BFB9
:103EB00080B485B000AF786039607B683A68C3FA37
:103EC00002F3FB60FB6818461437BD465DF8047BBF
:103ED000704700BF80B485B000AF786039607B6800
:103EE0003A68C3FA12F3FB60FB6818461437BD4604
:103EF0005DF8047B704700BF80B485B000AF786088
:103F000039607B683A68C3FA22F3FB60FB681846A5
:103F10001437BD465DF8047B704700BF80B485B0A0
:103F200000AF786039607B683A68C3FA42F3FB609F
:103F3000FB6818461437BD465DF8047B704700BF28
:103F400080B485B000AF786039607B683A68C3FAA6
:103F500052F3FB60FB6818461437BD465DF8047BDE
:103F6000704700BF80B485B000AF786039607B686F
:103F70003A68C3FA62F3FB60FB6818461437BD4623
:103F80005DF8047B704700BF80B485B000AF7860F7
:103F900039607B683A6893FA02F3FB60FB68184665
:103FA0001437BD465DF8047B704700BF80B485B010
:103FB00000AF786039607B683A6893FA12F3FB606F
:103FC000FB6818461437BD465DF8047B704700BF98
:103FD00080B485B000AF786039607B683A6893FA46
:103FE00022F3FB60FB6818461437BD465DF8047B7E
:103FF000704700BF80B485B000AF786039607B68DF
:104000003A6893FA42F3FB60FB6818461437BD46E2
:104010005DF8047B704700BF80B485B000AF786066
:1040200039607B683A6893FA52F3FB60FB68184684
:104030001437BD465DF8047B704700BF80B485B07F
:1040400000AF786039607B683A6893FA62F3FB608E
:10405000FB6818461437BD465DF8047B704700BF07
:1040600080B485B000AF786039607B683A68D3FA75
:1040700002F3FB60FB6818461437BD465DF8047B0D
:10408000704700BF80B485B000AF786039607B684E
:104090003A68D3FA12F3FB60FB6818461437BD4642
:1040A0005DF8047B704700BF80B485B000AF7860D6
:1040B00039607B683A68D3FA22F3FB60FB681846E4
:1040C0001437BD465DF8047B704700BF80B485B0EF
:1040D00000AF786039607B683A68D3FA42F3FB60DE
:1040E000FB6818461437BD465DF8047B704700BF77
:1040F00080B485B000AF786039607B683A68D3FAE5
:1041000052F3FB60FB6818461437BD465DF8047B2C
:10411000704700BF80B485B000AF786039607B68BD
:104120003A68D3FA62F3FB60FB6818461437BD4661
:104130005DF8047B704700BF80B485B000AF786045
:1041400039607B683A68A3FA02F3FB60FB681846A3
:104150001437BD465DF8047B704700BF80B485B05E
:1041600000AF786039607B683A68A3FA12F3FB60AD
:10417000FB6818461437BD465DF8047B704700BFE6
:1041800080B485B000AF786039607B683A68A3FA84
:1041900022F3FB60FB6818461437BD465DF8047BCC
:1041A000704700BF80B485B000AF786039607B682D
:1041B0003A68A3FA42F3FB60FB6818461437BD4621
:1041C0005DF8047B704700BF80B485B000AF7860B5
:1041D00039607B683A68A3FA52F3FB60FB681846C3
:1041E0001437BD465DF8047B704700BF80B485B0CE
:1041F00000AF786039607B683A68A3FA62F3FB60CD
:10420000FB6818461437BD465DF8047B704700BF55
:1042100080B485B000AF786039607B683A68E3FAB3
:1042200002F3FB60FB6818461437BD465DF8047B5B
:10423000704700BF80B485B000AF786039607B689C
:104240003A68E3FA12F3FB60FB6818461437BD4680
:104250005DF8047B704700BF80B485B000AF786024
:1042600039607B683A68E3FA22F3FB60FB68184622
:104270001437BD465DF8047B704700BF80B485B03D
:1042800000AF786039607B683A68E3FA42F3FB601C
:10429000FB6818461437BD465DF8047B704700BFC5
:1042A00080B485B000AF786039607B683A68E3FA23
:1042B00052F3FB60FB6818461437BD465DF8047B7B
:1042C000704700BF80B485B000AF786039607B680C
:1042D0003A68E3FA62F3FB60FB6818461437BD46A0
:1042E0005DF8047B704700BF80B485B000AF786094
:1042F00039607B683A6873FB02F3FB60FB68184621
:104300001437BD465DF8047B704700BF80B487B0AA
:1043100000AFF860B9607A60FB68BA68796873FBCF
:1043200002137B617B6918461C37BD465DF8047B30
:10433000704700BF80B485B000AF78607B683FFAFB
:1043400083F3FB60FB6818461437BD465DF8047BB9
:10435000704700BF80B485B000AF786039607B687B
:104360003A6833FA82F3FB60FB6818461437BD469F
:104370005DF8047B704700BF80B485B000AF786003
:104380007B682FFA83F3FB60FB6818461437BD4641
:104390005DF8047B704700BF80B485B000AF7860E3
:1043A00039607B683A6823FA82F3FB60FB68184641
:1043B0001437BD465DF8047B704700BF80B485B0FC
:1043C00000AF786039607B683A6823FB02F3FB60DA
:1043D000FB6818461437BD465DF8047B704700BF84
:1043E00080B485B000AF786039607B683A6823FBA1
:1043F00012F3FB60FB6818461437BD465DF8047B7A
:10440000704700BF80B487B000AFF860B9607A60D1
:10441000FB68BA68796823FB02137B617B691846E5
:104420001C37BD465DF8047B704700BF80B487B081
:1044300000AFF860B9607A60FB68BA68796823FBFE
:1044400012137B617B6918461C37BD465DF8047BFF
:10445000704700BF80B485B000AF786039607B687A
:104460003A6843FB02F3FB60FB6818461437BD460D
:104470005DF8047B704700BF80B485B000AF786002
:1044800039607B683A6843FB12F3FB60FB681846AF
:104490001437BD465DF8047B704700BF80B487B019
:1044A00000AFF860B9607A60FB68BA68796843FB6E
:1044B00002137B617B6918461C37BD465DF8047B9F
:1044C000704700BF80B487B000AFF860B9607A6011
:1044D000FB68BA68796843FB12137B617B691846F5
:1044E0001C37BD465DF8047B704700BF80B485B0C3
:1044F00000AF786039607B683A68A3FA82F3FB60AA
:10450000FB6818461437BD465DF8047B704700BF52
:1045100080B485B000AF786039607B683A6882FA11
:1045200083F3FB60FB6818461437BD465DF8047BD7
:10453000704700BF80B485B000AF786039607B6899
:104540003A6882FAA3F3FB60FB6818461437BD464D
:104550005DF8047B704700BF80B485B000AF786021
:104560007B6803F00703FB600C4BDB68BB60BA6839
:104570004FF6FF031340BB60FB681A02BB6813438E
:1045800043F0BF6343F40033BB60044ABB68D360AD
:104590001437BD465DF8047B704700BF00ED00E0B6
:1045A00080B400AF044BDB6803F4E0631B0A1846D9
:1045B000BD465DF8047B704700ED00E080B483B039
:1045C00000AF0346FB71084997F907305B09FA7998
:1045D00002F01F02012000FA02F241F823200C37FA
:1045E000BD465DF8047B704700E100E080B483B015
:1045F00000AF0346FB71094997F907305B09FA7967
:1046000002F01F02012000FA02F2203341F82320B9
:104610000C37BD465DF8047B704700BF00E100E049
:1046200080B483B000AF0346FB710C4A97F90730A2
:104630005B09403352F82330FA7902F01F0201215E
:1046400001FA02F21340002B01D0012300E0002305
:1046500018460C37BD465DF8047B704700E100E06A
:1046600080B483B000AF0346FB71094997F9073066
:104670005B09FA7902F01F02012000FA02F24033CE
:1046800041F823200C37BD465DF8047B704700BF1E
:1046900000E100E080B483B000AF0346FB7109493C
:1046A00097F907305B09FA7902F01F02012000FA3E
:1046B00002F2603341F823200C37BD465DF8047BDD
:1046C000704700BF00E100E080B483B000AF034654
:1046D000FB710C4A97F907305B09803352F823309D
:1046E000FA7902F01F02012101FA02F21340002BB5
:1046F00001D0012300E0002318460C37BD465DF8C9
:10470000047B704700E100E080B483B000AF034653
:104710003960FB7197F90730002B0BDA0D49FB79F3
:1047200003F00F03043B3A68D2B21201D2B20B4439
:104730001A7609E0084997F907303A68D2B21201AF
:10474000D2B20B4483F800230C37BD465DF8047BDE
:10475000704700BF00ED00E000E100E080B483B0EE
:1047600000AF0346FB7197F90730002B0ADA0D4AB8
:10477000FB7903F00F03043B13441B7EDBB21B09E0
:10478000DBB208E0084A97F90730134493F8003386
:10479000DBB21B09DBB218460C37BD465DF8047B63
:1047A000704700BF00ED00E000E100E080B489B098
:1047B00000AFF860B9607A60FB6803F00703FB6143
:1047C000FB69C3F10703042B28BF0423BB61FB690A
:1047D0000433062B02D9FB69033B00E000237B6115
:1047E000BB69012202FA03F3013B1A46BB681A4077
:1047F0007B699A407B69012101FA03F3013B194669
:104800007B680B40134318462437BD465DF8047B94
:10481000704700BF80B489B000AFF860B9607A60BB
:104820003B60BB6803F00703FB61FB69C3F107034F
:10483000042B28BF0423BB61FB690433062B02D978
:10484000FB69033B00E000237B617B69FA6822FA85
:1048500003F3BA69012101FA02F2013A1A407B68B6
:104860001A607B69012202FA03F3013B1A46FB68D6
:104870001A403B681A602437BD465DF8047B7047D8
:1048800080B500AFFFF70CF90549054BDB6803F471
:10489000E062044B1343CB60FFF702F9FEE700BF71
:1048A00000ED00E00400FA0580B582B000AF78604A
:1048B0007B68B3F1807F01D3012311E00A4A7B6852
:1048C00023F07F43013B53604FF0FF300F21FFF790
:1048D0001BFF054B00229A60034B07221A6000233E
:1048E00018460837BD4680BD10E000E080B483B0B4
:1048F00000AF7860134BDB6803F08073002B1AD095
:104900004FF06043D3F8803E03F00103002B12D038
:104910004FF06043D3F8003E03F00103002B0AD0B0
:1049200000BF4FF060431B68002BFAD04FF060438C
:104930007A68D2B21A707B6818460C37BD465DF8AB
:10494000047B7047F0ED00E080B483B000AF4FF01F
:10495000FF337B60084B1B68084A934205D0064B27
:104960001B687B60044B054A1A607B6818460C374D
:10497000BD465DF8047B704744040020A55AA55A43
:1049800080B400AF064B1B68064A934201D1002356
:1049900000E001231846BD465DF8047B704700BF68
:1049A00044040020A55AA55A80B400AF104A104B09
:1049B0001B6843F0010313600D4B00229A600C4A00
:1049C0000B4B1B6823F0847323F480331360084B74
:1049D000084A5A60064A064B1B6823F4802313607A
:1049E000034B0022DA60BD465DF8047B704700BFD0
:1049F000003802401030002480B483B000AF03467A
:104A0000FB71054B00221A70034AFB7913700C37B7
:104A1000BD465DF8047B70470238024080B582B025
:104A200000AF00233B600023FB710023BB713120EA
:104A300000F086FC0346BB713B6801333B603B687A
:104A4000B3F5A06F02D0BB79002BF0D0312000F07D
:104A500077FC0346002B02D00123FB7101E0002309
:104A6000FB71FB7918460837BD4680BD80B485B020
:104A700000AF0346FB710023FB600A4B1B68FB6021
:104A8000FB6823F0F803FB60FB79DB00FA68134353
:104A9000FB60044AFB6813601437BD465DF8047B75
:104AA000704700BF0038024080B483B000AF0346B7
:104AB000FB71044AFB7913600C37BD465DF8047B3B
:104AC000704700BF0000474280B483B000AF034688
:104AD000FB710C4B00221A700A4B00221A70FB79F2
:104AE000012B02D0042B04D007E0064B01221A70E0
:104AF00003E0044B05221A7000BF0C37BD465DF879
:104B0000047B70477038024080B483B000AF034626
:104B1000FB71044AFB7913600C37BD465DF8047BDA
:104B2000704700BF800E474280B485B000AFF86088
:104B3000B9607A603B600A497B689A01BB681A4396
:104B40003B685B08013B1B041A43FB681A43BB69C3
:104B50001B0613434B601437BD465DF8047B70475A
:104B60000038024080B483B000AF0346FB71044AB2
:104B7000FB7913600C37BD465DF8047B704700BFBE
:104B80006000474280B483B000AF78603960064966
:104B90007B689A013B681B071343C1F884300C37CC
:104BA000BD465DF8047B70470038024080B483B096
:104BB00000AF0346FB71044AFB7913600C37BD4616
:104BC0005DF8047B704700BF6800474280B483B043
:104BD00000AF0346FB71044AFB7913600C37BD46F6
:104BE0005DF8047B704700BF4C00474280B485B03D
:104BF00000AF786039600023FB600A4B9B68FB6064
:104C0000FB6823F0EC63FB607A683B681343FA6847
:104C10001343FB60034AFB6893601437BD465DF89D
:104C2000047B70470038024080B485B000AF7860E4
:104C300039600023FB600A4B9B68FB60FB6823F034
:104C40007843FB607A683B681343FA681343FB6060
:104C5000034AFB6893601437BD465DF8047B7047D8
:104C60000038024080B485B000AF78600023FB605C
:104C7000094B9B68FB60FB6823F00303FB60FA6849
:104C80007B681343FB60044AFB6893601437BD469E
:104C90005DF8047B704700BF0038024080B400AF6D
:104CA000054B9B68DBB203F00C03DBB21846BD4634
:104CB0005DF8047B704700BF0038024080B485B0C7
:104CC00000AF78600023FB60094B9B68FB60FB68CA
:104CD00023F0F003FB60FA687B681343FB60044A2F
:104CE000FB6893601437BD465DF8047B704700BFD6
:104CF0000038024080B485B000AF78600023FB60CC
:104D0000094B9B68FB60FB6823F4E053FB60FA6887
:104D10007B681343FB60044AFB6893601437BD460D
:104D20005DF8047B704700BF0038024080B485B056
:104D300000AF78600023FB60094B9B68FB60FB6859
:104D400023F46043FB607B68DB00FA681343FB607D
:104D5000034AFB6893601437BD465DF8047B7047D7
:104D60000038024080B489B000AF78600023BB6196
:104D700000237B610023FB6102233B610023FB6076
:104D80000223BB60484B9B6803F00C03BB61BB690B
:104D9000042B07D0082B09D0002B3FD17B68434A56
:104DA0001A603FE07B68424A1A603BE03E4B5B681A
:104DB00003F480039B0DFB603B4B5B6803F03F03F8
:104DC000BB60FB68002B0DD0394ABB68B2FBF3F225
:104DD000354B596847F6C0730B409B0903FB02F340
:104DE000FB610CE0314ABB68B2FBF3F22E4B596811
:104DF00047F6C0730B409B0903FB02F3FB612A4B90
:104E00005B6803F440331B0C01335B003B61FA69C0
:104E10003B69B2FBF3F27B681A6003E07B68234ACC
:104E20001A6000BF204B9B6803F0F003BB61BB69B5
:104E30001B09BB611F4ABB6913441B78DBB27B6152
:104E40007B681A687B69DA407B685A60164B9B68FE
:104E500003F4E053BB61BB699B0ABB61154ABB69A4
:104E600013441B78DBB27B617B685A687B69DA404C
:104E70007B689A600C4B9B6803F46043BB61BB6921
:104E80005B0BBB610B4ABB6913441B78DBB27B61D4
:104E90007B685A687B69DA407B68DA602437BD46F4
:104EA0005DF8047B704700BF003802400024F40026
:104EB00000127A001C00002080B485B000AF78603A
:104EC0000023FB607B6803F44073B3F5407F11D18E
:104ED0000F4B9B68FB60FB6823F4F813FB607B6857
:104EE00023F0704323F44073FA681343FB60084ACD
:104EF000FB6893600649064B1A6F7B68C3F30B038C
:104F000013430B671437BD465DF8047B704700BF41
:104F10000038024080B483B000AF0346FB71044AFE
:104F2000FB7913600C37BD465DF8047B704700BF0A
:104F30003C0E474280B483B000AF0346FB71044A85
:104F4000FB7913600C37BD465DF8047B704700BFEA
:104F5000400E474280B483B000AF7860034A7B685C
:104F600013600C37BD465DF8047B70475C01474217
:104F700080B483B000AF78600B46FB70FB78002BE9
:104F800006D00949084B1A6B7B6813430B6306E094
:104F90000549054B1A6B7B68DB4313400B630C37E9
:104FA000BD465DF8047B70470038024080B483B092
:104FB00000AF78600B46FB70FB78002B06D00949E8
:104FC000084B5A6B7B6813434B6306E00549054B5E
:104FD0005A6B7B68DB4313404B630C37BD465DF86F
:104FE000047B70470038024080B483B000AF786023
:104FF0000B46FB70FB78002B06D00949084B9A6BD7
:105000007B6813438B6306E00549054B9A6B7B680D
:10501000DB4313408B630C37BD465DF8047B704760
:105020000038024080B483B000AF78600B46FB705C
:10503000FB78002B06D00949084B1A6C7B68134398
:105040000B6406E00549054B1A6C7B68DB43134093
:105050000B640C37BD465DF8047B70470038024096
:1050600080B483B000AF78600B46FB70FB78002BF8
:1050700006D00949084B5A6C7B6813434B6406E021
:105080000549054B5A6C7B68DB4313404B640C3776
:10509000BD465DF8047B70470038024080B483B0A1
:1050A00000AF78600B46FB70FB78002B06D00949F7
:1050B000084B1A697B6813430B6106E00549054BF1
:1050C0001A697B68DB4313400B610C37BD465DF802
:1050D000047B70470038024080B483B000AF786032
:1050E0000B46FB70FB78002B06D00949084B5A6928
:1050F0007B6813434B6106E00549054B5A697B68A1
:10510000DB4313404B610C37BD465DF8047B7047B1
:105110000038024080B483B000AF78600B46FB706B
:10512000FB78002B06D00949084B9A697B6813432A
:105130008B6106E00549054B9A697B68DB431340A8
:105140008B610C37BD465DF8047B70470038024028
:1051500080B483B000AF78600B46FB70FB78002B07
:1051600006D00949084B1A6A7B6813430B6206E0B4
:105170000549054B1A6A7B68DB4313400B620C3709
:10518000BD465DF8047B70470038024080B483B0B0
:1051900000AF78600B46FB70FB78002B06D0094906
:1051A000084B5A6A7B6813434B6206E00549054B7E
:1051B0005A6A7B68DB4313404B620C37BD465DF88F
:1051C000047B70470038024080B483B000AF786041
:1051D0000B46FB70FB78002B06D00949084B1A6D73
:1051E0007B6813430B6506E00549054B1A6D7B6828
:1051F000DB4313400B650C37BD465DF8047B7047FD
:105200000038024080B483B000AF78600B46FB707A
:10521000FB78002B06D00949084B5A6D7B68134375
:105220004B6506E00549054B5A6D7B68DB4313402F
:105230004B650C37BD465DF8047B70470038024073
:1052400080B483B000AF78600B46FB70FB78002B16
:1052500006D00949084B9A6D7B6813438B6506E0BD
:105260000549054B9A6D7B68DB4313408B650C3712
:10527000BD465DF8047B70470038024080B483B0BF
:1052800000AF78600B46FB70FB78002B06D0094915
:10529000084B1A6E7B6813430B6606E00549054B05
:1052A0001A6E7B68DB4313400B660C37BD465DF816
:1052B000047B70470038024080B483B000AF786050
:1052C0000B46FB70FB78002B06D00949084B5A6E41
:1052D0007B6813434B6606E00549054B5A6E7B68B5
:1052E000DB4313404B660C37BD465DF8047B7047CB
:1052F0000038024080B483B000AF03460A46FB7119
:105300001346BB71BB79002B08D00C490B4B1B78A3
:10531000DAB2FB791343DBB20B7009E00749074BA4
:105320001B78DAB2FB79DB43DBB21340DBB20B70E4
:105330000C37BD465DF8047B704700BF0D38024056
:1053400080B487B000AF0346FB710023FB600023ED
:105350007B610023FB74FB795B09DBB2FB60FB68BC
:10536000012B03D1124B1B687B6109E0FB68022B08
:1053700003D10F4B1B6F7B6102E00D4B5B6F7B61B9
:10538000FB7903F01F03FB60FB687A6922FA03F3E1
:1053900003F00103002B02D00123FB7401E0002382
:1053A000FB74FB7C18461C37BD465DF8047B7047D8
:1053B0000038024080B400AF044A044B5B6F43F0F6
:1053C00080735367BD465DF8047B70470038024028
:1053D00080B485B000AF0346FB710023FB73094B1B
:1053E000DA68FB791340002B02D00123FB7301E044
:1053F0000023FB73FB7B18461437BD465DF8047B26
:10540000704700BF0038024080B483B000AF03464D
:10541000FB71044AFB7913700C37BD465DF8047BC1
:10542000704700BF0E38024080B400AF00BFBD46D9
:105430005DF8047B704700BF80B400AF30BFBD464D
:105440005DF8047B704700BF80B400AF20BFBD464D
:105450005DF8047B704700BF80B400AF40BFBD461D
:105460005DF8047B704700BF80B400AFBFF36F8F5F
:10547000BD465DF8047B704780B400AFBFF34F8F2B
:10548000BD465DF8047B704780B400AFBFF35F8F0B
:10549000BD465DF8047B704780B485B000AF78608E
:1054A0007B681BBAFB60FB6818461437BD465DF885
:1054B000047B704780B485B000AF78607B685BBACE
:1054C000FB60FB6818461437BD465DF8047B7047E7
:1054D00080B485B000AF78607B68DBBAFB60FB68A6
:1054E00018461437BD465DF8047B704780B485B01C
:1054F00000AF78607B6893FAA3F3FB60FB68184603
:105500001437BD465DF8047B704700BF80B485B09A
:1055100000AF78607B68D3E84F3FFB73FB7B184696
:105520001437BD465DF8047B704700BF80B485B07A
:1055300000AF78607B68D3E85F3FFB81FB8918464A
:105540001437BD465DF8047B704700BF80B485B05A
:1055500000AF78607B6853E8003FFB60FB6818464B
:105560001437BD465DF8047B704700BF80B485B03A
:1055700000AF786039603B687A6843E80023FB60DD
:10558000FB6818461437BD465DF8047B704700BFC2
:1055900080B400AFBFF32F8FBD465DF8047B70472A
:1055A00080B485B000AF78607B68B3FA83F3FB7397
:1055B000FB7B18461437BD465DF8047B704700BF7F
:1055C00080B400AF62B6BD465DF8047B704700BF93
:1055D00080B400AF72B6BD465DF8047B704700BF73
:1055E00080B483B000AFEFF314837B607B68184610
:1055F0000C37BD465DF8047B704700BF80B483B0B4
:1056000000AF78607B6883F314880C37BD465DF883
:10561000047B704780B483B000AFEFF305837B60F9
:105620007B6818460C37BD465DF8047B704700BFA9
:1056300080B483B000AFEFF300837B607B681846D3
:105640000C37BD465DF8047B704700BF80B483B063
:1056500000AFEFF303837B607B6818460C37BD46D1
:105660005DF8047B704700BF90B400AFEFF309838F
:105670001C4623461846BD4690BC704780B483B094
:1056800000AF78607B6883F309880C37BD465DF80E
:10569000047B704790B400AFEFF308831C462346A9
:1056A0001846BD4690BC704780B483B000AF7860A8
:1056B0007B6883F308880C37BD465DF8047B704730
:1056C00080B483B000AFEFF310837B607B68184633
:1056D0000C37BD465DF8047B704700BF80B483B0D3
:1056E00000AF78607B6883F310880C37BD465DF8A7
:1056F000047B704780B400AF61B6BD465DF8047BA3
:10570000704700BF80B400AF71B6BD465DF8047B42
:10571000704700BF80B483B000AFEFF312837B60AB
:105720007B6818460C37BD465DF8047B704700BFA8
:1057300080B483B000AF78607B6883F311880C3746
:10574000BD465DF8047B704780B483B000AFEFF3D3
:1057500013837B607B6818460C37BD465DF8047B7D
:10576000704700BF80B483B000AF78607B6883F37C
:1057700013880C37BD465DF8047B704780B483B056
:1057800000AFF1EE103A7B607B6818460C37BD46DF
:105790005DF8047B704700BF80B483B000AF7860D1
:1057A0007B68E1EE103A0C37BD465DF8047B70472C
:1057B00080B485B000AF786039607B683A6883FA5E
:1057C00002F3FB60FB6818461437BD465DF8047BA6
:1057D000704700BF80B485B000AF786039607B68E7
:1057E0003A6883FA12F3FB60FB6818461437BD462B
:1057F0005DF8047B704700BF80B485B000AF78606F
:1058000039607B683A6883FA22F3FB60FB681846CC
:105810001437BD465DF8047B704700BF80B485B087
:1058200000AF786039607B683A6883FA42F3FB60C6
:10583000FB6818461437BD465DF8047B704700BF0F
:1058400080B485B000AF786039607B683A6883FACD
:1058500052F3FB60FB6818461437BD465DF8047BC5
:10586000704700BF80B485B000AF786039607B6856
:105870003A6883FA62F3FB60FB6818461437BD464A
:105880005DF8047B704700BF80B485B000AF7860DE
:1058900039607B683A68C3FA02F3FB60FB6818461C
:1058A0001437BD465DF8047B704700BF80B485B0F7
:1058B00000AF786039607B683A68C3FA12F3FB6026
:1058C000FB6818461437BD465DF8047B704700BF7F
:1058D00080B485B000AF786039607B683A68C3FAFD
:1058E00022F3FB60FB6818461437BD465DF8047B65
:1058F000704700BF80B485B000AF786039607B68C6
:105900003A68C3FA42F3FB60FB6818461437BD4699
:105910005DF8047B704700BF80B485B000AF78604D
:1059200039607B683A68C3FA52F3FB60FB6818463B
:105930001437BD465DF8047B704700BF80B485B066
:1059400000AF786039607B683A68C3FA62F3FB6045
:10595000FB6818461437BD465DF8047B704700BFEE
:1059600080B485B000AF786039607B683A6893FA9C
:1059700002F3FB60FB6818461437BD465DF8047BF4
:10598000704700BF80B485B000AF786039607B6835
:105990003A6893FA12F3FB60FB6818461437BD4669
:1059A0005DF8047B704700BF80B485B000AF7860BD
:1059B00039607B683A6893FA22F3FB60FB6818460B
:1059C0001437BD465DF8047B704700BF80B485B0D6
:1059D00000AF786039607B683A6893FA42F3FB6005
:1059E000FB6818461437BD465DF8047B704700BF5E
:1059F00080B485B000AF786039607B683A6893FA0C
:105A000052F3FB60FB6818461437BD465DF8047B13
:105A1000704700BF80B485B000AF786039607B68A4
:105A20003A6893FA62F3FB60FB6818461437BD4688
:105A30005DF8047B704700BF80B485B000AF78602C
:105A400039607B683A68D3FA02F3FB60FB6818465A
:105A50001437BD465DF8047B704700BF80B485B045
:105A600000AF786039607B683A68D3FA12F3FB6064
:105A7000FB6818461437BD465DF8047B704700BFCD
:105A800080B485B000AF786039607B683A68D3FA3B
:105A900022F3FB60FB6818461437BD465DF8047BB3
:105AA000704700BF80B485B000AF786039607B6814
:105AB0003A68D3FA42F3FB60FB6818461437BD46D8
:105AC0005DF8047B704700BF80B485B000AF78609C
:105AD00039607B683A68D3FA52F3FB60FB6818467A
