:020000040040BA
:1000000030120020C5004000690140006901400035
:1000100069014000690140006901400000000000E2
:100020000000000000000000000000006901400026
:1000300069014000000000006901400075014000B6
:100040006901400069014000690140006901400008
:1000500069014000690140006901400069014000F8
:1000600069014000690140006901400069014000E8
:1000700069014000690140006901400069014000D8
:1000800069014000690140006901400069014000C8
:1000900069014000690140006901400069014000B8
:1000A00069014000690140006901400069014000A8
:1000B0006901400069014000690140006901400098
:1000C00069014000B0B500AF49F6F435C0F2400513
:1000D00040F20004C2F20004A5420CD005E02B68F7
:1000E000236004F1040405F1040540F6C413C2F2D0
:1000F00000039C42F3D340F6C414C2F2000404E0AF
:100100004FF00003236004F1040440F62C23C2F2F4
:1001100000039C42F4D340F20005C0F240054FF4C6
:100120006D43CEF200032A4622F0604222F07F02A5
:100130009A602A466FF060439A4212D92A4645F6E1
:10014000FF73C2F200039A420BD84FF46D43CEF214
:1001500000034FF46D42CEF20002926842F000526A
:100160009A6000F099FAFEE780B400AFBD4680BC0B
:10017000704700BF80B400AF40F61823C2F20003FE
:100180001B68002B0BD040F61823C2F200031B683B
:1001900003F1FF3240F61823C2F200031A60BD4695
:1001A00080BC704780B483B000AF786040F61823FD
:1001B000C2F200037A681A6000BF40F61823C2F248
:1001C00000031B68002BF8D107F10C07BD4680BC6B
:1001D000704700BF80B483B000AF03463960FB7145
:1001E00097F90730002B10DA4FF46D43CEF200037D
:1001F000FA7902F00F02A2F104013A68D2B24FEA92
:100200000212D2B25B181A760DE04FF46143CEF2BF
:10021000000397F907103A68D2B24FEA0212D2B23D
:100220005B1883F8002307F10C07BD4680BC7047BC
:1002300080B582B000AF78607A686FF07F439A42F1
:1002400002D94FF001031FE04EF21003CEF200037B
:100250007A6822F07F4202F1FF325A604FF0FF309D
:100260004FF00F01FFF7B6FF4EF21003CEF200037E
:100270004FF000029A604EF21003CEF200034FF0EE
:1002800007021A604FF00003184607F10807BD4641
:1002900080BD00BF80B582B000AF4FF000037B602F
:1002A0001DE040F20003C2F200037A684FEA4212F6
:1002B0009B1803F108034FF003025A707B684FEA62
:1002C000431240F20003C2F20003D31818464FF065
:1002D000010100F08DFE7B6803F101037B607B6808
:1002E000072BDED907F10807BD4680BD80B582B077
:1002F00000AF4FF000037B601DE040F20003C2F24C
:1003000000037A684FEA42129B1803F108034FF08A
:1003100002025A707B684FEA431240F20003C2F2B5
:100320000003D31818464FF0010100F061FE7B680E
:1003300003F101037B607B68072BDED907F1080717
:10034000BD4680BD80B582B000AF4FF000037B603A
:1003500010E07B684FEA431247F6C443C0F2400303
:10036000D31818464FF0010100F042FE7B6803F1FC
:1003700001037B607B68052BEBD907F10807BD46BD
:1003800080BD00BF80B483B000AF0346FB7140F274
:100390000003C2F200035B68FA791A6340F20003BB
:1003A000C2F200035B68FA796FEA0202D2B25A63C2
:1003B00007F10C07BD4680BC704700BF80B483B016
:1003C00000AF40F20003C2F200035B68DB6BFB711D
:1003D000FB79184607F10C07BD4680BC704700BF8B
:1003E00080B500AF014800F0AFFE80BDE47C400066
:1003F00080B500AF47F6C440C0F2400000F096FE62
:1004000080BD00BF80B500AF014800F08FFE80BD09
:10041000247D400080B500AF014800F095FE80BD0E
:10042000247D400080B500AF014800F07FFE80BD14
:10043000447D400080B500AF014800F085FE80BDDE
:10044000447D400080B500AF014800F06FFE80BDE4
:10045000047D400080B500AF014800F075FE80BD0E
:10046000047D400080B582B000AF0346FB71FFF70A
:10047000F1FFFB791846FFF785FF4FF00A00FFF701
:1004800091FEFFF7C7FF4FF00A00FFF78BFEFFF763
:10049000B9FF07F10807BD4680BD00BF80B582B037
:1004A00000AF0346FB71FFF7CDFFFB791846FFF75E
:1004B00069FF4FF00A00FFF775FEFFF7ABFF4FF043
:1004C0000A00FFF76FFEFFF79DFF07F10807BD4623
:1004D00080BD00BF80B584B000AF0346FB71FFF75D
:1004E000B9FFFB791846FFF74DFFFFF793FFFFF7C2
:1004F00089FFFFF7A7FFFFF7F9FEFFF79BFFFFF765
:100500005DFF0346FB73FFF78DFFFFF7C3FEFB7B29
:10051000184607F11007BD4680BD00BF80B582B008
:1005200000AFFFF78FFFFFF7E1FEFFF783FFFFF755
:1005300045FF0346FB71FFF775FFFFF7ABFEFB7945
:10054000184607F10807BD4680BD00BF90B585B0CD
:1005500000AF0346FB71FFF77DFFFFF79BFEFB79C2
:100560001846FFF70FFFFFF755FFFFF74BFFFFF7A9
:1005700069FFFFF7BBFEFFF75DFF4FF0FF00FFF7DE
:1005800001FFFFF71BFF0346FB60FFF74BFFFFF781
:1005900051FF4FF0FF00FFF7F5FEFB684FEA032421
:1005A000FFF70CFF03462343FB60FFF73BFFFFF71A
:1005B00041FF4FF0FF00FFF7E5FEFB684FEA032421
:1005C000FFF7FCFE03462343FB60FFF72BFFFFF71B
:1005D00031FF4FF0FF00FFF7D5FEFB684FEA032421
:1005E000FFF7ECFE03462343FB60FFF71BFFFFF71B
:1005F00051FEFB68184607F11407BD4690BD00BFC9
:1006000080B582B000AFF880B9807A803B804FF02F
:100610002A00FFF727FFFB884FEA13239BB2DBB2C8
:100620001846FFF73BFFFB88DBB21846FFF736FFA3
:100630007B884FEA13239BB2DBB21846FFF72EFFED
:100640007B88DBB21846FFF729FF4FF02B00FFF73E
:1006500009FFBB884FEA13239BB2DBB21846FFF7B2
:100660001DFFBB88DBB21846FFF718FF3B884FEA37
:1006700013239BB2DBB21846FFF710FF3B88DBB2B7
:100680001846FFF70BFF4FF02C00FFF7EBFE07F1CA
:100690000807BD4680BD00BF80B582B000AF4FF0F7
:1006A000A000FFF7C5FD4FF00B0000F0DFFAFFF7E9
:1006B000F1FDFFF747FE47F6A853C0F240039B78D1
:1006C0004FEA03239AB247F6A853C0F24003DB78FF
:1006D000D3189AB240F6C413C2F200039A8047F6C8
:1006E000A853C0F240031B794FEA03239AB247F69E
:1006F000A853C0F240035B79D3189AB240F6C413F2
:10070000C2F20003DA80FFF76BFEFFF771FEFFF71E
:1007100079FEFFF787FE4FF0D300FFF717FF024681
:1007200040F61C23C2F200031A604FF0C000FFF72E
:1007300099FE4FF02300FFF7B1FE4FF0C100FFF725
:1007400091FE4FF01000FFF7A9FE4FF0C500FFF734
:1007500089FE4FF03E00FFF7A1FE4FF02800FFF7A3
:100760009DFE4FF0C700FFF77DFE4FF08600FFF7BC
:1007700095FE4FF03600FFF775FE4FF04800FFF78B
:100780008DFE4FF03A00FFF76DFE4FF05500FFF77A
:1007900085FE4FF0B100FFF765FE4FF00000FFF758
:1007A0007DFE4FF01800FFF779FE4FF0B600FFF71F
:1007B00059FE4FF00800FFF771FE4FF08200FFF77F
:1007C0006DFE4FF02700FFF769FE4FF02600FFF7A0
:1007D00049FE4FF00100FFF761FE4FF0E000FFF728
:1007E00041FE4FF00F00FFF759FE4FF03100FFF7C9
:1007F00055FE4FF02B00FFF751FE4FF00C00FFF7B6
:100800004DFE4FF00E00FFF749FE4FF00800FFF7D6
:1008100045FE4FF04E00FFF741FE4FF0F100FFF7AD
:100820003DFE4FF03700FFF739FE4FF00700FFF7AE
:1008300035FE4FF01000FFF731FE4FF00300FFF7D9
:100840002DFE4FF00E00FFF729FE4FF00900FFF7D5
:1008500025FE4FF00000FFF721FE4FF0E100FFF70B
:1008600001FE4FF00000FFF719FE4FF00E00FFF7FA
:1008700015FE4FF01400FFF711FE4FF00300FFF7D5
:100880000DFE4FF01100FFF709FE4FF00700FFF7D4
:1008900005FE4FF03100FFF701FE4FF0C100FFF7FA
:1008A000FDFD4FF04800FFF7F9FD4FF00800FFF79E
:1008B000F5FD4FF00F00FFF7F1FD4FF00C00FFF7D3
:1008C000EDFD4FF03100FFF7E9FD4FF03600FFF787
:1008D000E5FD4FF00F00FFF7E1FD4FF01100FFF7CE
:1008E000C1FD4FF02900FFF7BDFD40F6C413C2F271
:1008F0000003DB8803F1FF339AB240F6C413C2F25F
:1009000000039B8803F1FF339BB24FF000004FF0D0
:100910000001FFF775FE4FF000037B600EE07B687F
:1009200003F1080247F6A853C0F240039B5C184647
:10093000FFF7B4FD7B6803F101037B6040F6C4134D
:10094000C2F200039B884FEA430240F6C413C2F28E
:100950000003DB8803FB02F31A467B689A42DED869
:10096000014800F0E3FBFEE7647D400080B400AF87
:1009700040F6D013C2F200031846BD4680BC704753
:1009800080B582B000AF78604FF0010047F6845127
:10099000C0F240014FF0040200F044F9FEE700BF4E
:1009A00080B483B000AF78604FF0FF33184607F192
:1009B0000C07BD4680BC704780B485B000AFF860BE
:1009C000B9607A6040F62823C2F200034FF00C02AF
:1009D0001A604FF0FF33184607F11407BD4680BC7C
:1009E000704700BF80B400AF40F62823C2F2000376
:1009F0004FF00B021A604FF0FF331846BD4680BC23
:100A0000704700BF80B483B000AF786039603B6846
:100A10004FF400525A604FF00003184607F10C07DC
:100A2000BD4680BC704700BF80B400AF4FF00103EB
:100A30001846BD4680BC704780B483B000AF786074
:100A40007B6803F10003022B02D84FF0010308E09A
:100A500040F62823C2F200034FF009021A604FF05B
:100A60000003184607F10C07BD4680BC704700BF65
:100A700080B483B000AF7860396040F62823C2F2BA
:100A800000034FF016021A604FF0FF33184607F1CB
:100A90000C07BD4680BC704780B483B000AF78605F
:100AA000396040F62823C2F200034FF01F021A609B
:100AB0004FF0FF33184607F10C07BD4680BC704766
:100AC00080B485B000AFF860B9607A604FF0000381
:100AD000184607F11407BD4680BC704780B584B046
:100AE00000AF786040F6D413C2F200031B68002BFD
:100AF00008D140F6D413C2F2000340F62C22C2F211
:100B000000021A6040F6D413C2F200031B68FB60B7
:100B100040F63023C2F20003BB6040F6D413C2F2A9
:100B200000031A687B68D218BB689A4213D94FF049
:100B3000020047F68C51C0F240014FF0190200F05C
:100B400071F840F62823C2F200034FF00C021A603D
:100B50004FF0FF330CE040F6D413C2F200031A68E2
:100B60007B68D21840F6D413C2F200031A60FB6807
:100B7000184607F11007BD4680BD00BF80B485B0A0
:100B800000AFF860B9607A604FF00103184607F1D2
:100B90001407BD4680BC704780B483B000AF786056
:100BA00039603B684FF400525A604FF0000318461A
:100BB00007F10C07BD4680BC704700BF80B483B00E
:100BC00000AF78604FF0FF33184607F10C07BD46C1
:100BD00080BC704780B483B000AF786040F62823B3
:100BE000C2F200034FF002021A604FF0FF331846C2
:100BF00007F10C07BD4680BC704700BF80B483B0CE
:100C000000AF786040F62823C2F200034FF00A02DA
:100C10001A604FF0FF33184607F10C07BD4680BC41
:100C2000704700BF80B485B000AFF860B9607A60EB
:100C30004FF00103184607F11407BD4680BC70470A
:100C400080B400AF4FF48063C4F20E034FF0010292
:100C50005A6000BF4FF48063C4F20E039B6803F038
:100C60000103002BF6D0BD4680BC704780B582B032
:100C700000AF78607B681F2B12D949F60810C0F2CC
:100C8000400000F0BDFA49F61810C0F2400049F6E5
:100C90003811C0F240014FF0660200F0B1FAFEE7F1
:100CA0004FF48063C4F20E039B691A467B684FF0D1
:100CB000010101FA03F31A407B684FF0010101FAC8
:100CC00003F39A4207D149F65010C0F24000796808
:100CD00000F096FA09E04FF48063C4F20E037A68DC
:100CE0004FF0010101FA02F21A6107F10807BD464F
:100CF00080BD00BF80B582B000AF78607B681F2BDD
:100D000012D949F60810C0F2400000F079FA49F60D
:100D10001810C0F2400049F63811C0F240014FF0FF
:100D20007C0200F06DFAFEE74FF48063C4F20E031C
:100D30009B691A467B684FF0010101FA03F31A40E0
:100D40007B684FF0010101FA03F39A4207D049F69C
:100D50009810C0F24000796800F052FA09E04FF4B0
:100D60008063C4F20E037A684FF0010101FA02F2C7
:100D70005A6107F10807BD4680BD00BF80B500AFCE
:100D80004FF48063C4F20E034FF6FC72C3F6FF7299
:100D90001A6100BF4FF48063C4F20E039B6923F015
:100DA000404222F003024FF6FC73C3F6FF739A42EF
:100DB000F0D149F6DC10C0F2400000F021FA80BD0D
:100DC00080B500AF4FF48063C4F20E034FF6FC729F
:100DD000C3F6FF725A6100BF4FF48063C4F20E0382
:100DE0009B6923F0404323F00303002BF4D149F621
:100DF000FC10C0F2400000F003FA80BD80B400AFE8
:100E00004FF48063C4F20E039B691A464FF6FC73DD
:100E1000C3F6FF739A4214BF002301231846BD4650
:100E200080BC704780B483B000AF78604FF48063BB
:100E3000C4F20E039B691A467B684FF0010101FA68
:100E400003F31340184607F10C07BD4680BC7047FA
:100E500080B500AFFFF7F4FE80BD00BF80B487B05F
:100E600000AFF860B9601346FB71FB68BA685A645A
:100E7000FB79002B03D0FB68BA685A6602E0FB6876
:100E8000BA681A66FB681B6F7B61FB681B6F1A46AA
:100E9000BB686FEA03017B690B401A40FB681A6765
:100EA000FB68BA685A6007F11C07BD4680BC7047F2
:100EB00080B487B000AFF860B9601346FB71FB687F
:100EC000BA685A64FB79002B03D0FB68BA685A668B
:100ED00002E0FB68BA681A66FB681B6F7B61BA6840
:100EE0007B691A43FB681A67FB68BA685A6007F1A6
:100EF0001C07BD4680BC704780B485B000AFF86069
:100F0000B9607A60FB68BA68C3F88420BB686FEA8E
:100F10000302FB68C3F880207B684FEA83434FEAF3
:100F20009343FA68C2F88C3007F11407BD4680BCC1
:100F3000704700BF80B485B000AFF860B960FA7147
:100F4000BB71FB68BA685A64FB79002B03D0FB685D
:100F5000BA685A6602E0FB68BA681A66BB79002B69
:100F600003D0FB68BA681A6202E0FB68BA685A628A
:100F7000FB68BA685A61FB68BA681A6007F114071F
:100F8000BD4680BC704700BF80B485B000AFF8603C
:100F9000B960FA71BB71FB68BA685A643B7E002B7A
:100FA00003D0FB68BA685A6602E0FB68BA681A6642
:100FB000BB79002B03D0FB68BA681A6502E0FB68B6
:100FC000BA685A65FB79002B03D0FB68BA681A63CC
:100FD00002E0FB68BA685A63FB68BA681A61FB688A
:100FE000BA681A6007F11407BD4680BC704700BF9D
:100FF00090B585B002AF786039608CE07B685B7A31
:10100000042B7CD801A252F823F000BF211040002D
:101010003F1040005D104000C5104000C51040006A
:101020007B6859687B681A687B689B7A03F00103C8
:10103000DBB2084611461A46FFF710FF63E07B68F3
:1010400059687B681A687B689B7A03F00103DBB2FE
:10105000084611461A46FFF72BFF54E04FF4806311
:10106000C4F20E037A68127A4FF0010101FA02F21B
:101070001A617B6858687B6819687B689B7A03F003
:101080000103DAB27B689B7A03F00203002B0CBFEA
:1010900000230123DBB2FFF74DFF7B689B7A03F04F
:1010A0000203002B2ED07B6859687B689A697B68A5
:1010B0009B8BC3F30D039BB2084611461A46FFF7FC
:1010C0001BFF1FE07B6858687B6819687B685B7A48
:1010D000042B14BF00230123DAB27B689B7A03F050
:1010E0000403002B0CBF00230123DBB27C68A47A2D
:1010F00004F00104E4B20094FFF746FF03E04FF070
:1011000000030EE000BF7B6803F120037B603B68B7
:1011100003F1FF333B603B68002B7FF46FAF4FF070
:101120000103184607F10C07BD4690BD80B483B09B
:1011300000AF78607B685B687A6812681A6307F1B1
:101140000C07BD4680BC704780B483B000AF7860A8
:101150007B685B687A6812685A6307F10C07BD46C2
:1011600080BC704780B485B000AF78607B685B7AE4
:10117000032B03D07B685B7A042B04D17B685B680C
:101180009B6BFB6003E07B685B68DB6BFB607B68F1
:101190001A68FB681340002B02D14FF0000301E0F6
:1011A0004FF00103184607F11407BD4680BC704795
:1011B00080B483B000AF78607B685B689B6B1A4635
:1011C0007B681B681340002B02D14FF0000301E045
:1011D0004FF00103184607F10C07BD4680BC70476D
:1011E0000EB410B583B005AC54F8042B81682346C7
:1011F000019400F091F803B0BDE8104003B07047CF
:101200000FB410B540F2305382B004ACC2F2000308
:1012100054F8042B186823468168019400F07CF888
:1012200002B0BDE8104004B0704700BF38B50C46AE
:101230000968054609B1FFF7F9FF28462146BDE8D0
:10124000384002F033BE00BF224B70B51B68054624
:10125000984232D0C36CABB10022164653F822102C
:1012600009B907E021460C68284602F01FFE002C51
:10127000F8D1EB6C0136202E3246EFD128461946C4
:1012800002F014FE296C11B1284602F00FFED5F8C9
:10129000481159B105F5A676B14201D106E02146C3
:1012A0000C68284602F002FEA642F8D1696D11B121
:1012B000284602F0FBFDAB6B03B970BDEB6B284613
:1012C0009847D5F8E0120029F7D02846BDE87040CD
:1012D000FFF7ACBF30050020F8B50746B0B1D7F82E
:1012E000486176B175686C1E08D4023506EB850539
:1012F00055F8043D013C9847631CF9D13668002E2F
:10130000F0D1FB6B0BB138469847F8BD014B1F6815
:10131000E5E700BF300500202DE9F04FADF5AC6DDD
:1013200083B08B4614460F93099002F013FF0068B8
:10133000002114900020CDE91601149804F0DAF889
:101340000999189019B18B6B002B00F05681BBF8EE
:101350000C60B3B299040AD4DBF8643046F400564A
:1013600023F40053CBF86430ABF80C60B3B21A0727
:1013700040F1C680DBF81020002A00F0C18003F0A5
:101380001A030A2B00F0CB8046F267600DF59A61D4
:1013900000230C31C6F266600E93CDF84415CDF8EB
:1013A0004C35CDF8483508941A931B930B930E4691
:1013B0001990089C2378002B00F02381252B00F046
:1013C00020812246274601E0252B04D012F8013F58
:1013D0000137002BF8D1089C3B1B9BB1DDF8484539
:1013E000DDF84C5501340898ED18072C86E8090003
:1013F000CDF84C55CDF8484500F3D88008360B9C05
:10140000E4180B943B78002B00F0DE8000240C9451
:101410007C1C089400200024089A8DF867057B78CE
:1014200007944FF0FF3720252B200132A3F1200134
:10143000582900F2C382DFE811F0D302C102C102D1
:10144000DC02C102C102C102C102C102C1024003E9
:10145000E600C1025D00EA00C1020401F201F201EE
:10146000F201F201F201F201F201F201F201C10214
:10147000C102C102C102C102C102C102C102C10254
:10148000C10204020A01C1020A01C102C102C10271
:10149000C1029701C102C1029D01C102C102C10284
:1014A000C102C102DD01C102C1021F02C102C102AB
:1014B000C102C102C102C102C102C102C102C10214
:1014C000440226030A010A010A013A032603C10263
:1014D000C102E202C102EC02FA020E035C02C10286
:1014E0006202C1029502C102C102A8020C9C0F91C6
:1014F00064420C94079C44F004040794137894E726
:101500000998594601F0A4FA002841F01482BBF86A
:101510000C60B3B203F01A030A2B7FF435AFBBF8AB
:101520000E502F043FF530AFDBF864E0DBF81CC051
:10153000DBF8248022460DF58E611DAC4FF48067E8
:101540000431CDF87444CDF8844426F0020600241A
:1015500009980F9BADF88064CDF8D8E4ADF88254BB
:10156000CDF890C4CDF89884CDF87C74CDF888740B
:10157000CDF88C44FFF7D0FEA0420B900BDB0DF5AD
:101580008E610998043102F097FA0B9C002818BF6D
:101590004FF0FF340B94BDF88034580627D5BBF8C4
:1015A0000C3043F04003ABF80C3020E00DF5A8629E
:1015B000099859460432069303F0CCFF069B68B99C
:1015C0000DF59A660C361AE7DDF84C3533B10DF59A
:1015D000A86209985946043203F0BCFFBBF80C30EE
:1015E0000B9C13F0400F18BF4FF0FF340B940B9877
:1015F0005BB00DF5806DBDE8F08F084602F074FB1E
:10160000A5E6089FFEE68DF8670513780DE71446FA
:1016100014F8013B2A2B01F0E581A3F130010929DF
:1016200001F2A281002714F8013B07EB870701EBC9
:101630004707A3F1300109292246F4D947EAE777A1
:10164000F4E6079C44F0800407941378EDE60F9CC1
:101650001393E31D089223F00703D3F800805D681D
:1016600008330F9342462B4629464046CDE91623C0
:1016700003F0C2FD01282946404640F0938600222F
:10168000002305F0D9FF002840F0F6879DF8673564
:1016900003240A9400241094AE4A139CAE49472CAC
:1016A000CCBF8A469246079C24F08004079403240A
:1016B0000D940024159413B10A9C01340A94079BDD
:1016C00013F00203119302D00A9C02340A94079B80
:1016D00013F08403129340F0FC810C9C0A98271AA3
:1016E000002F40F3F681102FDDF84C55DDF848450A
:1016F000DFF86C822ADD23464FF010094446DDF8FE
:10170000248003E0103F0836102F1DDD0133103513
:10171000072B86E81002CDF84C55CDF84835F1DDA1
:101720000DF5A86240465946043203F013FF002825
:101730007FF454AF0DF59A66103F0C36102FDDF88C
:101740004C55DDF84835E1DCA0461C460134ED1966
:10175000072CC6F800807760CDF84C55CDF8484589
:1017600000F3E2840836B6E1079C44F008040794CD
:1017700013785AE6079C139344F010040794079CCF
:10178000089214F0200300F059810F9CE31D23F010
:10179000070303F10804D3E900890F940023002014
:1017A0008DF86705002F03DB079C24F08004079465
:1017B00058EA090040F09982002F40F09682002BF1
:1017C00040F05284079CE20740F14E8430238DF8AC
:1017D00043350DF5A86A01230D930AF1030A0D9C08
:1017E0009DF86735BC42B8BF3C460A940024109768
:1017F000159460E7079C089244F010040794079C36
:101800001393A20640F1B4800F9CE31D23F007035D
:1018100003F10804D3E900890F940123BFE71446BC
:101820000021A3F1300214F8013B01EB8101A3F187
:10183000300CBCF1090F02EB41012246F1D90C91A9
:10184000F4E5079C089244F010040794079C139356
:10185000A10640F11E810F9CE31D23F00703D3E98D
:10186000000108330F9380468946002871F1000279
:10187000C0F28E85012395E7384C08921A94079C94
:101880001393A50640F189800F9CE31D23F0070305
:1018900003F108040F94D3E90089079CE00740F1A5
:1018A0008B8058EA090000F08780139C30238DF864
:1018B0006545079C8DF8643544F0020407940223C3
:1018C0006DE7012413930A940F9B0F9C1B6804344B
:1018D0000F94002001240DF5A26A08928DF81C35A2
:1018E0008DF867050D940AF10C0A002310931593E7
:1018F000E5E6079C44F020040794137895E50F9CD7
:1019000000208DF86705D4F800A0089213930434E2
:10191000BAF1000F00F03887002F5046C0F2FC8665
:1019200000213A4602F030FF002800F0F987CAEBA8
:1019300000000023B8420D90109300F392860D989A
:1019400020EAE0700F9400240A909DF86735159402
:10195000B1E600BF2C9A4000309A40003C9A40000B
:10196000709A4000079C0892A20613933FF54CAF73
:10197000079CE30640F1B8850F9C23680434984621
:101980000F944FF00009012309E79F4C08921A9425
:10199000079C1393A5063FF577AF079CE40640F13B
:1019A000C5850F9C236804340F94079C9846E00774
:1019B0004FF000093FF575AF0223F0E6089213934C
:1019C000002B3FF401AE012400200DF5A26A0A9419
:1019D0008DF81C358DF867050D940AF10C0A84E723
:1019E0009DF86735002B40F09E858DF8675513787C
:1019F0001BE5079C44F001040794137815E5137860
:101A000011466C2B00F04F86079C44F0100407949D
:101A10000BE5079C0892A40640F150850F9C0B9A99
:101A20002368D11704341A6059600F94C1E4079CED
:101A3000139314F0200308927FF4A7AE079C14F0D0
:101A4000100200F02C850F9C226804340F949046FD
:101A50004FF00009A3E60F9C0F9B04340F94079CE2
:101A60001B6844F002040794674C08929846782259
:101A700030238DF864354FF000098DF865251A94F0
:101A8000022313928BE6079C0892A10613933FF55D
:101A9000E2AE079CE20640F136850F9C23680434D1
:101AA0004FEAE3790F94984618464946DDE6079CCD
:101AB00044F0400407941378B7E40F9C24680C9416
:101AC0000F9C211D0C9C002CFFF610AD13780F917C
:101AD000ABE4DDF84C559DF867358BB1DDF8484532
:101AE0000DF5AC6307330134336001350123072C56
:101AF0007360CDF84C55CDF8484500F36582083643
:101B0000119B8BB1DDF848450DF5AC63043301340E
:101B1000336002350223072C7360CDF84C55CDF8A5
:101B2000484500F361820836129C802C00F07481D5
:101B3000109B0D9C1F1B002F3DDD102FDDF848452D
:101B4000DFF8C8802ADD23464FF010094446DDF84F
:101B5000248003E0103F0836102F1DDD01331035BF
:101B6000072B86E81002CDF84C55CDF84835F1DD4D
:101B70000DF5A86240465946043203F0EBFC0028FC
:101B80007FF42CAD0DF59A66103F0C36102FDDF862
:101B90004C55DDF84835E1DCA0461C460134ED1912
:101BA000072CC6F800807760CDF84C55CDF8484535
:101BB00000F3FA810836079CE30500F1C380DDF8E5
:101BC00048450D9B0134ED18072CC6F800A0736042
:101BD000CDF84C55CDF8484577DC0836079C6307AF
:101BE00053D50C9C0A98271A002F4EDD102FDDF8D4
:101BF0004845DFF81C8031DD23464FF0100944468C
:101C0000DDF824800AE000BF509A40001C9A400092
:101C1000709A4000103F0836102F1DDD013310353B
:101C2000072B86E81002CDF84C55CDF84835F1DD8C
:101C30000DF5A86240465946043203F08BFC00289B
:101C40007FF4CCAC0DF59A66103F0C36102FDDF802
:101C50004C55DDF84835E1DCA0461C4601347D19C1
:101C6000072CC6F800807760CDF84C55CDF8484574
:101C70000BDD0DF5A86209985946043203F06AFCA1
:101C800000287FF4ABACDDF84C550B9C0A980C99FE
:101C90008842ACBF241864180B94002D40F0788162
:101CA00000220DF59A66CDF848250C36FFF781BB6A
:101CB000A0461C460134ED19072CC6F80080776059
:101CC000CDF84C55CDF8484587DD0DF5A86209984B
:101CD0005946043203F03EFC00287FF47FAC0DF53A
:101CE0009A660C36DDF84C5578E7012B00F0AA8196
:101CF000022B00F089810DF5A8640434234600E02E
:101D000053464FEAD80242EA49724FEAD90108F035
:101D100007008946904658EA090100F1300203F8AD
:101D2000012C03F1FF3AEBD10798C10706D5302A01
:101D300004D03022A3F1020A03F8022CCAEB0404F7
:101D40000D944CE5139C652C40F3AB80DDE9160146
:101D50000022002305F066FC002800F09181DDF8E8
:101D60004845C54B0134336001350123072C7360AE
:101D7000CDF84C55CDF8484500F3F6830836DDF82C
:101D800058350E9CA34203DB079CE4077FF526AF82
:101D9000DDF848451898013414992D18072C316046
:101DA0007060CDF84C55CDF8484500F38484083672
:101DB0000E9C671E002F7FF711AF102FDDF84845EE
:101DC000DFF8B8827FF776AF23464FF0100944461C
:101DD000DDF8248004E00836103F102F7FF768AF4D
:101DE00001331035072B86E81002CDF84C55CDF89D
:101DF0004835F0DD0DF5A86240465946043203F03F
:101E0000A9FB00287FF4EAAB0DF59A66DDF84C5586
:101E1000DDF848350C36DFE70C9C0A98271A002FAE
:101E20007FF786AE102FDDF84845DFF850822ADDB7
:101E300023464FF010094446DDF8248003E0103FAC
:101E40000836102F1DDD01331035072B86E81002F0
:101E5000CDF84C55CDF84835F1DD0DF5A86240467A
:101E60005946043203F076FB00287FF4B7AB0DF53A
:101E70009A66103F0C36102FDDF84C55DDF84835CA
:101E8000E1DCA0461C460134ED19072CC6F80080A1
:101E90007760CDF84C55CDF8484500F36882083698
:101EA00046E60E9C012C40F31982DDF848450135C9
:101EB00001340123072CC6F800A07360CDF84C55FF
:101EC000CDF8484500F32F8208361898013414994C
:101ED0002D18072C31607060CDF84C55CDF8484571
:101EE00000F333820836DDE916010022002305F0F5
:101EF00099FB002840F028810E9B01345A1EAD1832
:101F00000AF10103072C33607260CDF84C55CDF80F
:101F100048452BDC08361B9901346D180DF5AA6372
:101F2000072C33607160CDF84C55CDF848457FF7EC
:101F300054AE0DF5A86209985946043203F00AFB25
:101F400000287FF44BAB0DF59A66DDF84C550C3646
:101F500044E6A0461C460134ED19072CC6F8008063
:101F60007760CDF84C55CDF84845D3DD0DF5A86226
:101F700009985946043203F0EDFA00287FF42EAB9D
:101F80000DF59A660C36DDF84C55DDF84845C2E78C
:101F90000DF5A86209985946043203F0DBFA0028CF
:101FA0003FF47EAEFFF71ABB0DF5A86209985946BB
:101FB000043203F0CFFA00287FF410AB0DF59A66D7
:101FC000DDF84C550C36F6E50DF5A8620998594632
:101FD000043203F0BFFA00287FF400AB0DF59A66D7
:101FE000DDF84C550C368BE50DF5A862099859467D
:101FF000043203F0AFFA00287FF4F0AA0DF59A66D8
:10200000DDF84C550C368FE50DF5A8621A9C0332AD
:102010004FEA181308F00F0143EA0973615C4FEAB5
:10202000191098468146117058EA0901924602F14A
:10203000FF32EDD10DF5A8630433CAEB03030D9312
:10204000FFF7CDBBB8F10A0F79F1000180F0AE8047
:1020500008F1300801230DF5A86A8DF843850D932A
:102060000AF1030AFFF7BBBB0DF5A86A0D970AF149
:10207000040AFFF7B4BB00BF6C9A40001C9A4000F2
:10208000DDF85875002F40F380820E9F159C0E9B43
:10209000A742A8BF27465344002F0D930EDDDDF85D
:1020A0004845ED190134072CC6F800A07760CDF83B
:1020B0004C55CDF8484500F336830836159C27EA81
:1020C000E777E71B002F40F3A180102FDDF848458C
:1020D000DFF8B88740F33A8223464FF010094446B0
:1020E000DDF8248004E00836103F102F40F32C82E6
:1020F00001331035072B86E81002CDF84C55CDF88A
:102100004835F0DD0DF5A86240465946043203F02B
:1021100021FA00287FF462AA0DF59A66DDF84C5585
:10212000DDF848350C36DFE70DF5A8620998594609
:10213000043203F00FFA00287FF450AA0DF59A66D6
:10214000DDF84C550C36C6E40E98471E002F7FF77D
:10215000E2AE102FDFF834877FF7FDAE23464FF055
:1021600010094446DDF8248004E00836103F102FA3
:102170007FF7EFAE01331035072B86E81002CDF85C
:102180004C55CDF84835F0DD0DF5A862404659466E
:10219000043203F0DFF900287FF420AA0DF59A66D7
:1021A000DDF84C55DDF848350C36DFE70DF5A86451
:1021B0000334404649460A22002305F08DFA3032A6
:1021C0002270404649460A22002305F085FA8046DF
:1021D000894658EA0900A24604F1FF34E9D10DF519
:1021E000A8630433CAEB03030D93FFF7F8BA0DF5A8
:1021F000A86209985946043203F0ACF900287FF42C
:10220000EDA90DF59A66DDF84C550C36DDF858351C
:102210000E9CA34251DB079CE1074ED4159C0AEBB0
:1022200004020D9CA71A0E9CE31ABB42B8BF1F46BE
:10223000002F0DDDDDF84845ED190134072C86E847
:102240008400CDF84C55CDF8484500F3A9820836F6
:1022500027EAE777DF1B002F7FF7C0AC102FDDF8F0
:102260004845DFF828867FF725AD23464FF0100953
:102270004446DDF8248004E00836103F102F7FF735
:1022800017AD01331035072B86E81002CDF84C55F9
:10229000CDF84835F0DD0DF5A862404659460432C8
:1022A00003F058F900287FF499A90DF59A66DDF836
:1022B0004C55DDF848350C36DFE7DDF84845189811
:1022C000013414992D18072C31607060CDF84C55ED
:1022D000CDF8484500F3468208369FE7079CE207A1
:1022E0003FF5E3ADDDF84845013501340123072C06
:1022F000C6F800A07360CDF84C55CDF848457FF77F
:1023000009AE0DF5A86209985946043203F022F986
:1023100000287FF463A90DF59A66DDF84C55DDF8C9
:1023200048450C36F7E50DF5A86209985946043280
:1023300003F010F900287FF451A90DF59A66DDF835
:102340004C55DDF848450C36BFE50DF5A8620998F7
:102350005946043203F0FEF800287FF43FA90DF53A
:102360009A66DDF84C55DDF848450C36BBE50DF5B1
:10237000A86209985946043203F0ECF800287FF46B
:102380002DA90DF59A66DDF84C550C36FFF7D0BB3C
:102390002D238DF86735D8F1000869EB4909012331
:1023A000FFF700BA02F028FF002800F045817B1CEF
:1023B00000F0E282139C672C00F0DA82472C00F0D8
:1023C000D782079C002D44F480740794C0F2D68213
:1023D00000241094139C662C00F06982462C00F0B7
:1023E0006682652C00F0D982452C00F0D682B94671
:1023F00002218DE802020DF5AB6102910DF5AA6193
:102400000C31039142460DF5AC612B4609980491BD
:1024100000F022FC139C8246672C01D0472C03D18C
:10242000079CE40740F1BC8213980AEB0904462894
:1024300000F05282404629460022002305F0F2F8BF
:10244000002800F02782CDF86045CAEB04040E9402
:10245000139C672C00F0BC81472C00F0B981139CC1
:10246000DDF85815662C40F0BD81002940F3CE827E
:10247000002F40F0C482079CE20700F1C08221EAED
:10248000E1740A940D911591109C002C00F09C8130
:102490002D238DF8673500231093FFF70DB9079CA6
:1024A00014F040030F9C3FF4CFAAB4F8008004342A
:1024B00013464FF000090F94FFF771B9079CE0062F
:1024C0000AD4079C610607D50F9C236804340F9437
:1024D0000B9C1C80FEF76DBF0F9C236804340F9487
:1024E0000B9C1C60FEF765BF079C14F0400F0F9C0F
:1024F0003FF443AAB4F80080043401234FF00009EC
:102500000F94FFF74CB9079C14F0400F0F9C3FF459
:10251000C5AAB4F9008004344FEAE8790F94404624
:102520004946FFF7A2B91378FEF77FBF079C14F066
:10253000400F0F9C3FF436AAB4F8008004340F9487
:102540004FF00009FFF7A9B9A0461C460134ED1968
:10255000072CC6F800807760CDF84C55CDF848457B
:102560003FF745AE083651E60DF5A8620998594681
:10257000043202F0EFFF00287FF430A80DF59A66D0
:10258000DDF84C550C36FFF7FABBDDF84845BC4B7F
:102590000134336001350123072C7360CDF84C55AD
:1025A000CDF848456DDC08362FB90E9C1CB9079C48
:1025B000E0077FF513ABDDF848451898013414990E
:1025C0002D18072C31607060CDF84C55CDF848457A
:1025D00000F3B68108367F42002F40F38E80102F23
:1025E000DFF8A88240F3B18023464FF0100944463B
:1025F000DDF8248004E00836103F102F40F3A3805C
:1026000001331035072B86E81002CDF84C55CDF874
:102610004835F0DD0DF5A86240465946043202F017
:1026200099FF00287EF4DAAF0DF59A66DDF84C5577
:10263000DDF848350C36DFE70324924B0A94924AC2
:10264000139C1090472CCCBF92469A46079C9DF84D
:10265000673524F08004079403240D941590FFF748
:102660002AB827EAE7700F9400240A909DF867358E
:102670000D971594FFF71FB82D238DF86735FFF7D9
:1026800007B80DF5A86209985946043202F062FFB6
:1026900000287EF4A3AF0DF59A66DDF85875DDF8D5
:1026A0004C550C3680E7079C013244F02004079417
:1026B0004B78FEF7BABE0DF5A86209985946043268
:1026C00002F048FF00287EF489AF0DF59A66DDF828
:1026D0004C550C36FFF76CBB0DF5A86209985946AE
:1026E000043202F037FF00287EF478AF0DF59A66C9
:1026F000DDF84C55DDF848450C360E9A0134AD181E
:10270000072CC6F800A07260CDF84C55CDF84845AE
:102710007FF763AAFFF7D9BA02F0ECFE00230D9011
:102720001093FFF70DB90DF5A862099859460432C8
:1027300002F010FF00287EF451AF0DF59A66DDF827
:102740004C550C36BAE4A0461C460134ED19072C52
:10275000C6F800807760CDF84C55CDF84845BBDC15
:102760000836CAE70DF5A86209985946043202F006
:10277000F1FE00287EF432AF0DF59A66DDF858358B
:10278000DDF84C550C3649E5062F28BF062727EA09
:10279000E7700D970A900F94DFF8F4A0FFF7A5B843
:1027A0000DF5A86209985946043202F0D3FE0028BC
:1027B0007EF414AFDDF858350E9C0DF59A66DDF801
:1027C0004C55E31A0C3643E59DF86735FEF773BFA9
:1027D000DDF85815C81C02DB8F4280F29380139CF1
:1027E000023C13940139139C0029CDF858158DF83B
:1027F0005045C0F2E7802B238DF85135092940F36D
:10280000C2800DF58E640B34199F204687FB013280
:10281000CB17C3EBA20303EB8302A1EB420202F14D
:102820003005092B0246194600F8015DEEDC303117
:10283000C9B202F8021D944240F2F8800DF5AA6375
:102840000DF58E6002330A3001E012F8011F03F823
:10285000011B82421946F8D10DF5AA630E9CCB1AD2
:102860001C190D940E9C1B93012C40F3B0800D9B02
:10287000013323EAE3740A9400240D93159403E6CC
:102880006C9A4000349A4000389A40001C9A4000EC
:10289000649A4000DDF860359C4240F2C5803022E9
:1028A00003F8012BA342CDF86035F9D1CDE5032122
:1028B0008DE882000DF5AB6102910DF5AA610C3136
:1028C000039142460DF5AC612B460998049100F046
:1028D000C3F9B9468246C4199AF80030302B03D0A8
:1028E000DDF85835E418A5E54046294600220023C6
:1028F00004F098FE0028F3D1C9F10103CDF8583552
:10290000E41897E50E9CA1424DDB079CE50752D5E4
:102910004B1C23EAE3740A9467240D931394B2E5E5
:1029200027EAE77110900A919DF867350F940D978B
:102930001590FEF7C0BE4FF0FF340B94FEF757BE64
:102940000DF5A86209985946043202F003FE0028EA
:102950007EF444AE0DF59A66DDF85875DDF84C55F9
:10296000DDF848450C3636E622460027FEF75EBD08
:10297000002F08BF012724E5062722E52D2405F1B5
:102980000045109426E5303130238DF853150DF5B0
:10299000AA618DF8523504315EE707F1010927E598
:1029A000DDF8604551E500290E9CD4BFC1F102035A
:1029B00001231B19ADE721EAE1740A9467240D9104
:1029C000139460E52D2349428DF8513516E7079C95
:1029D00014F001037FF44BAF0D9C159324EAE474CB
:1029E0000A9451E50F9953780F680431002F0F9125
:1029F0002246BEF61AAD4FF0FF37FEF716BD01377F
:102A0000CF1927EAE7740D970A943CE517B9079C9C
:102A1000E30705D5023727EAE7740D970A9432E5F4
:102A200001240A940D942EE51C460EE50DF5AA61CD
:102A3000023111E730B440F23053C2F200031D6896
:102A40000C46134601462246284630BCFEF764BCBD
:102A500038B52C4B054618680C4610B1836B002B1B
:102A600035D0A28993B219070CD52169A9B113F009
:102A700001021ED0636900225B42A260A361F1B132
:102A8000002038BDD8063AD5590723D4216942F031
:102A90000803A3819BB20029E9D103F42072B2F5A7
:102AA000007FE4D02146284601F06AFBA389216912
:102AB000DDE79B0758BF6269A2600029E0D1A389C6
:102AC00013F0800F14BF4FF0FF30002038BD01F02D
:102AD0000BF9C6E7216B49B104F14003994203D0D9
:102AE000284601F0E3F9A2890023236322F024029F
:102AF000216912040023120C84E80A00C7E74FF092
:102B0000FF3038BD300500202DE9F04F0B69026918
:102B100083B09342804600F39C80DA1C92008F18A9
:102B20007E68821852680136B2FBF6F600F1140294
:102B300001F114055C1E04370192002E4AD04FF0BB
:102B4000000E1046F2462A46994652F804BB036826
:102B50001FFA8BFC4FEA1B4B06FB0CEC06FB0BFE33
:102B60001FFA83FB0EEB1C4EDA441FFA8CFC1FFA93
:102B70008EFBCCEB0A0CCBEB134A0AEB2C4A1FFA68
:102B80008CFC4CEA0A43974240F8043B4FEA1E4E45
:102B90004FEA2A4AD9D2201D08EB8002D2F804E07D
:102BA0004B46BEF1000F15D1DDF804E096450FD27B
:102BB00058F8200060B96FEA0E00023B8018A3EBC2
:102BC000900302E052F8040D10B9013C9C42F9D187
:102BD000C8F81040404602F009F9002835DB4FF0F4
:102BE000000C019B0136624655F8040B19681FFA68
:102BF00080FC1FFA81F9000CCCEB090C9444C0EB6B
:102C0000114202EB2C421FFA8CFC4CEA02411214D6
:102C1000AF4243F8041BE7D2221D08EB8203596838
:102C200099B9019999420ED258F822205AB9C9434C
:102C3000C91821F00301591A02E053F8042D12B902
:102C4000013C8B42F9D1C8F81040304603B0BDE8D2
:102C5000F08F0020FAE700BF2DE9F04F016C9FB024
:102C600003902B9D92469B4651B1436C012202FA80
:102C700003F24B608A6001F07DFE039C0023236415
:102C8000BBF10004C0F2E78000232B6000231A464A
:102C9000C7F6F073C7F6F0722340934200F0C48089
:102CA000002350465946002204F0BCFC56465F46BD
:102CB000012390B913F0FF0F13D12A9C0123236045
:102CC0002C9C002C00F0EC807D4C2C980460013C86
:102CD000049404981FB0BDE8F08F002313F0FF0F99
:102CE000EBD01DA9009103981CA932463B460191E7
:102CF00002F084F9C4F30A550D90002D40F0BA801B
:102D0000DDF870801D9D6FF4826345449D42C0F2E2
:102D1000B2824FF60E43CFF6FF7305F582625B1B5E
:102D2000023204FA03F32AFA02F0184304F09CF981
:102D30000B460246CDE90823099B0124A3F1F87351
:102D40000993013D159400230022C3F6F873DDE9D1
:102D5000080104F04BF854A3D3E9002304F0FAF976
:102D600053A3D3E9002304F043F8064628460F4650
:102D700004F08AF950A3D3E9002304F0EBF90246EA
:102D80000B463046394604F033F806460F4604F049
:102D90007BFC39460B9000223046002304F04CFCAB
:102DA00050B10B9804F070F932463B4604F03AFCFF
:102DB00010B90B9C013C0B940B9C162C00F2398231
:102DC0004049524601EBC4015B46D1E9000104F0E1
:102DD00051FC002800F04C820B9C013C0B94002419
:102DE0001494C5EB0805B5F1010900F12E82002409
:102DF0000A940B9C002CC0F21F82A1441294002460
:102E00000E94289C092C65D8052C40F34E86043C72
:102E100028940026289CA31E032B5DD8DFE813F01E
:102E2000E603B402F303F0032A9842F20F7303603F
:102E3000BAF1000F15D0244C04942C9C002C3FF4C4
:102E400048AF049CE378002B00F0028104F10803F2
:102E50002C9C23603DE724F0004401232B60A34613
:102E600014E7194B194AC4F31304002C18BF1A466F
:102E70000492E2E73B463246CDE90823099CA5F5DA
:102E80007E7524F07F4323F4700343F07E5343F4B4
:102E9000E00300240993073DDDF87080159452E7A4
:102EA0000B4C049415E700BF61436F63A787D23FC3
:102EB000B3C8608B288AC63FFB799F501344D33F29
:102EC0006D9A4000A89A40008C9A4000809A400079
:102ED0006C9A4000002428940398002421464464FE
:102EE00001F022FD039A4FF0FF310123049013916A
:102EF00010640F930C9129941D9B002BC0F2AB80A2
:102F00000B9C0E2C00F3A7809F4B03EBC403299C62
:102F1000D3E90001002CCDE90601C0F27783DDE999
:102F200006235046594604F03FFA04F0ADFB05462F
:102F300004F0AAF8DDE9062304F00CF902460B467A
:102F40005046594603F052FFDDF810A00C9C05F1E5
:102F500030030AF8013B012C02460B4657464ED07F
:102F600000230022C4F2240304F0F4F8002300221A
:102F70008046894604F056FB0123002840F0028277
:102F800013F0FF0F54D004980C99CDF814A0841CB2
:102F90004618DDE906AB12E000230022C4F2240348
:102FA00004F0D8F8002300228046894604F03AFB5A
:102FB0000134012300B1002313F0FF0F38D0524633
:102FC0005B464046494604F0EFF904F05DFB0546D8
:102FD00004F05AF852465B4604F0BCF802460B4631
:102FE0004046494603F002FF05F13003B44204F8BD
:102FF000013C02460B462746CED1DDF814A0104610
:10300000194603F0F5FE804689464246DDE9060191
:103010004B4604F011FB002840F03083DDE9060147
:1030200042464B4604F0FEFA10B1EB0700F126834E
:1030300003980D9901F09EFC0B9C0022631C2A9CB6
:103040003A7023602C9C002C3FF443AE276040E68E
:10305000049CE31CFCE60F9C002C00F0FD80289CE7
:10306000012C40F301830C9C651E0E9CAC42C0F207
:10307000CB83651B0C9C002CC0F2B0840A9C0C9B7B
:103080000A9A0398D21801210A92994401F056FD38
:10309000804664B1B9F1000F09DD0A98A145B4BFBB
:1030A0004B462346C01A0A90E41AC3EB09090E994D
:1030B00000291ADD0F9A002A00F09F83002D10DDF1
:1030C00041462A46039801F0E5FD804641460D9AA7
:1030D000039801F03DFD0D990646039801F04AFC66
:1030E0000D960E9B5A1B40F0AE820121039801F011
:1030F00025FD05461298002805DD29460398129AF9
:1031000001F0C8FD05462899012940F324810026D5
:10311000129B002B40F04A8301234B4413F01F0302
:1031200000F09F80C3F12002042A40F3B8840A987B
:10313000C3F11C03C0180A90E41899440A9A002AA3
:1031400004DD03980D9901F0F1FD0D90B9F1000F28
:1031500005DD294603984A4601F0E8FD0546149B23
:10316000002B40F00B830C98002840F328830F9825
:10317000002840F08880C2460F9C0C9EDDF834B0D9
:10318000049FDDF80C8008E0A89A400059464046AC
:103190000A22002301F0F8FB834629465846FFF730
:1031A000B3FC00F1300907F804900134A642EDDCCD
:1031B000D0460C9CDDF810A0CDF834B0012CACBF8B
:1031C000A2440AF1010A002601220D99039801F098
:1031D000ADFD29460D9001F009FE002840F339822B
:1031E0001AF8013C049C621C03E01AF8023C0AF144
:1031F000FF3A392B574640F06A839245F5D10B9C34
:10320000312301340B9402F8013C0398294601F064
:10321000B1FBB8F1000F3FF40BAF2EB1464503D020
:103220000398314601F0A6FB0398414601F0A2FB4A
:10323000FEE601241494D4E50A9C0B98241A0A94FF
:1032400044420E9400241294DBE5C9F10009CDF844
:1032500028904FF00009CCE50E9D0A9CDDF83C80DB
:1032600017E71C230A99E418C9180A91994465E7DD
:1032700000241494B5E54FF6EE30CFF6FF70401BF6
:103280000AFA00F052E5002C05DD4146039822467B
:1032900001F04CFD8046002E40F01D834446049F03
:1032A00046464FF001080AEA0801C1460595B846AE
:1032B000039D0D9F0E9105993846FFF725FC314679
:1032C0000A90384601F092FD22460890059928465A
:1032D00001F0AAFD8246C2680A9800F13003002A74
:1032E00000F0E78128465146029301F043FB029B20
:1032F0004FF0010B08980028C0F29F8205D1289951
:1033000019B90E9A002A00F09882BBF1000F00F361
:10331000F9820C9808F8013B8145C24600F0FB8217
:1033200039460A220023284601F02EFBA642074612
:1033300000F0E78131460A220023284601F024FBF1
:10334000214606460A222846002301F01DFB09F10A
:1033500001090446AFE7BAF1000F7FF4D8AECBF312
:103360001303002B40F04183C7F6F0730BEA03030D
:10337000002B00F069830A9A09F1010901320A92CF
:103380000126C5E60023FBE500240F9429980B9C39
:103390000419651C002D13942C4640F347820C95AC
:1033A000039A0021172D51640AD9012204235B00DE
:1033B00003F1140011460132A842F8D9039B596465
:1033C000039801F0B1FA03990E2C049008643FF6BB
:1033D00093AD002E3FF490AD0B9C52465B46002C03
:1033E000CDE910ABCDE9082340F34D82A54B04F0A5
:1033F0000F0203EBC2032411D3E900ABE30640F153
:103400000B82A14BDDE91001D3E9082303F0CCFFC7
:10341000CDE9100104F00F04032674B19A4D504613
:103420005946E70704D5D5E9002303F093FE01369A
:1034300008356410F5D182468B46DDE9100152460D
:103440005B4603F0B1FFCDE91001149C002C00F0A5
:1034500063810023DDE910010022C3F6F07304F05C
:10346000EBF8002800F058810C9C002C00F0EF8253
:10347000139C002C40F3018200230022C4F2240399
:10348000DDE9100103F066FECDE91001701C03F0C8
:10349000FBFD02460B46DDE9100103F05BFE002355
:1034A0000022C4F21C0303F0A3FC04460B98DDF8D1
:1034B0004C8001381A90A1F150750F9B002B00F041
:1034C0003282704B002103EBC80353E90223002032
:1034D000C3F6E07103F068FF2B46224603F086FC3A
:1034E000CDE91801DDE9100104F0CEF8054603F03E
:1034F000CBFD02460B46DDE9100103F077FC3035C9
:10350000DDF810A0CDE91601DDE91623DDE918018B
:10351000EDB20AF8015B04F0ADF85746002862D11D
:103520000021DDE916230020C3F6F07103F05EFCF4
:1035300002460B46DDE9180104F09CF8002840F033
:103540008082B8F1010F40F39881049C5646A04454
:10355000CDF86C90CDF84080DDE91689CDF858A003
:10356000DDE918AB0CE003F041FC52465B4604F089
:1035700063F8002840F06382109CA64200F07B8133
:1035800000230022C4F224035046594603F0E2FD12
:1035900000230022C4F2240382468B46404649465B
:1035A00003F0D8FD8946804604F06EF8044603F027
:1035B0006BFD02460B464046494603F017FC30348B
:1035C000E5B206F8015B52465B468946804604F048
:1035D00033F80021044642464B460020C3F6F07102
:1035E0003746002CBFD01A9C0B9421E500240F9481
:1035F000299C002C40F31281254613940C94CFE6AD
:1036000001240F94C2E601240F94F1E70C9C002CD6
:103610003FF785AC40F0408200230022C4F214033F
:10362000DDE9060103F096FD52465B4604F018F80A
:103630000C9DA846002800F0D780299C049FE443F5
:103640000B940026E1E503980D9901F023FB0D9002
:103650004BE503D119F0010F7FF4C2AD57461AF8BC
:10366000013D302BFAD0D0E5159C002C00F0C08134
:1036700003F5866303330E9D0A9C01E517F8015C90
:103680003B4606E0A89A4000709B400013F8025C9D
:10369000013B392D1F4640F0B2815345F6D10B9CBA
:1036A00030230AF8013C013431230B940AF8013C21
:1036B000BEE451463846029301F098FB51468346DA
:1036C000284601F057F9029BBBF1000F7FF412AEC0
:1036D000289900297FF40EAE0E9A002A7FF40AAED4
:1036E000392B0D979946059D474600F0BE80089BF3
:1036F000002B02DD0A9B03F1310907F8019BA0466C
:1037000083E5314628460A22002301F03DF909F1FC
:10371000010906460446CEE5304603F0B5FCDDE976
:10372000102303F017FD00230022C4F21C0303F052
:103730005FFBA1F150750C990446002978D1002354
:103740000022C4F21403DDE9100103F04FFB22460E
:103750002B4682468B4603F08DFF0646002840F03C
:10376000DF80224605F100435046594603F064FFCE
:10377000002800F082803546B0465EE70D98294665
:1037800001F034FB0028BFF6EEAC0D9903980A2235
:10379000002301F0F9F80D900B980F9901380B9068
:1037A000002940F06E81139B0C93DCE42B6905EB40
:1037B0008303186901F076F9C0F12003ADE428997C
:1037C00002297FF7D4AC00287FF437AF05220346E7
:1037D0002946039801F0D8F8054629460D9801F0CE
:1037E00005FB00287FF729AF0B9C049F3123013490
:1037F00007F8013B0B94002607E503980D990E9AF4
:1038000001F048FA0D9070E40E9C0E952B1B129C53
:103810000025E41812942DE40226FEE501241394F9
:103820000C942994039800214164C9E50C95F9E7AB
:103830000B9ADDF830801A923FE6BBF1000F0D972E
:103840009946059D47467FF758AF01220D99039889
:1038500001F06CFA29460D9001F0C8FA002840F3F7
:103860000981B9F1390F7FF445AF3923BA460AF817
:10387000013BA046B6E4DDF86C90DDE90801824624
:103880008B46FFF739BB0B984442002C00F0AB800D
:10389000874B04F00F0203EBC203DDE91001D3E90B
:1038A000002303F057FC2411CDE9100100F09B80A8
:1038B000804D0226E20704D5D5E9002303F04AFC37
:1038C000013608356410F5D1CDE91001BDE50133AD
:1038D0000AF8013C99E4D8F80410039801F024F8A0
:1038E000D8F8102004460232920008F10C0100F1D1
:1038F0000C0000F08BFF21460398012201F016FA1C
:103900000446CCE4392B0D979946059D4746ACD02B
:1039100003F10109F1E699460D97059DA04653E490
:103920000025A84660E7624908F1FF3B01EBCB01A7
:1039300022462B46D1E9000103F00CFCCDE916012B
:10394000DDE9100103F0A0FE044603F09DFB0B46E9
:103950000246DDE9100103F049FADDF810A004F198
:1039600030030AF8013BB8F1010FCDE910015746C9
:1039700020D0049CDDE91001631E9844002300223E
:10398000C4F2240303F0E6FB0F46064603F07CFE78
:10399000054603F079FB303502460B463046394682
:1039A00003F024FA04F8015F4445E7D1CDE91001A2
:1039B0000AEB0B0700230022C3F6E073DDE91601D2
:1039C00003F016FA02460B46DDE9100103F052FE41
:1039D000E0B11A9C17F8015C0B9451E60A98002399
:1039E000041BFFF74DBB02262FE55646FFF790BBA1
:1039F0001C9B0E9DC3F136030A9CFFF741BB6B1C59
:103A0000DBB2BA460AF8013CFFF712BB0021DDE940
:103A100016230020C3F6E07103F0E8F902460B46D6
:103A2000DDE9100103F008FE00283FF426AF3B4615
:103A300013F8012C1F46013B302AF9D0D3E5DDF8FD
:103A400058A01A9C0B941BE61E46FFF761BB30463C
:103A500003F01AFB02460B46DDE9100103F07AFB86
:103A600000230022C4F21C0303F0C2F90446A1F1B2
:103A7000507564E67FF441AE19F0010F3FF43DAE9E
:103A8000EFE641460A220398002300F07DFF139AD7
:103A900080460C92FFF767BB0025A846CDE53FF4B2
:103AA0004DABC3F13C03FFF7DDBB0126FFF7B2B915
:103AB000A89A4000709B40002DE9F04180460C46DA
:103AC00010B1836B002B66D0A689002E60D033B274
:103AD00013F008001CD02669002E00F083809B079D
:103AE00025680CBF636900232660AD1BA3600AE054
:103AF00032462B46E169676A4046B8470028C0EB6A
:103B00000505064454DD002DF2DC0020BDE8F081FF
:103B1000626846F40063002AA38151DDA66A002E84
:103B200060D000229BB2D8F80050C8F8002013F4EF
:103B3000805233D0226D590705D56168236B521A24
:103B40000BB1E36BD21A0023E1694046B047431C36
:103B50003AD0A389002123F400631B041B0C2269C3
:103B60006160D904A381226002D5421C3DD020654A
:103B7000216BC8F8005000293CD004F14003994261
:103B800002D0404600F092F900202063BDE8F081A9
:103B90003046BDE8F08100F0A7F895E70123E16920
:103BA0004046B0470246013027D0A389A66AC2E743
:103BB000A3894FF0FF3043F04003A381BDE8F081BB
:103BC000E26B002AAADCE4E7D8F80030002BC0D072
:103BD0001D2BBED0162BBCD0A38943F04003A3817C
:103BE000BDE8F0813046BDE8F081D8F80030002B08
:103BF000BED1BCE70846BDE8F081D8F80030002B04
:103C0000D3D01D2B08D0162B06D0A389104643F025
:103C10004003A381BDE8F081C8F800500020BDE852
:103C2000F08100BF014618B1044B1868FFF744BF8C
:103C3000034B0449186800F02BBA00BF3005002080
:103C4000949A4000B93A4000002070470020704725
:103C500046F2E521C0F2400100F0F0B910B50023B2
:103C6000044623606360A360A1816366E2812361EF
:103C70006361A361194600F15C00082200F008FEB0
:103C800045F28523C0F24003236245F2AD23C0F222
:103C90004003636245F2ED23C0F24003A36245F2A4
:103CA0001133C0F24003E461E36210BD70B56825D2
:103CB00005FB01F50E4605F10C0100F0D1FA0446B2
:103CC00040B1002100F10C0084E84200A0602A46C7
:103CD00000F0DEFD204670BD49F69423C0F240039B
:103CE0001868FFF7B5BF00BFF8B5836B044603B192
:103CF000F8BD0F4F01251A46C4F8E03204F53B76B3
:103D000003230421C4F8E4324068E763A563C4F8E0
:103D1000E862FFF7A3FFA06809212A46FFF79EFF8C
:103D2000E06812210222BDE8F840FFF797BF00BF0C
:103D3000513C4000244B70B51D680646AB6B002B10
:103D400032D005F538756B68A968013B0FD4B1F91D
:103D50000C200C467AB101F1680005E06834621A63
:103D6000121832F95C2C32B113F1FF33F6D2286805
:103D7000F0B10546E7E74FF6FF730025E381012325
:103D800004F15C00A38165662560A560656025611E
:103D90006561A5612946082200F07AFD2563656307
:103DA0006564A564204670BD2846FFF79DFFC8E7FF
:103DB00030460421FFF77AFF28600028D9D10C2370
:103DC00033600446EEE700BF949A4000704700BF9E
:103DD000704700BF704700BF704700BF40F23053CC
:103DE000C2F20003186843F64941C0F2400100F0F6
:103DF00025B900BF40F23053C2F20003186843F601
:103E00004D41C0F2400100F019B900BFF8B5244D92
:103E100004460F4600F084FDAB6820465E6826F03D
:103E2000030606F57E630F33DF1B3F0B013F3F03A5
:103E3000B7F5805F1CDB002101F012FAAB689B191B
:103E4000984219D0204600F06DFD0020F8BD0021F9
:103E5000204601F005FAAB68C21A0F2A07DD1149A6
:103E600042F0010209685A60401A0F490860204672
:103E700000F058FD0020F8BD7942204601F0F0F92D
:103E80000130E4D0084BAA681968F61B46F0010619
:103E9000CF1B204656601F6000F044FD0120F8BD96
:103EA000B0050020BC090020F00900202DE9F041F8
:103EB0000D460446002958D000F032FD55F8040C98
:103EC0005A4EA5F1080120F00103CA18D6F808C01F
:103ED0005768944527F0030765D010F0010057603C
:103EE00032D00020D5196D6815F0010F06D1DB190D
:103EF000956800284BD0D268EA60956043F00102D3
:103F00004A60CB50D8B9B3F5007F30D35A0A042A9F
:103F100064D89D093835E8008619B2684348B24232
:103F200003D161E09268964204D0506820F003000B
:103F30008342F7D3D368CB608A60D1609960204612
:103F4000BDE8F04100F0EEBC55F808CC06F10808D9
:103F5000CCEB01018D68634445453DD0D1F80CC0E0
:103F6000C5F80CC0CCF80850BCE7BDE8F081DB0810
:103F70009A10012000FA02F006EBC30375689A68F4
:103F80002843CB608A6070609960D160D7E7284F82
:103F9000BD42B0D143F0010271613161CD608D60ED
:103FA0004A60CB50CBE7C2073B4407D455F8085CC6
:103FB000491BCA6888685B19C26090601D4A43F05B
:103FC0000100126848609342B160B8D31A4B204692
:103FD0001968FFF71BFFB2E7012083E7142A0CD80A
:103FE00002F15B05E80097E7AD10012606FA05F639
:103FF00045681346354345609DE7542A03D81D0B99
:104000006E35E80088E7B2F5AA7F03D8DD0B773577
:10401000E80081E740F25450824203D89D0C7C3581
:10402000E80079E74FF47C707E2575E7B005002045
:10403000B8050020B8090020EC0900202DE9F04166
:1040400006468846FFF7C2FE16F538761AD00027D6
:104050007568B468013D0DD4B4F90C30013D33B13D
:10406000B4F90E302046013301D0C047074368340D
:104070006B1CF1D13668002EEAD1FFF7A9FE384655
:10408000BDE8F0813746FFF7A3FE3846BDE8F08172
:104090002DE9F84380468946FFF798FE18F53876F3
:1040A0001BD000277568B468013D0ED4B4F90C30FC
:1040B000013D3BB1B4F90E302146013302D04046F8
:1040C000C847074368346A1CF0D13668002EE9D12E
:1040D000FFF77EFE3846BDE8F8833746FFF778FEE7
:1040E0003846BDE8F88300BF10B5144622B110462B
:1040F0000B4901F011F908B90A4810BD20460949D9
:1041000001F00AF908B9074810BD2046064901F038
:1041100003F9044B00280CBF1846002010BD00BF57
:10412000989A4000909A40004C9A400040F28C507F
:10413000C2F20000704700BF40F2AC53C2F200036D
:104140001868704740F23450C2F20000704700BF58
:104150000020704740F25450C2F20000704700BF88
:1041600040F23053C2F200031B680A46014618466B
:10417000FFF7BABF40F25450C2F20000704700BFD0
:10418000F0B58B8905469AB2900791B00C4639D4A8
:10419000B1F90E10002919DB284601AA02F028F90E
:1041A000002811DB029B03F47043A3F500514F423A
:1041B00047EB0107B3F5004F37D0A3894FF4806672
:1041C00043F40063A3810BE0A3899AB212F0800F3D
:1041D00043F4006314BF40264FF48066A381002798
:1041E0002846314600F03CF8A389002828D01A4A16
:1041F00043F08003EA63A38120602061666147B9D0
:1042000011B0F0BD01F143030B600B6101234B6161
:10421000F6E7B4F90E10284602F072FA0028EFD043
:10422000A38943F00103A381EAE7A26A0B4B9A42F8
:10423000C3D1A3894FF480663343A381E664CFE7FB
:104240009A05DDD443F0020304F14302A381012364
:10425000226022616361D3E7513C4000ED5240008F
:104260002DE9F04F01F10B04162C83B0054627D938
:1042700034F0070427D4A14225D8284600F050FB8B
:10428000B4F5FC7F23D2B14E4FEAD40E06EBCE0339
:10429000DF689F4200F0D5817B68FA6823F0030352
:1042A000FB185868B96840F001005860CA60916016
:1042B000284600F037FB0837384603B0BDE8F08FDA
:1042C0001024A142D9D90C232B600027F4E75FEA20
:1042D000542E00F08880BEF1040F00F250814FEAA6
:1042E000941E0EF1380E4FEACE01984E7118CF6829
:1042F000B94205D10CE0002B7ADAFF68B94207D049
:104300007A6822F00302131B0F2BF4DD0EF1FF3E3F
:104310000EF1010E8D4A376902F1080C674500F075
:104320006E817B6823F00303191B0F2900F354816E
:104330000029C2F814C0C2F810C067DAB3F5007FD4
:1043400080F02B81DB0899104FF0010808FA01F882
:1043500002EBC3035168986848EA0101FB60B8604A
:1043600051609F60C76001204FEAAE0300FA03F07E
:10437000884255D8014206D12EF0030E400001427A
:104380000EF1040EFAD006EBCE094F46F046FB685C
:104390009F4207D135E1002A80F25C81DB689F42B1
:1043A00000F02F81596821F003010A1B0F2AF2DD6A
:1043B0001F46D86857F808EF191942F0010844F071
:1043C0000104CEF80C00C0F808E05C607161316156
:1043D000C1F80CC0C1F808C0C1F804808A50284652
:1043E00000F0A0FA68E74FEAD40E4FEACE017CE76E
:1043F000BA185068FB68B96840F001005060CB60A3
:104400009960284600F08EFA083755E7FB185A687D
:10441000284642F001025A6000F084FA08374BE760
:10442000B7687B6823F003094C4504D8C4EB090244
:104430000F2A00F39780DFF824B1454BDBF800200A
:104440001B680132234400F04F8103F580530F3382
:1044500023F47E6323F01F0319462846019300F0DE
:10446000FFFEB0F1FF3F8046019B00F0458107EB66
:104470000901814200F20681DFF8E4A04145DAF843
:1044800000201A44CAF8002000F03B81DBF800004D
:10449000013000F04681C1EB08015218CAF8002033
:1044A00018F0070200F00181C2F10801C2F5805244
:1044B000884402F1080B43441B051B0DC3EB0B0B97
:1044C0002846594600F0CCFE431C00F03681C8EB6C
:1044D00000035B4443F00103DAF80020B7425A447A
:1044E000C6F80880CAF80020C8F8043015D0B9F121
:1044F0000F0F40F2E8807968A9F10C0323F007035D
:1045000001F0010E0520F91843EA0E0E0F2BC7F833
:1045100004E04860886000F208810E4BB7681968B3
:104520008A4288BF1A600C4B19688A4288BF1A6099
:104530007A6822F00302944202D8121B0F2A11DC7F
:10454000284600F0EFF90027B6E600BFB0050020CE
:10455000EC090020E8090020E4090020BC09002043
:10456000F00900203B1942F0010244F001047C6094
:1045700028465A60B360083700F0D4F99CE6BEF1D3
:10458000140F76D9BEF1540F00F285804FEA143E25
:104590000EF16E0E4FEACE01A7E65A0A042A6DD933
:1045A000142A00F2A38002F15B01C800301882686F
:1045B000DFF8C881824203D17AE09268904204D049
:1045C000516821F003018B42F7D3D3687168FB6017
:1045D000BA60D7609F60C6E63B1941F0010044F025
:1045E00001047C60536113615860C3F80CC0C3F8C8
:1045F00008C05950284600F095F908375CE6516824
:10460000B1E608F10108083718F0030F7FF4BFAED8
:104610004B461EF0030FA3F108020EF1FF3E00F01F
:104620009F801B689342F4D07368400098423FF625
:10463000F7AE00283FF4F4AE184200F09680C6466C
:10464000A1E607F108037F69BB427FF425AE0EF1B6
:10465000020E5FE6591848681F4657F8082FDB68B6
:1046600040F001004860D3609A60284600F05AF993
:1046700022E60EF15B0E4FEACE0136E6990938319B
:10468000C80093E7B7423FF4F7AE3C4B9F687A68A7
:1046900022F003024FE7BEF5AA7F1AD84FEAD43EB4
:1046A0000EF1770E4FEACE011FE64FF4805B02E772
:1046B0008910012000FA01F0D8F8041013460143D4
:1046C000C8F8041083E70123C8F8043047460022E5
:1046D00031E740F254539E451ED84FEA944E0EF1F6
:1046E0007C0E4FEACE0100E61033B5E6542A28D8F6
:1046F000190B6E31C80059E7B7687A6822F00302D7
:1047000019E70805000D00287FF4C0AEB1684B44DE
:1047100043F001034B6000E74FF47C714FF07E0ED5
:10472000E3E5174AC2F80080BAE607F10801284617
:10473000FFF7BCFB134B1A68EFE601234FF0000BA9
:10474000CAE6B2F5AA7F03D8D90B7731C8002DE7A6
:1047500040F254518A420CD8990C7C31C80025E7AC
:10476000736823EA000373605FE7400008F1040800
:1047700062E74FF47C707E2118E700BFB00500208F
:10478000BC090020F0090020830770B4C9B211D021
:10479000002A23D003788B421ED00346013A05E05D
:1047A000E2B113F8014F013A8C4215D0013010F0FC
:1047B000030FF5D1032A13D882B103788B420BD0B3
:1047C000431C821803E013F8014B8C4204D093423F
:1047D00000F10100F7D1002070BC70471046FBE7E4
:1047E00041EA012646EA0646036804467340A3F1FF
:1047F000013525EA0303043013F0803F03D1043A66
:10480000032AF1D8D8E72046D6E700BF0F2AF0B434
:104810003AD941EA00039B0738D10C4603461546B6
:104820002668103D1E6066685E60A6689E60E66849
:104830001034DE6010330F2DF2D8A2F1100424F0F2
:104840000F0402F00F021034032A00EB040321448A
:1048500011D90E461D46144656F8047B043C032C21
:1048600045F8047BF8D8141F24F00304043402F044
:10487000030209191B192AB111F8014B013A03F877
:10488000014BF9D1F0BC70470346F4E70346F3E768
:1048900010F0030F70B403463FD0002A3BD0CDB2D6
:1048A00001E0002A37D003F8015B013A13F0030F4F
:1048B0001C46F6D1032A28D9CDB245EA05250F2A90
:1048C00045EA054513D923461646103E1D605D6036
:1048D0009D60DD6010330F2EF7D8A2F1100323F096
:1048E0000F0302F00F021033032A1C440DD9264691
:1048F0001346043B032B46F8045BFAD8131F23F03E
:104900000303043302F00302E41822B1C9B2013AEE
:1049100004F8011BFBD170BC70470446CAE700BF16
:10492000704700BF704700BFC36C70B505460C46AA
:104930004BB153F8240078B1026843F824200023D7
:104940000361C36070BD0421212201F041FC0346D4
:10495000E8640028EDD170BD012101FA04F6721D52
:104960009200284601F034FC0028F4D044608660B0
:10497000E5E700BF31B1C36C4A6853F82200086014
:1049800043F82210704700BFF0B50D460C6906468B
:1049900083B001F114000021076801311FFA87FC80
:1049A0003F0C02FB0C3302FB07FC9FB20CEB1343E2
:1049B00007EB03471B0C8C4240F8047BECDC3BB15B
:1049C000AA68944207DA05EB8402013453612C6132
:1049D000284603B0F0BD6968304601310193FFF706
:1049E000A3FF2A6905F10C0102320746920000F18B
:1049F0000C00FFF70BFF6968F26C019B52F8210075
:104A0000286042F821503D46DDE700BF2DE9F8431C
:104A10001E4648F6396306F10804C3F6E30383FB38
:104A20000453E417C4EB6303012B0546884617467D
:104A300035DD01220021520001319342FBDC284682
:104A4000FFF772FF089B014643610123092F0361B1
:104A500021DD08F10909092418F804300A22303B45
:104A60002846FFF791FF0134BC420146F4D109EB1F
:104A70000408A8F10808A6420ADD18F8013B0A223A
:104A8000303B2846FFF780FF0134B4420146F4D1A1
:104A90000846BDE8F88308F10A080924EBE700217D
:104AA000CDE700BF020C034616D10304102013F01B
:104AB0007F4F01D108301B0213F0704F01D1043039
:104AC0001B0113F0404F01D102309B00002B02DB91
:104AD0005B0003D4202070470020E8E701307047D6
:104AE0000368024613F0070007D0D9071FD49807C0
:104AF0001FD49B0813600220704799B209B91B0CA0
:104B0000102013F0FF0F01D108301B0A190701D143
:104B100004301B09990701D102309B08D90704D43E
:104B20005B0801D1202070470130136070470020DE
:104B300070475B0813600120704700BF10B50C463A
:104B40000121FFF7F1FE01234461036110BD00BFA5
:104B50002DE9F04F0F69156987B0AF420C469246B8
:104B600004DA3A4654462F468A461546A3686168D9
:104B700007EB050B9B45C8BF0131FFF7D5FE0BF1D5
:104B8000040100EB8103043300F1140999450290FC
:104B90000491039306D203994B46002243F8042B59
:104BA0009942FBD80AEB850504EB87070AF1140A42
:104BB000143514341437AA45019453D2CDF814B0E7
:104BC000AB465AF8044BA5B2EDB1019A4B4600240E
:104BD000196852F8040B8EB23419090C86B2000C15
:104BE00005FB064405FB0010A6B200EB144446EAA0
:104BF0000446240C97429C4643F8046BE8D8CCF852
:104C000004405AF8044C240C26D0D9F800C0019B6B
:104C10004E4661464D464FF0000800E015461A88A2
:104C200008EB114804FB02881FFA8CFC4CEA084090
:104C30002A4642F8040B53F804CB56F8041F4FEAF7
:104C40001C4C88B204FB0C0C9F420CEB184C4FEA36
:104C50001C48E3D8C5F804C0D34509F10409B0D80D
:104C6000DDF814B0BBF1000F0DDD049A029951F884
:104C7000223043B9039A131F02E053F8042D12B9EE
:104C8000BBF1010BF9D1029BC3F810B0184607B075
:104C9000BDE8F08F12F003032DE9F04115460446FC
:104CA00088462DD1AD101DD0A76C2FB931E06D1005
:104CB00018D03E68CEB13746E807F8D541463A46A7
:104CC0002046FFF745FFB8F1000F17D0D8F80420B1
:104CD000E36C6D1053F82210C8F8001043F82280DE
:104CE0008046E6D14046BDE8F08139463A46204646
:104CF000FFF72EFF386006600746DDE78046D6E7FF
:104D0000094A013B52F823200023FFF73DFE80466D
:104D1000C8E7204640F27121FFF710FF0023A0648E
:104D200007460360C8E700BFC09B40002DE9F84F6D
:104D30000B694FEA621707EB030B8B680BF1010558
:104D40009D420C4691460646496803DD5B000131F1
:104D50009D42FBDC3046FFF7E7FD002F00F1140316
:104D600009DD002211460132BA4243F8041BFAD190
:104D700000EB82031433226919F01F0904EB820C43
:104D800004F114010CF1140C22D0C9F1200A002204
:104D900000E03B46D1F800801F4608FA09F848EACF
:104DA000020247F8042B51F8042B8C4522FA0AF230
:104DB000EFD85A600AB10BF10205F36C6268013D4D
:104DC00053F822100561216043F82240BDE8F88FB6
:104DD00051F8042B8C4543F8042BEED951F8042BE1
:104DE0008C4543F8042BF3D8E7E700BF03460A6974
:104DF000006930B4801A0FD1043294001A190919CD
:104E000014330432043152F8045C51F8044D043A6E
:104E1000A54203D19342F6D330BC704701D30120A1
:104E2000FAE74FF0FF30F7E72DE9F0470C46074669
:104E3000114620461546FFF7D9FF0028064656D0F2
:104E400050DB002661683846FFF76EFD27692B6945
:104E500004EB870C05EB8308C6600CF1140C08F119
:104E600014081434143500F11409002654F8043BD6
:104E700055F8042B99B289191FFA82FA120CC2EB69
:104E80001346CAEB010106EB214689B24B4641EAC3
:104E9000064143F8041B3614A84522469946E5D836
:104EA000A445984614D952F8045BA9B28E192D0C6A
:104EB00005EB2645B6B246EA05412E14944543F863
:104EC000041BF0D8E343634423F003030433434457
:104ED00029B9043B53F8042D013F002AFAD0076199
:104EE000BDE8F087234601262C461D46AAE7384632
:104EF0003146FFF719FD012303614661BDE8F087E4
:104F000021F000431B0D1B05A3F15073002B02DDA4
:104F10001946002070475B421B150021132B0BDD47
:104F2000322B02DD0123184670470122C3F13303FF
:104F300002FA03F3184670474FF4002242FA03F1D5
:104F400000207047F8B504690346043450F8245033
:104F500000EB840428460F4603F11406FFF7A2FD78
:104F6000C0F120030A283B60234617DCA64238BF65
:104F700054F8044CC0F10B0125FA01F734BF24FAB0
:104F800001F10021153005FA00F547F07E5741EA9E
:104F9000050247F4E00310461946F8BDA6421FD3A8
:104FA0000021B0F10B0721D0B44288BF54F8044C63
:104FB00005FA07F5C0F12B0021FA00FC88BF24FA9E
:104FC00000F001FA07F145F07E5598BF002045F446
:104FD000E00540EA010245EA0C0310461946F8BD17
:104FE000043CB0F10B0753F8041CDDD145F07E55AD
:104FF0000A4645F4E00310461946F8BD2DE9F04392
:10500000012183B01D4614460A9F0B9EFFF78CFCBE
:1050100025F07F4323F47003C5F30A5980460193BA
:10502000B9F1000F02D043F480130193002C27D074
:1050300002A840F8084D6846FFF752FD019A034662
:10504000002834D10099C8F81410002A0CBF01249C
:105050000224C8F81820C8F81040B9F1000F1DD17B
:10506000A3F5866308EB8402023B10693B60FFF7FF
:1050700019FDC0EB44143460404603B0BDE8F08332
:1050800001A8FFF72DFD019B0124C8F81430C8F8D2
:10509000104000F12003B9F1000FE1D0A9F58662BC
:1050A000033AD218C3F135033A603360E4E7C0F144
:1050B000200102FA01F122FA00F200980192014364
:1050C000C8F81410C1E700BF2DE9F04383B00D46C6
:1050D00069460446FFF736FF80468946284601A9FF
:1050E000FFF730FF24692A690F46A41A9DE80A00D9
:1050F000CB1A03EB4414002C06460BDD09EB0453DA
:1051000099464046494632463B4602F04DF903B0C7
:10511000BDE8F083A7EB04510F46F2E7172810B55E
:1051200004460CDD00210020C3F6F07100230022AC
:10513000C4F2240302F00EF8013CF7D110BD034B7A
:1051400003EBC004D4E9000110BD00BFA89A4000E1
:105150001369013902EB8303491170B4143302F16E
:10516000140401319C4200EB81010CD2054654F835
:10517000046BA34245F8046BF9D89B1A153B23F046
:1051800003030433C018814204D9002340F8043BD0
:105190008142FBD870BC704702694B119A4210B42F
:1051A00001DB1A4618DC043200EB820300F1140123
:1051B0001C1DA1421DD250F8222052B9591A0331A8
:1051C00021F00301591A8B4213D053F8042D002A01
:1051D000F9D0012010BC704711F01F01E3D000EBA3
:1051E00083035B6923FA01F404FA01F19942F0D1D7
:1051F000D9E70020EEE700BF0B4661B1B1F1004FE7
:1052000009D04FF6FF72A3F58011C7F6DF72914205
:1052100005D8042070470028F3D10220704703F11D
:10522000FE4101F570019142F3D94FF6FF72C0F2D1
:105230000F02934201D80320704703F100419142CD
:10524000F9D90022C7F6F072934204D013F5801FFB
:1052500001D000207047D0F1010038BF0020704716
:1052600038B5074C0023054608462360FBF736FC9B
:10527000431C00D038BD2368002BFBD02B6038BD09
:10528000280A002010B50C46B1F90E1001F0B6FA4C
:10529000002803DB236D1B18236510BDA38923F4AD
:1052A0008053A38110BD00BF00207047B1F80CC02F
:1052B0002DE9F0411CF4807F0C46054617461E463A
:1052C00007D0B1F90E100022022301F02BFAB4F836
:1052D0000CC0B4F90E102CF4805C28463A463346D4
:1052E000A4F80CC0BDE8F04100F05EBF10B50C465C
:1052F000B1F90E1001F016FA421CA38904D043F450
:1053000080532065A38110BD23F48053A38110BD79
:10531000B1F90E1000F08CBF80EA010212F0030F09
:1053200040F03A8010F0030220F0030021F0030166
:1053300050F804CB08BF51F8043B0DD082F00302B3
:105340004FEAC2026FF07F4323FA02F251F8043BA6
:105350004CEA020C43EA0203ACF101329C4501BF66
:1053600022EA0C0212F0803F50F804CB51F8043BC3
:10537000F2D04FEA0C604FEA1C2C012828BFB0EB9A
:10538000036F08BF1B0AF4D003F0FF034FEA10605D
:10539000A0EB0300704700BF10F0030F0AD010F815
:1053A000012B11F8013B012A28BF9A42F4D0A2EB4D
:1053B000030070474DF8045D4DF8044D4FF00102B5
:1053C00042EA022242EA024201F0030C21F0030108
:1053D00050F8044B51F8045BBCF1020F26D04BD8B7
:1053E00024F07F4CBCEB152FA4EB020323EA04034B
:1053F0000DD113EAC21308BF51F8045B0AD18CEA3D
:10540000040CBCEB056F0CD150F8044BE8E74FEAF5
:1054100015255CE033F07F4352D10D784FEA146CD0
:1054200055E04FEA146C05F0FF0550E04FEA044CDC
:10543000A4EB02034FEA1C4C23EA0403BCEB154F18
:1054400017D113EAC21308BF51F8045B07D18CEAE5
:10545000040CBCEB054F08D150F8044BE6E71B04E5
:105460002ED10D884FEA144C31E04FEA05454FEA42
:10547000144C4FEA15452AE004F0FF0CBCEB156F05
:10548000A4EB020323EA04030DD113EAC21308BFFD
:1054900051F8045B0AD18CEA040CBCEB052F0AD14D
:1054A00050F8044BE8E74FEA156510E014F0FF0FE1
:1054B00006D051F8045B4FEA142C25F07F4506E036
:1054C0004FF000005DF8044B5DF8045B70470CF092
:1054D000FF0205F0FF00012828BF904204BF4FEAF9
:1054E0001C2C2D0AF3D0A2EB00005DF8044B5DF8F4
:1054F000045B704720F0030110F00300C0F10000CE
:1055000051F8043B00F1040C4FEACC0C6FF00002A0
:105510001CBF22FA0CF213434FF0010C4CEA0C2C86
:105520004CEA0C4CA3EB0C0222EA030212EACC1266
:1055300004BF51F8043B0430F4D013F0FF0F1FBF39
:10554000013013F47F4F013013F47F0F18BF013087
:10555000704700BF93682DE9F047914680460E469C
:1055600053B34A6E92042BD5D9F8002002F1080AF1
:105570001AE9A000BF08AFB1002401E0A7420FD094
:1055800055F8041B4046324600F0B6FE0134431C79
:10559000F4D10023C9F80830C9F80430BDE8F08719
:1055A000D9F80830A3EB8703C9F808300AF1080AD4
:1055B000002BDDD11846ECE753601846BDE8F087B4
:1055C0004A4600F029FF0023C9F80830C9F8043022
:1055D000BDE8F0872DE9F04FADF5A06D83B08246B0
:1055E0000F461646049318B1836B002B00F0AE846F
:1055F000BD89ABB2990407D47B6E45F4005523F402
:1056000000537B66BD81ABB21A0740F1E1833A6972
:10561000002A00F0DD8303F01A030A2B00F0E68372
:1056200000230DF59260D3460993CDF8F804CDF828
:105630000035CDF8FC3402930446BA463378002B8B
:1056400000F03C83252B00F039833246354601E0DB
:10565000252B04D012F8013F0135002BF8D1AF1BE8
:1056600097B1DDF8FC34DDF800250133D219072BA2
:1056700084E8C000CDF80025CDF8FC3400F3FE83AB
:1056800008340299C91902912B78002B00F01F856C
:10569000002300228DF807356B786E1C4FF0FF3722
:1056A000039200920136A3F12001582900F2D18122
:1056B000DFE811F00102CF01CF01FB01CF01CF01E3
:1056C000CF01CF01CF01CF01AE00F801CF01BA0069
:1056D0001E02CF0118020702070207020702070293
:1056E0000702070207020702CF01CF01CF01CF0156
:1056F000CF01CF01CF01CF01CF01CF01B301CF0146
:10570000CF01CF01CF01CF01CF01CF01CF01CF0119
:10571000CF019A00CF01CF01CF01CF01CF015900B6
:10572000CF01CF019101CF01CF01CF01CF01CF0137
:10573000CF01CF01CF01CF01CF0134011D01CF0136
:10574000CF01CF0117011D01CF01CF010D01CF0105
:10575000C0009E00F700F100CF01D100CF015D0035
:10576000CF01CF01E101009840F0100000900099B6
:10577000890640F11284049AD31D23F0070303F134
:105780000800D3E900890490012300208DF8070563
:10579000002F03DB009921F08001009158EA0902F3
:1057A00040F08E82002F40F08B82002B40F0BA81B7
:1057B0000099CB0740F1B68130238DF8F7340123EF
:1057C00001930DF59E63073306930597DDF804906A
:1057D00005989DF807358145B8BF8146002B00F03C
:1057E000B08009F10109ACE0009B43F01003009385
:1057F000009810F0200300F0BD830499CB1D23F026
:10580000070303F10802D3E9008904920023BCE7EF
:105810000498049B0068191D0028039080F2FE8301
:105820000398049140420390009941F004010091D3
:10583000337837E78DF80725009A970600F125841D
:105840000099CD0640F16484049A029813680432EA
:1058500004921860F2E6049B04991B68002004314E
:1058600006938DF807050491002B00F05C84002F4F
:105870000698C0F26D8400213A46FEF785FF0028A5
:1058800000F06D84069BC01AB842019000DD0197BC
:10589000002305939AE7009941F0200100913378A5
:1058A00000E7049B04991B68009A984630238DF802
:1058B000043578238DF805359E4B043142F0020201
:1058C000099304914FF00009009202235DE73378B9
:1058D00031466C2B00F0E383009840F010000090FC
:1058E000E0E6009941F0400100913378DAE6009952
:1058F0008DF80725890640F19A80049AD11D21F080
:105900000701D1E900230831049190469946002A05
:1059100073F10001C0F29483012339E7049B049AD8
:105920001B684FF001098DF8D034002304328DF844
:1059300007350DF59A630492CDF804900693002381
:105940000593009B13F002030793009B18BF09F116
:10595000020913F08403089340F0F2800398C9EB26
:105960000005002D40F3EC80102DDDF80025DDF85A
:10597000FC34714F22DD4FF0100803E0103D083475
:10598000102D1BDD01331032072B84E88001CDF888
:105990000025CDF8FC34F1DD584651460DF59F62E7
:1059A000FFF7D8FD002840F0BF81103D102DDDF835
:1059B0000025DDF8FC340DF59264E3DC0133521967
:1059C000072B27606560CDF80025CDF8FC3400F387
:1059D000C1820834B8E059498DF80725099100992A
:1059E00088064FD50498C21D22F0070202F1080173
:1059F0000491D2E900890099C80740F1988058EADB
:105A0000090200F09480302241F002018DF8053542
:105A10008DF8042500910223B7E600988DF807253C
:105A200040F010000090009989063FF566AF009B9A
:105A3000DA0600F1F78200994B0640F1F382049AEE
:105A4000B2F9008004324FEAE87904924B464246AC
:105A50005DE78DF80725002B00F039834FF0010931
:105A60008DF8D03400200DF59A638DF80705CDF838
:105A70000490069363E72F480099099088068DF8F3
:105A80000725AFD4009AD10600F1E48200994A06B6
:105A900040F1E082049A4FF00009B2F8008004322D
:105AA0000492A8E733782B22FCE5009B43F0010326
:105AB00000933378F6E53378002A7FF4F3AD2022A3
:105AC000F0E530460021A3F1300610F8013B01EB70
:105AD0008101A3F13005092D06EB41010646F2D9FB
