:020000040040BA
:1000000048130020690940000D0A40009513400084
:100010000D0A40000D0A40000D0A400000000000DB
:100020000000000000000000000000000D0A400079
:100030000D0A4000000000000D0A4000150A4000B3
:100040000D0A40000D0A40000D0A40000D0A400054
:100050000D0A40000D0A40000D0A40000D0A400044
:100060000D0A40000D0A40000D0A40000D0A400034
:10007000951340000D0A40000D0A40000D0A400093
:100080000D0A40000D0A40000D0A40000D0A400014
:100090000D0A40000D0A40000D0A40000D0A400004
:1000A0000D0A40000D0A40000D0A40000D0A4000F4
:1000B0000D0A40000D0A40000D0A40000D0A4000E4
:1000C0000D0A400080B400AF00BFBD4680BC704741
:1000D00080B400AF30BFBD4680BC704780B400AF75
:1000E00020BFBD4680BC704780B400AF40BFBD4656
:1000F00080BC704780B400AFBFF36F8FBD4680BC3B
:10010000704700BF80B400AFBFF34F8FBD4680BCC7
:10011000704700BF80B400AFBFF35F8FBD4680BCA7
:10012000704700BF90B484B000AF78607B681CBAA1
:10013000FC60FB68184607F11007BD4690BC70478D
:1001400090B484B000AF78607B685CBAFC60FB68F8
:10015000184607F11007BD4690BC704790B484B0B4
:1001600000AF78607B68DCBAFC60FB68184607F17A
:100170001007BD4690BC704780B483B000AF786074
:1001800039603A687B6863FA02F37B607B681846E3
:1001900007F10C07BD4680BC704700BF90B484B027
:1001A00000AF78607B6893FAA3F4FC60FB681846A4
:1001B00007F11007BD4690BC704700BF90B484B0F3
:1001C00000AF78607B68D3E84F4FFC73FB7B184629
:1001D00007F11007BD4690BC704700BF90B484B0D3
:1001E00000AF78607B68D3E85F4FFC81FB891846DD
:1001F00007F11007BD4690BC704700BF90B484B0B3
:1002000000AF78607B6853E8004FFC60FB681846DD
:1002100007F11007BD4690BC704700BF90B484B092
:1002200000AF03463960FB713B68FA79C3E8442F9D
:10023000FC60FB68184607F11007BD4690BC70478C
:1002400090B484B000AF03463960FB803B68FA8805
:10025000C3E8542FFC60FB68184607F11007BD4641
:1002600090BC704790B484B000AF786039603B6850
:100270007A6843E80024FC60FB68184607F1100721
:10028000BD4690BC704700BF80B400AFBFF32F8F56
:10029000BD4680BC704700BF90B484B000AF7860AA
:1002A0007B68B3FA83F4FC73FB7B184607F11007F5
:1002B000BD4690BC704700BF80B400AF62B6BD467B
:1002C00080BC704780B400AF72B6BD4680BC70473A
:1002D00090B482B000AFEFF314847C607B68184662
:1002E00007F10807BD4690BC704700BF80B483B0DB
:1002F00000AF78607B6883F3148807F10C07BD4674
:1003000080BC704790B482B000AFEFF305847C608E
:100310007B68184607F10807BD4690BC704700BFD0
:1003200090B482B000AFEFF300847C607B68184625
:1003300007F10807BD4690BC704700BF90B482B07B
:1003400000AFEFF303847C607B68184607F1080771
:10035000BD4690BC704700BF90B400AFEFF3098476
:1003600023461846BD4690BC704700BF80B483B09A
:1003700000AF78607B6883F3098807F10C07BD46FE
:1003800080BC704790B400AFEFF308842346184652
:10039000BD4690BC704700BF80B483B000AF7860AA
:1003A0007B6883F3088807F10C07BD4680BC704763
:1003B00090B482B000AFEFF310847C607B68184685
:1003C00007F10807BD4690BC704700BF80B483B0FA
:1003D00000AF78607B6883F3108807F10C07BD4697
:1003E00080BC704780B400AF61B6BD4680BC70472A
:1003F00080B400AF71B6BD4680BC704790B482B087
:1004000000AFEFF312847C607B68184607F10807A1
:10041000BD4690BC704700BF80B483B000AF786029
:100420007B6883F3118807F10C07BD4680BC7047D9
:1004300090B482B000AFEFF313847C607B68184601
:1004400007F10807BD4690BC704700BF80B483B079
:1004500000AF78607B6883F3138807F10C07BD4613
:1004600080BC704780B485B000AF78607B6803F0D3
:100470000703FB604FF46D43CEF20003DB68BB6003
:10048000BA684FF6FF031340BB60FB684FEA0322D4
:10049000BB68134343F0BE6343F42023BB604FF4B7
:1004A0006D43CEF20003BA68DA6007F11407BD4667
:1004B00080BC704780B400AF4FF46D43CEF20003B0
:1004C000DB6803F4E0634FEA13231846BD4680BCA3
:1004D000704700BF80B483B000AF0346FB714FF498
:1004E0006143CEF2000397F907204FEA5212F979DF
:1004F00001F01F014FF0010000FA01F143F8221052
:1005000007F10C07BD4680BC704700BF80B483B0C4
:1005100000AF0346FB714FF46143CEF2000397F93D
:1005200007204FEA5212F97901F01F014FF0010044
:1005300000FA01F102F1200243F8221007F10C0742
:10054000BD4680BC704700BF80B483B000AF034697
:10055000FB714FF46143CEF2000397F907204FEA95
:10056000521202F1400253F822301A46FB7903F08E
:100570001F034FF0010101FA03F31340002B02D0D7
:100580004FF0010301E04FF00003184607F10C079C
:10059000BD4680BC704700BF80B483B000AF034647
:1005A000FB714FF46143CEF2000397F907204FEA45
:1005B0005212F97901F01F014FF0010000FA01F128
:1005C00002F1400243F8221007F10C07BD4680BC3F
:1005D000704700BF80B483B000AF0346FB714FF497
:1005E0006143CEF2000397F907204FEA5212F979DE
:1005F00001F01F014FF0010000FA01F102F1600269
:1006000043F8221007F10C07BD4680BC704700BFBD
:1006100080B483B000AF0346FB714FF46143CEF268
:10062000000397F907204FEA521202F1800253F8B3
:1006300022301A46FB7903F01F034FF0010101FA43
:1006400003F31340002B02D04FF0010301E04FF001
:100650000003184607F10C07BD4680BC704700BF79
:1006600080B483B000AF03463960FB7197F907305F
:10067000002B10DA4FF46D43CEF20003FA7902F04A
:100680000F02A2F104013A68D2B24FEA0212D2B2CA
:100690005B181A760DE04FF46143CEF2000397F930
:1006A00007103A68D2B24FEA0212D2B25B1883F84E
:1006B000002307F10C07BD4680BC704780B483B0AF
:1006C00000AF0346FB7197F90730002B0FDA4FF4A8
:1006D0006D43CEF20003FA7902F00F02A2F1040298
:1006E0009B181B7EDBB24FEA1313DBB20CE04FF416
:1006F0006143CEF2000397F907209B1893F800336B
:10070000DBB24FEA1313DBB2184607F10C07BD4604
:1007100080BC704780B489B000AFF860B9607A607F
:10072000FB6803F00703FB61FB69C3F10703042BBC
:1007300028BF0423BB61FB6903F10403062B03D923
:10074000FB69A3F1030301E04FF000037B61BB6988
:100750004FF0010202FA03F303F1FF331A46BB68BC
:100760001A407B6902FA03F27B694FF0010101FA3A
:1007700003F303F1FF3319467B680B40134318461C
:1007800007F12407BD4680BC704700BF80B489B024
:1007900000AFF860B9607A603B60BB6803F00703A4
:1007A000FB61FB69C3F10703042B28BF0423BB6172
:1007B000FB6903F10403062B03D9FB69A3F10303CF
:1007C00001E04FF000037B617B69FA6822FA03F2D3
:1007D000BB694FF0010101FA03F303F1FF331A4043
:1007E0007B681A607B694FF0010202FA03F303F1A0
:1007F000FF331A46FB681A403B681A6007F124076A
:10080000BD4680BC704700BF80B400AFBFF34F8FC0
:100810004FF46D42CEF200024FF46D43CEF200036E
:10082000DB6803F4E0614FF00403C0F2FA530B43BA
:10083000D360BFF34F8FFEE780B582B000AF786022
:100840007A686FF07F439A4202D94FF001031FE0AC
:100850004EF21003CEF200037A6822F07F4202F1DA
:10086000FF325A604FF0FF304FF00F01FFF7F8FEF4
:100870004EF21003CEF200034FF000029A604EF2E7
:100880001003CEF200034FF007021A604FF000038E
:10089000184607F10807BD4680BD00BF80B483B08D
:1008A00000AF78604FF06043D3F8803E03F001035F
:1008B000DBB2002B13D04FF06043D3F8003E03F0BF
:1008C0000103DBB2002B0AD000BF4FF060431B686E
:1008D000002BFAD04FF060437A68D2B21A707B686E
:1008E000184607F10C07BD4680BC704780B483B042
:1008F00000AF4FF0FF337B6040F63C33C2F20003A1
:100900001A6845F6A523C5F6A5239A420ED040F6EF
:100910003C33C2F200031B687B6040F63C33C2F2FA
:10092000000345F6A522C5F6A5221A607B68184685
:1009300007F10C07BD4680BC704700BF80B400AF14
:1009400040F63C33C2F200031A6845F6A523C5F60B
:10095000A5239A4202D14FF0000301E04FF00103BA
:100960001846BD4680BC7047B0B500AF4BF24C3561
:10097000C0F2400540F20004C2F20004A5420CD0CF
:1009800005E02B68236004F1040405F1040540F63A
:10099000A423C2F200039C42F3D340F6A424C2F283
:1009A000000404E04FF00003236004F1040440F667
:1009B0004833C2F200039C42F4D340F20005C0F277
:1009C00040054FF46D43CEF200032A4622F0604208
:1009D00022F07F029A602A466FF060439A4212D951
:1009E0002A4645F6FF73C2F200039A420BD84FF431
:1009F0006D43CEF200034FF46D42CEF200029268D6
:100A000042F000529A6000F087FCFEE780B400AF2D
:100A1000FEE700BF80B400AF40F63433C2F20003FB
:100A20001B68002B0BD040F63433C2F200031B6866
:100A300003F1FF3240F63433C2F200031A60BD46C0
:100A400080BC704780B483B000AF786040F6343328
:100A5000C2F200037A681A6000BF40F63433C2F273
:100A600000031B68002BF8D107F10C07BD4680BCC2
:100A7000704700BF80B400AF00BFBD4680BC704768
:100A800080B400AF30BFBD4680BC704780B400AFBB
:100A900020BFBD4680BC704780B400AF40BFBD469C
:100AA00080BC704780B400AFBFF36F8FBD4680BC81
:100AB000704700BF80B400AFBFF34F8FBD4680BC0E
:100AC000704700BF80B400AFBFF35F8FBD4680BCEE
:100AD000704700BF90B484B000AF78607B681CBAE8
:100AE000FC60FB68184607F11007BD4690BC7047D4
:100AF00090B484B000AF78607B685CBAFC60FB683F
:100B0000184607F11007BD4690BC704790B484B0FA
:100B100000AF78607B68DCBAFC60FB68184607F1C0
:100B20001007BD4690BC704780B483B000AF7860BA
:100B300039603A687B6863FA02F37B607B68184629
:100B400007F10C07BD4680BC704700BF90B484B06D
:100B500000AF78607B6893FAA3F4FC60FB681846EA
:100B600007F11007BD4690BC704700BF90B484B039
:100B700000AF78607B68D3E84F4FFC73FB7B18466F
:100B800007F11007BD4690BC704700BF90B484B019
:100B900000AF78607B68D3E85F4FFC81FB89184623
:100BA00007F11007BD4690BC704700BF90B484B0F9
:100BB00000AF78607B6853E8004FFC60FB68184624
:100BC00007F11007BD4690BC704700BF90B484B0D9
:100BD00000AF03463960FB713B68FA79C3E8442FE4
:100BE000FC60FB68184607F11007BD4690BC7047D3
:100BF00090B484B000AF03463960FB803B68FA884C
:100C0000C3E8542FFC60FB68184607F11007BD4687
:100C100090BC704790B484B000AF786039603B6896
:100C20007A6843E80024FC60FB68184607F1100767
:100C3000BD4690BC704700BF80B400AFBFF32F8F9C
:100C4000BD4680BC704700BF90B484B000AF7860F0
:100C50007B68B3FA83F4FC73FB7B184607F110073B
:100C6000BD4690BC704700BF80B400AF62B6BD46C1
:100C700080BC704780B400AF72B6BD4680BC704780
:100C800090B482B000AFEFF314847C607B681846A8
:100C900007F10807BD4690BC704700BF80B483B021
:100CA00000AF78607B6883F3148807F10C07BD46BA
:100CB00080BC704790B482B000AFEFF305847C60D5
:100CC0007B68184607F10807BD4690BC704700BF17
:100CD00090B482B000AFEFF300847C607B6818466C
:100CE00007F10807BD4690BC704700BF90B482B0C2
:100CF00000AFEFF303847C607B68184607F10807B8
:100D0000BD4690BC704700BF90B400AFEFF30984BC
:100D100023461846BD4690BC704700BF80B483B0E0
:100D200000AF78607B6883F3098807F10C07BD4644
:100D300080BC704790B400AFEFF308842346184698
:100D4000BD4690BC704700BF80B483B000AF7860F0
:100D50007B6883F3088807F10C07BD4680BC7047A9
:100D600090B482B000AFEFF310847C607B681846CB
:100D700007F10807BD4690BC704700BF80B483B040
:100D800000AF78607B6883F3108807F10C07BD46DD
:100D900080BC704780B400AF61B6BD4680BC704770
:100DA00080B400AF71B6BD4680BC704790B482B0CD
:100DB00000AFEFF312847C607B68184607F10807E8
:100DC000BD4690BC704700BF80B483B000AF786070
:100DD0007B6883F3118807F10C07BD4680BC704720
:100DE00090B482B000AFEFF313847C607B68184648
:100DF00007F10807BD4690BC704700BF80B483B0C0
:100E000000AF78607B6883F3138807F10C07BD4659
:100E100080BC704780B485B000AF78607B6803F019
:100E20000703FB604FF46D43CEF20003DB68BB6049
:100E3000BA684FF6FF031340BB60FB684FEA03221A
:100E4000BB68134343F0BE6343F42023BB604FF4FD
:100E50006D43CEF20003BA68DA6007F11407BD46AD
:100E600080BC704780B400AF4FF46D43CEF20003F6
:100E7000DB6803F4E0634FEA13231846BD4680BCE9
:100E8000704700BF80B483B000AF0346FB714FF4DE
:100E90006143CEF2000397F907204FEA5212F97925
:100EA00001F01F014FF0010000FA01F143F8221098
:100EB00007F10C07BD4680BC704700BF80B483B00B
:100EC00000AF0346FB714FF46143CEF2000397F984
:100ED00007204FEA5212F97901F01F014FF001008B
:100EE00000FA01F102F1200243F8221007F10C0789
:100EF000BD4680BC704700BF80B483B000AF0346DE
:100F0000FB714FF46143CEF2000397F907204FEADB
:100F1000521202F1400253F822301A46FB7903F0D4
:100F20001F034FF0010101FA03F31340002B02D01D
:100F30004FF0010301E04FF00003184607F10C07E2
:100F4000BD4680BC704700BF80B483B000AF03468D
:100F5000FB714FF46143CEF2000397F907204FEA8B
:100F60005212F97901F01F014FF0010000FA01F16E
:100F700002F1400243F8221007F10C07BD4680BC85
:100F8000704700BF80B483B000AF0346FB714FF4DD
:100F90006143CEF2000397F907204FEA5212F97924
:100FA00001F01F014FF0010000FA01F102F16002AF
:100FB00043F8221007F10C07BD4680BC704700BF04
:100FC00080B483B000AF0346FB714FF46143CEF2AF
:100FD000000397F907204FEA521202F1800253F8FA
:100FE00022301A46FB7903F01F034FF0010101FA8A
:100FF00003F31340002B02D04FF0010301E04FF048
:101000000003184607F10C07BD4680BC704700BFBF
:1010100080B483B000AF03463960FB7197F90730A5
:10102000002B10DA4FF46D43CEF20003FA7902F090
:101030000F02A2F104013A68D2B24FEA0212D2B210
:101040005B181A760DE04FF46143CEF2000397F976
:1010500007103A68D2B24FEA0212D2B25B1883F894
:10106000002307F10C07BD4680BC704780B483B0F5
:1010700000AF0346FB7197F90730002B0FDA4FF4EE
:101080006D43CEF20003FA7902F00F02A2F10402DE
:101090009B181B7EDBB24FEA1313DBB20CE04FF45C
:1010A0006143CEF2000397F907209B1893F80033B1
:1010B000DBB24FEA1313DBB2184607F10C07BD464B
:1010C00080BC704780B489B000AFF860B9607A60C6
:1010D000FB6803F00703FB61FB69C3F10703042B03
:1010E00028BF0423BB61FB6903F10403062B03D96A
:1010F000FB69A3F1030301E04FF000037B61BB69CF
:101100004FF0010202FA03F303F1FF331A46BB6802
:101110001A407B6902FA03F27B694FF0010101FA80
:1011200003F303F1FF3319467B680B401343184662
:1011300007F12407BD4680BC704700BF80B489B06A
:1011400000AFF860B9607A603B60BB6803F00703EA
:10115000FB61FB69C3F10703042B28BF0423BB61B8
:10116000FB6903F10403062B03D9FB69A3F1030315
:1011700001E04FF000037B617B69FA6822FA03F219
:10118000BB694FF0010101FA03F303F1FF331A4089
:101190007B681A607B694FF0010202FA03F303F1E6
:1011A000FF331A46FB681A403B681A6007F12407B0
:1011B000BD4680BC704700BF80B400AFBFF34F8F07
:1011C0004FF46D42CEF200024FF46D43CEF20003B5
:1011D000DB6803F4E0614FF00403C0F2FA530B4301
:1011E000D360BFF34F8FFEE780B582B000AF786069
:1011F0007A686FF07F439A4202D94FF001031FE0F3
:101200004EF21003CEF200037A6822F07F4202F120
:10121000FF325A604FF0FF304FF00F01FFF7F8FE3A
:101220004EF21003CEF200034FF000029A604EF22D
:101230001003CEF200034FF007021A604FF00003D4
:10124000184607F10807BD4680BD00BF80B483B0D3
:1012500000AF78604FF06043D3F8803E03F00103A5
:10126000DBB2002B13D04FF06043D3F8003E03F005
:101270000103DBB2002B0AD000BF4FF060431B68B4
:10128000002BFAD04FF060437A68D2B21A707B68B4
:10129000184607F10C07BD4680BC704780B483B088
:1012A00000AF4FF0FF337B6040F63C33C2F20003E7
:1012B0001A6845F6A523C5F6A5239A420ED040F636
:1012C0003C33C2F200031B687B6040F63C33C2F241
:1012D000000345F6A522C5F6A5221A607B681846CC
:1012E00007F10C07BD4680BC704700BF80B400AF5B
:1012F00040F63C33C2F200031A6845F6A523C5F652
:10130000A5239A4202D14FF0000301E04FF0010300
:101310001846BD4680BC704780B500AF4FF00C004A
:1013200001F034FA40F20000C2F200004FF0070171
:1013300001F0EEFB00F05AFA00F0DCFA4FF000008A
:101340004FF0000100F06CFA0A4802F037FA4FF053
:101350000000FFF75FFD4FF00C004FF0000141F27D
:101360009532C0F2400202F007FF4FF00B0002F08E
:101370005BFFFEE7C000002080B400AF40F2000336
:10138000C2F200035B68DB6BDBB21846BD4680BC73
:10139000704700BF98B500AF4FF00C00FFF7F2FDAB
:1013A0005A4801F06FFC03461A4640F63833C2F241
:1013B00000031A70564801F065FC03461A4640F6D1
:1013C0004133C2F200031A70524801F05BFC03463D
:1013D0001A4640F64233C2F200031A7040F6423316
:1013E000C2F200031B78002B00F08F8040F64133DF
:1013F000C2F200031B78002B11D040F6A423C2F2E6
:1014000000034FF000021A7040F6A423C2F200035A
:101410001B784FF00000194600F002FA75E040F624
:101420003833C2F200031B78002B25D040F2E103D1
:10143000C2F200031B78002B67D140F2E103C2F235
:1014400000034FF001021A7040F6A423C2F2000319
:101450001B7803F10103DAB240F6A423C2F20003C1
:101460001A7040F6A423C2F200031B784FF000006C
:10147000194600F0D5F948E040F2E103C2F200035A
:101480004FF000021A7040F2E003C2F200031B7832
:10149000002B14BF00230123DAB240F2E003C2F2B2
:1014A00000031A7040F2E003C2F200031B78002B25
:1014B00020D040F64033C2F200031B784FEA0313FA
:1014C000DCB2FFF759FF0346DBB203F00F03DBB2D8
:1014D00022461343DBB2DAB240F64033C2F20003D5
:1014E0001A7040F64033C2F200031B78184601F030
:1014F00071F80AE0FFF740FF034603F00F03DAB28A
:1015000040F64033C2F200031A7098BD80000020FC
:10151000A0000020C000002080B400AF40F6AC2343
:10152000C2F200031846BD4680BC704780B582B049
:1015300000AF78604FF001004AF69C51C0F24001C4
:101540004FF0040200F044F9FEE700BF80B483B01E
:1015500000AF78604FF0FF33184607F10C07BD4627
:1015600080BC704780B485B000AFF860B9607A6025
:1015700040F64433C2F200034FF00C021A604FF001
:10158000FF33184607F11407BD4680BC704700BF03
:1015900080B400AF40F64433C2F200034FF00B02B8
:1015A0001A604FF0FF331846BD4680BC704700BF3D
:1015B00080B483B000AF786039603B684FF400526C
:1015C0005A604FF00003184607F10C07BD4680BC77
:1015D000704700BF80B400AF4FF001031846BD460E
:1015E00080BC704780B483B000AF78607B6803F143
:1015F0000003022B02D84FF0010308E040F6443309
:10160000C2F200034FF009021A604FF000031846BF
:1016100007F10C07BD4680BC704700BF80B483B0A3
:1016200000AF7860396040F64433C2F200034FF0F7
:1016300016021A604FF0FF33184607F10C07BD463B
:1016400080BC704780B483B000AF7860396040F6EA
:101650004433C2F200034FF01F021A604FF0FF3311
:10166000184607F10C07BD4680BC704780B485B0B2
:1016700000AFF860B9607A604FF00003184607F1D8
:101680001407BD4680BC704780B584B000AF786059
:1016900040F6B023C2F200031B68002B08D140F6CD
:1016A000B023C2F2000340F64832C2F200021A60D0
:1016B00040F6B023C2F200031B68FB6040F64833DB
:1016C000C2F20003BB6040F6B023C2F200031A6806
:1016D0007B68D218BB689A4213D94FF002004AF6D1
:1016E000A451C0F240014FF0190200F071F840F629
:1016F0004433C2F200034FF00C021A604FF0FF3384
:101700000CE040F6B023C2F200031A687B68D218DE
:1017100040F6B023C2F200031A60FB68184607F1D6
:101720001007BD4680BD00BF80B485B000AFF86033
:10173000B9607A604FF00103184607F11407BD46FF
:1017400080BC704780B483B000AF786039603B687C
:101750004FF400525A604FF00003184607F10C078F
:10176000BD4680BC704700BF80B483B000AF7860D6
:101770004FF0FF33184607F10C07BD4680BC704799
:1017800080B483B000AF786040F64433C2F2000307
:101790004FF002021A604FF0FF33184607F10C07B2
:1017A000BD4680BC704700BF80B483B000AF786096
:1017B00040F64433C2F200034FF00A021A604FF0C1
:1017C000FF33184607F10C07BD4680BC704700BFC9
:1017D00080B485B000AFF860B9607A604FF0010363
:1017E000184607F11407BD4680BC704780B582B02B
:1017F00000AF00F071FF4FF00003FB7109E0FB79CF
:101800004FF03F00194600F00FFEFB7903F1010392
:10181000FB71FB79022BF2D907F10807BD4680BDA9
:1018200080B584B000AF02460B46FA71BB7140F63A
:10183000B423C2F20003FA791A7040F6B523C2F25B
:101840000003BA791A704FF00003FB7318E0FB7BBA
:101850004FF04000194600F0E7FDBB7963F0470305
:10186000DAB2FB7B1046194600F0DEFDFB7B4FF041
:10187000C000194600F0D8FDFB7B03F10103FB73A8
:10188000FB7B012BE3D9FB7903F03F03DBB243F091
:101890004003DAB2FB794FEA9313DBB210461946E4
:1018A00000F0C2FDBB7963F04703DAB2FB794FEA7F
:1018B0009313DBB21046194600F0B6FD07F110078E
:1018C000BD4680BD80B582B000AF02460B46FA71BE
:1018D000BB71FB791A464FEA4202D3184FEA430321
:1018E000DAB2BB7910461946FFF79AFF07F10807ED
:1018F000BD4680BD80B582B000AF4FF00003BB7124
:1019000019E0BB794FF000001946FFF789FF4FF04F
:101910000003FB7107E04FF0000000F05BFEFB7975
:1019200003F10103FB71FB795BB2002BF3DABB79A6
:1019300003F10103BB71BB79072BE2D907F108075B
:10194000BD4680BD80B584B000AF0346FB71FB7916
:10195000A3F12003FB714FF00003FB7317E0FA794A
:1019600013464FEA83039B181A46FB7BD2184AF6AC
:10197000C053C0F24003D318184600F0E5FE0346FA
:10198000184600F027FEFB7B03F10103FB73FB7B92
:10199000042BE4D94FF0000000F01CFE07F1100703
:1019A000BD4680BD80B582B000AF786008E07B683E
:1019B0001B787A6802F101027A601846FFF7C2FFCD
:1019C0007B681B78002BF2D107F10807BD4680BD6C
:1019D00080B584B000AF13460246FA710A46BA7168
:1019E0007B71BB794FEAD303DBB2FA791046194613
:1019F000FFF716FF00F07EFD0346FB73BB794FEA4D
:101A0000D303DBB2FA7910461946FFF709FF00F05D
:101A100071FD0346FB73BB794FEAD303DBB2FA795E
:101A200010461946FFF7FCFE7B79002B0CD0BB79E2
:101A300003F007034FF0010202FA03F3DAB2FB7B73
:101A40001343DBB2FB730EE0BB7903F007034FF0E7
:101A5000010202FA03F3DBB26FEA0303DAB2FB7BA3
:101A60001340DBB2FB73FB7B184600F0B3FD07F1BC
:101A70001007BD4680BD00BF80B584B000AF786060
:101A8000F970BA707B704FF00003BB7324E0BA7832
:101A9000BB7BD318DBB2FA7810461946FFF7C0FEBD
:101AA0004FF00003FB730FE07B687A6802F10102DC
:101AB0007A60184600F048FE0346184600F08AFD9A
:101AC000FB7B03F10103FB73FA7B7B789A42EBD338
:101AD000BB7B03F10103BB733B7E4FEAD303DBB255
:101AE000BA7B9A42D3D307F11007BD4680BD00BF31
:101AF00080B400AF00BFBD4680BC704780B400AF6B
:101B000030BFBD4680BC704780B400AF20BFBD462B
:101B100080BC704780B400AF40BFBD4680BC7047FA
:101B200080B400AFBFF36F8FBD4680BC704700BF6D
:101B300080B400AFBFF34F8FBD4680BC704700BF7D
:101B400080B400AFBFF35F8FBD4680BC704700BF5D
:101B500090B484B000AF78607B681CBAFC60FB680E
:101B6000184607F11007BD4690BC704790B484B08A
:101B700000AF78607B685CBAFC60FB68184607F1D0
:101B80001007BD4690BC704790B484B000AF786039
:101B90007B68DCBAFC60FB68184607F11007BD469D
:101BA00090BC704780B483B000AF786039603A6809
:101BB0007B6863FA02F37B607B68184607F10C07C9
:101BC000BD4680BC704700BF90B484B000AF786061
:101BD0007B6893FAA3F4FC60FB68184607F11007D2
:101BE000BD4690BC704700BF90B484B000AF786031
:101BF0007B68D3E84F4FFC73FB7B184607F1100757
:101C0000BD4690BC704700BF90B484B000AF786010
:101C10007B68D3E85F4FFC81FB89184607F110070A
:101C2000BD4690BC704700BF90B484B000AF7860F0
:101C30007B6853E8004FFC60FB68184607F110070B
:101C4000BD4690BC704700BF90B484B000AF03465F
:101C50003960FB713B68FA79C3E8442FFC60FB688C
:101C6000184607F11007BD4690BC704790B484B089
:101C700000AF03463960FB803B68FA88C3E8542F05
:101C8000FC60FB68184607F11007BD4690BC704722
:101C900090B484B000AF786039603B687A6843E8FC
:101CA0000024FC60FB68184607F11007BD4690BC95
:101CB000704700BF80B400AFBFF32F8FBD4680BC1C
:101CC000704700BF90B484B000AF78607B68B3FA0F
:101CD00083F4FC73FB7B184607F11007BD4690BCEC
:101CE000704700BF80B400AF62B6BD4680BC70478D
:101CF00080B400AF72B6BD4680BC704790B482B06D
:101D000000AFEFF314847C607B68184607F1080786
:101D1000BD4690BC704700BF80B483B000AF786010
:101D20007B6883F3148807F10C07BD4680BC7047BD
:101D300090B482B000AFEFF305847C607B681846F6
:101D400007F10807BD4690BC704700BF90B482B051
:101D500000AFEFF300847C607B68184607F108074A
:101D6000BD4690BC704700BF90B482B000AFEFF3A7
:101D700003847C607B68184607F10807BD4690BC69
:101D8000704700BF90B400AFEFF3098423461846B4
:101D9000BD4690BC704700BF80B483B000AF786090
:101DA0007B6883F3098807F10C07BD4680BC704748
:101DB00090B400AFEFF3088423461846BD4690BCAC
:101DC000704700BF80B483B000AF78607B6883F356
:101DD000088807F10C07BD4680BC704790B482B0FC
:101DE00000AFEFF310847C607B68184607F10807AA
:101DF000BD4690BC704700BF80B483B000AF786030
:101E00007B6883F3108807F10C07BD4680BC7047E0
:101E100080B400AF61B6BD4680BC704780B400AFEF
:101E200071B6BD4680BC704790B482B000AFEFF38E
:101E300012847C607B68184607F10807BD4690BC99
:101E4000704700BF80B483B000AF78607B6883F3D5
:101E5000118807F10C07BD4680BC704790B482B072
:101E600000AFEFF313847C607B68184607F1080726
:101E7000BD4690BC704700BF80B483B000AF7860AF
:101E80007B6883F3138807F10C07BD4680BC70475D
:101E900080B485B000AF78607B6803F00703FB6017
:101EA0004FF46D43CEF20003DB68BB60BA684FF6B7
:101EB000FF031340BB60FB684FEA0322BB68134378
:101EC00043F0BE6343F42023BB604FF46D43CEF276
:101ED0000003BA68DA6007F11407BD4680BC70479A
:101EE00080B400AF4FF46D43CEF20003DB6803F41F
:101EF000E0634FEA13231846BD4680BC704700BF1D
:101F000080B483B000AF0346FB714FF46143CEF25F
:101F1000000397F907204FEA5212F97901F01F01E7
:101F20004FF0010000FA01F143F8221007F10C070D
:101F3000BD4680BC704700BF80B483B000AF03468D
:101F4000FB714FF46143CEF2000397F907204FEA8B
:101F50005212F97901F01F014FF0010000FA01F16E
:101F600002F1200243F8221007F10C07BD4680BCA5
:101F7000704700BF80B483B000AF0346FB714FF4DD
:101F80006143CEF2000397F907204FEA521202F1A3
:101F9000400253F822301A46FB7903F01F034FF03A
:101FA000010101FA03F31340002B02D04FF00103AB
:101FB00001E04FF00003184607F10C07BD4680BC56
:101FC000704700BF80B483B000AF0346FB714FF48D
:101FD0006143CEF2000397F907204FEA5212F979D4
:101FE00001F01F014FF0010000FA01F102F140027F
:101FF00043F8221007F10C07BD4680BC704700BFB4
:1020000080B483B000AF0346FB714FF46143CEF25E
:10201000000397F907204FEA5212F97901F01F01E6
:102020004FF0010000FA01F102F1600243F82210C2
:1020300007F10C07BD4680BC704700BF80B483B079
:1020400000AF0346FB714FF46143CEF2000397F9F2
:1020500007204FEA521202F1800253F822301A464A
:10206000FB7903F01F034FF0010101FA03F3134062
:10207000002B02D04FF0010301E04FF0000318469F
:1020800007F10C07BD4680BC704700BF80B483B029
:1020900000AF03463960FB7197F90730002B10DA67
:1020A0004FF46D43CEF20003FA7902F00F02A2F171
:1020B00004013A68D2B24FEA0212D2B25B181A7621
:1020C0000DE04FF46143CEF2000397F907103A6830
:1020D000D2B24FEA0212D2B25B1883F8002307F1A2
:1020E0000C07BD4680BC704780B483B000AF034688
:1020F000FB7197F90730002B0FDA4FF46D43CEF2E6
:102100000003FA7902F00F02A2F104029B181B7E71
:10211000DBB24FEA1313DBB20CE04FF46143CEF2B3
:10212000000397F907209B1893F80033DBB24FEABE
:102130001313DBB2184607F10C07BD4680BC70478D
:1021400080B489B000AFF860B9607A60FB6803F0D2
:102150000703FB61FB69C3F10703042B28BF0423BA
:10216000BB61FB6903F10403062B03D9FB69A3F1EF
:10217000030301E04FF000037B61BB694FF00102F4
:1021800002FA03F303F1FF331A46BB681A407B6976
:1021900002FA03F27B694FF0010101FA03F303F144
:1021A000FF3319467B680B401343184607F1240799
:1021B000BD4680BC704700BF80B489B000AFF860F6
:1021C000B9607A603B60BB6803F00703FB61FB69A1
:1021D000C3F10703042B28BF0423BB61FB6903F190
:1021E0000403062B03D9FB69A3F1030301E04FF0BD
:1021F00000037B617B69FA6822FA03F2BB694FF046
:10220000010101FA03F303F1FF331A407B681A60FE
:102210007B694FF0010202FA03F303F1FF331A4620
:10222000FB681A403B681A6007F12407BD4680BC72
:10223000704700BF80B400AFBFF34F8F4FF46D42C3
:10224000CEF200024FF46D43CEF20003DB6803F4DC
:10225000E0614FF00403C0F2FA530B43D360BFF3C5
:102260004F8FFEE780B582B000AF78607A686FF07C
:102270007F439A4202D94FF001031FE04EF2100350
:10228000CEF200037A6822F07F4202F1FF325A60F8
:102290004FF0FF304FF00F01FFF7F8FE4EF2100342
:1022A000CEF200034FF000029A604EF21003CEF21D
:1022B00000034FF007021A604FF00003184607F1C1
:1022C0000807BD4680BD00BF80B483B000AF786012
:1022D0004FF06043D3F8803E03F00103DBB2002BE4
:1022E00013D04FF06043D3F8003E03F00103DBB29C
:1022F000002B0AD000BF4FF060431B68002BFAD0C0
:102300004FF060437A68D2B21A707B68184607F1C2
:102310000C07BD4680BC704780B483B000AF4FF05F
:10232000FF337B6040F63C33C2F200031A6845F687
:10233000A523C5F6A5239A420ED040F63C33C2F23F
:1023400000031B687B6040F63C33C2F2000345F695
:10235000A522C5F6A5221A607B68184607F10C076E
:10236000BD4680BC704700BF80B400AF40F63C3330
:10237000C2F200031A6845F6A523C5F6A5239A42C2
:1023800002D14FF0000301E04FF001031846BD46B3
:1023900080BC704780B400AF00BFBD4680BC7047B2
:1023A00080B582B000AF0346FB71FB79012B07D0EB
:1023B000022B09D0002B0BD1074800F055FC07E099
:1023C000064800F051FC03E0054800F04DFC00BF5A
:1023D00007F10807BD4680BD00B0400020B04000B6
:1023E00040B0400080B582B000AF0346FB71FB797E
:1023F000012B07D0022B09D0002B0BD1074800F08E
:1024000025FC07E0064800F021FC03E0054800F049
:102410001DFC00BF07F10807BD4680BD00B04000AD
:1024200020B0400040B0400080B584B000AF02460C
:102430000B46FA71BB714FF00003FB601DE040F2E8
:10244000E803C2F20003FA684FEA42129B1803F154
:1024500008034FF004025A70FB684FEA431240F23F
:10246000E803C2F20003D31818464FF0010100F050
:102470004FFBFB6803F10103FB60FB68072BDED910
:102480004AF6A070C0F2400000F0EEFB174800F0E2
:10249000EBFBFFF77FFFBB791846FFF781FFFFF7E4
:1024A00079FF40F2E803C2F200035B68FA791A632D
:1024B00040F2E803C2F200035B68FA796FEA0202B5
:1024C000D2B25A63FFF766FF094800F0BFFBFFF77F
:1024D00061FF074800F0C8FBFFF75CFFBB791846B7
:1024E000FFF780FF07F11007BD4680BDC0AF400079
:1024F000E0AF400080B582B000AF4FF000037B60DA
:102500001DE040F2E803C2F200037A684FEA42128B
:102510009B1803F108034FF002025A707B684FEAE0
:10252000431240F2E803C2F20003D31818464FF0FA
:10253000010100F0EDFA7B6803F101037B607B6829
:10254000072BDED9214800F081FB4AF6A070C0F2CB
:10255000400000F07BFB40F6B423C2F200031B787E
:102560004FEA9313DBB21846FFF71AFFFFF712FF8B
:10257000174800F06BFBFFF70DFF40F2E803C2F2D3
:1025800000035B68DB6BFB70114800F06DFB40F6ED
:10259000B423C2F200031B784FEA9313DBB2184650
:1025A000FFF720FF40F6B423C2F200031B7803F1CB
:1025B0000103DAB240F6B423C2F200031A70FB78CA
:1025C000184607F10807BD4680BD00BFC0AF4000F8
:1025D000E0AF400080B584B000AF0346FB714FF020
:1025E0000003FB601DE040F2E803C2F20003FA685A
:1025F0004FEA42129B1803F108034FF004025A708D
:10260000FB684FEA431240F2E803C2F20003D3181A
:1026100018464FF0010100F07BFAFB6803F101035B
:10262000FB60FB68072BDED9294800F01DFBFFF794
:10263000B1FE4AF6A070C0F2400000F007FBFFF7C1
:10264000A9FE40F2E803C2F200035B68FA791A635C
:1026500040F2E803C2F200035B68FA796FEA020213
:10266000D2B25A63FFF796FE40F6B423C2F20003DB
:102670001B784FEA9313DBB21846FFF791FEFFF782
:1026800089FE144800F0E2FAFFF784FE114800F0DA
:10269000EBFAFFF77FFE40F6B423C2F200031B788B
:1026A0004FEA9313DBB21846FFF79CFE40F6B423C3
:1026B000C2F200031B7803F10103DAB240F6B4233F
:1026C000C2F200031A7007F11007BD4680BD00BFBB
:1026D000C0AF4000E0AF400080B582B000AF4FF027
:1026E00000037B6010E07B684FEA431240F2E8038E
:1026F000C2F20003D31818464FF0010100F008FAA7
:102700007B6803F101037B607B68072BEBD94FF0FB
:1027100000037B6010E07B684FEA43124AF6A07327
:10272000C0F24003D31818464FF0010100F0F0F951
:102730007B6803F101037B607B68052BEBD907F114
:102740000807BD4680BD00BF80B483B000AF78608D
:102750007B681B78184607F10C07BD4680BC7047A4
:1027600080B400AF4FF48063C4F20E034FF0010257
:102770005A6000BF4FF48063C4F20E039B6803F0FD
:102780000103002BF6D0BD4680BC704780B582B0F7
:1027900000AF78607B681F2B12D94BF26000C0F24B
:1027A000400001F097FD4BF27000C0F240004BF288
:1027B0009001C0F240014FF0660201F08BFDFEE790
:1027C0004FF48063C4F20E039B691A467B684FF096
:1027D000010101FA03F31A407B684FF0010101FA8D
:1027E00003F39A4207D14BF2A800C0F24000796887
:1027F00001F070FD09E04FF48063C4F20E037A68C3
:102800004FF0010101FA02F21A6107F10807BD4613
:1028100080BD00BF80B582B000AF78607B681F2BA1
:1028200012D94BF26000C0F2400001F053FD4BF2B0
:102830007000C0F240004BF29001C0F240014FF036
:102840007C0201F047FDFEE74FF48063C4F20E0303
:102850009B691A467B684FF0010101FA03F31A40A5
:102860007B684FF0010101FA03F39A4207D04BF263
:10287000F000C0F24000796801F02CFD09E04FF44F
:102880008063C4F20E037A684FF0010101FA02F28C
:102890005A6107F10807BD4680BD00BF80B500AF93
:1028A0004FF48063C4F20E034FF6FC72C3F6FF725E
:1028B0001A6100BF4FF48063C4F20E039B6923F0DA
:1028C000404222F003024FF6FC73C3F6FF739A42B4
:1028D000F0D14BF23410C0F2400001F0FBFC80BD9F
:1028E00080B500AF4FF48063C4F20E034FF6FC7264
:1028F000C3F6FF725A6100BF4FF48063C4F20E0347
:102900009B6923F0404323F00303002BF4D14BF2E7
:102910005410C0F2400001F0DDFC80BD80B400AF77
:102920004FF48063C4F20E039B691A464FF6FC73A2
:10293000C3F6FF739A4214BF002301231846BD4615
:1029400080BC704780B483B000AF78604FF4806380
:10295000C4F20E039B691A467B684FF0010101FA2D
:1029600003F31340184607F10C07BD4680BC7047BF
:1029700080B500AFFFF7F4FE80BD00BF80B487B024
:1029800000AFF860B9601346FB71FB68BA685A641F
:10299000FB79002B03D0FB68BA685A6602E0FB683B
:1029A000BA681A66FB681B6F7B61FB681B6F1A466F
:1029B000BB686FEA03017B690B401A40FB681A672A
:1029C000FB68BA685A6007F11C07BD4680BC7047B7
:1029D00080B487B000AFF860B9601346FB71FB6844
:1029E000BA685A64FB79002B03D0FB68BA685A6650
:1029F00002E0FB68BA681A66FB681B6F7B61BA6805
:102A00007B691A43FB681A67FB68BA685A6007F16A
:102A10001C07BD4680BC704780B485B000AFF8602D
:102A2000B9607A60FB68BA68C3F88420BB686FEA53
:102A30000302FB68C3F880207B684FEA83434FEAB8
:102A40009343FA68C2F88C3007F11407BD4680BC86
:102A5000704700BF80B485B000AFF860B960FA710C
:102A6000BB71FB68BA685A64FB79002B03D0FB6822
:102A7000BA685A6602E0FB68BA681A66BB79002B2E
:102A800003D0FB68BA681A6202E0FB68BA685A624F
:102A9000FB68BA685A61FB68BA681A6007F11407E4
:102AA000BD4680BC704700BF80B485B000AFF86001
:102AB000B960FA71BB71FB68BA685A643B7E002B3F
:102AC00003D0FB68BA685A6602E0FB68BA681A6607
:102AD000BB79002B03D0FB68BA681A6502E0FB687B
:102AE000BA685A65FB79002B03D0FB68BA681A6391
:102AF00002E0FB68BA685A63FB68BA681A61FB684F
:102B0000BA681A6007F11407BD4680BC704700BF61
:102B100090B585B002AF786039608CE07B685B7AF5
:102B2000042B7CD801A252F823F000BF412B4000B7
:102B30005F2B40007D2B4000E52B4000E52B400043
:102B40007B6859687B681A687B689B7A03F001038D
:102B5000DBB2084611461A46FFF710FF63E07B68B8
:102B600059687B681A687B689B7A03F00103DBB2C3
:102B7000084611461A46FFF72BFF54E04FF48063D6
:102B8000C4F20E037A68127A4FF0010101FA02F2E0
:102B90001A617B6858687B6819687B689B7A03F0C8
:102BA0000103DAB27B689B7A03F00203002B0CBFAF
:102BB00000230123DBB2FFF74DFF7B689B7A03F014
:102BC0000203002B2ED07B6859687B689A697B686A
:102BD0009B8BC3F30D039BB2084611461A46FFF7C1
:102BE0001BFF1FE07B6858687B6819687B685B7A0D
:102BF000042B14BF00230123DAB27B689B7A03F015
:102C00000403002B0CBF00230123DBB27C68A47AF1
:102C100004F00104E4B20094FFF746FF03E04FF034
:102C200000030EE000BF7B6803F120037B603B687C
:102C300003F1FF333B603B68002B7FF46FAF4FF035
:102C40000103184607F10C07BD4690BD80B483B060
:102C500000AF78607B685B687A6812681A6307F176
:102C60000C07BD4680BC704780B483B000AF78606D
:102C70007B685B687A6812685A6307F10C07BD4687
:102C800080BC704780B485B000AF78607B685B7AA9
:102C9000032B03D07B685B7A042B04D17B685B68D1
:102CA0009B6BFB6003E07B685B68DB6BFB607B68B6
:102CB0001A68FB681340002B02D14FF0000301E0BB
:102CC0004FF00103184607F11407BD4680BC70475A
:102CD00080B483B000AF78607B685B689B6B1A46FA
:102CE0007B681B681340002B02D14FF0000301E00A
:102CF0004FF00103184607F10C07BD4680BC704732
:102D000080B400AF00BFBD4680BC704780B400AF48
:102D100030BFBD4680BC704780B400AF20BFBD4609
:102D200080BC704780B400AF40BFBD4680BC7047D8
:102D300080B400AFBFF36F8FBD4680BC704700BF4B
:102D400080B400AFBFF34F8FBD4680BC704700BF5B
:102D500080B400AFBFF35F8FBD4680BC704700BF3B
:102D600090B484B000AF78607B681CBAFC60FB68EC
:102D7000184607F11007BD4690BC704790B484B068
:102D800000AF78607B685CBAFC60FB68184607F1AE
:102D90001007BD4690BC704790B484B000AF786017
:102DA0007B68DCBAFC60FB68184607F11007BD467B
:102DB00090BC704780B483B000AF786039603A68E7
:102DC0007B6863FA02F37B607B68184607F10C07A7
:102DD000BD4680BC704700BF90B484B000AF78603F
:102DE0007B6893FAA3F4FC60FB68184607F11007B0
:102DF000BD4690BC704700BF90B484B000AF78600F
:102E00007B68D3E84F4FFC73FB7B184607F1100734
:102E1000BD4690BC704700BF90B484B000AF7860EE
:102E20007B68D3E85F4FFC81FB89184607F11007E8
:102E3000BD4690BC704700BF90B484B000AF7860CE
:102E40007B6853E8004FFC60FB68184607F11007E9
:102E5000BD4690BC704700BF90B484B000AF03463D
:102E60003960FB713B68FA79C3E8442FFC60FB686A
:102E7000184607F11007BD4690BC704790B484B067
:102E800000AF03463960FB803B68FA88C3E8542FE3
:102E9000FC60FB68184607F11007BD4690BC704700
:102EA00090B484B000AF786039603B687A6843E8DA
:102EB0000024FC60FB68184607F11007BD4690BC73
:102EC000704700BF80B400AFBFF32F8FBD4680BCFA
:102ED000704700BF90B484B000AF78607B68B3FAED
:102EE00083F4FC73FB7B184607F11007BD4690BCCA
:102EF000704700BF80B400AF62B6BD4680BC70476B
:102F000080B400AF72B6BD4680BC704790B482B04A
:102F100000AFEFF314847C607B68184607F1080764
:102F2000BD4690BC704700BF80B483B000AF7860EE
:102F30007B6883F3148807F10C07BD4680BC70479B
:102F400090B482B000AFEFF305847C607B681846D4
:102F500007F10807BD4690BC704700BF90B482B02F
:102F600000AFEFF300847C607B68184607F1080728
:102F7000BD4690BC704700BF90B482B000AFEFF385
:102F800003847C607B68184607F10807BD4690BC47
:102F9000704700BF90B400AFEFF309842346184692
:102FA000BD4690BC704700BF80B483B000AF78606E
:102FB0007B6883F3098807F10C07BD4680BC704726
:102FC00090B400AFEFF3088423461846BD4690BC8A
:102FD000704700BF80B483B000AF78607B6883F334
:102FE000088807F10C07BD4680BC704790B482B0DA
:102FF00000AFEFF310847C607B68184607F1080788
:10300000BD4690BC704700BF80B483B000AF78600D
:103010007B6883F3108807F10C07BD4680BC7047BE
:1030200080B400AF61B6BD4680BC704780B400AFCD
:1030300071B6BD4680BC704790B482B000AFEFF36C
:1030400012847C607B68184607F10807BD4690BC77
:10305000704700BF80B483B000AF78607B6883F3B3
:10306000118807F10C07BD4680BC704790B482B050
:1030700000AFEFF313847C607B68184607F1080704
:10308000BD4690BC704700BF80B483B000AF78608D
:103090007B6883F3138807F10C07BD4680BC70473B
:1030A00080B485B000AF78607B6803F00703FB60F5
:1030B0004FF46D43CEF20003DB68BB60BA684FF695
:1030C000FF031340BB60FB684FEA0322BB68134356
:1030D00043F0BE6343F42023BB604FF46D43CEF254
:1030E0000003BA68DA6007F11407BD4680BC704778
:1030F00080B400AF4FF46D43CEF20003DB6803F4FD
:10310000E0634FEA13231846BD4680BC704700BFFA
:1031100080B483B000AF0346FB714FF46143CEF23D
:10312000000397F907204FEA5212F97901F01F01C5
:103130004FF0010000FA01F143F8221007F10C07EB
:10314000BD4680BC704700BF80B483B000AF03466B
:10315000FB714FF46143CEF2000397F907204FEA69
:103160005212F97901F01F014FF0010000FA01F14C
:1031700002F1200243F8221007F10C07BD4680BC83
:10318000704700BF80B483B000AF0346FB714FF4BB
:103190006143CEF2000397F907204FEA521202F181
:1031A000400253F822301A46FB7903F01F034FF018
:1031B000010101FA03F31340002B02D04FF0010389
:1031C00001E04FF00003184607F10C07BD4680BC34
:1031D000704700BF80B483B000AF0346FB714FF46B
:1031E0006143CEF2000397F907204FEA5212F979B2
:1031F00001F01F014FF0010000FA01F102F140025D
:1032000043F8221007F10C07BD4680BC704700BF91
:1032100080B483B000AF0346FB714FF46143CEF23C
:10322000000397F907204FEA5212F97901F01F01C4
:103230004FF0010000FA01F102F1600243F82210A0
:1032400007F10C07BD4680BC704700BF80B483B057
:1032500000AF0346FB714FF46143CEF2000397F9D0
:1032600007204FEA521202F1800253F822301A4628
:10327000FB7903F01F034FF0010101FA03F3134040
:10328000002B02D04FF0010301E04FF0000318467D
:1032900007F10C07BD4680BC704700BF80B483B007
:1032A00000AF03463960FB7197F90730002B10DA45
:1032B0004FF46D43CEF20003FA7902F00F02A2F14F
:1032C00004013A68D2B24FEA0212D2B25B181A76FF
:1032D0000DE04FF46143CEF2000397F907103A680E
:1032E000D2B24FEA0212D2B25B1883F8002307F180
:1032F0000C07BD4680BC704780B483B000AF034666
:10330000FB7197F90730002B0FDA4FF46D43CEF2C3
:103310000003FA7902F00F02A2F104029B181B7E4F
:10332000DBB24FEA1313DBB20CE04FF46143CEF291
:10333000000397F907209B1893F80033DBB24FEA9C
:103340001313DBB2184607F10C07BD4680BC70476B
:1033500080B489B000AFF860B9607A60FB6803F0B0
:103360000703FB61FB69C3F10703042B28BF042398
:10337000BB61FB6903F10403062B03D9FB69A3F1CD
:10338000030301E04FF000037B61BB694FF00102D2
:1033900002FA03F303F1FF331A46BB681A407B6954
:1033A00002FA03F27B694FF0010101FA03F303F122
:1033B000FF3319467B680B401343184607F1240777
:1033C000BD4680BC704700BF80B489B000AFF860D4
:1033D000B9607A603B60BB6803F00703FB61FB697F
:1033E000C3F10703042B28BF0423BB61FB6903F16E
:1033F0000403062B03D9FB69A3F1030301E04FF09B
:1034000000037B617B69FA6822FA03F2BB694FF023
:10341000010101FA03F303F1FF331A407B681A60DC
:103420007B694FF0010202FA03F303F1FF331A46FE
:10343000FB681A403B681A6007F12407BD4680BC50
:10344000704700BF80B400AFBFF34F8F4FF46D42A1
:10345000CEF200024FF46D43CEF20003DB6803F4BA
:10346000E0614FF00403C0F2FA530B43D360BFF3A3
:103470004F8FFEE780B582B000AF78607A686FF05A
:103480007F439A4202D94FF001031FE04EF210032E
:10349000CEF200037A6822F07F4202F1FF325A60D6
:1034A0004FF0FF304FF00F01FFF7F8FE4EF2100320
:1034B000CEF200034FF000029A604EF21003CEF2FB
:1034C00000034FF007021A604FF00003184607F19F
:1034D0000807BD4680BD00BF80B483B000AF7860F0
:1034E0004FF06043D3F8803E03F00103DBB2002BC2
:1034F00013D04FF06043D3F8003E03F00103DBB27A
:10350000002B0AD000BF4FF060431B68002BFAD09D
:103510004FF060437A68D2B21A707B68184607F1A0
:103520000C07BD4680BC704780B483B000AF4FF03D
:10353000FF337B6040F63C33C2F200031A6845F665
:10354000A523C5F6A5239A420ED040F63C33C2F21D
:1035500000031B687B6040F63C33C2F2000345F673
:10356000A522C5F6A5221A607B68184607F10C074C
:10357000BD4680BC704700BF80B400AF40F63C330E
:10358000C2F200031A6845F6A523C5F6A5239A42A0
:1035900002D14FF0000301E04FF001031846BD4691
:1035A00080BC704780B584B000AF786039603B68FC
:1035B000DB6CFB603B689B6CFA681340FB60FB684C
:1035C000002B41D04FF00003BB603AE040F6B82337
:1035D000C2F20003BA6853F832301B7A1A467B688D
:1035E0009A422AD140F6B823C2F20003BA6853F8CF
:1035F00032301A68FB681340002B1ED040F6B82208
:10360000C2F20002BB684FEAC303D3185A6840F6FF
:10361000B823C2F20003B96853F831301846904716
:1036200040F6B823C2F20003BA6853F832301B6880
:103630006FEA0303FA681340FB60BB6803F1010300
:10364000BB60FB68002BC1D107F11007BD4680BDF0
:1036500080B500AF4FF00A004FF44061C4F20E0194
:10366000FFF7A0FF4FF00B004FF46061C4F20E01B2
:10367000FFF798FF4FF00C004FF48051C4F20E0199
:10368000FFF790FF80BD00BF80B582B000AF7860CB
:1036900040F6F023C2F200034FF000021A604FF42C
:1036A0008063C4F20E034FF480621A614FF44063EA
:1036B000C4F20E03DB6C4FF44063C4F20E034FF010
:1036C000FF325A644FF00A00796843F25162C0F247
:1036D000400200F051FD4FF00A0000F0A5FD4FF44C
:1036E0008063C4F20E034FF400621A614FF460630A
:1036F000C4F20E03DB6C4FF46063C4F20E034FF0B0
:10370000FF325A644FF00B00796843F25162C0F205
:10371000400200F031FD4FF00B0000F085FD4FF44A
:103720008063C4F20E034FF480521A614FF4805349
:10373000C4F20E03DB6C4FF48053C4F20E034FF05F
:10374000FF325A644FF00C00796843F25162C0F2C4
:10375000400200F011FD4FF00C0000F065FD07F194
:103760000807BD4680BD00BF80B485B000AF78605B
:10377000396040F6F023C2F200031B684FEAC3022F
:1037800040F6B823C2F20003D318FB60FB687A68E6
:103790001A60FB683A685A6040F6F023C2F20003F0
:1037A0001B6803F1010240F6F023C2F200031A6025
:1037B00007F11407BD4680BC704700BF80B483B0DA
:1037C00000AF78607B685B68DB6C7B685B687A68FD
:1037D00012681A647B681A687B68DB681340002BE8
:1037E00031D07B685B687A68D268C3F8B0207B68A8
:1037F0001A687B681B691340002B06D07B685B68E6
:103800007A681269C3F8C42007E07B685B687A684D
:1038100012696FEA0202C3F8C0207B681A687B68ED
:103820005B691340002B06D07B685B687A6852693D
:10383000C3F8D42007E07B685B687A6852696FEA56
:103840000202C3F8D02007F10C07BD4680BC7047C8
:1038500080B483B000AF78607B685B687A68126878
:103860005A647B681A687B68DB681340002B08D0B9
:103870007B685B687A6811687A68D2680A40C3F826
:10388000B42007F10C07BD4680BC704780B500AF7F
:103890004FF00A004FF44061C4F20E01FFF782FEC0
:1038A00080BD00BF80B500AF4FF00B004FF46061EA
:1038B000C4F20E01FFF776FE80BD00BF80B500AFF9
:1038C0004FF00C004FF48051C4F20E01FFF76AFE76
:1038D00080BD00BF80B400AF00BFBD4680BC704754
:1038E00080B400AF30BFBD4680BC704780B400AF2D
:1038F00020BFBD4680BC704780B400AF40BFBD460E
:1039000080BC704780B400AFBFF36F8FBD4680BCF2
:10391000704700BF80B400AFBFF34F8FBD4680BC7F
:10392000704700BF80B400AFBFF35F8FBD4680BC5F
:10393000704700BF90B484B000AF78607B681CBA59
:10394000FC60FB68184607F11007BD4690BC704745
:1039500090B484B000AF78607B685CBAFC60FB68B0
:10396000184607F11007BD4690BC704790B484B06C
:1039700000AF78607B68DCBAFC60FB68184607F132
:103980001007BD4690BC704780B483B000AF78602C
:1039900039603A687B6863FA02F37B607B6818469B
:1039A00007F10C07BD4680BC704700BF90B484B0DF
:1039B00000AF78607B6893FAA3F4FC60FB6818465C
:1039C00007F11007BD4690BC704700BF90B484B0AB
:1039D00000AF78607B68D3E84F4FFC73FB7B1846E1
:1039E00007F11007BD4690BC704700BF90B484B08B
:1039F00000AF78607B68D3E85F4FFC81FB89184695
:103A000007F11007BD4690BC704700BF90B484B06A
:103A100000AF78607B6853E8004FFC60FB68184695
:103A200007F11007BD4690BC704700BF90B484B04A
:103A300000AF03463960FB713B68FA79C3E8442F55
:103A4000FC60FB68184607F11007BD4690BC704744
:103A500090B484B000AF03463960FB803B68FA88BD
:103A6000C3E8542FFC60FB68184607F11007BD46F9
:103A700090BC704790B484B000AF786039603B6808
:103A80007A6843E80024FC60FB68184607F11007D9
:103A9000BD4690BC704700BF80B400AFBFF32F8F0E
:103AA000BD4680BC704700BF90B484B000AF786062
:103AB0007B68B3FA83F4FC73FB7B184607F11007AD
:103AC000BD4690BC704700BF80B400AF62B6BD4633
:103AD00080BC704780B400AF72B6BD4680BC7047F2
:103AE00090B482B000AFEFF314847C607B6818461A
:103AF00007F10807BD4690BC704700BF80B483B093
:103B000000AF78607B6883F3148807F10C07BD462B
:103B100080BC704790B482B000AFEFF305847C6046
:103B20007B68184607F10807BD4690BC704700BF88
:103B300090B482B000AFEFF300847C607B681846DD
:103B400007F10807BD4690BC704700BF90B482B033
:103B500000AFEFF303847C607B68184607F1080729
:103B6000BD4690BC704700BF90B400AFEFF309842E
:103B700023461846BD4690BC704700BF80B483B052
:103B800000AF78607B6883F3098807F10C07BD46B6
:103B900080BC704790B400AFEFF30884234618460A
:103BA000BD4690BC704700BF80B483B000AF786062
:103BB0007B6883F3088807F10C07BD4680BC70471B
:103BC00090B482B000AFEFF310847C607B6818463D
:103BD00007F10807BD4690BC704700BF80B483B0B2
:103BE00000AF78607B6883F3108807F10C07BD464F
:103BF00080BC704780B400AF61B6BD4680BC7047E2
:103C000080B400AF71B6BD4680BC704790B482B03E
:103C100000AFEFF312847C607B68184607F1080759
:103C2000BD4690BC704700BF80B483B000AF7860E1
:103C30007B6883F3118807F10C07BD4680BC704791
:103C400090B482B000AFEFF313847C607B681846B9
:103C500007F10807BD4690BC704700BF80B483B031
:103C600000AF78607B6883F3138807F10C07BD46CB
:103C700080BC704780B485B000AF78607B6803F08B
:103C80000703FB604FF46D43CEF20003DB68BB60BB
:103C9000BA684FF6FF031340BB60FB684FEA03228C
:103CA000BB68134343F0BE6343F42023BB604FF46F
:103CB0006D43CEF20003BA68DA6007F11407BD461F
:103CC00080BC704780B400AF4FF46D43CEF2000368
:103CD000DB6803F4E0634FEA13231846BD4680BC5B
:103CE000704700BF80B483B000AF0346FB714FF450
:103CF0006143CEF2000397F907204FEA5212F97997
:103D000001F01F014FF0010000FA01F143F8221009
:103D100007F10C07BD4680BC704700BF80B483B07C
:103D200000AF0346FB714FF46143CEF2000397F9F5
:103D300007204FEA5212F97901F01F014FF00100FC
:103D400000FA01F102F1200243F8221007F10C07FA
:103D5000BD4680BC704700BF80B483B000AF03464F
:103D6000FB714FF46143CEF2000397F907204FEA4D
:103D7000521202F1400253F822301A46FB7903F046
:103D80001F034FF0010101FA03F31340002B02D08F
:103D90004FF0010301E04FF00003184607F10C0754
:103DA000BD4680BC704700BF80B483B000AF0346FF
:103DB000FB714FF46143CEF2000397F907204FEAFD
:103DC0005212F97901F01F014FF0010000FA01F1E0
:103DD00002F1400243F8221007F10C07BD4680BCF7
:103DE000704700BF80B483B000AF0346FB714FF44F
:103DF0006143CEF2000397F907204FEA5212F97996
:103E000001F01F014FF0010000FA01F102F1600220
:103E100043F8221007F10C07BD4680BC704700BF75
:103E200080B483B000AF0346FB714FF46143CEF220
:103E3000000397F907204FEA521202F1800253F86B
:103E400022301A46FB7903F01F034FF0010101FAFB
:103E500003F31340002B02D04FF0010301E04FF0B9
:103E60000003184607F10C07BD4680BC704700BF31
:103E700080B483B000AF03463960FB7197F9073017
:103E8000002B10DA4FF46D43CEF20003FA7902F002
:103E90000F02A2F104013A68D2B24FEA0212D2B282
:103EA0005B181A760DE04FF46143CEF2000397F9E8
:103EB00007103A68D2B24FEA0212D2B25B1883F806
:103EC000002307F10C07BD4680BC704780B483B067
:103ED00000AF0346FB7197F90730002B0FDA4FF460
:103EE0006D43CEF20003FA7902F00F02A2F1040250
:103EF0009B181B7EDBB24FEA1313DBB20CE04FF4CE
:103F00006143CEF2000397F907209B1893F8003322
:103F1000DBB24FEA1313DBB2184607F10C07BD46BC
:103F200080BC704780B489B000AFF860B9607A6037
:103F3000FB6803F00703FB61FB69C3F10703042B74
:103F400028BF0423BB61FB6903F10403062B03D9DB
:103F5000FB69A3F1030301E04FF000037B61BB6940
:103F60004FF0010202FA03F303F1FF331A46BB6874
:103F70001A407B6902FA03F27B694FF0010101FAF2
:103F800003F303F1FF3319467B680B4013431846D4
:103F900007F12407BD4680BC704700BF80B489B0DC
:103FA00000AFF860B9607A603B60BB6803F007035C
:103FB000FB61FB69C3F10703042B28BF0423BB612A
:103FC000FB6903F10403062B03D9FB69A3F1030387
:103FD00001E04FF000037B617B69FA6822FA03F28B
:103FE000BB694FF0010101FA03F303F1FF331A40FB
:103FF0007B681A607B694FF0010202FA03F303F158
:10400000FF331A46FB681A403B681A6007F1240721
:10401000BD4680BC704700BF80B400AFBFF34F8F78
:104020004FF46D42CEF200024FF46D43CEF2000326
:10403000DB6803F4E0614FF00403C0F2FA530B4372
:10404000D360BFF34F8FFEE780B582B000AF7860DA
:104050007A686FF07F439A4202D94FF001031FE064
:104060004EF21003CEF200037A6822F07F4202F192
:10407000FF325A604FF0FF304FF00F01FFF7F8FEAC
:104080004EF21003CEF200034FF000029A604EF29F
:104090001003CEF200034FF007021A604FF0000346
:1040A000184607F10807BD4680BD00BF80B483B045
:1040B00000AF78604FF06043D3F8803E03F0010317
:1040C000DBB2002B13D04FF06043D3F8003E03F077
:1040D0000103DBB2002B0AD000BF4FF060431B6826
:1040E000002BFAD04FF060437A68D2B21A707B6826
:1040F000184607F10C07BD4680BC704780B483B0FA
:1041000000AF4FF0FF337B6040F63C33C2F2000358
:104110001A6845F6A523C5F6A5239A420ED040F6A7
:104120003C33C2F200031B687B6040F63C33C2F2B2
:10413000000345F6A522C5F6A5221A607B6818463D
:1041400007F10C07BD4680BC704700BF80B400AFCC
:1041500040F63C33C2F200031A6845F6A523C5F6C3
:10416000A5239A4202D14FF0000301E04FF0010372
:104170001846BD4680BC704780B58AB000AFF86075
:10418000B9607A604FF00403FB61FB69C3F1080377
:10419000BB61FB697B61BB6803F47F434FEA132378
:1041A0007B62BB68DBB23B62FB68DBB25BB218468A
:1041B000FFF7B4FDFB68DBB25BB21846FFF712FEF7
:1041C0007B694FF0010202FA03F31A463B6A9A42F6
:1041D00007D87B694FF0010202FA03F303F1FF33C2
:1041E0003B62BB694FF0010202FA03F31A467B6A95
:1041F0009A4207D8BB694FF0010202FA03F303F1B8
:10420000FF337B627B697A6A02FA03F23B6A1343EB
:104210003B61FB68DBB25BB218463969FFF728FEE9
:1042200007F12807BD4680BD80B582B000AF786039
:104230007B68DBB25BB21846FFF754FD07F1080755
:10424000BD4680BD80B582B000AF78607B68DBB2D0
:104250005BB21846FFF762FD07F10807BD4680BD57
:1042600080B582B000AF78607B68DBB25BB2184685
:10427000FFF79AFD07F10807BD4680BD80B582B003
:1042800000AF78607B68DBB25BB21846FFF7AAFD2F
:1042900007F10807BD4680BD80B483B000AF7860E9
:1042A0004FF0E0237A68C3F8002F07F10C07BD46F2
:1042B00080BC70470EB410B583B005AC54F8042B25
:1042C00081682346019400F091F803B0BDE81040E6
:1042D00003B070470FB410B540F2106382B004AC65
:1042E000C2F2000354F8042B186823468168019435
:1042F00000F07CF802B0BDE8104004B0704700BF89
:1043000038B50C460968054609B1FFF7F9FF28469C
:104310002146BDE8384002F035BE00BF224B70B5E3
:104320001B680546984232D0C36CABB100221646DA
:1043300053F8221009B907E021460C68284602F01C
:1043400021FE002CF8D1EB6C0136202E3246EFD145
:104350002846194602F016FE296C11B1284602F0D3
:1043600011FED5F8481159B105F5A676B14201D133
:1043700006E021460C68284602F004FEA642F8D169
:10438000696D11B1284602F0FDFDAB6B03B970BD3C
:10439000EB6B28469847D5F8E0120029F7D028465D
:1043A000BDE87040FFF7ACBF10060020F8B5074627
:1043B000B0B1D7F8486176B175686C1E08D4023583
:1043C00006EB850555F8043D013C9847631CF9D17F
:1043D0003668002EF0D1FB6B0BB138469847F8BD1C
:1043E000014B1F68E5E700BF100600202DE9F04FE4
:1043F000ADF5AC6D83B08B4614460F93099002F077
:1044000015FF0068002114900020CDE916011498D2
:1044100004F0DCF80999189019B18B6B002B00F0AF
:104420005681BBF80C60B3B299040AD4DBF864304F
:1044300046F4005623F40053CBF86430ABF80C601C
:10444000B3B21A0740F1C680DBF81020002A00F052
:10445000C18003F01A030A2B00F0CB8046F267609C
:104460000DF59A6100230C31C6F266600E93CDF80B
:104470004415CDF84C35CDF8483508941A931B9364
:104480000B930E461990089C2378002B00F0238193
:10449000252B00F020812246274601E0252B04D061
:1044A00012F8013F0137002BF8D1089C3B1B9BB150
:1044B000DDF84845DDF84C5501340898ED18072C17
:1044C00086E80900CDF84C55CDF8484500F3D88072
:1044D00008360B9CE4180B943B78002B00F0DE8030
:1044E00000240C947C1C089400200024089A8DF869
:1044F00067057B7807944FF0FF3720252B2001328A
:10450000A3F12001582900F2C382DFE811F0D302A1
:10451000C102C102DC02C102C102C102C102C10268
:10452000C1024003E600C1025D00EA00C1020401CD
:10453000F201F201F201F201F201F201F201F201E3
:10454000F201C102C102C102C102C102C102C10223
:10455000C102C102C10204020A01C1020A01C10270
:10456000C102C102C1029701C102C1029D01C10283
:10457000C102C102C102C102DD01C102C1021F02AA
:10458000C102C102C102C102C102C102C102C10213
:10459000C102C102440226030A010A010A013A03C8
:1045A0002603C102C102E202C102EC02FA020E03BA
:1045B0005C02C1026202C1029502C102C102A802EC
:1045C0000C9C0F9164420C94079C44F004040794E3
:1045D000137894E70998594601F0A4FA002841F0AD
:1045E0001482BBF80C60B3B203F01A030A2B7FF4F9
:1045F00035AFBBF80E502F043FF530AFDBF864E069
:10460000DBF81CC0DBF8248022460DF58E611DAC62
:104610004FF480670431CDF87444CDF8844426F01B
:104620000206002409980F9BADF88064CDF8D8E409
:10463000ADF88254CDF890C4CDF89884CDF87C7450
:10464000CDF88874CDF88C44FFF7D0FEA0420B90D3
:104650000BDB0DF58E610998043102F099FA0B9C81
:10466000002818BF4FF0FF340B94BDF88034580673
:1046700027D5BBF80C3043F04003ABF80C3020E0FA
:104680000DF5A862099859460432069303F0CEFF4F
:10469000069B68B90DF59A660C361AE7DDF84C35BD
:1046A00033B10DF5A86209985946043203F0BEFFF4
:1046B000BBF80C300B9C13F0400F18BF4FF0FF34C9
:1046C0000B940B985BB00DF5806DBDE8F08F08463C
:1046D00002F076FBA5E6089FFEE68DF867051378E5
:1046E0000DE7144614F8013B2A2B01F0E581A3F1F4
:1046F0003001092901F2A281002714F8013B07EBE0
:10470000870701EB4707A3F1300109292246F4D9B5
:1047100047EAE777F4E6079C44F0800407941378AF
:10472000EDE60F9C1393E31D089223F00703D3F8E3
:1047300000805D6808330F9342462B462946404669
:10474000CDE9162303F0C4FD01282946404640F078
:1047500093860022002305F0DBFF002840F0F68757
:104760009DF8673503240A9400241094AE4A139CE4
:10477000AE49472CCCBF8A469246079C24F0800461
:10478000079403240D940024159413B10A9C01345A
:104790000A94079B13F00203119302D00A9C02347F
:1047A0000A94079B13F08403129340F0FC810C9C45
:1047B0000A98271A002F40F3F681102FDDF84C5588
:1047C000DDF84845DFF86C822ADD23464FF01009FA
:1047D0004446DDF8248003E0103F0836102F1DDD2D
:1047E00001331035072B86E81002CDF84C55CDF873
:1047F0004835F1DD0DF5A86240465946043203F014
:1048000015FF00287FF454AF0DF59A66103F0C3663
:10481000102FDDF84C55DDF84835E1DCA0461C468C
:104820000134ED19072CC6F800807760CDF84C559F
:10483000CDF8484500F3E2840836B6E1079C44F021
:104840000804079413785AE6079C139344F0100465
:104850000794079C089214F0200300F059810F9CE4
:10486000E31D23F0070303F10804D3E900890F9443
:10487000002300208DF86705002F03DB079C24F040
:104880008004079458EA090040F09982002F40F014
:104890009682002B40F05284079CE20740F14E8440
:1048A00030238DF843350DF5A86A01230D930AF1E5
:1048B000030A0D9C9DF86735BC42B8BF3C460A947C
:1048C00000241097159460E7079C089244F01004A8
:1048D0000794079C1393A20640F1B4800F9CE31D3C
:1048E00023F0070303F10804D3E900890F9401239F
:1048F000BFE714460021A3F1300214F8013B01EB9D
:104900008101A3F1300CBCF1090F02EB41012246F9
:10491000F1D90C91F4E5079C089244F01004079437
:10492000079C1393A10640F11E810F9CE31D23F009
:104930000703D3E9000108330F9380468946002816
:1049400071F10002C0F28E85012395E7384C089280
:104950001A94079C1393A50640F189800F9CE31DD0
:1049600023F0070303F108040F94D3E90089079C9F
:10497000E00740F18B8058EA090000F08780139C23
:1049800030238DF86545079C8DF8643544F00204AA
:10499000079402236DE7012413930A940F9B0F9C45
:1049A0001B6804340F94002001240DF5A26A0892BC
:1049B0008DF81C358DF867050D940AF10C0A00235B
:1049C00010931593E5E6079C44F0200407941378B0
:1049D00095E50F9C00208DF86705D4F800A008929B
:1049E00013930434BAF1000F00F03887002F5046BB
:1049F000C0F2FC8600213A4602F032FF002800F0A7
:104A0000F987CAEB00000023B8420D90109300F321
:104A100092860D9820EAE0700F9400240A909DF889
:104A200067351594B1E600BF84B1400088B14000FD
:104A300094B14000C8B14000079C0892A2061393AD
:104A40003FF54CAF079CE30640F1B8850F9C236807
:104A5000043498460F944FF00009012309E79F4C56
:104A600008921A94079C1393A5063FF577AF079C0D
:104A7000E40640F1C5850F9C236804340F94079C1D
:104A80009846E0074FF000093FF575AF0223F0E6C6
:104A900008921393002B3FF401AE012400200DF582
:104AA000A26A0A948DF81C358DF867050D940AF1F9
:104AB0000C0A84E79DF86735002B40F09E858DF841
:104AC000675513781BE5079C44F00104079413789D
:104AD00015E5137811466C2B00F04F86079C44F0C7
:104AE000100407940BE5079C0892A40640F150853A
:104AF0000F9C0B9A2368D11704341A6059600F94E5
:104B0000C1E4079C139314F0200308927FF4A7AE2E
:104B1000079C14F0100200F02C850F9C22680434CE
:104B20000F9490464FF00009A3E60F9C0F9B0434AE
:104B30000F94079C1B6844F002040794674C08928A
:104B40009846782230238DF864354FF000098DF8AF
:104B500065251A94022313928BE6079C0892A106FE
:104B600013933FF5E2AE079CE20640F136850F9CB9
:104B7000236804344FEAE3790F949846184649466F
:104B8000DDE6079C44F0400407941378B7E40F9CDB
:104B900024680C940F9C211D0C9C002CFFF610AD7A
:104BA00013780F91ABE4DDF84C559DF867358BB168
:104BB000DDF848450DF5AC6307330134336001354A
:104BC0000123072C7360CDF84C55CDF8484500F310
:104BD00065820836119B8BB1DDF848450DF5AC6355
:104BE00004330134336002350223072C7360CDF89F
:104BF0004C55CDF8484500F361820836129C802C54
:104C000000F07481109B0D9C1F1B002F3DDD102FA9
:104C1000DDF84845DFF8C8802ADD23464FF010094B
:104C20004446DDF8248003E0103F0836102F1DDDD8
:104C300001331035072B86E81002CDF84C55CDF81E
:104C40004835F1DD0DF5A86240465946043203F0BF
:104C5000EDFC00287FF42CAD0DF59A66103F0C3664
:104C6000102FDDF84C55DDF84835E1DCA0461C4638
:104C70000134ED19072CC6F800807760CDF84C554B
:104C8000CDF8484500F3FA810836079CE30500F1AA
:104C9000C380DDF848450D9B0134ED18072CC6F89C
:104CA00000A07360CDF84C55CDF8484577DC083648
:104CB000079C630753D50C9C0A98271A002F4EDDDA
:104CC000102FDDF84845DFF81C8031DD23464FF01A
:104CD00010094446DDF824800AE000BFA8B1400076
:104CE00074B14000C8B14000103F0836102F1DDDE0
:104CF00001331035072B86E81002CDF84C55CDF85E
:104D00004835F1DD0DF5A86240465946043203F0FE
:104D10008DFC00287FF4CCAC0DF59A66103F0C3664
:104D2000102FDDF84C55DDF84835E1DCA0461C4677
:104D300001347D19072CC6F800807760CDF84C55FA
:104D4000CDF848450BDD0DF5A862099859460432A7
:104D500003F06CFC00287FF4ABACDDF84C550B9CE9
:104D60000A980C998842ACBF241864180B94002D43
:104D700040F0788100220DF59A66CDF848250C3672
:104D8000FFF781BBA0461C460134ED19072CC6F87D
:104D900000807760CDF84C55CDF8484587DD0DF59E
:104DA000A86209985946043203F040FC00287FF4B9
:104DB0007FAC0DF59A660C36DDF84C5578E7012B83
:104DC00000F0AA81022B00F089810DF5A86404345B
:104DD000234600E053464FEAD80242EA49724FEABE
:104DE000D90108F007008946904658EA090100F108
:104DF000300203F8012C03F1FF3AEBD10798C10709
:104E000006D5302A04D03022A3F1020A03F8022C7E
:104E1000CAEB04040D944CE5139C652C40F3AB8065
:104E2000DDE916010022002305F068FC002800F0EF
:104E30009181DDF84845C54B0134336001350123CC
:104E4000072C7360CDF84C55CDF8484500F3F68338
:104E50000836DDF858350E9CA34203DB079CE407B7
:104E60007FF526AFDDF848451898013414992D18C0
:104E7000072C31607060CDF84C55CDF8484500F3F3
:104E8000848408360E9C671E002F7FF711AF102F09
:104E9000DDF84845DFF8B8827FF776AF23464FF05C
:104EA00010094446DDF8248004E00836103F102F36
:104EB0007FF768AF01331035072B86E81002CDF875
:104EC0004C55CDF84835F0DD0DF5A8624046594601
:104ED000043203F0ABFB00287FF4EAAB0DF59A66D1
:104EE000DDF84C55DDF848350C36DFE70C9C0A98A8
:104EF000271A002F7FF786AE102FDDF84845DFF820
:104F000050822ADD23464FF010094446DDF8248004
:104F100003E0103F0836102F1DDD01331035072B3D
:104F200086E81002CDF84C55CDF84835F1DD0DF589
:104F3000A86240465946043203F078FB00287FF40B
:104F4000B7AB0DF59A66103F0C36102FDDF84C55B7
:104F5000DDF84835E1DCA0461C460134ED19072C8C
:104F6000C6F800807760CDF84C55CDF8484500F381
:104F70006882083646E60E9C012C40F31982DDF863
:104F80004845013501340123072CC6F800A07360A1
:104F9000CDF84C55CDF8484500F32F8208361898C7
:104FA000013414992D18072C31607060CDF84C55E0
:104FB000CDF8484500F333820836DDE916010022BA
:104FC000002305F09BFB002840F028810E9B013454
:104FD0005A1EAD180AF10103072C33607260CDF838
:104FE0004C55CDF848452BDC08361B9901346D181B
:104FF0000DF5AA63072C33607160CDF84C55CDF8E0
:1050000048457FF754AE0DF5A86209985946043219
:1050100003F00CFB00287FF44BAB0DF59A66DDF82E
:105020004C550C3644E6A0461C460134ED19072CBD
:10503000C6F800807760CDF84C55CDF84845D3DDF3
:105040000DF5A86209985946043203F0EFFA0028DA
:105050007FF42EAB0DF59A660C36DDF84C55DDF875
:105060004845C2E70DF5A86209985946043203F095
:10507000DDFA00283FF47EAEFFF71ABB0DF5A862FB
:1050800009985946043203F0D1FA00287FF410AB96
:105090000DF59A66DDF84C550C36F6E50DF5A8626F
:1050A00009985946043203F0C1FA00287FF400AB96
:1050B0000DF59A66DDF84C550C368BE50DF5A862BA
:1050C00009985946043203F0B1FA00287FF4F0AA97
:1050D0000DF59A66DDF84C550C368FE50DF5A86296
:1050E0001A9C03324FEA181308F00F0143EA0973C0
:1050F000615C4FEA191098468146117058EA09011F
:10510000924602F1FF32EDD10DF5A8630433CAEBEC
:1051100003030D93FFF7CDBBB8F10A0F79F100013E
:1051200080F0AE8008F1300801230DF5A86A8DF8F3
:1051300043850D930AF1030AFFF7BBBB0DF5A86A7F
:105140000D970AF1040AFFF7B4BB00BFC4B14000D9
:1051500074B14000DDF85875002F40F380820E9F37
:10516000159C0E9BA742A8BF27465344002F0D93C2
:105170000EDDDDF84845ED190134072CC6F800A016
:105180007760CDF84C55CDF8484500F336830836A6
:10519000159C27EAE777E71B002F40F3A180102F2B
:1051A000DDF84845DFF8B88740F33A8223464FF0F0
:1051B00010094446DDF8248004E00836103F102F23
:1051C00040F32C8201331035072B86E81002CDF80E
:1051D0004C55CDF84835F0DD0DF5A86240465946EE
:1051E000043203F023FA00287FF462AA0DF59A66D0
:1051F000DDF84C55DDF848350C36DFE70DF5A862D3
:1052000009985946043203F011FA00287FF450AA95
:105210000DF59A66DDF84C550C36C6E40E98471E1F
:10522000002F7FF7E2AE102FDFF834877FF7FDAE57
:1052300023464FF010094446DDF8248004E0083688
:10524000103F102F7FF7EFAE01331035072B86E8A4
:105250001002CDF84C55CDF84835F0DD0DF5A862BB
:1052600040465946043203F0E1F900287FF420AAB1
:105270000DF59A66DDF84C55DDF848350C36DFE75C
:105280000DF5A8640334404649460A22002305F080
:105290008FFA30322270404649460A22002305F038
:1052A00087FA8046894658EA0900A24604F1FF348D
:1052B000E9D10DF5A8630433CAEB03030D93FFF79F
:1052C000F8BA0DF5A86209985946043203F0AEF910
:1052D00000287FF4EDA90DF59A66DDF84C550C36E3
:1052E000DDF858350E9CA34251DB079CE1074ED4F4
:1052F000159C0AEB04020D9CA71A0E9CE31ABB42F4
:10530000B8BF1F46002F0DDDDDF84845ED1901340B
:10531000072C86E88400CDF84C55CDF8484500F3BD
:10532000A982083627EAE777DF1B002F7FF7C0AC9A
:10533000102FDDF84845DFF828867FF725AD234696
:105340004FF010094446DDF8248004E00836103F91
:10535000102F7FF717AD01331035072B86E81002A9
:10536000CDF84C55CDF84835F0DD0DF5A862404636
:105370005946043203F05AF900287FF499A90DF533
:105380009A66DDF84C55DDF848350C36DFE7DDF878
:1053900048451898013414992D18072C3160706015
:1053A000CDF84C55CDF8484500F3468208369FE7C6
:1053B000079CE2073FF5E3ADDDF8484501350134D0
:1053C0000123072CC6F800A07360CDF84C55CDF82A
:1053D00048457FF709AE0DF5A86209985946043291
:1053E00003F024F900287FF463A90DF59A66DDF82F
:1053F0004C55DDF848450C36F7E50DF5A8620998DF
:105400005946043203F012F900287FF451A90DF532
:105410009A66DDF84C55DDF848450C36BFE50DF5CC
:10542000A86209985946043203F000F900287FF475
:105430003FA90DF59A66DDF84C55DDF848450C3668
:10544000BBE50DF5A86209985946043203F0EEF861
:1054500000287FF42DA90DF59A66DDF84C550C3621
:10546000FFF7D0BB2D238DF86735D8F1000869EB25
:1054700049090123FFF700BA02F02AFF002800F0D3
:1054800045817B1C00F0E282139C672C00F0DA82DD
:10549000472C00F0D782079C002D44F480740794B9
:1054A000C0F2D68200241094139C662C00F069820E
:1054B000462C00F06682652C00F0D982452C00F065
:1054C000D682B94602218DE802020DF5AB61029148
:1054D0000DF5AA610C31039142460DF5AC612B46E6
:1054E0000998049100F024FC139C8246672C01D09B
:1054F000472C03D1079CE40740F1BC8213980AEBC8
:105500000904462800F05282404629460022002322
:1055100005F0F4F8002800F02782CDF86045CAEBCA
:1055200004040E94139C672C00F0BC81472C00F0FF
:10553000B981139CDDF85815662C40F0BD81002917
:1055400040F3CE82002F40F0C482079CE20700F1B6
:10555000C08221EAE1740A940D911591109C002CEF
:1055600000F09C812D238DF8673500231093FFF701
:105570000DB9079C14F040030F9C3FF4CFAAB4F878
:105580000080043413464FF000090F94FFF771B9FF
:10559000079CE0060AD4079C610607D50F9C236888
:1055A00004340F940B9C1C80FEF76DBF0F9C236886
:1055B00004340F940B9C1C60FEF765BF079C14F02D
:1055C000400F0F9C3FF443AAB4F800800434012339
:1055D0004FF000090F94FFF74CB9079C14F0400FEF
:1055E0000F9C3FF4C5AAB4F9008004344FEAE8796F
:1055F0000F9440464946FFF7A2B91378FEF77FBFE4
:10560000079C14F0400F0F9C3FF436AAB4F80080BA
:1056100004340F944FF00009FFF7A9B9A0461C46C7
:105620000134ED19072CC6F800807760CDF84C5591
:10563000CDF848453FF745AE083651E60DF5A8626E
:1056400009985946043202F0F1FF00287FF430A88F
:105650000DF59A66DDF84C550C36FFF7FABBDDF810
:105660004845BC4B0134336001350123072C73607E
:10567000CDF84C55CDF848456DDC08362FB90E9C59
:105680001CB9079CE0077FF513ABDDF84845189877
:10569000013414992D18072C31607060CDF84C55E9
:1056A000CDF8484500F3B68108367F42002F40F31D
:1056B0008E80102FDFF8A88240F3B18023464FF090
:1056C00010094446DDF8248004E00836103F102F0E
:1056D00040F3A38001331035072B86E81002CDF884
:1056E0004C55CDF84835F0DD0DF5A86240465946D9
:1056F000043202F09BFF00287EF4DAAF0DF59A66C3
:10570000DDF84C55DDF848350C36DFE70324924BC5
:105710000A94924A139C1090472CCCBF92469A460A
:10572000079C9DF8673524F08004079403240D94AA
:105730001590FFF72AB827EAE7700F9400240A9023
:105740009DF867350D971594FFF71FB82D238DF839
:105750006735FFF707B80DF5A86209985946043276
:1057600002F064FF00287EF4A3AF0DF59A66DDF821
:105770005875DDF84C550C3680E7079C013244F033
:10578000200407944B78FEF7BABE0DF5A86209987D
:105790005946043202F04AFF00287EF489AF0DF525
:1057A0009A66DDF84C550C36FFF76CBB0DF5A86218
:1057B00009985946043202F039FF00287EF478AF88
:1057C0000DF59A66DDF84C55DDF848450C360E9A15
:1057D0000134AD18072CC6F800A07260CDF84C5506
:1057E000CDF848457FF763AAFFF7D9BA02F0EEFE7D
:1057F00000230D901093FFF70DB90DF5A8620998DD
:105800005946043202F012FF00287EF451AF0DF524
:105810009A66DDF84C550C36BAE4A0461C460134B5
:10582000ED19072CC6F800807760CDF84C55CDF8FF
:105830004845BBDC0836CAE70DF5A8620998594609
:10584000043202F0F3FE00287EF432AF0DF59A66C2
:10585000DDF85835DDF84C550C3649E5062F28BFE4
:10586000062727EAE7700D970A900F94DFF8F4A057
:10587000FFF7A5B80DF5A86209985946043202F061
:10588000D5FE00287EF414AFDDF858350E9C0DF5DA
:105890009A66DDF84C55E31A0C3643E59DF86735FA
:1058A000FEF773BFDDF85815C81C02DB8F4280F28B
:1058B0009380139C023C13940139139C0029CDF86A
:1058C00058158DF85045C0F2E7802B238DF85135DF
:1058D000092940F3C2800DF58E640B34199F2046D0
:1058E00087FB0132CB17C3EBA20303EB8302A1EBCF
:1058F000420202F13005092B0246194600F8015D0B
:10590000EEDC3031C9B202F8021D944240F2F88058
:105910000DF5AA630DF58E6002330A3001E012F82E
:10592000011F03F8011B82421946F8D10DF5AA6345
:105930000E9CCB1A1C190D940E9C1B93012C40F34A
:10594000B0800D9B013323EAE3740A9400240D9385
:10595000159403E6C4B140008CB1400090B1400002
:1059600074B14000BCB14000DDF860359C4240F2AB
:10597000C580302203F8012BA342CDF86035F9D160
:10598000CDE503218DE882000DF5AB6102910DF5A7
:10599000AA610C31039142460DF5AC612B46099882
:1059A000049100F0C5F9B9468246C4199AF800304E
:1059B000302B03D0DDF85835E418A5E540462946DC
:1059C0000022002304F09AFE0028F3D1C9F101035C
:1059D000CDF85835E41897E50E9CA1424DDB079CA5
:1059E000E50752D54B1C23EAE3740A9467240D9310
:1059F0001394B2E527EAE77110900A919DF8673594
:105A00000F940D971590FEF7C0BE4FF0FF340B9426
:105A1000FEF757BE0DF5A86209985946043202F008
:105A200005FE00287EF444AE0DF59A66DDF8587543
:105A3000DDF84C55DDF848450C3636E622460027A1
:105A4000FEF75EBD002F08BF012724E5062722E5EB
:105A50002D2405F10045109426E5303130238DF8D2
:105A600053150DF5AA618DF8523504315EE707F143
:105A7000010927E5DDF8604551E500290E9CD4BFFA
:105A8000C1F1020301231B19ADE721EAE1740A9475
:105A900067240D91139460E52D2349428DF851350B
:105AA00016E7079C14F001037FF44BAF0D9C159390
:105AB00024EAE4740A9451E50F9953780F6804318D
:105AC000002F0F912246BEF61AAD4FF0FF37FEF7BA
:105AD00016BD0137CF1927EAE7740D970A943CE504
